{
  "abi": [
    {
      "inputs": [
        {
          "internalType": "address",
          "name": "expected",
          "type": "address"
        },
        {
          "internalType": "address",
          "name": "actual",
          "type": "address"
        }
      ],
      "name": "CallerNotAllowed",
      "type": "error"
    },
    {
      "inputs": [],
      "name": "CannotLeaveDueAccumulatedReferralCredits",
      "type": "error"
    },
    {
      "inputs": [],
      "name": "CantClaimFundsOnActiveProject",
      "type": "error"
    },
    {
      "inputs": [],
      "name": "ClosingTimeTooEarly",
      "type": "error"
    },
    {
      "inputs": [
        {
          "internalType": "uint256",
          "name": "timestamp",
          "type": "uint256"
        },
        {
          "internalType": "uint256",
          "name": "expiredTime",
          "type": "uint256"
        }
      ],
      "name": "CrowdtainerExpired",
      "type": "error"
    },
    {
      "inputs": [
        {
          "internalType": "uint256",
          "name": "received",
          "type": "uint256"
        },
        {
          "internalType": "uint256",
          "name": "maximum",
          "type": "uint256"
        }
      ],
      "name": "ExceededNumberOfItemsAllowed",
      "type": "error"
    },
    {
      "inputs": [],
      "name": "InsufficientBalance",
      "type": "error"
    },
    {
      "inputs": [],
      "name": "InvalidMaximumTarget",
      "type": "error"
    },
    {
      "inputs": [],
      "name": "InvalidMinimumTarget",
      "type": "error"
    },
    {
      "inputs": [],
      "name": "InvalidNumberOfQuantities",
      "type": "error"
    },
    {
      "inputs": [
        {
          "internalType": "enum CrowdtainerState",
          "name": "state",
          "type": "uint8"
        }
      ],
      "name": "InvalidOperationFor",
      "type": "error"
    },
    {
      "inputs": [],
      "name": "InvalidProductNumberAndPrices",
      "type": "error"
    },
    {
      "inputs": [
        {
          "internalType": "uint256",
          "name": "received",
          "type": "uint256"
        },
        {
          "internalType": "uint256",
          "name": "maximum",
          "type": "uint256"
        }
      ],
      "name": "InvalidReferralRate",
      "type": "error"
    },
    {
      "inputs": [
        {
          "internalType": "uint256",
          "name": "received",
          "type": "uint256"
        },
        {
          "internalType": "uint256",
          "name": "minimum",
          "type": "uint256"
        }
      ],
      "name": "MinimumPurchaseValueForReferralNotMet",
      "type": "error"
    },
    {
      "inputs": [],
      "name": "MinimumTargetHigherThanMaximum",
      "type": "error"
    },
    {
      "inputs": [
        {
          "internalType": "uint256",
          "name": "minimum",
          "type": "uint256"
        },
        {
          "internalType": "uint256",
          "name": "actual",
          "type": "uint256"
        }
      ],
      "name": "MinimumTargetNotReached",
      "type": "error"
    },
    {
      "inputs": [
        {
          "internalType": "uint256",
          "name": "timestamp",
          "type": "uint256"
        },
        {
          "internalType": "uint256",
          "name": "openingTime",
          "type": "uint256"
        }
      ],
      "name": "OpeningTimeNotReachedYet",
      "type": "error"
    },
    {
      "inputs": [],
      "name": "PriceTooLow",
      "type": "error"
    },
    {
      "inputs": [
        {
          "internalType": "uint256",
          "name": "received",
          "type": "uint256"
        },
        {
          "internalType": "uint256",
          "name": "maximum",
          "type": "uint256"
        }
      ],
      "name": "PurchaseExceedsMaximumTarget",
      "type": "error"
    },
    {
      "inputs": [],
      "name": "ReferralDisabledForProvidedCode",
      "type": "error"
    },
    {
      "inputs": [],
      "name": "ReferralInexistent",
      "type": "error"
    },
    {
      "inputs": [
        {
          "internalType": "uint256",
          "name": "received",
          "type": "uint256"
        },
        {
          "internalType": "uint256",
          "name": "maximum",
          "type": "uint256"
        }
      ],
      "name": "ReferralMinimumValueTooHigh",
      "type": "error"
    },
    {
      "inputs": [],
      "name": "ReferralRateNotMultipleOfTwo",
      "type": "error"
    },
    {
      "inputs": [],
      "name": "ShippingAgentAddressIsZero",
      "type": "error"
    },
    {
      "inputs": [],
      "name": "TokenAddressIsZero",
      "type": "error"
    },
    {
      "inputs": [],
      "name": "UserAlreadyJoined",
      "type": "error"
    },
    {
      "anonymous": false,
      "inputs": [
        {
          "indexed": true,
          "internalType": "address",
          "name": "owner",
          "type": "address"
        },
        {
          "indexed": true,
          "internalType": "address",
          "name": "shippingAgent",
          "type": "address"
        }
      ],
      "name": "CrowdtainerCreated",
      "type": "event"
    },
    {
      "anonymous": false,
      "inputs": [
        {
          "indexed": true,
          "internalType": "address",
          "name": "shippingAgent",
          "type": "address"
        },
        {
          "indexed": false,
          "internalType": "uint256",
          "name": "totalValueRaised",
          "type": "uint256"
        }
      ],
      "name": "CrowdtainerInDeliveryStage",
      "type": "event"
    },
    {
      "anonymous": false,
      "inputs": [
        {
          "indexed": true,
          "internalType": "contract IERC20",
          "name": "_token",
          "type": "address"
        },
        {
          "indexed": false,
          "internalType": "uint256",
          "name": "_openingTime",
          "type": "uint256"
        },
        {
          "indexed": false,
          "internalType": "uint256",
          "name": "_expireTime",
          "type": "uint256"
        },
        {
          "indexed": false,
          "internalType": "uint256",
          "name": "_targetMinimum",
          "type": "uint256"
        },
        {
          "indexed": false,
          "internalType": "uint256",
          "name": "_targetMaximum",
          "type": "uint256"
        },
        {
          "indexed": false,
          "internalType": "uint256[4]",
          "name": "_unitPricePerType",
          "type": "uint256[4]"
        },
        {
          "indexed": false,
          "internalType": "uint256",
          "name": "_referralRate",
          "type": "uint256"
        }
      ],
      "name": "CrowdtainerInitialized",
      "type": "event"
    },
    {
      "anonymous": false,
      "inputs": [
        {
          "indexed": true,
          "internalType": "address",
          "name": "wallet",
          "type": "address"
        },
        {
          "indexed": false,
          "internalType": "uint256",
          "name": "withdrawnAmount",
          "type": "uint256"
        }
      ],
      "name": "FundsClaimed",
      "type": "event"
    },
    {
      "anonymous": false,
      "inputs": [
        {
          "indexed": false,
          "internalType": "uint8",
          "name": "version",
          "type": "uint8"
        }
      ],
      "name": "Initialized",
      "type": "event"
    },
    {
      "anonymous": false,
      "inputs": [
        {
          "indexed": true,
          "internalType": "address",
          "name": "wallet",
          "type": "address"
        },
        {
          "indexed": false,
          "internalType": "uint256[4]",
          "name": "quantities",
          "type": "uint256[4]"
        },
        {
          "indexed": true,
          "internalType": "address",
          "name": "referrer",
          "type": "address"
        },
        {
          "indexed": false,
          "internalType": "uint256",
          "name": "finalCost",
          "type": "uint256"
        },
        {
          "indexed": false,
          "internalType": "uint256",
          "name": "appliedDiscount",
          "type": "uint256"
        },
        {
          "indexed": false,
          "internalType": "bool",
          "name": "referralEnabled",
          "type": "bool"
        }
      ],
      "name": "Joined",
      "type": "event"
    },
    {
      "anonymous": false,
      "inputs": [
        {
          "indexed": true,
          "internalType": "address",
          "name": "wallet",
          "type": "address"
        },
        {
          "indexed": false,
          "internalType": "uint256",
          "name": "withdrawnAmount",
          "type": "uint256"
        }
      ],
      "name": "Left",
      "type": "event"
    },
    {
      "anonymous": false,
      "inputs": [
        {
          "indexed": true,
          "internalType": "address",
          "name": "wallet",
          "type": "address"
        },
        {
          "indexed": false,
          "internalType": "uint256",
          "name": "withdrawnAmount",
          "type": "uint256"
        }
      ],
      "name": "RewardsClaimed",
      "type": "event"
    },
    {
      "inputs": [],
      "name": "abortProject",
      "outputs": [],
      "stateMutability": "nonpayable",
      "type": "function"
    },
    {
      "inputs": [],
      "name": "accumulatedRewards",
      "outputs": [
        {
          "internalType": "uint256",
          "name": "",
          "type": "uint256"
        }
      ],
      "stateMutability": "view",
      "type": "function"
    },
    {
      "inputs": [
        {
          "internalType": "address",
          "name": "",
          "type": "address"
        }
      ],
      "name": "accumulatedRewardsOf",
      "outputs": [
        {
          "internalType": "uint256",
          "name": "",
          "type": "uint256"
        }
      ],
      "stateMutability": "view",
      "type": "function"
    },
    {
      "inputs": [],
      "name": "claimFunds",
      "outputs": [],
      "stateMutability": "nonpayable",
      "type": "function"
    },
    {
      "inputs": [],
      "name": "claimRewards",
      "outputs": [],
      "stateMutability": "nonpayable",
      "type": "function"
    },
    {
      "inputs": [],
      "name": "crowdtainerState",
      "outputs": [
        {
          "internalType": "enum CrowdtainerState",
          "name": "",
          "type": "uint8"
        }
      ],
      "stateMutability": "view",
      "type": "function"
    },
    {
      "inputs": [
        {
          "internalType": "address",
          "name": "",
          "type": "address"
        }
      ],
      "name": "discountForUser",
      "outputs": [
        {
          "internalType": "uint256",
          "name": "",
          "type": "uint256"
        }
      ],
      "stateMutability": "view",
      "type": "function"
    },
    {
      "inputs": [],
      "name": "expireTime",
      "outputs": [
        {
          "internalType": "uint256",
          "name": "",
          "type": "uint256"
        }
      ],
      "stateMutability": "view",
      "type": "function"
    },
    {
      "inputs": [],
      "name": "getPaidAndDeliver",
      "outputs": [],
      "stateMutability": "nonpayable",
      "type": "function"
    },
    {
      "inputs": [
        {
          "internalType": "address",
          "name": "_owner",
          "type": "address"
        },
        {
          "components": [
            {
              "internalType": "address",
              "name": "shippingAgent",
              "type": "address"
            },
            {
              "internalType": "uint256",
              "name": "openingTime",
              "type": "uint256"
            },
            {
              "internalType": "uint256",
              "name": "expireTime",
              "type": "uint256"
            },
            {
              "internalType": "uint256",
              "name": "targetMinimum",
              "type": "uint256"
            },
            {
              "internalType": "uint256",
              "name": "targetMaximum",
              "type": "uint256"
            },
            {
              "internalType": "uint256[4]",
              "name": "unitPricePerType",
              "type": "uint256[4]"
            },
            {
              "internalType": "uint256",
              "name": "referralRate",
              "type": "uint256"
            },
            {
              "internalType": "uint256",
              "name": "referralEligibilityValue",
              "type": "uint256"
            },
            {
              "internalType": "address",
              "name": "token",
              "type": "address"
            }
          ],
          "internalType": "struct CampaignData",
          "name": "_campaignData",
          "type": "tuple"
        }
      ],
      "name": "initialize",
      "outputs": [],
      "stateMutability": "nonpayable",
      "type": "function"
    },
    {
      "inputs": [],
      "name": "invariant",
      "outputs": [],
      "stateMutability": "view",
      "type": "function"
    },
    {
      "inputs": [
        {
          "internalType": "address",
          "name": "_wallet",
          "type": "address"
        },
        {
          "internalType": "uint256[4]",
          "name": "_quantities",
          "type": "uint256[4]"
        },
        {
          "internalType": "bool",
          "name": "_enableReferral",
          "type": "bool"
        },
        {
          "internalType": "address",
          "name": "_referrer",
          "type": "address"
        }
      ],
      "name": "join",
      "outputs": [],
      "stateMutability": "nonpayable",
      "type": "function"
    },
    {
      "inputs": [
        {
          "internalType": "address",
          "name": "_wallet",
          "type": "address"
        }
      ],
      "name": "leave",
      "outputs": [],
      "stateMutability": "nonpayable",
      "type": "function"
    },
    {
      "inputs": [],
      "name": "numberOfProducts",
      "outputs": [
        {
          "internalType": "uint256",
          "name": "",
          "type": "uint256"
        }
      ],
      "stateMutability": "view",
      "type": "function"
    },
    {
      "inputs": [],
      "name": "openingTime",
      "outputs": [
        {
          "internalType": "uint256",
          "name": "",
          "type": "uint256"
        }
      ],
      "stateMutability": "view",
      "type": "function"
    },
    {
      "inputs": [],
      "name": "owner",
      "outputs": [
        {
          "internalType": "address",
          "name": "",
          "type": "address"
        }
      ],
      "stateMutability": "view",
      "type": "function"
    },
    {
      "inputs": [],
      "name": "referralEligibilityValue",
      "outputs": [
        {
          "internalType": "uint256",
          "name": "",
          "type": "uint256"
        }
      ],
      "stateMutability": "view",
      "type": "function"
    },
    {
      "inputs": [],
      "name": "referralRate",
      "outputs": [
        {
          "internalType": "uint256",
          "name": "",
          "type": "uint256"
        }
      ],
      "stateMutability": "view",
      "type": "function"
    },
    {
      "inputs": [
        {
          "internalType": "address",
          "name": "",
          "type": "address"
        }
      ],
      "name": "referrerOfReferee",
      "outputs": [
        {
          "internalType": "address",
          "name": "",
          "type": "address"
        }
      ],
      "stateMutability": "view",
      "type": "function"
    },
    {
      "inputs": [],
      "name": "shippingAgent",
      "outputs": [
        {
          "internalType": "address",
          "name": "",
          "type": "address"
        }
      ],
      "stateMutability": "view",
      "type": "function"
    },
    {
      "inputs": [],
      "name": "targetMaximum",
      "outputs": [
        {
          "internalType": "uint256",
          "name": "",
          "type": "uint256"
        }
      ],
      "stateMutability": "view",
      "type": "function"
    },
    {
      "inputs": [],
      "name": "targetMinimum",
      "outputs": [
        {
          "internalType": "uint256",
          "name": "",
          "type": "uint256"
        }
      ],
      "stateMutability": "view",
      "type": "function"
    },
    {
      "inputs": [],
      "name": "token",
      "outputs": [
        {
          "internalType": "contract IERC20",
          "name": "",
          "type": "address"
        }
      ],
      "stateMutability": "view",
      "type": "function"
    },
    {
      "inputs": [],
      "name": "totalValueRaised",
      "outputs": [
        {
          "internalType": "uint256",
          "name": "",
          "type": "uint256"
        }
      ],
      "stateMutability": "view",
      "type": "function"
    },
    {
      "inputs": [
        {
          "internalType": "uint256",
          "name": "",
          "type": "uint256"
        }
      ],
      "name": "unitPricePerType",
      "outputs": [
        {
          "internalType": "uint256",
          "name": "",
          "type": "uint256"
        }
      ],
      "stateMutability": "view",
      "type": "function"
    }
  ],
  "bytecode": {
    "object": "0x608060405234801561001057600080fd5b506001600055612bd4806100256000396000f3fe608060405234801561001057600080fd5b50600436106101a35760003560e01c80638da5cb5b116100ee578063b7a8807c11610097578063c66301b211610071578063c66301b21461033b578063cf08405614610344578063eb6ced1614610364578063fc0c546a1461038457600080fd5b8063b7a8807c1461030c578063bc6894fe14610315578063bedf77a61461032857600080fd5b8063a053ce1f116100c8578063a053ce1f146102f3578063ac307773146102fc578063b03a9a051461030457600080fd5b80638da5cb5b146102ba57806390ffbe90146102e15780639c81ff6b146102ea57600080fd5b8063312ee7fa1161015057806353b476561161012a57806353b47656146102885780637855d30c146102915780638831c8dc146102b157600080fd5b8063312ee7fa14610264578063372500ab1461026d578063464eff501461027557600080fd5b80632748608f116101815780632748608f146101e057806327949dab1461023b578063310a1ee31461025b57600080fd5b80630e6137cf146101a857806319cc6492146101b25780631e1b2573146101ba575b600080fd5b6101b06103a4565b005b6101b0610577565b6101cd6101c836600461274f565b610663565b6040519081526020015b60405180910390f35b6102166101ee36600461278c565b60066020526000908152604090205473ffffffffffffffffffffffffffffffffffffffff1681565b60405173ffffffffffffffffffffffffffffffffffffffff90911681526020016101d7565b6101cd61024936600461278c565b60046020526000908152604090205481565b6101cd600c5481565b6101cd60075481565b6101b061067a565b6101b06102833660046127b5565b610771565b6101cd600e5481565b6001546102a49062010000900460ff1681565b6040516101d7919061283f565b6101cd600a5481565b600154610216906301000000900473ffffffffffffffffffffffffffffffffffffffff1681565b6101cd600d5481565b6101cd60055481565b6101cd60145481565b6101b061133d565b6101b0611653565b6101cd600b5481565b6101b0610323366004612880565b6116e6565b6101b061033636600461278c565b611cdd565b6101cd600f5481565b6002546102169073ffffffffffffffffffffffffffffffffffffffff1681565b6101cd61037236600461278c565b60096020526000908152604090205481565b6015546102169073ffffffffffffffffffffffffffffffffffffffff1681565b60025460015473ffffffffffffffffffffffffffffffffffffffff918216916301000000909104166105635760016103db81611ff8565b6002600054141561044d576040517f08c379a000000000000000000000000000000000000000000000000000000000815260206004820152601f60248201527f5265656e7472616e637947756172643a207265656e7472616e742063616c6c0060448201526064015b60405180910390fd5b60026000908155600554600a54610464919061290e565b9050600d548110156104b157600d54600a546040517f59dc328700000000000000000000000000000000000000000000000000000000815260048101929092526024820152604401610444565b600180547fffffffffffffffffffffffffffffffffffffffffffffffffffffffffff00ffff166202000017905560025460155461050a9173ffffffffffffffffffffffffffffffffffffffff91821691309116846120a7565b60025460405182815273ffffffffffffffffffffffffffffffffffffffff909116907f26dc6b7e309de29eb24d6830d1cc0f60c6b5d25d5d4830ce8ba77eb55468f0dc9060200160405180910390a25050600160005550565b61056c81612142565b60016103db81611ff8565b60025460015473ffffffffffffffffffffffffffffffffffffffff9182169163010000009091041661064f5760016105ae81611ff8565b6002600054141561061b576040517f08c379a000000000000000000000000000000000000000000000000000000000815260206004820152601f60248201527f5265656e7472616e637947756172643a207265656e7472616e742063616c6c006044820152606401610444565b5050600180547fffffffffffffffffffffffffffffffffffffffffffffffffffffffffff00ffff1662030000178155600055565b61065881612142565b60016105ae81611ff8565b6010816004811061067357600080fd5b0154905081565b600260005414156106e7576040517f08c379a000000000000000000000000000000000000000000000000000000000815260206004820152601f60248201527f5265656e7472616e637947756172643a207265656e7472616e742063616c6c006044820152606401610444565b600260008190556106f781611ff8565b336000818152600460205260408120805491905560155490916107339173ffffffffffffffffffffffffffffffffffffffff16903090846120a7565b60405181815233907ffc30cddea38e2bf4d6ea7d3f9ed3b6ad7f176419f4963bd81318067a4aee73fe9060200160405180910390a250506001600055565b6001546301000000900473ffffffffffffffffffffffffffffffffffffffff1680610d865760016107a181611ff8565b6107a96121d1565b60026000541415610816576040517f08c379a000000000000000000000000000000000000000000000000000000000815260206004820152601f60248201527f5265656e7472616e637947756172643a207265656e7472616e742063616c6c006044820152606401610444565b60026000556001546301000000900473ffffffffffffffffffffffffffffffffffffffff166108485761084886612142565b73ffffffffffffffffffffffffffffffffffffffff8616600090815260086020908152604080832080547fffffffffffffffffffffffffffffffffffffffffffffffffffffffffffffff00168815151790556003909152902054156108d9576040517ff45d43bf00000000000000000000000000000000000000000000000000000000815260040160405180910390fd5b6000805b600f548110156109b05760c88782600481106108fb576108fb612925565b6020020135111561095c5786816004811061091857610918612925565b602002013560c86040517f3f257233000000000000000000000000000000000000000000000000000000008152600401610444929190918252602082015260400190565b86816004811061096e5761096e612925565b60200201356010826004811061098657610986612925565b01546109929190612954565b61099c9083612991565b9150806109a8816129a9565b9150506108dd565b50620f42408110156109ee576040517f87af7e9300000000000000000000000000000000000000000000000000000000815260040160405180910390fd5b8480156109fc575060075481105b15610a41576007546040517f66338f96000000000000000000000000000000000000000000000000000000008152610444918391600401918252602082015260400190565b600073ffffffffffffffffffffffffffffffffffffffff851615801590610a6a57506000601454115b15610b2e5773ffffffffffffffffffffffffffffffffffffffff8516600090815260036020526040902054610acb576040517f55fbf60100000000000000000000000000000000000000000000000000000000815260040160405180910390fd5b73ffffffffffffffffffffffffffffffffffffffff851660009081526008602052604090205460ff16610b2a576040517fd74006f400000000000000000000000000000000000000000000000000000000815260040160405180910390fd5b5060015b60008115610c4e576002606460145485610b489190612954565b610b529190612a11565b610b5c9190612a11565b9050610b68818461290e565b73ffffffffffffffffffffffffffffffffffffffff8a16600090815260096020526040812080549295508392909190610ba2908490612991565b909155505073ffffffffffffffffffffffffffffffffffffffff861660009081526004602052604081208054839290610bdc908490612991565b925050819055508060056000828254610bf59190612991565b909155505073ffffffffffffffffffffffffffffffffffffffff898116600090815260066020526040902080547fffffffffffffffffffffffff0000000000000000000000000000000000000000169188169190911790555b73ffffffffffffffffffffffffffffffffffffffff89166000908152600360205260408120849055600a8054859290610c88908490612991565b9091555050600e54600554600a54610ca0919061290e565b1115610ce757600a54600e546040517fad9d04bc00000000000000000000000000000000000000000000000000000000815260048101929092526024820152604401610444565b601554610d0c9073ffffffffffffffffffffffffffffffffffffffff168a30866120a7565b8573ffffffffffffffffffffffffffffffffffffffff168973ffffffffffffffffffffffffffffffffffffffff167f6d47cedf2ff836145796116ccd8b27cb538f16621a1f844f0d1c2a58e23a499a8a86858c604051610d6f9493929190612a25565b60405180910390a350506001600055506113369050565b610d8f81612142565b6001610d9a81611ff8565b610da26121d1565b60026000541415610e0f576040517f08c379a000000000000000000000000000000000000000000000000000000000815260206004820152601f60248201527f5265656e7472616e637947756172643a207265656e7472616e742063616c6c006044820152606401610444565b60026000556001546301000000900473ffffffffffffffffffffffffffffffffffffffff16610e4157610e4186612142565b73ffffffffffffffffffffffffffffffffffffffff8616600090815260086020908152604080832080547fffffffffffffffffffffffffffffffffffffffffffffffffffffffffffffff0016881515179055600390915290205415610ed2576040517ff45d43bf00000000000000000000000000000000000000000000000000000000815260040160405180910390fd5b6000805b600f54811015610f655760c8878260048110610ef457610ef4612925565b60200201351115610f115786816004811061091857610918612925565b868160048110610f2357610f23612925565b602002013560108260048110610f3b57610f3b612925565b0154610f479190612954565b610f519083612991565b915080610f5d816129a9565b915050610ed6565b50620f4240811015610fa3576040517f87af7e9300000000000000000000000000000000000000000000000000000000815260040160405180910390fd5b848015610fb1575060075481105b15610ff6576007546040517f66338f96000000000000000000000000000000000000000000000000000000008152610444918391600401918252602082015260400190565b600073ffffffffffffffffffffffffffffffffffffffff85161580159061101f57506000601454115b156110e35773ffffffffffffffffffffffffffffffffffffffff8516600090815260036020526040902054611080576040517f55fbf60100000000000000000000000000000000000000000000000000000000815260040160405180910390fd5b73ffffffffffffffffffffffffffffffffffffffff851660009081526008602052604090205460ff166110df576040517fd74006f400000000000000000000000000000000000000000000000000000000815260040160405180910390fd5b5060015b600081156112035760026064601454856110fd9190612954565b6111079190612a11565b6111119190612a11565b905061111d818461290e565b73ffffffffffffffffffffffffffffffffffffffff8a16600090815260096020526040812080549295508392909190611157908490612991565b909155505073ffffffffffffffffffffffffffffffffffffffff861660009081526004602052604081208054839290611191908490612991565b9250508190555080600560008282546111aa9190612991565b909155505073ffffffffffffffffffffffffffffffffffffffff898116600090815260066020526040902080547fffffffffffffffffffffffff0000000000000000000000000000000000000000169188169190911790555b73ffffffffffffffffffffffffffffffffffffffff89166000908152600360205260408120849055600a805485929061123d908490612991565b9091555050600e54600554600a54611255919061290e565b111561129c57600a54600e546040517fad9d04bc00000000000000000000000000000000000000000000000000000000815260048101929092526024820152604401610444565b6015546112c19073ffffffffffffffffffffffffffffffffffffffff168a30866120a7565b8573ffffffffffffffffffffffffffffffffffffffff168973ffffffffffffffffffffffffffffffffffffffff167f6d47cedf2ff836145796116ccd8b27cb538f16621a1f844f0d1c2a58e23a499a8a86858c6040516113249493929190612a25565b60405180910390a35050600160005550505b5050505050565b600260005414156113aa576040517f08c379a000000000000000000000000000000000000000000000000000000000815260206004820152601f60248201527f5265656e7472616e637947756172643a207265656e7472616e742063616c6c006044820152606401610444565b6002600055600b544210156113f857600b546040517f812d154e0000000000000000000000000000000000000000000000000000000081524260048201526024810191909152604401610444565b600060015462010000900460ff16600381111561141757611417612810565b141561145c576001546040517f64c3f1f80000000000000000000000000000000000000000000000000000000081526104449162010000900460ff169060040161283f565b600260015462010000900460ff16600381111561147b5761147b612810565b14156114c0576001546040517f64c3f1f80000000000000000000000000000000000000000000000000000000081526104449162010000900460ff169060040161283f565b600c54421180156114e15750600d54600554600a546114df919061290e565b105b1561151457600180547fffffffffffffffffffffffffffffffffffffffffffffffffffffffffff00ffff16620300001790555b600360015462010000900460ff16600381111561153357611533612810565b1461156a576040517f9b61206300000000000000000000000000000000000000000000000000000000815260040160405180910390fd5b33600090815260036020908152604080832080549084905560098352818420849055600690925290912080547fffffffffffffffffffffffff0000000000000000000000000000000000000000169055806115f1576040517ff4d678b800000000000000000000000000000000000000000000000000000000815260040160405180910390fd5b6015546116169073ffffffffffffffffffffffffffffffffffffffff163033846120a7565b60405181815233907fa65a8b4f7f65a1063243d7f7e9e4da00ff767599acf21549ef2548a45d1695ae9060200160405180910390a2506001600055565b600060015462010000900460ff16600381111561167257611672612810565b146116e457610e10600b546116879190612991565b600c54101561169857611698612a4b565b6000600e54116116aa576116aa612a4b565b600e54600d5411156116be576116be612a4b565b603260145411156116d1576116d1612a4b565b600a54600554106116e4576116e4612a4b565b565b60006116f26001612263565b9050801561172757600180547fffffffffffffffffffffffffffffffffffffffffffffffffffffffffffff00ff166101001790555b600061173281611ff8565b600180547fffffffffffffffffff0000000000000000000000000000000000000000ffffff16630100000073ffffffffffffffffffffffffffffffffffffffff871602179055600061178c6101808501610160860161278c565b73ffffffffffffffffffffffffffffffffffffffff1614156117da576040517fdc2e5e8d00000000000000000000000000000000000000000000000000000000815260040160405180910390fd5b60006117e9602085018561278c565b73ffffffffffffffffffffffffffffffffffffffff161415611837576040517fc7b2492000000000000000000000000000000000000000000000000000000000815260040160405180910390fd5b8260600135836101400135111561188b576040517f1e5c82a5000000000000000000000000000000000000000000000000000000008152610140840135600482015260608401356024820152604401610444565b61189b6002610120850135612a7a565b156118d2576040517f84d68d9d00000000000000000000000000000000000000000000000000000000815260040160405180910390fd5b6118e2610e106020850135612991565b8360400135101561191f576040517f3c91bee800000000000000000000000000000000000000000000000000000000815260040160405180910390fd5b608083013561195a576040517fa4c54a6300000000000000000000000000000000000000000000000000000000815260040160405180910390fd5b6060830135611995576040517f7a61fdf700000000000000000000000000000000000000000000000000000000815260040160405180910390fd5b8260800135836060013511156119d7576040517f02179b6c00000000000000000000000000000000000000000000000000000000815260040160405180910390fd5b60005b6004811015611a84578360a00181600481106119f8576119f8612925565b6020020135611a0657611a84565b620f42408460a0018260048110611a1f57611a1f612925565b60200201351015611a5c576040517fdbbbe82200000000000000000000000000000000000000000000000000000000815260040160405180910390fd5b600f8054906000611a6c836129a9565b91905055508080611a7c906129a9565b9150506119da565b50600f54611abe576040517fb0e7ef7b00000000000000000000000000000000000000000000000000000000815260040160405180910390fd5b60328361012001351115611b0c576040517f9088a55b000000000000000000000000000000000000000000000000000000008152610120840135600482015260326024820152604401610444565b611b19602084018461278c565b600280547fffffffffffffffffffffffff00000000000000000000000000000000000000001673ffffffffffffffffffffffffffffffffffffffff929092169190911790556020830135600b556040830135600c556060830135600d556080830135600e55611b8e601060a0850160046126fc565b50610120830135601455610140830135600755611bb36101808401610160850161278c565b601580547fffffffffffffffffffffffff00000000000000000000000000000000000000001673ffffffffffffffffffffffffffffffffffffffff929092169182179055600180547fffffffffffffffffffffffffffffffffffffffffffffffffffffffffff00ffff1662010000179055600b54600c54600d54600e546014546040517fb9c39e9794e0846a2b44dc834e2701f75acd7c1a7f1ee89a38d0ed38d870523b95611c6d95909490939092909160109190612a8e565b60405180910390a2508015611cd857600180547fffffffffffffffffffffffffffffffffffffffffffffffffffffffffffff00ff1681556040519081527f7f26b83ff96e1f2b6a682f133852f6798a09c465da95921460cefb38474024989060200160405180910390a15b505050565b6001546301000000900473ffffffffffffffffffffffffffffffffffffffff1680611fe8576001611d0d81611ff8565b611d156121d1565b60026000541415611d82576040517f08c379a000000000000000000000000000000000000000000000000000000000815260206004820152601f60248201527f5265656e7472616e637947756172643a207265656e7472616e742063616c6c006044820152606401610444565b60026000556001546301000000900473ffffffffffffffffffffffffffffffffffffffff16611db457611db483612142565b73ffffffffffffffffffffffffffffffffffffffff80841660009081526003602090815260408083205460068352818420546009845282852054951680855260049093529083208054919492939091611e0e90849061290e565b909155505073ffffffffffffffffffffffffffffffffffffffff851660009081526004602052604090205415611e70576040517fd273722600000000000000000000000000000000000000000000000000000000815260040160405180910390fd5b73ffffffffffffffffffffffffffffffffffffffff8516600090815260036020526040812054600a805491929091611ea990849061290e565b909155505073ffffffffffffffffffffffffffffffffffffffff85166000908152600960205260408120546005805491929091611ee790849061290e565b909155505073ffffffffffffffffffffffffffffffffffffffff8086166000908152600360209081526040808320839055600982528083208390556006825280832080547fffffffffffffffffffffffff00000000000000000000000000000000000000001690556008909152902080547fffffffffffffffffffffffffffffffffffffffffffffffffffffffffffffff00169055601554611f8c91163087856120a7565b8473ffffffffffffffffffffffffffffffffffffffff167faf65ecdc8a0d3ea90c8344c89e7001864fddf59dfdf41da2994463fe99049a5983604051611fd491815260200190565b60405180910390a250506001600055505050565b611ff181612142565b6001611d0d815b80600381111561200a5761200a612810565b60015462010000900460ff16600381111561202757612027612810565b1461206b576001546040517f64c3f1f80000000000000000000000000000000000000000000000000000000081526104449162010000900460ff169060040161283f565b80600381111561207d5761207d612810565b60015462010000900460ff16600381111561209a5761209a612810565b146120a457600080fd5b50565b6040805173ffffffffffffffffffffffffffffffffffffffff85811660248301528416604482015260648082018490528251808303909101815260849091019091526020810180517bffffffffffffffffffffffffffffffffffffffffffffffffffffffff167f23b872dd0000000000000000000000000000000000000000000000000000000017905261213c9085906123ee565b50505050565b3373ffffffffffffffffffffffffffffffffffffffff8216146121af576040517f50a5f40500000000000000000000000000000000000000000000000000000000815233600482015273ffffffffffffffffffffffffffffffffffffffff82166024820152604401610444565b3373ffffffffffffffffffffffffffffffffffffffff8216146120a457600080fd5b600b5442101561221a57600b546040517f812d154e0000000000000000000000000000000000000000000000000000000081524260048201526024810191909152604401610444565b600c544211156116e457600c546040517fb73065c10000000000000000000000000000000000000000000000000000000081524260048201526024810191909152604401610444565b600154600090610100900460ff161561231c578160ff1660011480156122885750303b155b612314576040517f08c379a000000000000000000000000000000000000000000000000000000000815260206004820152602e60248201527f496e697469616c697a61626c653a20636f6e747261637420697320616c72656160448201527f647920696e697469616c697a65640000000000000000000000000000000000006064820152608401610444565b506000919050565b60015460ff8084169116106123b3576040517f08c379a000000000000000000000000000000000000000000000000000000000815260206004820152602e60248201527f496e697469616c697a61626c653a20636f6e747261637420697320616c72656160448201527f647920696e697469616c697a65640000000000000000000000000000000000006064820152608401610444565b50600180547fffffffffffffffffffffffffffffffffffffffffffffffffffffffffffffff001660ff9290921691909117815590565b919050565b6000612450826040518060400160405280602081526020017f5361666545524332303a206c6f772d6c6576656c2063616c6c206661696c65648152508573ffffffffffffffffffffffffffffffffffffffff166124fa9092919063ffffffff16565b805190915015611cd8578080602001905181019061246e9190612ae8565b611cd8576040517f08c379a000000000000000000000000000000000000000000000000000000000815260206004820152602a60248201527f5361666545524332303a204552433230206f7065726174696f6e20646964206e60448201527f6f742073756363656564000000000000000000000000000000000000000000006064820152608401610444565b60606125098484600085612513565b90505b9392505050565b6060824710156125a5576040517f08c379a000000000000000000000000000000000000000000000000000000000815260206004820152602660248201527f416464726573733a20696e73756666696369656e742062616c616e636520666f60448201527f722063616c6c00000000000000000000000000000000000000000000000000006064820152608401610444565b73ffffffffffffffffffffffffffffffffffffffff85163b612623576040517f08c379a000000000000000000000000000000000000000000000000000000000815260206004820152601d60248201527f416464726573733a2063616c6c20746f206e6f6e2d636f6e74726163740000006044820152606401610444565b6000808673ffffffffffffffffffffffffffffffffffffffff16858760405161264c9190612b31565b60006040518083038185875af1925050503d8060008114612689576040519150601f19603f3d011682016040523d82523d6000602084013e61268e565b606091505b509150915061269e8282866126a9565b979650505050505050565b606083156126b857508161250c565b8251156126c85782518084602001fd5b816040517f08c379a00000000000000000000000000000000000000000000000000000000081526004016104449190612b4d565b826004810192821561272a579160200282015b8281111561272a57823582559160200191906001019061270f565b5061273692915061273a565b5090565b5b80821115612736576000815560010161273b565b60006020828403121561276157600080fd5b5035919050565b803573ffffffffffffffffffffffffffffffffffffffff811681146123e957600080fd5b60006020828403121561279e57600080fd5b61250c82612768565b80151581146120a457600080fd5b60008060008060e085870312156127cb57600080fd5b6127d485612768565b935060a08501868111156127e757600080fd5b602086019350356127f7816127a7565b915061280560c08601612768565b905092959194509250565b7f4e487b7100000000000000000000000000000000000000000000000000000000600052602160045260246000fd5b602081016004831061287a577f4e487b7100000000000000000000000000000000000000000000000000000000600052602160045260246000fd5b91905290565b6000808284036101a081121561289557600080fd5b61289e84612768565b92506101807fffffffffffffffffffffffffffffffffffffffffffffffffffffffffffffffe0820112156128d157600080fd5b506020830190509250929050565b7f4e487b7100000000000000000000000000000000000000000000000000000000600052601160045260246000fd5b600082821015612920576129206128df565b500390565b7f4e487b7100000000000000000000000000000000000000000000000000000000600052603260045260246000fd5b6000817fffffffffffffffffffffffffffffffffffffffffffffffffffffffffffffffff048311821515161561298c5761298c6128df565b500290565b600082198211156129a4576129a46128df565b500190565b60007fffffffffffffffffffffffffffffffffffffffffffffffffffffffffffffffff8214156129db576129db6128df565b5060010190565b7f4e487b7100000000000000000000000000000000000000000000000000000000600052601260045260246000fd5b600082612a2057612a206129e2565b500490565b60e081016080868337608082019490945260a0810192909252151560c090910152919050565b7f4e487b7100000000000000000000000000000000000000000000000000000000600052600160045260246000fd5b600082612a8957612a896129e2565b500690565b60006101208201905087825260208781840152866040840152856060840152608083018560005b6004811015612ad257815483529183019160019182019101612ab5565b5050505082610100830152979650505050505050565b600060208284031215612afa57600080fd5b815161250c816127a7565b60005b83811015612b20578181015183820152602001612b08565b8381111561213c5750506000910152565b60008251612b43818460208701612b05565b9190910192915050565b6020815260008251806020840152612b6c816040850160208701612b05565b601f017fffffffffffffffffffffffffffffffffffffffffffffffffffffffffffffffe016919091016040019291505056fea264697066735822122014daf29957aee892a81125625a239b69b33fd3ca0a2c94b7444f60d615d9954564736f6c634300080b0033",
    "linkReferences": {}
  },
  "methodIdentifiers": {
    "abortProject()": "19cc6492",
    "accumulatedRewards()": "9c81ff6b",
    "accumulatedRewardsOf(address)": "27949dab",
    "claimFunds()": "ac307773",
    "claimRewards()": "372500ab",
    "crowdtainerState()": "7855d30c",
    "discountForUser(address)": "eb6ced16",
    "expireTime()": "310a1ee3",
    "getPaidAndDeliver()": "0e6137cf",
    "initialize(address,(address,uint256,uint256,uint256,uint256,uint256[4],uint256,uint256,address))": "bc6894fe",
    "invariant()": "b03a9a05",
    "join(address,uint256[4],bool,address)": "464eff50",
    "leave(address)": "bedf77a6",
    "numberOfProducts()": "c66301b2",
    "openingTime()": "b7a8807c",
    "owner()": "8da5cb5b",
    "referralEligibilityValue()": "312ee7fa",
    "referralRate()": "a053ce1f",
    "referrerOfReferee(address)": "2748608f",
    "shippingAgent()": "cf084056",
    "targetMaximum()": "53b47656",
    "targetMinimum()": "90ffbe90",
    "token()": "fc0c546a",
    "totalValueRaised()": "8831c8dc",
    "unitPricePerType(uint256)": "1e1b2573"
  },
  "id": 23
}