{
  "abi": [
    {
      "inputs": [
        {
          "internalType": "string",
          "name": "name_",
          "type": "string"
        },
        {
          "internalType": "string",
          "name": "symbol_",
          "type": "string"
        },
        {
          "internalType": "uint256",
          "name": "chainId_",
          "type": "uint256"
        }
      ],
      "stateMutability": "nonpayable",
      "type": "constructor"
    },
    {
      "anonymous": false,
      "inputs": [
        {
          "indexed": false,
          "internalType": "address",
          "name": "account",
          "type": "address"
        }
      ],
      "name": "AddAuthorization",
      "type": "event"
    },
    {
      "anonymous": false,
      "inputs": [
        {
          "indexed": true,
          "internalType": "address",
          "name": "owner",
          "type": "address"
        },
        {
          "indexed": true,
          "internalType": "address",
          "name": "spender",
          "type": "address"
        },
        {
          "indexed": false,
          "internalType": "uint256",
          "name": "value",
          "type": "uint256"
        }
      ],
      "name": "Approval",
      "type": "event"
    },
    {
      "anonymous": false,
      "inputs": [
        {
          "indexed": false,
          "internalType": "address",
          "name": "account",
          "type": "address"
        }
      ],
      "name": "RemoveAuthorization",
      "type": "event"
    },
    {
      "anonymous": false,
      "inputs": [
        {
          "indexed": true,
          "internalType": "address",
          "name": "from",
          "type": "address"
        },
        {
          "indexed": true,
          "internalType": "address",
          "name": "to",
          "type": "address"
        },
        {
          "indexed": false,
          "internalType": "uint256",
          "name": "value",
          "type": "uint256"
        }
      ],
      "name": "Transfer",
      "type": "event"
    },
    {
      "inputs": [],
      "name": "DOMAIN_SEPARATOR",
      "outputs": [
        {
          "internalType": "bytes32",
          "name": "",
          "type": "bytes32"
        }
      ],
      "stateMutability": "view",
      "type": "function"
    },
    {
      "inputs": [],
      "name": "PERMIT_TYPEHASH",
      "outputs": [
        {
          "internalType": "bytes32",
          "name": "",
          "type": "bytes32"
        }
      ],
      "stateMutability": "view",
      "type": "function"
    },
    {
      "inputs": [
        {
          "internalType": "address",
          "name": "account",
          "type": "address"
        }
      ],
      "name": "addAuthorization",
      "outputs": [],
      "stateMutability": "nonpayable",
      "type": "function"
    },
    {
      "inputs": [
        {
          "internalType": "address",
          "name": "",
          "type": "address"
        },
        {
          "internalType": "address",
          "name": "",
          "type": "address"
        }
      ],
      "name": "allowance",
      "outputs": [
        {
          "internalType": "uint256",
          "name": "",
          "type": "uint256"
        }
      ],
      "stateMutability": "view",
      "type": "function"
    },
    {
      "inputs": [
        {
          "internalType": "address",
          "name": "usr",
          "type": "address"
        },
        {
          "internalType": "uint256",
          "name": "amount",
          "type": "uint256"
        }
      ],
      "name": "approve",
      "outputs": [
        {
          "internalType": "bool",
          "name": "",
          "type": "bool"
        }
      ],
      "stateMutability": "nonpayable",
      "type": "function"
    },
    {
      "inputs": [
        {
          "internalType": "address",
          "name": "",
          "type": "address"
        }
      ],
      "name": "authorizedAccounts",
      "outputs": [
        {
          "internalType": "uint256",
          "name": "",
          "type": "uint256"
        }
      ],
      "stateMutability": "view",
      "type": "function"
    },
    {
      "inputs": [
        {
          "internalType": "address",
          "name": "",
          "type": "address"
        }
      ],
      "name": "balanceOf",
      "outputs": [
        {
          "internalType": "uint256",
          "name": "",
          "type": "uint256"
        }
      ],
      "stateMutability": "view",
      "type": "function"
    },
    {
      "inputs": [
        {
          "internalType": "address",
          "name": "usr",
          "type": "address"
        },
        {
          "internalType": "uint256",
          "name": "amount",
          "type": "uint256"
        }
      ],
      "name": "burn",
      "outputs": [],
      "stateMutability": "nonpayable",
      "type": "function"
    },
    {
      "inputs": [],
      "name": "chainId",
      "outputs": [
        {
          "internalType": "uint256",
          "name": "",
          "type": "uint256"
        }
      ],
      "stateMutability": "view",
      "type": "function"
    },
    {
      "inputs": [],
      "name": "decimals",
      "outputs": [
        {
          "internalType": "uint8",
          "name": "",
          "type": "uint8"
        }
      ],
      "stateMutability": "view",
      "type": "function"
    },
    {
      "inputs": [
        {
          "internalType": "address",
          "name": "usr",
          "type": "address"
        },
        {
          "internalType": "uint256",
          "name": "amount",
          "type": "uint256"
        }
      ],
      "name": "mint",
      "outputs": [],
      "stateMutability": "nonpayable",
      "type": "function"
    },
    {
      "inputs": [
        {
          "internalType": "address",
          "name": "src",
          "type": "address"
        },
        {
          "internalType": "address",
          "name": "dst",
          "type": "address"
        },
        {
          "internalType": "uint256",
          "name": "amount",
          "type": "uint256"
        }
      ],
      "name": "move",
      "outputs": [],
      "stateMutability": "nonpayable",
      "type": "function"
    },
    {
      "inputs": [],
      "name": "name",
      "outputs": [
        {
          "internalType": "string",
          "name": "",
          "type": "string"
        }
      ],
      "stateMutability": "view",
      "type": "function"
    },
    {
      "inputs": [
        {
          "internalType": "address",
          "name": "",
          "type": "address"
        }
      ],
      "name": "nonces",
      "outputs": [
        {
          "internalType": "uint256",
          "name": "",
          "type": "uint256"
        }
      ],
      "stateMutability": "view",
      "type": "function"
    },
    {
      "inputs": [
        {
          "internalType": "address",
          "name": "holder",
          "type": "address"
        },
        {
          "internalType": "address",
          "name": "spender",
          "type": "address"
        },
        {
          "internalType": "uint256",
          "name": "nonce",
          "type": "uint256"
        },
        {
          "internalType": "uint256",
          "name": "expiry",
          "type": "uint256"
        },
        {
          "internalType": "bool",
          "name": "allowed",
          "type": "bool"
        },
        {
          "internalType": "uint8",
          "name": "v",
          "type": "uint8"
        },
        {
          "internalType": "bytes32",
          "name": "r",
          "type": "bytes32"
        },
        {
          "internalType": "bytes32",
          "name": "s",
          "type": "bytes32"
        }
      ],
      "name": "permit",
      "outputs": [],
      "stateMutability": "nonpayable",
      "type": "function"
    },
    {
      "inputs": [
        {
          "internalType": "address",
          "name": "usr",
          "type": "address"
        },
        {
          "internalType": "uint256",
          "name": "amount",
          "type": "uint256"
        }
      ],
      "name": "pull",
      "outputs": [],
      "stateMutability": "nonpayable",
      "type": "function"
    },
    {
      "inputs": [
        {
          "internalType": "address",
          "name": "usr",
          "type": "address"
        },
        {
          "internalType": "uint256",
          "name": "amount",
          "type": "uint256"
        }
      ],
      "name": "push",
      "outputs": [],
      "stateMutability": "nonpayable",
      "type": "function"
    },
    {
      "inputs": [
        {
          "internalType": "address",
          "name": "account",
          "type": "address"
        }
      ],
      "name": "removeAuthorization",
      "outputs": [],
      "stateMutability": "nonpayable",
      "type": "function"
    },
    {
      "inputs": [],
      "name": "symbol",
      "outputs": [
        {
          "internalType": "string",
          "name": "",
          "type": "string"
        }
      ],
      "stateMutability": "view",
      "type": "function"
    },
    {
      "inputs": [],
      "name": "totalSupply",
      "outputs": [
        {
          "internalType": "uint256",
          "name": "",
          "type": "uint256"
        }
      ],
      "stateMutability": "view",
      "type": "function"
    },
    {
      "inputs": [
        {
          "internalType": "address",
          "name": "dst",
          "type": "address"
        },
        {
          "internalType": "uint256",
          "name": "amount",
          "type": "uint256"
        }
      ],
      "name": "transfer",
      "outputs": [
        {
          "internalType": "bool",
          "name": "",
          "type": "bool"
        }
      ],
      "stateMutability": "nonpayable",
      "type": "function"
    },
    {
      "inputs": [
        {
          "internalType": "address",
          "name": "src",
          "type": "address"
        },
        {
          "internalType": "address",
          "name": "dst",
          "type": "address"
        },
        {
          "internalType": "uint256",
          "name": "amount",
          "type": "uint256"
        }
      ],
      "name": "transferFrom",
      "outputs": [
        {
          "internalType": "bool",
          "name": "",
          "type": "bool"
        }
      ],
      "stateMutability": "nonpayable",
      "type": "function"
    },
    {
      "inputs": [],
      "name": "version",
      "outputs": [
        {
          "internalType": "string",
          "name": "",
          "type": "string"
        }
      ],
      "stateMutability": "view",
      "type": "function"
    }
  ],
  "bytecode": {
    "object": "0x60c060405260016080819052603160f81b60a090815262000024916003919062000166565b503480156200003257600080fd5b5060405162001ac338038062001ac38339810160408190526200005591620002d9565b3360009081526020818152604090912060019081905584516200007b9286019062000166565b5081516200009190600290602085019062000166565b5060048190556040517f8b73c3c69bb8fe3d512ecc4cf759cc79239f7b179b0ffacaa9a75d522b39400f90620000ca9060019062000389565b60405180910390206003604051620000e3919062000389565b6040805191829003822060208301949094528101919091526060810191909152608081018290523060a082015260c00160408051808303601f190181529082905280516020918201206009553382527f599a298163e1678bb1c676052a8930bf0b8a1261ed6e01b8a2391e55f7000102910160405180910390a15050506200042d565b82805462000174906200034c565b90600052602060002090601f016020900481019282620001985760008555620001e3565b82601f10620001b357805160ff1916838001178555620001e3565b82800160010185558215620001e3579182015b82811115620001e3578251825591602001919060010190620001c6565b50620001f1929150620001f5565b5090565b5b80821115620001f15760008155600101620001f6565b634e487b7160e01b600052604160045260246000fd5b600082601f8301126200023457600080fd5b81516001600160401b03808211156200025157620002516200020c565b604051601f8301601f19908116603f011681019082821181831017156200027c576200027c6200020c565b816040528381526020925086838588010111156200029957600080fd5b600091505b83821015620002bd57858201830151818301840152908201906200029e565b83821115620002cf5760008385830101525b9695505050505050565b600080600060608486031215620002ef57600080fd5b83516001600160401b03808211156200030757600080fd5b620003158783880162000222565b945060208601519150808211156200032c57600080fd5b506200033b8682870162000222565b925050604084015190509250925092565b600181811c908216806200036157607f821691505b602082108114156200038357634e487b7160e01b600052602260045260246000fd5b50919050565b600080835481600182811c915080831680620003a657607f831692505b6020808410821415620003c757634e487b7160e01b86526022600452602486fd5b818015620003de5760018114620003f0576200041f565b60ff198616895284890196506200041f565b60008a81526020902060005b86811015620004175781548b820152908501908301620003fc565b505084890196505b509498975050505050505050565b611686806200043d6000396000f3fe608060405234801561001057600080fd5b506004361061018d5760003560e01c806370a08231116100e35780639dc29fac1161008c578063bb35783b11610066578063bb35783b14610347578063dd62ed3e1461035a578063f2d5d56b1461038557600080fd5b80639dc29fac1461030e578063a9059cbb14610321578063b753a98c1461033457600080fd5b806394f3f81d116100bd57806394f3f81d146102ea57806395d89b41146102fd5780639a8a05921461030557600080fd5b806370a08231146102975780637ecebe00146102b75780638fcbaf0c146102d757600080fd5b806330adf81f116101455780633644e5151161011f5780633644e5151461027357806340c10f191461027c57806354fd4d501461028f57600080fd5b806330adf81f1461021d578063313ce5671461024457806335b281531461025e57600080fd5b806318160ddd1161017657806318160ddd146101d357806323b872dd146101ea57806324ba5884146101fd57600080fd5b806306fdde0314610192578063095ea7b3146101b0575b600080fd5b61019a610398565b6040516101a7919061138b565b60405180910390f35b6101c36101be366004611427565b610426565b60405190151581526020016101a7565b6101dc60055481565b6040519081526020016101a7565b6101c36101f8366004611451565b6104a0565b6101dc61020b36600461148d565b60006020819052908152604090205481565b6101dc7fea2aa0a1be11a07ed86d755c93467f4f82362b452371d1ba94d1715123511acb81565b61024c601281565b60405160ff90911681526020016101a7565b61027161026c36600461148d565b610884565b005b6101dc60095481565b61027161028a366004611427565b61095c565b61019a610a8e565b6101dc6102a536600461148d565b60066020526000908152604090205481565b6101dc6102c536600461148d565b60086020526000908152604090205481565b6102716102e53660046114a8565b610a9b565b6102716102f836600461148d565b610ecc565b61019a610f9c565b6101dc60045481565b61027161031c366004611427565b610fa9565b6101c361032f366004611427565b61125b565b610271610342366004611427565b61126f565b610271610355366004611451565b61127f565b6101dc610368366004611532565b600760209081526000928352604080842090915290825290205481565b610271610393366004611427565b611290565b600180546103a590611565565b80601f01602080910402602001604051908101604052809291908181526020018280546103d190611565565b801561041e5780601f106103f35761010080835404028352916020019161041e565b820191906000526020600020905b81548152906001019060200180831161040157829003601f168201915b505050505081565b33600081815260076020908152604080832073ffffffffffffffffffffffffffffffffffffffff8716808552925280832085905551919290917f8c5be1e5ebec7d5bd14f71427d1e84f3dd0314c0f7b2291e5b200ac8c7c3b9259061048e9086815260200190565b60405180910390a35060015b92915050565b600073ffffffffffffffffffffffffffffffffffffffff8316610524576040517f08c379a000000000000000000000000000000000000000000000000000000000815260206004820152600d60248201527f436f696e2f6e756c6c2d6473740000000000000000000000000000000000000060448201526064015b60405180910390fd5b73ffffffffffffffffffffffffffffffffffffffff83163014156105a4576040517f08c379a000000000000000000000000000000000000000000000000000000000815260206004820181905260248201527f436f696e2f6473742d63616e6e6f742d62652d746869732d636f6e7472616374604482015260640161051b565b73ffffffffffffffffffffffffffffffffffffffff8416600090815260066020526040902054821115610633576040517f08c379a000000000000000000000000000000000000000000000000000000000815260206004820152601960248201527f436f696e2f696e73756666696369656e742d62616c616e636500000000000000604482015260640161051b565b73ffffffffffffffffffffffffffffffffffffffff84163314801590610699575073ffffffffffffffffffffffffffffffffffffffff841660009081526007602090815260408083203384529091529020546fffffffffffffffffffffffffffffffff14155b156107a55773ffffffffffffffffffffffffffffffffffffffff84166000908152600760209081526040808320338452909152902054821115610738576040517f08c379a000000000000000000000000000000000000000000000000000000000815260206004820152601b60248201527f436f696e2f696e73756666696369656e742d616c6c6f77616e63650000000000604482015260640161051b565b73ffffffffffffffffffffffffffffffffffffffff84166000908152600760209081526040808320338452909152902054610773908361129b565b73ffffffffffffffffffffffffffffffffffffffff851660009081526007602090815260408083203384529091529020555b73ffffffffffffffffffffffffffffffffffffffff84166000908152600660205260409020546107d5908361129b565b73ffffffffffffffffffffffffffffffffffffffff80861660009081526006602052604080822093909355908516815220546108119083611313565b73ffffffffffffffffffffffffffffffffffffffff80851660008181526006602052604090819020939093559151908616907fddf252ad1be2c89b69c2b068fc378daa952ba7f163c4a11628f55a4df523b3ef906108729086815260200190565b60405180910390a35060019392505050565b336000908152602081905260409020546001146108fd576040517f08c379a000000000000000000000000000000000000000000000000000000000815260206004820152601b60248201527f436f696e2f6163636f756e742d6e6f742d617574686f72697a65640000000000604482015260640161051b565b73ffffffffffffffffffffffffffffffffffffffff8116600081815260208181526040918290206001905590519182527f599a298163e1678bb1c676052a8930bf0b8a1261ed6e01b8a2391e55f700010291015b60405180910390a150565b336000908152602081905260409020546001146109d5576040517f08c379a000000000000000000000000000000000000000000000000000000000815260206004820152601b60248201527f436f696e2f6163636f756e742d6e6f742d617574686f72697a65640000000000604482015260640161051b565b73ffffffffffffffffffffffffffffffffffffffff8216600090815260066020526040902054610a059082611313565b73ffffffffffffffffffffffffffffffffffffffff8316600090815260066020526040902055600554610a389082611313565b60055560405181815273ffffffffffffffffffffffffffffffffffffffff8316906000907fddf252ad1be2c89b69c2b068fc378daa952ba7f163c4a11628f55a4df523b3ef906020015b60405180910390a35050565b600380546103a590611565565b600954604080517fea2aa0a1be11a07ed86d755c93467f4f82362b452371d1ba94d1715123511acb602082015273ffffffffffffffffffffffffffffffffffffffff808c169282019290925290891660608201526080810188905260a0810187905285151560c08201526000919060e00160405160208183030381529060405280519060200120604051602001610b649291907f190100000000000000000000000000000000000000000000000000000000000081526002810192909252602282015260420190565b604080517fffffffffffffffffffffffffffffffffffffffffffffffffffffffffffffffe08184030181529190528051602090910120905073ffffffffffffffffffffffffffffffffffffffff8916610c19576040517f08c379a000000000000000000000000000000000000000000000000000000000815260206004820152601660248201527f436f696e2f696e76616c69642d616464726573732d3000000000000000000000604482015260640161051b565b60408051600081526020810180835283905260ff861691810191909152606081018490526080810183905260019060a0016020604051602081039080840390855afa158015610c6c573d6000803e3d6000fd5b5050506020604051035173ffffffffffffffffffffffffffffffffffffffff168973ffffffffffffffffffffffffffffffffffffffff1614610d0a576040517f08c379a000000000000000000000000000000000000000000000000000000000815260206004820152601360248201527f436f696e2f696e76616c69642d7065726d697400000000000000000000000000604482015260640161051b565b851580610d175750854211155b610d7d576040517f08c379a000000000000000000000000000000000000000000000000000000000815260206004820152601360248201527f436f696e2f7065726d69742d6578706972656400000000000000000000000000604482015260640161051b565b73ffffffffffffffffffffffffffffffffffffffff89166000908152600860205260408120805491610dae836115e8565b919050558714610e1a576040517f08c379a000000000000000000000000000000000000000000000000000000000815260206004820152601260248201527f436f696e2f696e76616c69642d6e6f6e63650000000000000000000000000000604482015260640161051b565b600085610e28576000610e3a565b6fffffffffffffffffffffffffffffffff5b73ffffffffffffffffffffffffffffffffffffffff8b81166000818152600760209081526040808320948f16808452948252918290206fffffffffffffffffffffffffffffffff95909516948590559051848152939450919290917f8c5be1e5ebec7d5bd14f71427d1e84f3dd0314c0f7b2291e5b200ac8c7c3b925910160405180910390a350505050505050505050565b33600090815260208190526040902054600114610f45576040517f08c379a000000000000000000000000000000000000000000000000000000000815260206004820152601b60248201527f436f696e2f6163636f756e742d6e6f742d617574686f72697a65640000000000604482015260640161051b565b73ffffffffffffffffffffffffffffffffffffffff81166000818152602081815260408083209290925590519182527f8834a87e641e9716be4f34527af5d23e11624f1ddeefede6ad75a9acfc31b9039101610951565b600280546103a590611565565b73ffffffffffffffffffffffffffffffffffffffff8216600090815260066020526040902054811115611038576040517f08c379a000000000000000000000000000000000000000000000000000000000815260206004820152601960248201527f436f696e2f696e73756666696369656e742d62616c616e636500000000000000604482015260640161051b565b73ffffffffffffffffffffffffffffffffffffffff8216331480159061109e575073ffffffffffffffffffffffffffffffffffffffff821660009081526007602090815260408083203384529091529020546fffffffffffffffffffffffffffffffff14155b156111aa5773ffffffffffffffffffffffffffffffffffffffff8216600090815260076020908152604080832033845290915290205481111561113d576040517f08c379a000000000000000000000000000000000000000000000000000000000815260206004820152601b60248201527f436f696e2f696e73756666696369656e742d616c6c6f77616e63650000000000604482015260640161051b565b73ffffffffffffffffffffffffffffffffffffffff82166000908152600760209081526040808320338452909152902054611178908261129b565b73ffffffffffffffffffffffffffffffffffffffff831660009081526007602090815260408083203384529091529020555b73ffffffffffffffffffffffffffffffffffffffff82166000908152600660205260409020546111da908261129b565b73ffffffffffffffffffffffffffffffffffffffff831660009081526006602052604090205560055461120d908261129b565b60055560405181815260009073ffffffffffffffffffffffffffffffffffffffff8416907fddf252ad1be2c89b69c2b068fc378daa952ba7f163c4a11628f55a4df523b3ef90602001610a82565b60006112683384846104a0565b9392505050565b61127a3383836104a0565b505050565b61128a8383836104a0565b50505050565b61127a8233836104a0565b6000826112a88382611621565b915081111561049a576040517f08c379a000000000000000000000000000000000000000000000000000000000815260206004820152601260248201527f436f696e2f7375622d756e646572666c6f770000000000000000000000000000604482015260640161051b565b6000826113208382611638565b915081101561049a576040517f08c379a000000000000000000000000000000000000000000000000000000000815260206004820152601160248201527f436f696e2f6164642d6f766572666c6f77000000000000000000000000000000604482015260640161051b565b600060208083528351808285015260005b818110156113b85785810183015185820160400152820161139c565b818111156113ca576000604083870101525b50601f017fffffffffffffffffffffffffffffffffffffffffffffffffffffffffffffffe016929092016040019392505050565b803573ffffffffffffffffffffffffffffffffffffffff8116811461142257600080fd5b919050565b6000806040838503121561143a57600080fd5b611443836113fe565b946020939093013593505050565b60008060006060848603121561146657600080fd5b61146f846113fe565b925061147d602085016113fe565b9150604084013590509250925092565b60006020828403121561149f57600080fd5b611268826113fe565b600080600080600080600080610100898b0312156114c557600080fd5b6114ce896113fe565b97506114dc60208a016113fe565b96506040890135955060608901359450608089013580151581146114ff57600080fd5b935060a089013560ff8116811461151557600080fd5b979a969950949793969295929450505060c08201359160e0013590565b6000806040838503121561154557600080fd5b61154e836113fe565b915061155c602084016113fe565b90509250929050565b600181811c9082168061157957607f821691505b602082108114156115b3577f4e487b7100000000000000000000000000000000000000000000000000000000600052602260045260246000fd5b50919050565b7f4e487b7100000000000000000000000000000000000000000000000000000000600052601160045260246000fd5b60007fffffffffffffffffffffffffffffffffffffffffffffffffffffffffffffffff82141561161a5761161a6115b9565b5060010190565b600082821015611633576116336115b9565b500390565b6000821982111561164b5761164b6115b9565b50019056fea2646970667358221220e558f8026f944190695a1e437265037b99865ad17c7ebd33c342a12171c4480864736f6c634300080b0033",
    "linkReferences": {}
  },
  "methodIdentifiers": {
    "DOMAIN_SEPARATOR()": "3644e515",
    "PERMIT_TYPEHASH()": "30adf81f",
    "addAuthorization(address)": "35b28153",
    "allowance(address,address)": "dd62ed3e",
    "approve(address,uint256)": "095ea7b3",
    "authorizedAccounts(address)": "24ba5884",
    "balanceOf(address)": "70a08231",
    "burn(address,uint256)": "9dc29fac",
    "chainId()": "9a8a0592",
    "decimals()": "313ce567",
    "mint(address,uint256)": "40c10f19",
    "move(address,address,uint256)": "bb35783b",
    "name()": "06fdde03",
    "nonces(address)": "7ecebe00",
    "permit(address,address,uint256,uint256,bool,uint8,bytes32,bytes32)": "8fcbaf0c",
    "pull(address,uint256)": "f2d5d56b",
    "push(address,uint256)": "b753a98c",
    "removeAuthorization(address)": "94f3f81d",
    "symbol()": "95d89b41",
    "totalSupply()": "18160ddd",
    "transfer(address,uint256)": "a9059cbb",
    "transferFrom(address,address,uint256)": "23b872dd",
    "version()": "54fd4d50"
  },
  "id": 30
}