{
  "abi": [
    {
      "inputs": [
        {
          "internalType": "address",
          "name": "_crowdtainerImplementation",
          "type": "address"
        }
      ],
      "stateMutability": "nonpayable",
      "type": "constructor"
    },
    {
      "inputs": [],
      "name": "AccountNotOwner",
      "type": "error"
    },
    {
      "inputs": [],
      "name": "CCIP_Read_InvalidOperation",
      "type": "error"
    },
    {
      "inputs": [
        {
          "internalType": "address",
          "name": "expected",
          "type": "address"
        },
        {
          "internalType": "address",
          "name": "actual",
          "type": "address"
        }
      ],
      "name": "CallerNotAllowed",
      "type": "error"
    },
    {
      "inputs": [],
      "name": "CannotLeaveDueAccumulatedReferralCredits",
      "type": "error"
    },
    {
      "inputs": [],
      "name": "CrowdtainerInexistent",
      "type": "error"
    },
    {
      "inputs": [
        {
          "internalType": "bytes",
          "name": "reason",
          "type": "bytes"
        }
      ],
      "name": "CrowdtainerLowLevelError",
      "type": "error"
    },
    {
      "inputs": [
        {
          "internalType": "uint256",
          "name": "received",
          "type": "uint256"
        },
        {
          "internalType": "uint256",
          "name": "maximum",
          "type": "uint256"
        }
      ],
      "name": "ExceededNumberOfItemsAllowed",
      "type": "error"
    },
    {
      "inputs": [],
      "name": "InvalidNumberOfQuantities",
      "type": "error"
    },
    {
      "inputs": [],
      "name": "InvalidProductNumberAndPrices",
      "type": "error"
    },
    {
      "inputs": [
        {
          "internalType": "uint256",
          "name": "tokenId",
          "type": "uint256"
        }
      ],
      "name": "InvalidTokenId",
      "type": "error"
    },
    {
      "inputs": [
        {
          "internalType": "uint256",
          "name": "maximum",
          "type": "uint256"
        },
        {
          "internalType": "address",
          "name": "crowdtainer",
          "type": "address"
        }
      ],
      "name": "MaximumNumberOfParticipantsReached",
      "type": "error"
    },
    {
      "inputs": [],
      "name": "MetadataServiceAddressIsZero",
      "type": "error"
    },
    {
      "inputs": [
        {
          "internalType": "uint256",
          "name": "received",
          "type": "uint256"
        },
        {
          "internalType": "uint256",
          "name": "minimum",
          "type": "uint256"
        }
      ],
      "name": "MinimumPurchaseValueForReferralNotMet",
      "type": "error"
    },
    {
      "inputs": [
        {
          "internalType": "address",
          "name": "wallet",
          "type": "address"
        },
        {
          "internalType": "bytes32",
          "name": "nonce",
          "type": "bytes32"
        }
      ],
      "name": "NonceAlreadyUsed",
      "type": "error"
    },
    {
      "inputs": [
        {
          "internalType": "address",
          "name": "sender",
          "type": "address"
        },
        {
          "internalType": "string[]",
          "name": "urls",
          "type": "string[]"
        },
        {
          "internalType": "bytes",
          "name": "callData",
          "type": "bytes"
        },
        {
          "internalType": "bytes4",
          "name": "callbackFunction",
          "type": "bytes4"
        },
        {
          "internalType": "bytes",
          "name": "extraData",
          "type": "bytes"
        }
      ],
      "name": "OffchainLookup",
      "type": "error"
    },
    {
      "inputs": [
        {
          "internalType": "bytes",
          "name": "receivedBytes",
          "type": "bytes"
        }
      ],
      "name": "PermitOperationFailed",
      "type": "error"
    },
    {
      "inputs": [
        {
          "internalType": "uint256",
          "name": "received",
          "type": "uint256"
        },
        {
          "internalType": "uint256",
          "name": "maximum",
          "type": "uint256"
        }
      ],
      "name": "PurchaseExceedsMaximumTarget",
      "type": "error"
    },
    {
      "inputs": [],
      "name": "ReferralDisabledForProvidedCode",
      "type": "error"
    },
    {
      "inputs": [],
      "name": "ReferralInexistent",
      "type": "error"
    },
    {
      "inputs": [],
      "name": "SetClaimedOnlyAllowedByShippingAgent",
      "type": "error"
    },
    {
      "inputs": [
        {
          "internalType": "uint64",
          "name": "current",
          "type": "uint64"
        },
        {
          "internalType": "uint64",
          "name": "expires",
          "type": "uint64"
        }
      ],
      "name": "SignatureExpired",
      "type": "error"
    },
    {
      "inputs": [
        {
          "internalType": "address",
          "name": "crowdtainer",
          "type": "address"
        },
        {
          "internalType": "enum CrowdtainerState",
          "name": "state",
          "type": "uint8"
        }
      ],
      "name": "TransferNotAllowed",
      "type": "error"
    },
    {
      "inputs": [],
      "name": "UserAlreadyJoined",
      "type": "error"
    },
    {
      "anonymous": false,
      "inputs": [
        {
          "indexed": true,
          "internalType": "address",
          "name": "owner",
          "type": "address"
        },
        {
          "indexed": true,
          "internalType": "address",
          "name": "approved",
          "type": "address"
        },
        {
          "indexed": true,
          "internalType": "uint256",
          "name": "tokenId",
          "type": "uint256"
        }
      ],
      "name": "Approval",
      "type": "event"
    },
    {
      "anonymous": false,
      "inputs": [
        {
          "indexed": true,
          "internalType": "address",
          "name": "owner",
          "type": "address"
        },
        {
          "indexed": true,
          "internalType": "address",
          "name": "operator",
          "type": "address"
        },
        {
          "indexed": false,
          "internalType": "bool",
          "name": "approved",
          "type": "bool"
        }
      ],
      "name": "ApprovalForAll",
      "type": "event"
    },
    {
      "anonymous": false,
      "inputs": [
        {
          "indexed": true,
          "internalType": "address",
          "name": "_crowdtainerAddress",
          "type": "address"
        },
        {
          "indexed": false,
          "internalType": "uint256",
          "name": "_nextCrowdtainerId",
          "type": "uint256"
        }
      ],
      "name": "CrowdtainerDeployed",
      "type": "event"
    },
    {
      "anonymous": false,
      "inputs": [
        {
          "indexed": true,
          "internalType": "address",
          "name": "from",
          "type": "address"
        },
        {
          "indexed": true,
          "internalType": "address",
          "name": "to",
          "type": "address"
        },
        {
          "indexed": true,
          "internalType": "uint256",
          "name": "tokenId",
          "type": "uint256"
        }
      ],
      "name": "Transfer",
      "type": "event"
    },
    {
      "anonymous": false,
      "inputs": [
        {
          "indexed": true,
          "internalType": "address",
          "name": "crowdtainer",
          "type": "address"
        }
      ],
      "name": "Vouchers721Created",
      "type": "event"
    },
    {
      "inputs": [],
      "name": "ID_MULTIPLE",
      "outputs": [
        {
          "internalType": "uint256",
          "name": "",
          "type": "uint256"
        }
      ],
      "stateMutability": "view",
      "type": "function"
    },
    {
      "inputs": [
        {
          "internalType": "address",
          "name": "to",
          "type": "address"
        },
        {
          "internalType": "uint256",
          "name": "tokenId",
          "type": "uint256"
        }
      ],
      "name": "approve",
      "outputs": [],
      "stateMutability": "nonpayable",
      "type": "function"
    },
    {
      "inputs": [
        {
          "internalType": "address",
          "name": "owner",
          "type": "address"
        }
      ],
      "name": "balanceOf",
      "outputs": [
        {
          "internalType": "uint256",
          "name": "",
          "type": "uint256"
        }
      ],
      "stateMutability": "view",
      "type": "function"
    },
    {
      "inputs": [
        {
          "components": [
            {
              "internalType": "address",
              "name": "shippingAgent",
              "type": "address"
            },
            {
              "internalType": "address",
              "name": "signer",
              "type": "address"
            },
            {
              "internalType": "uint256",
              "name": "openingTime",
              "type": "uint256"
            },
            {
              "internalType": "uint256",
              "name": "expireTime",
              "type": "uint256"
            },
            {
              "internalType": "uint256",
              "name": "targetMinimum",
              "type": "uint256"
            },
            {
              "internalType": "uint256",
              "name": "targetMaximum",
              "type": "uint256"
            },
            {
              "internalType": "uint256[]",
              "name": "unitPricePerType",
              "type": "uint256[]"
            },
            {
              "internalType": "uint256",
              "name": "referralRate",
              "type": "uint256"
            },
            {
              "internalType": "uint256",
              "name": "referralEligibilityValue",
              "type": "uint256"
            },
            {
              "internalType": "address",
              "name": "token",
              "type": "address"
            },
            {
              "internalType": "string",
              "name": "legalContractURI",
              "type": "string"
            }
          ],
          "internalType": "struct CampaignData",
          "name": "_campaignData",
          "type": "tuple"
        },
        {
          "internalType": "string[]",
          "name": "_productDescription",
          "type": "string[]"
        },
        {
          "internalType": "address",
          "name": "_metadataService",
          "type": "address"
        }
      ],
      "name": "createCrowdtainer",
      "outputs": [
        {
          "internalType": "address",
          "name": "",
          "type": "address"
        },
        {
          "internalType": "uint256",
          "name": "",
          "type": "uint256"
        }
      ],
      "stateMutability": "nonpayable",
      "type": "function"
    },
    {
      "inputs": [],
      "name": "crowdtainerCount",
      "outputs": [
        {
          "internalType": "uint256",
          "name": "",
          "type": "uint256"
        }
      ],
      "stateMutability": "view",
      "type": "function"
    },
    {
      "inputs": [
        {
          "internalType": "uint256",
          "name": "",
          "type": "uint256"
        }
      ],
      "name": "crowdtainerForId",
      "outputs": [
        {
          "internalType": "address",
          "name": "",
          "type": "address"
        }
      ],
      "stateMutability": "view",
      "type": "function"
    },
    {
      "inputs": [
        {
          "internalType": "uint256",
          "name": "_crowdtainerId",
          "type": "uint256"
        }
      ],
      "name": "crowdtainerIdToAddress",
      "outputs": [
        {
          "internalType": "address",
          "name": "",
          "type": "address"
        }
      ],
      "stateMutability": "view",
      "type": "function"
    },
    {
      "inputs": [
        {
          "internalType": "uint256",
          "name": "tokenId",
          "type": "uint256"
        }
      ],
      "name": "getApproved",
      "outputs": [
        {
          "internalType": "address",
          "name": "",
          "type": "address"
        }
      ],
      "stateMutability": "view",
      "type": "function"
    },
    {
      "inputs": [
        {
          "internalType": "uint256",
          "name": "_tokenId",
          "type": "uint256"
        }
      ],
      "name": "getClaimStatus",
      "outputs": [
        {
          "internalType": "bool",
          "name": "",
          "type": "bool"
        }
      ],
      "stateMutability": "view",
      "type": "function"
    },
    {
      "inputs": [
        {
          "internalType": "bytes",
          "name": "data",
          "type": "bytes"
        }
      ],
      "name": "getParameters",
      "outputs": [
        {
          "internalType": "bytes",
          "name": "",
          "type": "bytes"
        }
      ],
      "stateMutability": "pure",
      "type": "function"
    },
    {
      "inputs": [
        {
          "internalType": "bytes",
          "name": "data",
          "type": "bytes"
        }
      ],
      "name": "getSignature",
      "outputs": [
        {
          "internalType": "bytes4",
          "name": "",
          "type": "bytes4"
        }
      ],
      "stateMutability": "pure",
      "type": "function"
    },
    {
      "inputs": [
        {
          "internalType": "address",
          "name": "",
          "type": "address"
        }
      ],
      "name": "idForCrowdtainer",
      "outputs": [
        {
          "internalType": "uint256",
          "name": "",
          "type": "uint256"
        }
      ],
      "stateMutability": "view",
      "type": "function"
    },
    {
      "inputs": [
        {
          "internalType": "address",
          "name": "owner",
          "type": "address"
        },
        {
          "internalType": "address",
          "name": "operator",
          "type": "address"
        }
      ],
      "name": "isApprovedForAll",
      "outputs": [
        {
          "internalType": "bool",
          "name": "",
          "type": "bool"
        }
      ],
      "stateMutability": "view",
      "type": "function"
    },
    {
      "inputs": [
        {
          "internalType": "address",
          "name": "_crowdtainer",
          "type": "address"
        },
        {
          "internalType": "uint256[]",
          "name": "_quantities",
          "type": "uint256[]"
        },
        {
          "internalType": "bool",
          "name": "_enableReferral",
          "type": "bool"
        },
        {
          "internalType": "address",
          "name": "_referrer",
          "type": "address"
        },
        {
          "components": [
            {
              "internalType": "address",
              "name": "owner",
              "type": "address"
            },
            {
              "internalType": "address",
              "name": "spender",
              "type": "address"
            },
            {
              "internalType": "uint256",
              "name": "value",
              "type": "uint256"
            },
            {
              "internalType": "uint256",
              "name": "nonce",
              "type": "uint256"
            },
            {
              "internalType": "uint256",
              "name": "deadline",
              "type": "uint256"
            },
            {
              "internalType": "uint8",
              "name": "v",
              "type": "uint8"
            },
            {
              "internalType": "bytes32",
              "name": "r",
              "type": "bytes32"
            },
            {
              "internalType": "bytes32",
              "name": "s",
              "type": "bytes32"
            }
          ],
          "internalType": "struct SignedPermit",
          "name": "_signedPermit",
          "type": "tuple"
        }
      ],
      "name": "join",
      "outputs": [
        {
          "internalType": "uint256",
          "name": "",
          "type": "uint256"
        }
      ],
      "stateMutability": "nonpayable",
      "type": "function"
    },
    {
      "inputs": [
        {
          "internalType": "address",
          "name": "_crowdtainer",
          "type": "address"
        },
        {
          "internalType": "uint256[]",
          "name": "_quantities",
          "type": "uint256[]"
        }
      ],
      "name": "join",
      "outputs": [
        {
          "internalType": "uint256",
          "name": "",
          "type": "uint256"
        }
      ],
      "stateMutability": "nonpayable",
      "type": "function"
    },
    {
      "inputs": [
        {
          "internalType": "address",
          "name": "_crowdtainer",
          "type": "address"
        },
        {
          "internalType": "uint256[]",
          "name": "_quantities",
          "type": "uint256[]"
        },
        {
          "internalType": "bool",
          "name": "_enableReferral",
          "type": "bool"
        },
        {
          "internalType": "address",
          "name": "_referrer",
          "type": "address"
        }
      ],
      "name": "join",
      "outputs": [
        {
          "internalType": "uint256",
          "name": "",
          "type": "uint256"
        }
      ],
      "stateMutability": "nonpayable",
      "type": "function"
    },
    {
      "inputs": [
        {
          "internalType": "bytes",
          "name": "result",
          "type": "bytes"
        },
        {
          "internalType": "bytes",
          "name": "extraData",
          "type": "bytes"
        }
      ],
      "name": "joinWithSignature",
      "outputs": [
        {
          "internalType": "uint256",
          "name": "",
          "type": "uint256"
        }
      ],
      "stateMutability": "nonpayable",
      "type": "function"
    },
    {
      "inputs": [
        {
          "internalType": "bytes",
          "name": "result",
          "type": "bytes"
        },
        {
          "internalType": "bytes",
          "name": "extraData",
          "type": "bytes"
        },
        {
          "components": [
            {
              "internalType": "address",
              "name": "owner",
              "type": "address"
            },
            {
              "internalType": "address",
              "name": "spender",
              "type": "address"
            },
            {
              "internalType": "uint256",
              "name": "value",
              "type": "uint256"
            },
            {
              "internalType": "uint256",
              "name": "nonce",
              "type": "uint256"
            },
            {
              "internalType": "uint256",
              "name": "deadline",
              "type": "uint256"
            },
            {
              "internalType": "uint8",
              "name": "v",
              "type": "uint8"
            },
            {
              "internalType": "bytes32",
              "name": "r",
              "type": "bytes32"
            },
            {
              "internalType": "bytes32",
              "name": "s",
              "type": "bytes32"
            }
          ],
          "internalType": "struct SignedPermit",
          "name": "_signedPermit",
          "type": "tuple"
        }
      ],
      "name": "joinWithSignatureAndPermit",
      "outputs": [
        {
          "internalType": "uint256",
          "name": "",
          "type": "uint256"
        }
      ],
      "stateMutability": "nonpayable",
      "type": "function"
    },
    {
      "inputs": [
        {
          "internalType": "uint256",
          "name": "_tokenId",
          "type": "uint256"
        }
      ],
      "name": "leave",
      "outputs": [],
      "stateMutability": "nonpayable",
      "type": "function"
    },
    {
      "inputs": [
        {
          "internalType": "uint256",
          "name": "",
          "type": "uint256"
        }
      ],
      "name": "metadataServiceForCrowdatinerId",
      "outputs": [
        {
          "internalType": "address",
          "name": "",
          "type": "address"
        }
      ],
      "stateMutability": "view",
      "type": "function"
    },
    {
      "inputs": [],
      "name": "name",
      "outputs": [
        {
          "internalType": "string",
          "name": "",
          "type": "string"
        }
      ],
      "stateMutability": "view",
      "type": "function"
    },
    {
      "inputs": [
        {
          "internalType": "uint256",
          "name": "tokenId",
          "type": "uint256"
        }
      ],
      "name": "ownerOf",
      "outputs": [
        {
          "internalType": "address",
          "name": "",
          "type": "address"
        }
      ],
      "stateMutability": "view",
      "type": "function"
    },
    {
      "inputs": [
        {
          "internalType": "uint256",
          "name": "",
          "type": "uint256"
        },
        {
          "internalType": "uint256",
          "name": "",
          "type": "uint256"
        }
      ],
      "name": "productDescription",
      "outputs": [
        {
          "internalType": "string",
          "name": "",
          "type": "string"
        }
      ],
      "stateMutability": "view",
      "type": "function"
    },
    {
      "inputs": [
        {
          "internalType": "address",
          "name": "from",
          "type": "address"
        },
        {
          "internalType": "address",
          "name": "to",
          "type": "address"
        },
        {
          "internalType": "uint256",
          "name": "tokenId",
          "type": "uint256"
        }
      ],
      "name": "safeTransferFrom",
      "outputs": [],
      "stateMutability": "nonpayable",
      "type": "function"
    },
    {
      "inputs": [
        {
          "internalType": "address",
          "name": "from",
          "type": "address"
        },
        {
          "internalType": "address",
          "name": "to",
          "type": "address"
        },
        {
          "internalType": "uint256",
          "name": "tokenId",
          "type": "uint256"
        },
        {
          "internalType": "bytes",
          "name": "data",
          "type": "bytes"
        }
      ],
      "name": "safeTransferFrom",
      "outputs": [],
      "stateMutability": "nonpayable",
      "type": "function"
    },
    {
      "inputs": [
        {
          "internalType": "address",
          "name": "operator",
          "type": "address"
        },
        {
          "internalType": "bool",
          "name": "approved",
          "type": "bool"
        }
      ],
      "name": "setApprovalForAll",
      "outputs": [],
      "stateMutability": "nonpayable",
      "type": "function"
    },
    {
      "inputs": [
        {
          "internalType": "uint256",
          "name": "_tokenId",
          "type": "uint256"
        },
        {
          "internalType": "bool",
          "name": "_value",
          "type": "bool"
        }
      ],
      "name": "setClaimStatus",
      "outputs": [],
      "stateMutability": "nonpayable",
      "type": "function"
    },
    {
      "inputs": [
        {
          "internalType": "bytes4",
          "name": "interfaceId",
          "type": "bytes4"
        }
      ],
      "name": "supportsInterface",
      "outputs": [
        {
          "internalType": "bool",
          "name": "",
          "type": "bool"
        }
      ],
      "stateMutability": "view",
      "type": "function"
    },
    {
      "inputs": [],
      "name": "symbol",
      "outputs": [
        {
          "internalType": "string",
          "name": "",
          "type": "string"
        }
      ],
      "stateMutability": "view",
      "type": "function"
    },
    {
      "inputs": [
        {
          "internalType": "uint256",
          "name": "index",
          "type": "uint256"
        }
      ],
      "name": "tokenByIndex",
      "outputs": [
        {
          "internalType": "uint256",
          "name": "",
          "type": "uint256"
        }
      ],
      "stateMutability": "view",
      "type": "function"
    },
    {
      "inputs": [
        {
          "internalType": "uint256",
          "name": "",
          "type": "uint256"
        },
        {
          "internalType": "uint256",
          "name": "",
          "type": "uint256"
        }
      ],
      "name": "tokenIdQuantities",
      "outputs": [
        {
          "internalType": "uint256",
          "name": "",
          "type": "uint256"
        }
      ],
      "stateMutability": "view",
      "type": "function"
    },
    {
      "inputs": [
        {
          "internalType": "uint256",
          "name": "_tokenId",
          "type": "uint256"
        }
      ],
      "name": "tokenIdToCrowdtainerId",
      "outputs": [
        {
          "internalType": "uint256",
          "name": "",
          "type": "uint256"
        }
      ],
      "stateMutability": "pure",
      "type": "function"
    },
    {
      "inputs": [
        {
          "internalType": "address",
          "name": "owner",
          "type": "address"
        },
        {
          "internalType": "uint256",
          "name": "index",
          "type": "uint256"
        }
      ],
      "name": "tokenOfOwnerByIndex",
      "outputs": [
        {
          "internalType": "uint256",
          "name": "",
          "type": "uint256"
        }
      ],
      "stateMutability": "view",
      "type": "function"
    },
    {
      "inputs": [
        {
          "internalType": "uint256",
          "name": "_tokenId",
          "type": "uint256"
        }
      ],
      "name": "tokenURI",
      "outputs": [
        {
          "internalType": "string",
          "name": "",
          "type": "string"
        }
      ],
      "stateMutability": "view",
      "type": "function"
    },
    {
      "inputs": [],
      "name": "totalSupply",
      "outputs": [
        {
          "internalType": "uint256",
          "name": "",
          "type": "uint256"
        }
      ],
      "stateMutability": "view",
      "type": "function"
    },
    {
      "inputs": [
        {
          "internalType": "address",
          "name": "from",
          "type": "address"
        },
        {
          "internalType": "address",
          "name": "to",
          "type": "address"
        },
        {
          "internalType": "uint256",
          "name": "tokenId",
          "type": "uint256"
        }
      ],
      "name": "transferFrom",
      "outputs": [],
      "stateMutability": "nonpayable",
      "type": "function"
    }
  ],
  "bytecode": {
    "object": "0x60a06040523480156200001157600080fd5b506040516200493b3803806200493b8339810160408190526200003491620000d6565b6040518060400160405280600b81526020016a566f75636865727337323160a81b8152506040518060400160405280600381526020016256563160e81b8152508160009081620000859190620001ad565b506001620000948282620001ad565b5050506001600160a01b03811660805260405130907fdd7bf9deccc329033ee50f9e925f9bf2a608eac8950906d19cb2ed39ec61cf3690600090a25062000279565b600060208284031215620000e957600080fd5b81516001600160a01b03811681146200010157600080fd5b9392505050565b634e487b7160e01b600052604160045260246000fd5b600181811c908216806200013357607f821691505b6020821081036200015457634e487b7160e01b600052602260045260246000fd5b50919050565b601f821115620001a857600081815260208120601f850160051c81016020861015620001835750805b601f850160051c820191505b81811015620001a4578281556001016200018f565b5050505b505050565b81516001600160401b03811115620001c957620001c962000108565b620001e181620001da84546200011e565b846200015a565b602080601f831160018114620002195760008415620002005750858301515b600019600386901b1c1916600185901b178555620001a4565b600085815260208120601f198616915b828110156200024a5788860151825594840194600190910190840162000229565b5085821015620002695787850151600019600388901b60f8161c191681555b5050505050600190811b01905550565b6080516146a662000295600039600061082b01526146a66000f3fe608060405234801561001057600080fd5b506004361061025c5760003560e01c80636df0c83a11610145578063c0920f6b116100bd578063cbe807121161008c578063db5a0e8311610071578063db5a0e8314610569578063e985e9c51461057c578063edf00638146105b857600080fd5b8063cbe807121461053f578063da5815321461054857600080fd5b8063c0920f6b146104e6578063c87b56dd146104f9578063c91539bc1461050c578063ca6d45ca1461051657600080fd5b8063a22cb46511610114578063a3b9871a116100f9578063a3b9871a14610497578063b5022343146104aa578063b88d4fde146104d357600080fd5b8063a22cb46514610471578063a25a7d3b1461048457600080fd5b80636df0c83a1461042357806370a08231146104435780637169d23b1461045657806395d89b411461046957600080fd5b806323b872dd116101d857806342842e0e116101a7578063566a2cc21161018c578063566a2cc2146103ea5780636352211e146103fd57806367dfd4c91461041057600080fd5b806342842e0e146103c45780634f6ccce7146103d757600080fd5b806323b872dd146103785780632f745c591461038b578063351a41c51461039e57806336dbd2f9146103b157600080fd5b80630b82a21c1161022f57806318160ddd1161021457806318160ddd146103315780631856bc1b146103395780631ed113ae1461034c57600080fd5b80630b82a21c146102de5780630cfd7fd6146102ff57600080fd5b806301ffc9a71461026157806306fdde0314610289578063081812fc1461029e578063095ea7b3146102c9575b600080fd5b61027461026f3660046132e4565b6105cb565b60405190151581526020015b60405180910390f35b6102916105f6565b6040516102809190613351565b6102b16102ac366004613364565b610688565b6040516001600160a01b039091168152602001610280565b6102dc6102d736600461339d565b6106af565b005b6102f16102ec3660046133c9565b6107c9565b604051908152602001610280565b61031261030d3660046134bc565b6107fa565b604080516001600160a01b039093168352602083019190915201610280565b6008546102f1565b6102f16103473660046136cd565b610998565b61035f61035a36600461379b565b610b04565b6040516001600160e01b03199091168152602001610280565b6102dc6103863660046137dd565b610b32565b6102f161039936600461339d565b610baa565b6102b16103ac366004613364565b610c52565b6102746103bf366004613364565b610c88565b6102dc6103d23660046137dd565b610cab565b6102f16103e5366004613364565b610cc6565b6102f16103f836600461381e565b610d6a565b6102b161040b366004613364565b61105c565b6102dc61041e366004613364565b6110c1565b6102f161043136600461388a565b600e6020526000908152604090205481565b6102f161045136600461388a565b61139d565b6102916104643660046133c9565b611437565b6102916114f0565b6102dc61047f3660046138a7565b6114ff565b6102f16104923660046138e0565b61150a565b6102dc6104a5366004613935565b61151a565b6102b16104b8366004613364565b600d602052600090815260409020546001600160a01b031681565b6102dc6104e136600461397a565b6115d1565b6102f16104f43660046139e6565b611650565b610291610507366004613364565b6117a0565b6102f1620f424081565b6102b1610524366004613364565b600f602052600090815260409020546001600160a01b031681565b6102f1600c5481565b61055b61055636600461379b565b611b65565b604051610280929190613a92565b6102f1610577366004613364565b611b8e565b61027461058a366004613aa6565b6001600160a01b03918216600090815260056020908152604080832093909416825291909152205460ff1690565b6102f16105c6366004613ad4565b611bc1565b60006001600160e01b0319821663780e9d6360e01b14806105f057506105f082611d34565b92915050565b60606000805461060590613b51565b80601f016020809104026020016040519081016040528092919081815260200182805461063190613b51565b801561067e5780601f106106535761010080835404028352916020019161067e565b820191906000526020600020905b81548152906001019060200180831161066157829003601f168201915b5050505050905090565b600061069382611d84565b506000908152600460205260409020546001600160a01b031690565b60006106ba8261105c565b9050806001600160a01b0316836001600160a01b03160361072c5760405162461bcd60e51b815260206004820152602160248201527f4552433732313a20617070726f76616c20746f2063757272656e74206f776e656044820152603960f91b60648201526084015b60405180910390fd5b336001600160a01b03821614806107485750610748813361058a565b6107ba5760405162461bcd60e51b815260206004820152603e60248201527f4552433732313a20617070726f76652063616c6c6572206973206e6f7420746f60448201527f6b656e206f776e6572206e6f7220617070726f76656420666f7220616c6c00006064820152608401610723565b6107c48383611deb565b505050565b601060205281600052604060002081815481106107e557600080fd5b90600052602060002001600091509150505481565b6000806001600160a01b038316610824576040516309ccb6ed60e41b815260040160405180910390fd5b600061084f7f0000000000000000000000000000000000000000000000000000000000000000611e59565b604051636f9d99d960e01b81529091506001600160a01b03821690636f9d99d9906108809030908a90600401613c65565b600060405180830381600087803b15801561089a57600080fd5b505af11580156108ae573d6000803e3d6000fd5b50505050600c600081546108c190613d83565b91829055506001600160a01b0382166000818152600e6020908152604080832094909455600c80548352600d825284832080546001600160a01b031916909417909355915481526011825291909120865161091e9288019061316c565b50600c80546000908152600f602090815260409182902080546001600160a01b0319166001600160a01b038981169190911790915592549151918252918316917f19d6f90297684f8b888bfdd40dece239ff62def4dd8aedd00245b6c846853b97910160405180910390a2600c5490969095509350505050565b600080876001600160a01b031663fc0c546a6040518163ffffffff1660e01b8152600401602060405180830381865afa1580156109d9573d6000803e3d6000fd5b505050506040513d601f19601f820116820180604052508101906109fd9190613d9c565b8351604080860151608087015160a088015160c089015160e08a0151945163d505accf60e01b81526001600160a01b0396871660048201528f871660248201526044810194909452606484019290925260ff16608483015260a482015260c481019190915291925082169063d505accf9060e401600060405180830381600087803b158015610a8b57600080fd5b505af1925050508015610a9c575060015b610aeb573d808015610aca576040519150601f19603f3d011682016040523d82523d6000602084013e610acf565b606091505b5080604051633ca70d9d60e01b81526004016107239190613351565b610af88888888888611bc1565b98975050505050505050565b60006004821015610b1457600080fd5b610b22600460008486613db9565b610b2b91613de3565b9392505050565b610b3c3382611f14565b610b9f5760405162461bcd60e51b815260206004820152602e60248201527f4552433732313a2063616c6c6572206973206e6f7420746f6b656e206f776e6560448201526d1c881b9bdc88185c1c1c9bdd995960921b6064820152608401610723565b6107c4838383611f92565b6000610bb58361139d565b8210610c295760405162461bcd60e51b815260206004820152602b60248201527f455243373231456e756d657261626c653a206f776e657220696e646578206f7560448201527f74206f6620626f756e64730000000000000000000000000000000000000000006064820152608401610723565b506001600160a01b03919091166000908152600660209081526040808320938352929052205490565b6000818152600d60205260408120546001600160a01b0316806105f05760405163ba3f1ed160e01b815260040160405180910390fd5b600881901c6000908152600a6020526040812054600160ff84161b1615156105f0565b6107c4838383604051806020016040528060008152506115d1565b6000610cd160085490565b8210610d455760405162461bcd60e51b815260206004820152602c60248201527f455243373231456e756d657261626c653a20676c6f62616c20696e646578206f60448201527f7574206f6620626f756e647300000000000000000000000000000000000000006064820152608401610723565b60088281548110610d5857610d58613e13565b90600052602060002001549050919050565b6000808080610d7b85870187613e29565b919450925090506001600160e01b03198216632b35166160e11b14610d9f57600080fd5b60008082806020019051810190610db69190613ea1565b509193509150506001600160a01b038516610dd057600080fd5b6001600160a01b0385166000908152600e602052604081205490819003610e0a5760405163ba3f1ed160e01b815260040160405180910390fd5b6000866001600160a01b03163b11610e2157600080fd5b60405163aab1e47b60e01b81526001600160a01b0384811660048301526000919088169063aab1e47b90602401602060405180830381865afa158015610e6b573d6000803e3d6000fd5b505050506040513d601f19601f82011682018060405250810190610e8f9190613f6a565b604051632b35166160e11b81529091506001600160a01b0388169063566a2cc290610ec2908f908f908a90600401613f83565b600060405180830381600087803b158015610edc57600080fd5b505af1925050508015610eed575060015b610f31573d808015610f1b576040519150601f19603f3d011682016040523d82523d6000602084013e610f20565b606091505b50610f2b8882612151565b50610fa8565b60405163aab1e47b60e01b81526001600160a01b03858116600483015282919089169063aab1e47b90602401602060405180830381865afa158015610f7a573d6000803e3d6000fd5b505050506040513d601f19601f82011682018060405250810190610f9e9190613f6a565b11610fa857600080fd5b6000828152600b6020526040812080548290610fc390613d83565b91829055509050620f424081106110005760405162a4ae4960e51b8152620f424060048201526001600160a01b0389166024820152604401610723565b60008161101085620f4240613fb3565b61101a9190613fca565b6000818152601060209081526040909120875192935061103e9290918801906131c2565b5061104986826127ec565b985050505050505050505b949350505050565b6000818152600260205260408120546001600160a01b0316806105f05760405162461bcd60e51b815260206004820152601860248201527f4552433732313a20696e76616c696420746f6b656e20494400000000000000006044820152606401610723565b336110cb8261105c565b6001600160a01b0316146110f257604051639d6cfcf960e01b815260040160405180910390fd5b60006111006103ac83611b8e565b604051635f6fbbd360e11b81523360048201529091506001600160a01b0382169063bedf77a690602401600060405180830381600087803b15801561114457600080fd5b505af1925050508015611155575060015b611307573d808015611183576040519150601f19603f3d011682016040523d82523d6000602084013e611188565b606091505b50604051630f6889d760e11b81526000903090631ed113ae906111af908590600401613351565b602060405180830381865afa1580156111cc573d6000803e3d6000fd5b505050506040513d601f19601f820116820180604052508101906111f09190613fe8565b90506316c646ed60e11b6001600160e01b031982160161122357604051636939b91360e11b815260040160405180910390fd5b63af5a0bfb60e01b6001600160e01b03198216016112ec57604051636d2c0a9960e11b81526000908190309063da58153290611263908790600401613351565b600060405180830381865afa158015611280573d6000803e3d6000fd5b505050506040513d6000823e601f3d908101601f191682016040526112a8919081019061404a565b8060200190518101906112bb919061407f565b6040516350a5f40560e01b81526001600160a01b038084166004830152821660248201529193509150604401610723565b81604051637a6f0a9560e11b81526004016107239190613351565b60405163aab1e47b60e01b81523360048201526001600160a01b0382169063aab1e47b90602401602060405180830381865afa15801561134b573d6000803e3d6000fd5b505050506040513d601f19601f8201168201806040525081019061136f9190613f6a565b1561137957600080fd5b600082815260106020526040812061139091613209565b61139982612806565b5050565b60006001600160a01b03821661141b5760405162461bcd60e51b815260206004820152602960248201527f4552433732313a2061646472657373207a65726f206973206e6f74206120766160448201527f6c6964206f776e657200000000000000000000000000000000000000000000006064820152608401610723565b506001600160a01b031660009081526003602052604090205490565b6011602052816000526040600020818154811061145357600080fd5b9060005260206000200160009150915050805461146f90613b51565b80601f016020809104026020016040519081016040528092919081815260200182805461149b90613b51565b80156114e85780601f106114bd576101008083540402835291602001916114e8565b820191906000526020600020905b8154815290600101906020018083116114cb57829003601f168201915b505050505081565b60606001805461060590613b51565b6113993383836128ad565b6000611054848484600080611bc1565b60006115286103ac84611b8e565b905060008190506000816001600160a01b031663cf0840566040518163ffffffff1660e01b8152600401602060405180830381865afa15801561156f573d6000803e3d6000fd5b505050506040513d601f19601f820116820180604052508101906115939190613d9c565b9050336001600160a01b038216146115be57604051631ca2636960e11b815260040160405180910390fd5b6115ca600a868661297b565b5050505050565b6115db3383611f14565b61163e5760405162461bcd60e51b815260206004820152602e60248201527f4552433732313a2063616c6c6572206973206e6f7420746f6b656e206f776e6560448201526d1c881b9bdc88185c1c1c9bdd995960921b6064820152608401610723565b61164a848484846129ca565b50505050565b60008061165f84860186613e29565b505090506000816001600160a01b031663fc0c546a6040518163ffffffff1660e01b8152600401602060405180830381865afa1580156116a3573d6000803e3d6000fd5b505050506040513d601f19601f820116820180604052508101906116c79190613d9c565b8451604080870151608088015160a089015160c08a015160e08b0151945163d505accf60e01b81526001600160a01b03968716600482015289871660248201526044810194909452606484019290925260ff16608483015260a482015260c481019190915291925082169063d505accf9060e401600060405180830381600087803b15801561175557600080fd5b505af1925050508015611766575060015b611794573d808015610aca576040519150601f19603f3d011682016040523d82523d6000602084013e610acf565b610af888888888610d6a565b606060006117ad83611b8e565b905060006117ba82610c52565b905060008190506000816001600160a01b031663c66301b26040518163ffffffff1660e01b8152600401602060405180830381865afa158015611801573d6000803e3d6000fd5b505050506040513d601f19601f820116820180604052508101906118259190613f6a565b905060008167ffffffffffffffff811115611842576118426133eb565b60405190808252806020026020018201604052801561186b578160200160208202803683370190505b50905060005b8281101561191157604051631e1b257360e01b8152600481018290526001600160a01b03851690631e1b257390602401602060405180830381865afa1580156118be573d6000803e3d6000fd5b505050506040513d601f19601f820116820180604052508101906118e29190613f6a565b8282815181106118f4576118f4613e13565b60209081029190910101528061190981613d83565b915050611871565b506000858152600f6020908152604080832054815161010081019092528882526001600160a01b031692918101620f424061194b8c611b8e565b6119559190613fb3565b61195f908c6140ae565b815260200161196d8b61105c565b6001600160a01b031681526020016119848b610c88565b15158152602001848152602001601060008c81526020019081526020016000208054806020026020016040519081016040528092919081815260200182805480156119ee57602002820191906000526020600020905b8154815260200190600101908083116119da575b50505050508152602001601160008a8152602001908152602001600020805480602002602001604051908101604052809291908181526020016000905b82821015611ad7578382906000526020600020018054611a4a90613b51565b80601f0160208091040260200160405190810160405280929190818152602001828054611a7690613b51565b8015611ac35780601f10611a9857610100808354040283529160200191611ac3565b820191906000526020600020905b815481529060010190602001808311611aa657829003601f168201915b505050505081526020019060010190611a2b565b50505090825250602001859052604051630fe7d9a960e31b81529091506001600160a01b03831690637f3ecd4890611b13908490600401614151565b600060405180830381865afa158015611b30573d6000803e3d6000fd5b505050506040513d6000823e601f3d908101601f19168201604052611b58919081019061404a565b9998505050505050505050565b36600060048311611b7557600080fd5b611b828360048187613db9565b915091505b9250929050565b600081600003611bb45760405163ed15e6cf60e01b815260048101839052602401610723565b6105f0620f424083614200565b6001600160a01b0385166000908152600e6020526040812054808203611bfa5760405163ba3f1ed160e01b815260040160405180910390fd5b604051631dbe00c760e31b815287906001600160a01b0382169063edf0063890611c309033908b908b908b908b90600401614222565b600060405180830381600087803b158015611c4a57600080fd5b505af1925050508015611c5b575060015b611c9b573d808015611c89576040519150601f19603f3d011682016040523d82523d6000602084013e611c8e565b606091505b50611c998982612151565b505b6000828152600b6020526040812080548290611cb690613d83565b91829055509050620f42408110611cf35760405162a4ae4960e51b8152620f424060048201526001600160a01b038a166024820152604401610723565b600081611d0385620f4240613fb3565b611d0d9190613fca565b6000818152601060205260409020909150611d29908a8a613227565b50611b5833826127ec565b60006001600160e01b031982166380ac58cd60e01b1480611d6557506001600160e01b03198216635b5e139f60e01b145b806105f057506301ffc9a760e01b6001600160e01b03198316146105f0565b6000818152600260205260409020546001600160a01b0316611de85760405162461bcd60e51b815260206004820152601860248201527f4552433732313a20696e76616c696420746f6b656e20494400000000000000006044820152606401610723565b50565b600081815260046020526040902080546001600160a01b0319166001600160a01b0384169081179091558190611e208261105c565b6001600160a01b03167f8c5be1e5ebec7d5bd14f71427d1e84f3dd0314c0f7b2291e5b200ac8c7c3b92560405160405180910390a45050565b60006040517f3d602d80600a3d3981f3363d3d373d3d3d363d7300000000000000000000000081528260601b60148201527f5af43d82803e903d91602b57fd5bf3000000000000000000000000000000000060288201526037816000f09150506001600160a01b038116611f0f5760405162461bcd60e51b815260206004820152601660248201527f455243313136373a20637265617465206661696c6564000000000000000000006044820152606401610723565b919050565b600080611f208361105c565b9050806001600160a01b0316846001600160a01b03161480611f6757506001600160a01b0380821660009081526005602090815260408083209388168352929052205460ff165b806110545750836001600160a01b0316611f8084610688565b6001600160a01b031614949350505050565b826001600160a01b0316611fa58261105c565b6001600160a01b0316146120215760405162461bcd60e51b815260206004820152602560248201527f4552433732313a207472616e736665722066726f6d20696e636f72726563742060448201527f6f776e65720000000000000000000000000000000000000000000000000000006064820152608401610723565b6001600160a01b0382166120835760405162461bcd60e51b8152602060048201526024808201527f4552433732313a207472616e7366657220746f20746865207a65726f206164646044820152637265737360e01b6064820152608401610723565b61208e838383612a48565b612099600082611deb565b6001600160a01b03831660009081526003602052604081208054600192906120c29084906140ae565b90915550506001600160a01b03821660009081526003602052604081208054600192906120f0908490613fca565b909155505060008181526002602052604080822080546001600160a01b0319166001600160a01b0386811691821790925591518493918716917fddf252ad1be2c89b69c2b068fc378daa952ba7f163c4a11628f55a4df523b3ef91a4505050565b604051630f6889d760e11b81526000903090631ed113ae90612177908590600401613351565b602060405180830381865afa158015612194573d6000803e3d6000fd5b505050506040513d601f19601f820116820180604052508101906121b89190613fe8565b9050630aa90e7d60e41b6001600160e01b03198216016122e5576000806000806000306001600160a01b031663da581532886040518263ffffffff1660e01b81526004016122069190613351565b600060405180830381865afa158015612223573d6000803e3d6000fd5b505050506040513d6000823e601f3d908101601f1916820160405261224b919081019061404a565b80602001905181019061225e9190614260565b94509450945094509450876001600160a01b0316856001600160a01b03161461229a576040516366e98a0360e11b815260040160405180910390fd5b30848463566a2cc260e01b8b86866040516020016122ba93929190614381565b60408051601f1981840301815290829052630556f18360e41b825261072395949392916004016143bb565b6304b2976360e51b6001600160e01b03198216016123af57604051636d2c0a9960e11b81526000908190309063da58153290612325908790600401613351565b600060405180830381865afa158015612342573d6000803e3d6000fd5b505050506040513d6000823e601f3d908101601f1916820160405261236a919081019061404a565b80602001905181019061237d919061442b565b60405163034d689d60e51b815267ffffffffffffffff8084166004830152821660248201529193509150604401610723565b63af5a0bfb60e01b6001600160e01b03198216016123ef57604051636d2c0a9960e11b81526000908190309063da58153290611263908790600401613351565b634f18108560e01b6001600160e01b03198216016124205760405163b0e7ef7b60e01b815260040160405180910390fd5b637850816d60e01b6001600160e01b0319821601612451576040516387af7e9360e01b815260040160405180910390fd5b63aa0409ff60e01b6001600160e01b0319821601612482576040516355fbf60160e01b815260040160405180910390fd5b631498bed160e21b6001600160e01b031982160161254257604051636d2c0a9960e11b81526000908190309063da581532906124c2908790600401613351565b600060405180830381865afa1580156124df573d6000803e3d6000fd5b505050506040513d6000823e601f3d908101601f19168201604052612507919081019061404a565b80602001905181019061251a919061445e565b604051632b67412f60e21b815260048101839052602481018290529193509150604401610723565b63c0da8dcd60e01b6001600160e01b031982160161260257604051636d2c0a9960e11b81526000908190309063da58153290612582908790600401613351565b600060405180830381865afa15801561259f573d6000803e3d6000fd5b505050506040513d6000823e601f3d908101601f191682016040526125c7919081019061404a565b8060200190518101906125da919061445e565b604051633f25723360e01b815260048101839052602481018290529193509150604401610723565b630ba2bc4160e01b6001600160e01b03198216016126335760405163f45d43bf60e01b815260040160405180910390fd5b630a2ffe4360e21b6001600160e01b0319821601612664576040516335d001bd60e21b815260040160405180910390fd5b634ce6383560e11b6001600160e01b031982160161272457604051636d2c0a9960e11b81526000908190309063da581532906126a4908790600401613351565b600060405180830381865afa1580156126c1573d6000803e3d6000fd5b505050506040513d6000823e601f3d908101601f191682016040526126e9919081019061404a565b8060200190518101906126fc919061445e565b604051633319c7cb60e11b815260048101839052602481018290529193509150604401610723565b633cc591e160e11b6001600160e01b03198216016112ec57604051636d2c0a9960e11b81526000908190309063da58153290612764908790600401613351565b600060405180830381865afa158015612781573d6000803e3d6000fd5b505050506040513d6000823e601f3d908101601f191682016040526127a9919081019061404a565b8060200190518101906127bc9190614482565b60405163433a6e1f60e11b81526001600160a01b0383166004820152602481018290529193509150604401610723565b611399828260405180602001604052806000815250612c0f565b60006128118261105c565b905061281f81600084612a48565b61282a600083611deb565b6001600160a01b03811660009081526003602052604081208054600192906128539084906140ae565b909155505060008281526002602052604080822080546001600160a01b0319169055518391906001600160a01b038416907fddf252ad1be2c89b69c2b068fc378daa952ba7f163c4a11628f55a4df523b3ef908390a45050565b816001600160a01b0316836001600160a01b03160361290e5760405162461bcd60e51b815260206004820152601960248201527f4552433732313a20617070726f766520746f2063616c6c6572000000000000006044820152606401610723565b6001600160a01b03838116600081815260056020908152604080832094871680845294825291829020805460ff191686151590811790915591519182527f17307eab39ab6107e8899845ad3d59bd9653f200f220920489ca2b5937696c31910160405180910390a3505050565b80156129a557600882901c60009081526020849052604090208054600160ff85161b179055505050565b600882901c60009081526020849052604090208054600160ff85161b19169055505050565b6129d5848484611f92565b6129e184848484612c8d565b61164a5760405162461bcd60e51b815260206004820152603260248201527f4552433732313a207472616e7366657220746f206e6f6e20455243373231526560448201527131b2b4bb32b91034b6b83632b6b2b73a32b960711b6064820152608401610723565b612a53838383612dd6565b60006001600160a01b0384161580612a7257506001600160a01b038316155b90508015612a805750505050565b6000612a8e6103ac84611b8e565b9050806001816001600160a01b0316637855d30c6040518163ffffffff1660e01b8152600401602060405180830381865afa158015612ad1573d6000803e3d6000fd5b505050506040513d601f19601f82011682018060405250810190612af591906144c6565b6003811115612b0657612b066144b0565b1480612b8457506000816001600160a01b0316637855d30c6040518163ffffffff1660e01b8152600401602060405180830381865afa158015612b4d573d6000803e3d6000fd5b505050506040513d601f19601f82011682018060405250810190612b7191906144c6565b6003811115612b8257612b826144b0565b145b15612c075780816001600160a01b0316637855d30c6040518163ffffffff1660e01b8152600401602060405180830381865afa158015612bc8573d6000803e3d6000fd5b505050506040513d601f19601f82011682018060405250810190612bec91906144c6565b604051630e0bf90360e41b81526004016107239291906144e7565b505050505050565b612c198383612e8e565b612c266000848484612c8d565b6107c45760405162461bcd60e51b815260206004820152603260248201527f4552433732313a207472616e7366657220746f206e6f6e20455243373231526560448201527131b2b4bb32b91034b6b83632b6b2b73a32b960711b6064820152608401610723565b60006001600160a01b0384163b15612dce57604051630a85bd0160e11b81526001600160a01b0385169063150b7a0290612cd1903390899088908890600401614522565b6020604051808303816000875af1925050508015612d0c575060408051601f3d908101601f19168201909252612d0991810190613fe8565b60015b612db4573d808015612d3a576040519150601f19603f3d011682016040523d82523d6000602084013e612d3f565b606091505b508051600003612dac5760405162461bcd60e51b815260206004820152603260248201527f4552433732313a207472616e7366657220746f206e6f6e20455243373231526560448201527131b2b4bb32b91034b6b83632b6b2b73a32b960711b6064820152608401610723565b805181602001fd5b6001600160e01b031916630a85bd0160e11b149050611054565b506001611054565b6001600160a01b038316612e3157612e2c81600880546000838152600960205260408120829055600182018355919091527ff3f7a9fe364faab93b216da50a3214154f22a0a2b415b23a84c8169e8b636ee30155565b612e54565b816001600160a01b0316836001600160a01b031614612e5457612e548382612fdc565b6001600160a01b038216612e6b576107c481613079565b826001600160a01b0316826001600160a01b0316146107c4576107c48282613128565b6001600160a01b038216612ee45760405162461bcd60e51b815260206004820181905260248201527f4552433732313a206d696e7420746f20746865207a65726f20616464726573736044820152606401610723565b6000818152600260205260409020546001600160a01b031615612f495760405162461bcd60e51b815260206004820152601c60248201527f4552433732313a20746f6b656e20616c7265616479206d696e746564000000006044820152606401610723565b612f5560008383612a48565b6001600160a01b0382166000908152600360205260408120805460019290612f7e908490613fca565b909155505060008181526002602052604080822080546001600160a01b0319166001600160a01b03861690811790915590518392907fddf252ad1be2c89b69c2b068fc378daa952ba7f163c4a11628f55a4df523b3ef908290a45050565b60006001612fe98461139d565b612ff391906140ae565b600083815260076020526040902054909150808214613046576001600160a01b03841660009081526006602090815260408083208584528252808320548484528184208190558352600790915290208190555b5060009182526007602090815260408084208490556001600160a01b039094168352600681528383209183525290812055565b60085460009061308b906001906140ae565b600083815260096020526040812054600880549394509092849081106130b3576130b3613e13565b9060005260206000200154905080600883815481106130d4576130d4613e13565b600091825260208083209091019290925582815260099091526040808220849055858252812055600880548061310c5761310c614554565b6001900381819060005260206000200160009055905550505050565b60006131338361139d565b6001600160a01b039093166000908152600660209081526040808320868452825280832085905593825260079052919091209190915550565b8280548282559060005260206000209081019282156131b2579160200282015b828111156131b257825182906131a290826145b0565b509160200191906001019061318c565b506131be929150613262565b5090565b8280548282559060005260206000209081019282156131fd579160200282015b828111156131fd5782518255916020019190600101906131e2565b506131be92915061327f565b5080546000825590600052602060002090810190611de8919061327f565b8280548282559060005260206000209081019282156131fd579160200282015b828111156131fd578235825591602001919060010190613247565b808211156131be5760006132768282613294565b50600101613262565b5b808211156131be5760008155600101613280565b5080546132a090613b51565b6000825580601f106132b0575050565b601f016020900490600052602060002090810190611de8919061327f565b6001600160e01b031981168114611de857600080fd5b6000602082840312156132f657600080fd5b8135610b2b816132ce565b60005b8381101561331c578181015183820152602001613304565b50506000910152565b6000815180845261333d816020860160208601613301565b601f01601f19169290920160200192915050565b602081526000610b2b6020830184613325565b60006020828403121561337657600080fd5b5035919050565b6001600160a01b0381168114611de857600080fd5b8035611f0f8161337d565b600080604083850312156133b057600080fd5b82356133bb8161337d565b946020939093013593505050565b600080604083850312156133dc57600080fd5b50508035926020909101359150565b634e487b7160e01b600052604160045260246000fd5b604051601f8201601f1916810167ffffffffffffffff8111828210171561342a5761342a6133eb565b604052919050565b600067ffffffffffffffff82111561344c5761344c6133eb565b5060051b60200190565b600067ffffffffffffffff821115613470576134706133eb565b50601f01601f191660200190565b600061349161348c84613456565b613401565b90508281528383830111156134a557600080fd5b828260208301376000602084830101529392505050565b6000806000606084860312156134d157600080fd5b833567ffffffffffffffff808211156134e957600080fd5b9085019061016082880312156134fe57600080fd5b909350602090858201358181111561351557600080fd5b8601601f8101881361352657600080fd5b803561353461348c82613432565b81815260059190911b8201840190848101908a83111561355357600080fd5b8584015b838110156135a05780358681111561356f5760008081fd5b8501603f81018d136135815760008081fd5b6135928d898301356040840161347e565b845250918601918601613557565b508097505050505050506135b660408501613392565b90509250925092565b60008083601f8401126135d157600080fd5b50813567ffffffffffffffff8111156135e957600080fd5b6020830191508360208260051b8501011115611b8757600080fd5b8015158114611de857600080fd5b803560ff81168114611f0f57600080fd5b600061010080838503121561363757600080fd5b6040519081019067ffffffffffffffff8211818310171561365a5761365a6133eb565b816040528092508335915061366e8261337d565b81815261367d60208501613392565b60208201526040840135604082015260608401356060820152608084013560808201526136ac60a08501613612565b60a082015260c084013560c082015260e084013560e0820152505092915050565b60008060008060008061018087890312156136e757600080fd5b86356136f28161337d565b9550602087013567ffffffffffffffff81111561370e57600080fd5b61371a89828a016135bf565b909650945050604087013561372e81613604565b9250606087013561373e8161337d565b915061374d8860808901613623565b90509295509295509295565b60008083601f84011261376b57600080fd5b50813567ffffffffffffffff81111561378357600080fd5b602083019150836020828501011115611b8757600080fd5b600080602083850312156137ae57600080fd5b823567ffffffffffffffff8111156137c557600080fd5b6137d185828601613759565b90969095509350505050565b6000806000606084860312156137f257600080fd5b83356137fd8161337d565b9250602084013561380d8161337d565b929592945050506040919091013590565b6000806000806040858703121561383457600080fd5b843567ffffffffffffffff8082111561384c57600080fd5b61385888838901613759565b9096509450602087013591508082111561387157600080fd5b5061387e87828801613759565b95989497509550505050565b60006020828403121561389c57600080fd5b8135610b2b8161337d565b600080604083850312156138ba57600080fd5b82356138c58161337d565b915060208301356138d581613604565b809150509250929050565b6000806000604084860312156138f557600080fd5b83356139008161337d565b9250602084013567ffffffffffffffff81111561391c57600080fd5b613928868287016135bf565b9497909650939450505050565b6000806040838503121561394857600080fd5b8235915060208301356138d581613604565b600082601f83011261396b57600080fd5b610b2b8383356020850161347e565b6000806000806080858703121561399057600080fd5b843561399b8161337d565b935060208501356139ab8161337d565b925060408501359150606085013567ffffffffffffffff8111156139ce57600080fd5b6139da8782880161395a565b91505092959194509250565b600080600080600061014086880312156139ff57600080fd5b853567ffffffffffffffff80821115613a1757600080fd5b613a2389838a01613759565b90975095506020880135915080821115613a3c57600080fd5b50613a4988828901613759565b9094509250613a5d90508760408801613623565b90509295509295909350565b81835281816020850137506000828201602090810191909152601f909101601f19169091010190565b602081526000611054602083018486613a69565b60008060408385031215613ab957600080fd5b8235613ac48161337d565b915060208301356138d58161337d565b600080600080600060808688031215613aec57600080fd5b8535613af78161337d565b9450602086013567ffffffffffffffff811115613b1357600080fd5b613b1f888289016135bf565b9095509350506040860135613b3381613604565b91506060860135613b438161337d565b809150509295509295909350565b600181811c90821680613b6557607f821691505b602082108103613b8557634e487b7160e01b600052602260045260246000fd5b50919050565b6000808335601e19843603018112613ba257600080fd5b830160208101925035905067ffffffffffffffff811115613bc257600080fd5b8060051b3603821315611b8757600080fd5b81835260007f07ffffffffffffffffffffffffffffffffffffffffffffffffffffffffffffff831115613c0657600080fd5b8260051b80836020870137939093016020019392505050565b6000808335601e19843603018112613c3657600080fd5b830160208101925035905067ffffffffffffffff811115613c5657600080fd5b803603821315611b8757600080fd5b6001600160a01b038316815260406020820152613c9560408201613c8884613392565b6001600160a01b03169052565b6000613ca360208401613392565b6001600160a01b03811660608401525060408301356080830152606083013560a0830152608083013560c083015260a083013560e0830152613ce860c0840184613b8b565b6101606101008181870152613d026101a087018486613bd4565b9350610120925060e0870135838701526101408188013581880152613d28848901613392565b6001600160a01b038116888501529350613d4481890189613c1f565b945092505050603f1985840301610180860152613d62838383613a69565b979650505050505050565b634e487b7160e01b600052601160045260246000fd5b600060018201613d9557613d95613d6d565b5060010190565b600060208284031215613dae57600080fd5b8151610b2b8161337d565b60008085851115613dc957600080fd5b83861115613dd657600080fd5b5050820193919092039150565b6001600160e01b03198135818116916004851015613e0b5780818660040360031b1b83161692505b505092915050565b634e487b7160e01b600052603260045260246000fd5b600080600060608486031215613e3e57600080fd5b8335613e498161337d565b92506020840135613e59816132ce565b9150604084013567ffffffffffffffff811115613e7557600080fd5b613e818682870161395a565b9150509250925092565b8051611f0f8161337d565b8051611f0f81613604565b60008060008060808587031215613eb757600080fd5b8451613ec28161337d565b8094505060208086015167ffffffffffffffff811115613ee157600080fd5b8601601f81018813613ef257600080fd5b8051613f0061348c82613432565b81815260059190911b8201830190838101908a831115613f1f57600080fd5b928401925b82841015613f3d57835182529284019290840190613f24565b8097505050505050613f5160408601613e96565b9150613f5f60608601613e8b565b905092959194509250565b600060208284031215613f7c57600080fd5b5051919050565b604081526000613f97604083018587613a69565b8281036020840152613fa98185613325565b9695505050505050565b80820281158282048414176105f0576105f0613d6d565b808201808211156105f0576105f0613d6d565b8051611f0f816132ce565b600060208284031215613ffa57600080fd5b8151610b2b816132ce565b600082601f83011261401657600080fd5b815161402461348c82613456565b81815284602083860101111561403957600080fd5b611054826020830160208701613301565b60006020828403121561405c57600080fd5b815167ffffffffffffffff81111561407357600080fd5b61105484828501614005565b6000806040838503121561409257600080fd5b825161409d8161337d565b60208401519092506138d58161337d565b818103818111156105f0576105f0613d6d565b600081518084526020808501945080840160005b838110156140f1578151875295820195908201906001016140d5565b509495945050505050565b600081518084526020808501808196508360051b8101915082860160005b85811015614144578284038952614132848351613325565b9885019893509084019060010161411a565b5091979650505050505050565b6020815281516020820152602082015160408201526000604083015161418260608401826001600160a01b03169052565b50606083015180151560808401525060808301516101008060a08501526141ad6101208501836140c1565b915060a0850151601f19808685030160c08701526141cb84836140c1565b935060c08701519150808685030160e0870152506141e983826140fc565b92505060e085015181850152508091505092915050565b60008261421d57634e487b7160e01b600052601260045260246000fd5b500490565b60006001600160a01b03808816835260806020840152614246608084018789613bd4565b941515604084015292909216606090910152509392505050565b600080600080600060a0868803121561427857600080fd5b85516142838161337d565b8095505060208087015167ffffffffffffffff808211156142a357600080fd5b818901915089601f8301126142b757600080fd5b81516142c561348c82613432565b81815260059190911b8301840190848101908c8311156142e457600080fd5b8585015b8381101561431c578051858111156143005760008081fd5b61430e8f89838a0101614005565b8452509186019186016142e8565b5060408c0151909950945050508083111561433657600080fd5b6143428a848b01614005565b955061435060608a01613fdd565b9450608089015192508083111561436657600080fd5b505061437488828901614005565b9150509295509295909350565b6001600160a01b038416815263ffffffff60e01b831660208201526060604082015260006143b26060830184613325565b95945050505050565b6001600160a01b038616815260a0602082015260006143dd60a08301876140fc565b82810360408401526143ef8187613325565b6001600160e01b03198616606085015283810360808501529050610af88185613325565b805167ffffffffffffffff81168114611f0f57600080fd5b6000806040838503121561443e57600080fd5b61444783614413565b915061445560208401614413565b90509250929050565b6000806040838503121561447157600080fd5b505080516020909101519092909150565b6000806040838503121561449557600080fd5b82516144a08161337d565b6020939093015192949293505050565b634e487b7160e01b600052602160045260246000fd5b6000602082840312156144d857600080fd5b815160048110610b2b57600080fd5b6001600160a01b0383168152604081016004831061451557634e487b7160e01b600052602160045260246000fd5b8260208301529392505050565b60006001600160a01b03808716835280861660208401525083604083015260806060830152613fa96080830184613325565b634e487b7160e01b600052603160045260246000fd5b601f8211156107c457600081815260208120601f850160051c810160208610156145915750805b601f850160051c820191505b81811015612c075782815560010161459d565b815167ffffffffffffffff8111156145ca576145ca6133eb565b6145de816145d88454613b51565b8461456a565b602080601f83116001811461461357600084156145fb5750858301515b600019600386901b1c1916600185901b178555612c07565b600085815260208120601f198616915b8281101561464257888601518255948401946001909101908401614623565b50858210156146605787850151600019600388901b60f8161c191681555b5050505050600190811b0190555056fea2646970667358221220c9c0d9ea03b67787c88b61c71f6856bd02cdecc6471fc628b50156f630716fb264736f6c63430008150033",
    "linkReferences": {}
  },
  "methodIdentifiers": {
    "ID_MULTIPLE()": "c91539bc",
    "approve(address,uint256)": "095ea7b3",
    "balanceOf(address)": "70a08231",
    "createCrowdtainer((address,address,uint256,uint256,uint256,uint256,uint256[],uint256,uint256,address,string),string[],address)": "0cfd7fd6",
    "crowdtainerCount()": "cbe80712",
    "crowdtainerForId(uint256)": "b5022343",
    "crowdtainerIdToAddress(uint256)": "351a41c5",
    "getApproved(uint256)": "081812fc",
    "getClaimStatus(uint256)": "36dbd2f9",
    "getParameters(bytes)": "da581532",
    "getSignature(bytes)": "1ed113ae",
    "idForCrowdtainer(address)": "6df0c83a",
    "isApprovedForAll(address,address)": "e985e9c5",
    "join(address,uint256[])": "a25a7d3b",
    "join(address,uint256[],bool,address)": "edf00638",
    "join(address,uint256[],bool,address,(address,address,uint256,uint256,uint256,uint8,bytes32,bytes32))": "1856bc1b",
    "joinWithSignature(bytes,bytes)": "566a2cc2",
    "joinWithSignatureAndPermit(bytes,bytes,(address,address,uint256,uint256,uint256,uint8,bytes32,bytes32))": "c0920f6b",
    "leave(uint256)": "67dfd4c9",
    "metadataServiceForCrowdatinerId(uint256)": "ca6d45ca",
    "name()": "06fdde03",
    "ownerOf(uint256)": "6352211e",
    "productDescription(uint256,uint256)": "7169d23b",
    "safeTransferFrom(address,address,uint256)": "42842e0e",
    "safeTransferFrom(address,address,uint256,bytes)": "b88d4fde",
    "setApprovalForAll(address,bool)": "a22cb465",
    "setClaimStatus(uint256,bool)": "a3b9871a",
    "supportsInterface(bytes4)": "01ffc9a7",
    "symbol()": "95d89b41",
    "tokenByIndex(uint256)": "4f6ccce7",
    "tokenIdQuantities(uint256,uint256)": "0b82a21c",
    "tokenIdToCrowdtainerId(uint256)": "db5a0e83",
    "tokenOfOwnerByIndex(address,uint256)": "2f745c59",
    "tokenURI(uint256)": "c87b56dd",
    "totalSupply()": "18160ddd",
    "transferFrom(address,address,uint256)": "23b872dd"
  },
  "id": 33
}