{
  "abi": [
    {
      "inputs": [
        {
          "internalType": "address",
          "name": "_crowdtainerImplementation",
          "type": "address"
        }
      ],
      "stateMutability": "nonpayable",
      "type": "constructor"
    },
    {
      "inputs": [],
      "name": "AccountNotOwner",
      "type": "error"
    },
    {
      "inputs": [],
      "name": "CCIP_Read_InvalidOperation",
      "type": "error"
    },
    {
      "inputs": [
        {
          "internalType": "address",
          "name": "expected",
          "type": "address"
        },
        {
          "internalType": "address",
          "name": "actual",
          "type": "address"
        }
      ],
      "name": "CallerNotAllowed",
      "type": "error"
    },
    {
      "inputs": [],
      "name": "CrowdtainerInexistent",
      "type": "error"
    },
    {
      "inputs": [
        {
          "internalType": "uint256",
          "name": "tokenId",
          "type": "uint256"
        }
      ],
      "name": "InvalidTokenId",
      "type": "error"
    },
    {
      "inputs": [
        {
          "internalType": "uint256",
          "name": "maximum",
          "type": "uint256"
        },
        {
          "internalType": "address",
          "name": "crowdtainer",
          "type": "address"
        }
      ],
      "name": "MaximumNumberOfParticipantsReached",
      "type": "error"
    },
    {
      "inputs": [],
      "name": "MetadataServiceAddressIsZero",
      "type": "error"
    },
    {
      "inputs": [
        {
          "internalType": "address",
          "name": "sender",
          "type": "address"
        },
        {
          "internalType": "string[]",
          "name": "urls",
          "type": "string[]"
        },
        {
          "internalType": "bytes",
          "name": "callData",
          "type": "bytes"
        },
        {
          "internalType": "bytes4",
          "name": "callbackFunction",
          "type": "bytes4"
        },
        {
          "internalType": "bytes",
          "name": "extraData",
          "type": "bytes"
        }
      ],
      "name": "OffchainLookup",
      "type": "error"
    },
    {
      "inputs": [],
      "name": "SetClaimedOnlyAllowedByShippingAgent",
      "type": "error"
    },
    {
      "inputs": [
        {
          "internalType": "uint64",
          "name": "current",
          "type": "uint64"
        },
        {
          "internalType": "uint64",
          "name": "expires",
          "type": "uint64"
        }
      ],
      "name": "SignatureExpired",
      "type": "error"
    },
    {
      "inputs": [
        {
          "internalType": "address",
          "name": "crowdtainer",
          "type": "address"
        },
        {
          "internalType": "enum CrowdtainerState",
          "name": "state",
          "type": "uint8"
        }
      ],
      "name": "TransferNotAllowed",
      "type": "error"
    },
    {
      "anonymous": false,
      "inputs": [
        {
          "indexed": true,
          "internalType": "address",
          "name": "owner",
          "type": "address"
        },
        {
          "indexed": true,
          "internalType": "address",
          "name": "approved",
          "type": "address"
        },
        {
          "indexed": true,
          "internalType": "uint256",
          "name": "tokenId",
          "type": "uint256"
        }
      ],
      "name": "Approval",
      "type": "event"
    },
    {
      "anonymous": false,
      "inputs": [
        {
          "indexed": true,
          "internalType": "address",
          "name": "owner",
          "type": "address"
        },
        {
          "indexed": true,
          "internalType": "address",
          "name": "operator",
          "type": "address"
        },
        {
          "indexed": false,
          "internalType": "bool",
          "name": "approved",
          "type": "bool"
        }
      ],
      "name": "ApprovalForAll",
      "type": "event"
    },
    {
      "anonymous": false,
      "inputs": [
        {
          "indexed": true,
          "internalType": "address",
          "name": "_crowdtainerAddress",
          "type": "address"
        },
        {
          "indexed": false,
          "internalType": "uint256",
          "name": "_nextCrowdtainerId",
          "type": "uint256"
        }
      ],
      "name": "CrowdtainerDeployed",
      "type": "event"
    },
    {
      "anonymous": false,
      "inputs": [
        {
          "indexed": true,
          "internalType": "address",
          "name": "from",
          "type": "address"
        },
        {
          "indexed": true,
          "internalType": "address",
          "name": "to",
          "type": "address"
        },
        {
          "indexed": true,
          "internalType": "uint256",
          "name": "tokenId",
          "type": "uint256"
        }
      ],
      "name": "Transfer",
      "type": "event"
    },
    {
      "anonymous": false,
      "inputs": [
        {
          "indexed": true,
          "internalType": "address",
          "name": "crowdtainer",
          "type": "address"
        }
      ],
      "name": "Vouchers721Created",
      "type": "event"
    },
    {
      "inputs": [],
      "name": "ID_MULTIPLE",
      "outputs": [
        {
          "internalType": "uint256",
          "name": "",
          "type": "uint256"
        }
      ],
      "stateMutability": "view",
      "type": "function"
    },
    {
      "inputs": [
        {
          "internalType": "address",
          "name": "to",
          "type": "address"
        },
        {
          "internalType": "uint256",
          "name": "tokenId",
          "type": "uint256"
        }
      ],
      "name": "approve",
      "outputs": [],
      "stateMutability": "nonpayable",
      "type": "function"
    },
    {
      "inputs": [
        {
          "internalType": "address",
          "name": "owner",
          "type": "address"
        }
      ],
      "name": "balanceOf",
      "outputs": [
        {
          "internalType": "uint256",
          "name": "",
          "type": "uint256"
        }
      ],
      "stateMutability": "view",
      "type": "function"
    },
    {
      "inputs": [
        {
          "components": [
            {
              "internalType": "address",
              "name": "shippingAgent",
              "type": "address"
            },
            {
              "internalType": "address",
              "name": "signer",
              "type": "address"
            },
            {
              "internalType": "uint256",
              "name": "openingTime",
              "type": "uint256"
            },
            {
              "internalType": "uint256",
              "name": "expireTime",
              "type": "uint256"
            },
            {
              "internalType": "uint256",
              "name": "targetMinimum",
              "type": "uint256"
            },
            {
              "internalType": "uint256",
              "name": "targetMaximum",
              "type": "uint256"
            },
            {
              "internalType": "uint256[4]",
              "name": "unitPricePerType",
              "type": "uint256[4]"
            },
            {
              "internalType": "uint256",
              "name": "referralRate",
              "type": "uint256"
            },
            {
              "internalType": "uint256",
              "name": "referralEligibilityValue",
              "type": "uint256"
            },
            {
              "internalType": "address",
              "name": "token",
              "type": "address"
            },
            {
              "internalType": "string",
              "name": "legalContractURI",
              "type": "string"
            }
          ],
          "internalType": "struct CampaignData",
          "name": "_campaignData",
          "type": "tuple"
        },
        {
          "internalType": "string[4]",
          "name": "_productDescription",
          "type": "string[4]"
        },
        {
          "internalType": "address",
          "name": "_metadataService",
          "type": "address"
        }
      ],
      "name": "createCrowdtainer",
      "outputs": [
        {
          "internalType": "address",
          "name": "",
          "type": "address"
        },
        {
          "internalType": "uint256",
          "name": "",
          "type": "uint256"
        }
      ],
      "stateMutability": "nonpayable",
      "type": "function"
    },
    {
      "inputs": [],
      "name": "crowdtainerCount",
      "outputs": [
        {
          "internalType": "uint256",
          "name": "",
          "type": "uint256"
        }
      ],
      "stateMutability": "view",
      "type": "function"
    },
    {
      "inputs": [
        {
          "internalType": "uint256",
          "name": "",
          "type": "uint256"
        }
      ],
      "name": "crowdtainerForId",
      "outputs": [
        {
          "internalType": "address",
          "name": "",
          "type": "address"
        }
      ],
      "stateMutability": "view",
      "type": "function"
    },
    {
      "inputs": [
        {
          "internalType": "uint256",
          "name": "_crowdtainerId",
          "type": "uint256"
        }
      ],
      "name": "crowdtainerIdToAddress",
      "outputs": [
        {
          "internalType": "address",
          "name": "",
          "type": "address"
        }
      ],
      "stateMutability": "view",
      "type": "function"
    },
    {
      "inputs": [
        {
          "internalType": "uint256",
          "name": "tokenId",
          "type": "uint256"
        }
      ],
      "name": "getApproved",
      "outputs": [
        {
          "internalType": "address",
          "name": "",
          "type": "address"
        }
      ],
      "stateMutability": "view",
      "type": "function"
    },
    {
      "inputs": [
        {
          "internalType": "uint256",
          "name": "_tokenId",
          "type": "uint256"
        }
      ],
      "name": "getClaimStatus",
      "outputs": [
        {
          "internalType": "bool",
          "name": "",
          "type": "bool"
        }
      ],
      "stateMutability": "view",
      "type": "function"
    },
    {
      "inputs": [
        {
          "internalType": "bytes",
          "name": "data",
          "type": "bytes"
        }
      ],
      "name": "getParameters",
      "outputs": [
        {
          "internalType": "bytes",
          "name": "",
          "type": "bytes"
        }
      ],
      "stateMutability": "pure",
      "type": "function"
    },
    {
      "inputs": [
        {
          "internalType": "bytes",
          "name": "data",
          "type": "bytes"
        }
      ],
      "name": "getSignature",
      "outputs": [
        {
          "internalType": "bytes4",
          "name": "",
          "type": "bytes4"
        }
      ],
      "stateMutability": "pure",
      "type": "function"
    },
    {
      "inputs": [
        {
          "internalType": "address",
          "name": "",
          "type": "address"
        }
      ],
      "name": "idForCrowdtainer",
      "outputs": [
        {
          "internalType": "uint256",
          "name": "",
          "type": "uint256"
        }
      ],
      "stateMutability": "view",
      "type": "function"
    },
    {
      "inputs": [
        {
          "internalType": "address",
          "name": "owner",
          "type": "address"
        },
        {
          "internalType": "address",
          "name": "operator",
          "type": "address"
        }
      ],
      "name": "isApprovedForAll",
      "outputs": [
        {
          "internalType": "bool",
          "name": "",
          "type": "bool"
        }
      ],
      "stateMutability": "view",
      "type": "function"
    },
    {
      "inputs": [
        {
          "internalType": "address",
          "name": "_crowdtainer",
          "type": "address"
        },
        {
          "internalType": "uint256[4]",
          "name": "_quantities",
          "type": "uint256[4]"
        },
        {
          "internalType": "bool",
          "name": "_enableReferral",
          "type": "bool"
        },
        {
          "internalType": "address",
          "name": "_referrer",
          "type": "address"
        }
      ],
      "name": "join",
      "outputs": [
        {
          "internalType": "uint256",
          "name": "",
          "type": "uint256"
        }
      ],
      "stateMutability": "nonpayable",
      "type": "function"
    },
    {
      "inputs": [
        {
          "internalType": "address",
          "name": "_crowdtainer",
          "type": "address"
        },
        {
          "internalType": "uint256[4]",
          "name": "_quantities",
          "type": "uint256[4]"
        }
      ],
      "name": "join",
      "outputs": [
        {
          "internalType": "uint256",
          "name": "",
          "type": "uint256"
        }
      ],
      "stateMutability": "nonpayable",
      "type": "function"
    },
    {
      "inputs": [
        {
          "internalType": "bytes",
          "name": "result",
          "type": "bytes"
        },
        {
          "internalType": "bytes",
          "name": "extraData",
          "type": "bytes"
        }
      ],
      "name": "joinWithSignature",
      "outputs": [
        {
          "internalType": "uint256",
          "name": "",
          "type": "uint256"
        }
      ],
      "stateMutability": "nonpayable",
      "type": "function"
    },
    {
      "inputs": [
        {
          "internalType": "uint256",
          "name": "_tokenId",
          "type": "uint256"
        }
      ],
      "name": "leave",
      "outputs": [],
      "stateMutability": "nonpayable",
      "type": "function"
    },
    {
      "inputs": [
        {
          "internalType": "uint256",
          "name": "",
          "type": "uint256"
        }
      ],
      "name": "metadataServiceForCrowdatinerId",
      "outputs": [
        {
          "internalType": "address",
          "name": "",
          "type": "address"
        }
      ],
      "stateMutability": "view",
      "type": "function"
    },
    {
      "inputs": [],
      "name": "name",
      "outputs": [
        {
          "internalType": "string",
          "name": "",
          "type": "string"
        }
      ],
      "stateMutability": "view",
      "type": "function"
    },
    {
      "inputs": [
        {
          "internalType": "uint256",
          "name": "tokenId",
          "type": "uint256"
        }
      ],
      "name": "ownerOf",
      "outputs": [
        {
          "internalType": "address",
          "name": "",
          "type": "address"
        }
      ],
      "stateMutability": "view",
      "type": "function"
    },
    {
      "inputs": [
        {
          "internalType": "uint256",
          "name": "",
          "type": "uint256"
        },
        {
          "internalType": "uint256",
          "name": "",
          "type": "uint256"
        }
      ],
      "name": "productDescription",
      "outputs": [
        {
          "internalType": "string",
          "name": "",
          "type": "string"
        }
      ],
      "stateMutability": "view",
      "type": "function"
    },
    {
      "inputs": [
        {
          "internalType": "address",
          "name": "from",
          "type": "address"
        },
        {
          "internalType": "address",
          "name": "to",
          "type": "address"
        },
        {
          "internalType": "uint256",
          "name": "tokenId",
          "type": "uint256"
        }
      ],
      "name": "safeTransferFrom",
      "outputs": [],
      "stateMutability": "nonpayable",
      "type": "function"
    },
    {
      "inputs": [
        {
          "internalType": "address",
          "name": "from",
          "type": "address"
        },
        {
          "internalType": "address",
          "name": "to",
          "type": "address"
        },
        {
          "internalType": "uint256",
          "name": "tokenId",
          "type": "uint256"
        },
        {
          "internalType": "bytes",
          "name": "data",
          "type": "bytes"
        }
      ],
      "name": "safeTransferFrom",
      "outputs": [],
      "stateMutability": "nonpayable",
      "type": "function"
    },
    {
      "inputs": [
        {
          "internalType": "address",
          "name": "operator",
          "type": "address"
        },
        {
          "internalType": "bool",
          "name": "approved",
          "type": "bool"
        }
      ],
      "name": "setApprovalForAll",
      "outputs": [],
      "stateMutability": "nonpayable",
      "type": "function"
    },
    {
      "inputs": [
        {
          "internalType": "uint256",
          "name": "_tokenId",
          "type": "uint256"
        },
        {
          "internalType": "bool",
          "name": "_value",
          "type": "bool"
        }
      ],
      "name": "setClaimStatus",
      "outputs": [],
      "stateMutability": "nonpayable",
      "type": "function"
    },
    {
      "inputs": [
        {
          "internalType": "bytes4",
          "name": "interfaceId",
          "type": "bytes4"
        }
      ],
      "name": "supportsInterface",
      "outputs": [
        {
          "internalType": "bool",
          "name": "",
          "type": "bool"
        }
      ],
      "stateMutability": "view",
      "type": "function"
    },
    {
      "inputs": [],
      "name": "symbol",
      "outputs": [
        {
          "internalType": "string",
          "name": "",
          "type": "string"
        }
      ],
      "stateMutability": "view",
      "type": "function"
    },
    {
      "inputs": [
        {
          "internalType": "uint256",
          "name": "index",
          "type": "uint256"
        }
      ],
      "name": "tokenByIndex",
      "outputs": [
        {
          "internalType": "uint256",
          "name": "",
          "type": "uint256"
        }
      ],
      "stateMutability": "view",
      "type": "function"
    },
    {
      "inputs": [
        {
          "internalType": "uint256",
          "name": "",
          "type": "uint256"
        },
        {
          "internalType": "uint256",
          "name": "",
          "type": "uint256"
        }
      ],
      "name": "tokenIdQuantities",
      "outputs": [
        {
          "internalType": "uint256",
          "name": "",
          "type": "uint256"
        }
      ],
      "stateMutability": "view",
      "type": "function"
    },
    {
      "inputs": [
        {
          "internalType": "uint256",
          "name": "_tokenId",
          "type": "uint256"
        }
      ],
      "name": "tokenIdToCrowdtainerId",
      "outputs": [
        {
          "internalType": "uint256",
          "name": "",
          "type": "uint256"
        }
      ],
      "stateMutability": "pure",
      "type": "function"
    },
    {
      "inputs": [
        {
          "internalType": "address",
          "name": "owner",
          "type": "address"
        },
        {
          "internalType": "uint256",
          "name": "index",
          "type": "uint256"
        }
      ],
      "name": "tokenOfOwnerByIndex",
      "outputs": [
        {
          "internalType": "uint256",
          "name": "",
          "type": "uint256"
        }
      ],
      "stateMutability": "view",
      "type": "function"
    },
    {
      "inputs": [
        {
          "internalType": "uint256",
          "name": "_tokenId",
          "type": "uint256"
        }
      ],
      "name": "tokenURI",
      "outputs": [
        {
          "internalType": "string",
          "name": "",
          "type": "string"
        }
      ],
      "stateMutability": "view",
      "type": "function"
    },
    {
      "inputs": [],
      "name": "totalSupply",
      "outputs": [
        {
          "internalType": "uint256",
          "name": "",
          "type": "uint256"
        }
      ],
      "stateMutability": "view",
      "type": "function"
    },
    {
      "inputs": [
        {
          "internalType": "address",
          "name": "from",
          "type": "address"
        },
        {
          "internalType": "address",
          "name": "to",
          "type": "address"
        },
        {
          "internalType": "uint256",
          "name": "tokenId",
          "type": "uint256"
        }
      ],
      "name": "transferFrom",
      "outputs": [],
      "stateMutability": "nonpayable",
      "type": "function"
    }
  ],
  "bytecode": {
    "object": "0x60a06040523480156200001157600080fd5b5060405162004b1638038062004b168339810160408190526200003491620000d6565b6040518060400160405280600b81526020016a566f75636865727337323160a81b8152506040518060400160405280600381526020016256563160e81b8152508160009081620000859190620001ad565b506001620000948282620001ad565b5050506001600160a01b03811660805260405130907fdd7bf9deccc329033ee50f9e925f9bf2a608eac8950906d19cb2ed39ec61cf3690600090a25062000279565b600060208284031215620000e957600080fd5b81516001600160a01b03811681146200010157600080fd5b9392505050565b634e487b7160e01b600052604160045260246000fd5b600181811c908216806200013357607f821691505b6020821081036200015457634e487b7160e01b600052602260045260246000fd5b50919050565b601f821115620001a857600081815260208120601f850160051c81016020861015620001835750805b601f850160051c820191505b81811015620001a4578281556001016200018f565b5050505b505050565b81516001600160401b03811115620001c957620001c962000108565b620001e181620001da84546200011e565b846200015a565b602080601f831160018114620002195760008415620002005750858301515b600019600386901b1c1916600185901b178555620001a4565b600085815260208120601f198616915b828110156200024a5788860151825594840194600190910190840162000229565b5085821015620002695787850151600019600388901b60f8161c191681555b5050505050600190811b01905550565b60805161488162000295600039600061183f01526148816000f3fe608060405234801561001057600080fd5b50600436106102265760003560e01c80636df0c83a1161012a578063b88d4fde116100bd578063cbe807121161008c578063da58153211610071578063da5815321461054b578063db5a0e831461056c578063e985e9c51461057f57600080fd5b8063cbe807121461052f578063d4a0f6b81461053857600080fd5b8063b88d4fde146104c9578063c87b56dd146104dc578063c91539bc146104ef578063ca6d45ca146104f957600080fd5b8063a0ae459d116100f9578063a0ae459d1461042e578063a22cb4651461046d578063a3b9871a14610480578063b50223431461049357600080fd5b80636df0c83a146103e057806370a08231146104005780637169d23b1461041357806395d89b411461042657600080fd5b80632f745c59116101bd578063464eff501161018c578063566a2cc211610171578063566a2cc2146103a75780636352211e146103ba57806367dfd4c9146103cd57600080fd5b8063464eff50146103815780634f6ccce71461039457600080fd5b80632f745c5914610335578063351a41c51461034857806336dbd2f91461035b57806342842e0e1461036e57600080fd5b80630b82a21c116101f95780630b82a21c146102b557806318160ddd146102d65780631ed113ae146102de57806323b872dd1461032257600080fd5b806301ffc9a71461022b57806306fdde0314610253578063081812fc14610268578063095ea7b3146102a0575b600080fd5b61023e610239366004613555565b6105c8565b60405190151581526020015b60405180910390f35b61025b610624565b60405161024a91906135e0565b61027b6102763660046135f3565b6106b6565b60405173ffffffffffffffffffffffffffffffffffffffff909116815260200161024a565b6102b36102ae366004613639565b6106ea565b005b6102c86102c3366004613665565b61087b565b60405190815260200161024a565b6008546102c8565b6102f16102ec3660046136c9565b6108a0565b6040517fffffffff00000000000000000000000000000000000000000000000000000000909116815260200161024a565b6102b361033036600461370b565b6108ce565b6102c8610343366004613639565b61096f565b61027b6103563660046135f3565b610a3e565b61023e6103693660046135f3565b610a9a565b6102b361037c36600461370b565b610abd565b6102c861038f36600461376b565b610ad8565b6102c86103a23660046135f3565b611105565b6102c86103b53660046137c6565b6111c3565b61027b6103c83660046135f3565b6114bd565b6102b36103db3660046135f3565b611549565b6102c86103ee366004613832565b600e6020526000908152604090205481565b6102c861040e366004613832565b61165e565b61025b610421366004613665565b61172c565b61025b6117d9565b61044161043c36600461397a565b6117e8565b6040805173ffffffffffffffffffffffffffffffffffffffff909316835260208301919091520161024a565b6102b361047b366004613a66565b611a18565b6102b361048e366004613a9f565b611a27565b61027b6104a13660046135f3565b600d6020526000908152604090205473ffffffffffffffffffffffffffffffffffffffff1681565b6102b36104d7366004613ae4565b611b11565b61025b6104ea3660046135f3565b611bb9565b6102c8620f424081565b61027b6105073660046135f3565b600f6020526000908152604090205473ffffffffffffffffffffffffffffffffffffffff1681565b6102c8600c5481565b6102c8610546366004613b50565b612111565b61055e6105593660046136c9565b612120565b60405161024a929190613bcf565b6102c861057a3660046135f3565b612149565b61023e61058d366004613be3565b73ffffffffffffffffffffffffffffffffffffffff918216600090815260056020908152604080832093909416825291909152205460ff1690565b60007fffffffff0000000000000000000000000000000000000000000000000000000082167f780e9d6300000000000000000000000000000000000000000000000000000000148061061e575061061e82612195565b92915050565b60606000805461063390613c11565b80601f016020809104026020016040519081016040528092919081815260200182805461065f90613c11565b80156106ac5780601f10610681576101008083540402835291602001916106ac565b820191906000526020600020905b81548152906001019060200180831161068f57829003601f168201915b5050505050905090565b60006106c182612278565b5060009081526004602052604090205473ffffffffffffffffffffffffffffffffffffffff1690565b60006106f5826114bd565b90508073ffffffffffffffffffffffffffffffffffffffff168373ffffffffffffffffffffffffffffffffffffffff16036107b7576040517f08c379a000000000000000000000000000000000000000000000000000000000815260206004820152602160248201527f4552433732313a20617070726f76616c20746f2063757272656e74206f776e6560448201527f720000000000000000000000000000000000000000000000000000000000000060648201526084015b60405180910390fd5b3373ffffffffffffffffffffffffffffffffffffffff821614806107e057506107e0813361058d565b61086c576040517f08c379a000000000000000000000000000000000000000000000000000000000815260206004820152603e60248201527f4552433732313a20617070726f76652063616c6c6572206973206e6f7420746f60448201527f6b656e206f776e6572206e6f7220617070726f76656420666f7220616c6c000060648201526084016107ae565b6108768383612306565b505050565b6010602052816000526040600020816004811061089757600080fd5b01549150829050565b600060048210156108b057600080fd5b6108be600460008486613c64565b6108c791613c8e565b9392505050565b6108d833826123a6565b610964576040517f08c379a000000000000000000000000000000000000000000000000000000000815260206004820152602e60248201527f4552433732313a2063616c6c6572206973206e6f7420746f6b656e206f776e6560448201527f72206e6f7220617070726f76656400000000000000000000000000000000000060648201526084016107ae565b610876838383612465565b600061097a8361165e565b8210610a08576040517f08c379a000000000000000000000000000000000000000000000000000000000815260206004820152602b60248201527f455243373231456e756d657261626c653a206f776e657220696e646578206f7560448201527f74206f6620626f756e647300000000000000000000000000000000000000000060648201526084016107ae565b5073ffffffffffffffffffffffffffffffffffffffff919091166000908152600660209081526040808320938352929052205490565b6000818152600d602052604081205473ffffffffffffffffffffffffffffffffffffffff168061061e576040517fba3f1ed100000000000000000000000000000000000000000000000000000000815260040160405180910390fd5b600881901c6000908152600a6020526040812054600160ff84161b16151561061e565b61087683838360405180602001604052806000815250611b11565b73ffffffffffffffffffffffffffffffffffffffff84166000908152600e6020526040812054808203610b37576040517fba3f1ed100000000000000000000000000000000000000000000000000000000815260040160405180910390fd5b6040517f464eff50000000000000000000000000000000000000000000000000000000008152869073ffffffffffffffffffffffffffffffffffffffff82169063464eff5090610b919033908a908a908a90600401613cdf565b600060405180830381600087803b158015610bab57600080fd5b505af1925050508015610bbc575060015b611036573d808015610bea576040519150601f19603f3d011682016040523d82523d6000602084013e610bef565b606091505b506040517f1ed113ae0000000000000000000000000000000000000000000000000000000081526000903090631ed113ae90610c2f9085906004016135e0565b602060405180830381865afa158015610c4c573d6000803e3d6000fd5b505050506040513d601f19601f82011682018060405250810190610c709190613d2b565b90507faa90e7d0000000000000000000000000000000000000000000000000000000007fffffffff00000000000000000000000000000000000000000000000000000000821601610e635760008060008060003073ffffffffffffffffffffffffffffffffffffffff1663da581532886040518263ffffffff1660e01b8152600401610cfc91906135e0565b600060405180830381865afa158015610d19573d6000803e3d6000fd5b505050506040513d6000823e601f3d9081017fffffffffffffffffffffffffffffffffffffffffffffffffffffffffffffffe0168201604052610d5f9190810190613d8d565b806020019051810190610d729190613dc2565b945094509450945094508773ffffffffffffffffffffffffffffffffffffffff168573ffffffffffffffffffffffffffffffffffffffff1614610de1576040517fcdd3140600000000000000000000000000000000000000000000000000000000815260040160405180910390fd5b30848463566a2cc260e01b8b8686604051602001610e0193929190613ef5565b604080517fffffffffffffffffffffffffffffffffffffffffffffffffffffffffffffffe0818403018152908290527f556f18300000000000000000000000000000000000000000000000000000000082526107ae9594939291600401613f55565b7f9652ec60000000000000000000000000000000000000000000000000000000007fffffffff00000000000000000000000000000000000000000000000000000000821601610fae576040517fda5815320000000000000000000000000000000000000000000000000000000081526000908190309063da58153290610eed9087906004016135e0565b600060405180830381865afa158015610f0a573d6000803e3d6000fd5b505050506040513d6000823e601f3d9081017fffffffffffffffffffffffffffffffffffffffffffffffffffffffffffffffe0168201604052610f509190810190613d8d565b806020019051810190610f63919061405c565b6040517f69ad13a000000000000000000000000000000000000000000000000000000000815267ffffffffffffffff80841660048301528216602482015291935091506044016107ae565b6040517f08c379a000000000000000000000000000000000000000000000000000000000815260206004820152602c60248201527f4f7468657220657863657074696f6e207468726f776e2c206d7573742068616c60448201527f7420657865637574696f6e2e000000000000000000000000000000000000000060648201526084016107ae565b6000828152600b6020526040812080548290611051906140b5565b91829055509050620f424081106110b5576040517f1495c920000000000000000000000000000000000000000000000000000000008152620f4240600482015273ffffffffffffffffffffffffffffffffffffffff891660248201526044016107ae565b6000816110c585620f42406140ed565b6110cf919061412a565b60008181526010602052604090209091506110ec9089600461340a565b506110f733826126d7565b93505050505b949350505050565b600061111060085490565b821061119e576040517f08c379a000000000000000000000000000000000000000000000000000000000815260206004820152602c60248201527f455243373231456e756d657261626c653a20676c6f62616c20696e646578206f60448201527f7574206f6620626f756e6473000000000000000000000000000000000000000060648201526084016107ae565b600882815481106111b1576111b161413d565b90600052602060002001549050919050565b60008080806111d48587018761416c565b919450925090507fffffffff0000000000000000000000000000000000000000000000000000000082167f566a2cc2000000000000000000000000000000000000000000000000000000001461122c5761122c6141ce565b6000808280602001905181019061124391906141fd565b509193509150503373ffffffffffffffffffffffffffffffffffffffff8316146112b7576040517f50a5f40500000000000000000000000000000000000000000000000000000000815233600482015273ffffffffffffffffffffffffffffffffffffffff831660248201526044016107ae565b73ffffffffffffffffffffffffffffffffffffffff85166112da576112da6141ce565b73ffffffffffffffffffffffffffffffffffffffff85166000908152600e60205260408120549081900361133a576040517fba3f1ed100000000000000000000000000000000000000000000000000000000815260040160405180910390fd5b60008673ffffffffffffffffffffffffffffffffffffffff163b11611361576113616141ce565b6040517f566a2cc200000000000000000000000000000000000000000000000000000000815273ffffffffffffffffffffffffffffffffffffffff87169063566a2cc2906113b7908e908e908990600401614289565b600060405180830381600087803b1580156113d157600080fd5b505af11580156113e5573d6000803e3d6000fd5b5050506000828152600b602052604081208054919250908290611407906140b5565b91829055509050620f4240811061146b576040517f1495c920000000000000000000000000000000000000000000000000000000008152620f4240600482015273ffffffffffffffffffffffffffffffffffffffff881660248201526044016107ae565b60008161147b84620f42406140ed565b611485919061412a565b60008181526010602052604090209091506114a290856004613448565b506114ad85826126d7565b9c9b505050505050505050505050565b60008181526002602052604081205473ffffffffffffffffffffffffffffffffffffffff168061061e576040517f08c379a000000000000000000000000000000000000000000000000000000000815260206004820152601860248201527f4552433732313a20696e76616c696420746f6b656e204944000000000000000060448201526064016107ae565b33611553826114bd565b73ffffffffffffffffffffffffffffffffffffffff16146115a0576040517f9d6cfcf900000000000000000000000000000000000000000000000000000000815260040160405180910390fd5b60006115ae61035683612149565b6040517fbedf77a6000000000000000000000000000000000000000000000000000000008152336004820152909150819073ffffffffffffffffffffffffffffffffffffffff82169063bedf77a690602401600060405180830381600087803b15801561161a57600080fd5b505af115801561162e573d6000803e3d6000fd5b505050600084815260106020526040812081815560018101829055600281018290556003015550610876836126f1565b600073ffffffffffffffffffffffffffffffffffffffff8216611703576040517f08c379a000000000000000000000000000000000000000000000000000000000815260206004820152602960248201527f4552433732313a2061646472657373207a65726f206973206e6f74206120766160448201527f6c6964206f776e6572000000000000000000000000000000000000000000000060648201526084016107ae565b5073ffffffffffffffffffffffffffffffffffffffff1660009081526003602052604090205490565b6011602052816000526040600020816004811061174857600080fd5b0180549092506117589150613c11565b80601f016020809104026020016040519081016040528092919081815260200182805461178490613c11565b80156117d15780601f106117a6576101008083540402835291602001916117d1565b820191906000526020600020905b8154815290600101906020018083116117b457829003601f168201915b505050505081565b60606001805461063390613c11565b60008073ffffffffffffffffffffffffffffffffffffffff8316611838576040517f9ccb6ed000000000000000000000000000000000000000000000000000000000815260040160405180910390fd5b60006118637f00000000000000000000000000000000000000000000000000000000000000006127ca565b6040517f708c456100000000000000000000000000000000000000000000000000000000815290915073ffffffffffffffffffffffffffffffffffffffff82169063708c4561906118ba9030908a9060040161431d565b600060405180830381600087803b1580156118d457600080fd5b505af11580156118e8573d6000803e3d6000fd5b50505050600c600081546118fb906140b5565b918290555073ffffffffffffffffffffffffffffffffffffffff82166000818152600e6020908152604080832094909455600c80548352600d825284832080547fffffffffffffffffffffffff0000000000000000000000000000000000000000169094179093559154815260119091522061197990866004613476565b50600c80546000908152600f602090815260409182902080547fffffffffffffffffffffffff00000000000000000000000000000000000000001673ffffffffffffffffffffffffffffffffffffffff8981169190911790915592549151918252918316917f19d6f90297684f8b888bfdd40dece239ff62def4dd8aedd00245b6c846853b97910160405180910390a2600c5490969095509350505050565b611a233383836128ac565b5050565b6000611a3561035684612149565b9050600081905060008173ffffffffffffffffffffffffffffffffffffffff1663cf0840566040518163ffffffff1660e01b8152600401602060405180830381865afa158015611a89573d6000803e3d6000fd5b505050506040513d601f19601f82011682018060405250810190611aad919061443d565b90503373ffffffffffffffffffffffffffffffffffffffff821614611afe576040517f3944c6d200000000000000000000000000000000000000000000000000000000815260040160405180910390fd5b611b0a600a86866129d9565b5050505050565b611b1b33836123a6565b611ba7576040517f08c379a000000000000000000000000000000000000000000000000000000000815260206004820152602e60248201527f4552433732313a2063616c6c6572206973206e6f7420746f6b656e206f776e6560448201527f72206e6f7220617070726f76656400000000000000000000000000000000000060648201526084016107ae565b611bb384848484612a28565b50505050565b60606000611bc683612149565b90506000611bd382610a3e565b9050600081905060008173ffffffffffffffffffffffffffffffffffffffff1663c66301b26040518163ffffffff1660e01b8152600401602060405180830381865afa158015611c27573d6000803e3d6000fd5b505050506040513d601f19601f82011682018060405250810190611c4b919061445a565b6000858152600f602052604080822054815160808101928390527f1e1b2573000000000000000000000000000000000000000000000000000000009092526084820183905292935073ffffffffffffffffffffffffffffffffffffffff9283169281908616631e1b257360a48301602060405180830381865afa158015611cd6573d6000803e3d6000fd5b505050506040513d601f19601f82011682018060405250810190611cfa919061445a565b81526040517f1e1b25730000000000000000000000000000000000000000000000000000000081526001600482015260209091019073ffffffffffffffffffffffffffffffffffffffff871690631e1b257390602401602060405180830381865afa158015611d6d573d6000803e3d6000fd5b505050506040513d601f19601f82011682018060405250810190611d91919061445a565b81526040517f1e1b25730000000000000000000000000000000000000000000000000000000081526002600482015260209091019073ffffffffffffffffffffffffffffffffffffffff871690631e1b257390602401602060405180830381865afa158015611e04573d6000803e3d6000fd5b505050506040513d601f19601f82011682018060405250810190611e28919061445a565b81526040517f1e1b25730000000000000000000000000000000000000000000000000000000081526003600482015260209091019073ffffffffffffffffffffffffffffffffffffffff871690631e1b257390602401602060405180830381865afa158015611e9b573d6000803e3d6000fd5b505050506040513d601f19601f82011682018060405250810190611ebf919061445a565b81525090506000604051806101000160405280888152602001620f4240611ee58c612149565b611eef91906140ed565b611ef9908c614473565b8152602001611f078b6114bd565b73ffffffffffffffffffffffffffffffffffffffff168152602001611f2b8b610a9a565b15158152602080820185905260008c8152601090915260409081902081516080810180845292909301929160049082845b815481526020019060010190808311611f5c5750505091835250506000898152601160209081526040808320815160808101909252919093019291600490835b8282101561203f578382018054611fb290613c11565b80601f0160208091040260200160405190810160405280929190818152602001828054611fde90613c11565b801561202b5780601f106120005761010080835404028352916020019161202b565b820191906000526020600020905b81548152906001019060200180831161200e57829003601f168201915b505050505081526020019060010190611f9c565b505050908252506020018590526040517f9b9300f400000000000000000000000000000000000000000000000000000000815290915073ffffffffffffffffffffffffffffffffffffffff841690639b9300f4906120a19084906004016144ee565b600060405180830381865afa1580156120be573d6000803e3d6000fd5b505050506040513d6000823e601f3d9081017fffffffffffffffffffffffffffffffffffffffffffffffffffffffffffffffe01682016040526121049190810190613d8d565b9998505050505050505050565b60006108c78383600080610ad8565b3660006004831161213057600080fd5b61213d8360048187613c64565b915091505b9250929050565b600081600003612188576040517fed15e6cf000000000000000000000000000000000000000000000000000000008152600481018390526024016107ae565b61061e620f424083614591565b60007fffffffff0000000000000000000000000000000000000000000000000000000082167f80ac58cd00000000000000000000000000000000000000000000000000000000148061222857507fffffffff0000000000000000000000000000000000000000000000000000000082167f5b5e139f00000000000000000000000000000000000000000000000000000000145b8061061e57507f01ffc9a7000000000000000000000000000000000000000000000000000000007fffffffff0000000000000000000000000000000000000000000000000000000083161461061e565b60008181526002602052604090205473ffffffffffffffffffffffffffffffffffffffff16612303576040517f08c379a000000000000000000000000000000000000000000000000000000000815260206004820152601860248201527f4552433732313a20696e76616c696420746f6b656e204944000000000000000060448201526064016107ae565b50565b600081815260046020526040902080547fffffffffffffffffffffffff00000000000000000000000000000000000000001673ffffffffffffffffffffffffffffffffffffffff84169081179091558190612360826114bd565b73ffffffffffffffffffffffffffffffffffffffff167f8c5be1e5ebec7d5bd14f71427d1e84f3dd0314c0f7b2291e5b200ac8c7c3b92560405160405180910390a45050565b6000806123b2836114bd565b90508073ffffffffffffffffffffffffffffffffffffffff168473ffffffffffffffffffffffffffffffffffffffff161480612420575073ffffffffffffffffffffffffffffffffffffffff80821660009081526005602090815260408083209388168352929052205460ff165b806110fd57508373ffffffffffffffffffffffffffffffffffffffff16612446846106b6565b73ffffffffffffffffffffffffffffffffffffffff1614949350505050565b8273ffffffffffffffffffffffffffffffffffffffff16612485826114bd565b73ffffffffffffffffffffffffffffffffffffffff1614612528576040517f08c379a000000000000000000000000000000000000000000000000000000000815260206004820152602560248201527f4552433732313a207472616e736665722066726f6d20696e636f72726563742060448201527f6f776e657200000000000000000000000000000000000000000000000000000060648201526084016107ae565b73ffffffffffffffffffffffffffffffffffffffff82166125ca576040517f08c379a0000000000000000000000000000000000000000000000000000000008152602060048201526024808201527f4552433732313a207472616e7366657220746f20746865207a65726f2061646460448201527f726573730000000000000000000000000000000000000000000000000000000060648201526084016107ae565b6125d5838383612acb565b6125e0600082612306565b73ffffffffffffffffffffffffffffffffffffffff83166000908152600360205260408120805460019290612616908490614473565b909155505073ffffffffffffffffffffffffffffffffffffffff8216600090815260036020526040812080546001929061265190849061412a565b909155505060008181526002602052604080822080547fffffffffffffffffffffffff00000000000000000000000000000000000000001673ffffffffffffffffffffffffffffffffffffffff86811691821790925591518493918716917fddf252ad1be2c89b69c2b068fc378daa952ba7f163c4a11628f55a4df523b3ef91a4505050565b611a23828260405180602001604052806000815250612cec565b60006126fc826114bd565b905061270a81600084612acb565b612715600083612306565b73ffffffffffffffffffffffffffffffffffffffff8116600090815260036020526040812080546001929061274b908490614473565b909155505060008281526002602052604080822080547fffffffffffffffffffffffff00000000000000000000000000000000000000001690555183919073ffffffffffffffffffffffffffffffffffffffff8416907fddf252ad1be2c89b69c2b068fc378daa952ba7f163c4a11628f55a4df523b3ef908390a45050565b60006040517f3d602d80600a3d3981f3363d3d373d3d3d363d7300000000000000000000000081528260601b60148201527f5af43d82803e903d91602b57fd5bf3000000000000000000000000000000000060288201526037816000f091505073ffffffffffffffffffffffffffffffffffffffff81166128a7576040517f08c379a000000000000000000000000000000000000000000000000000000000815260206004820152601660248201527f455243313136373a20637265617465206661696c65640000000000000000000060448201526064016107ae565b919050565b8173ffffffffffffffffffffffffffffffffffffffff168373ffffffffffffffffffffffffffffffffffffffff1603612941576040517f08c379a000000000000000000000000000000000000000000000000000000000815260206004820152601960248201527f4552433732313a20617070726f766520746f2063616c6c65720000000000000060448201526064016107ae565b73ffffffffffffffffffffffffffffffffffffffff83811660008181526005602090815260408083209487168084529482529182902080547fffffffffffffffffffffffffffffffffffffffffffffffffffffffffffffff001686151590811790915591519182527f17307eab39ab6107e8899845ad3d59bd9653f200f220920489ca2b5937696c31910160405180910390a3505050565b8015612a0357600882901c60009081526020849052604090208054600160ff85161b179055505050565b600882901c60009081526020849052604090208054600160ff85161b19169055505050565b612a33848484612465565b612a3f84848484612d8f565b611bb3576040517f08c379a000000000000000000000000000000000000000000000000000000000815260206004820152603260248201527f4552433732313a207472616e7366657220746f206e6f6e20455243373231526560448201527f63656976657220696d706c656d656e746572000000000000000000000000000060648201526084016107ae565b612ad6838383612f7f565b600073ffffffffffffffffffffffffffffffffffffffff84161580612b0f575073ffffffffffffffffffffffffffffffffffffffff8316155b90508015612b1d5750505050565b6000612b2b61035684612149565b90508060018173ffffffffffffffffffffffffffffffffffffffff16637855d30c6040518163ffffffff1660e01b8152600401602060405180830381865afa158015612b7b573d6000803e3d6000fd5b505050506040513d601f19601f82011682018060405250810190612b9f91906145fb565b6003811115612bb057612bb06145cc565b1480612c3b575060008173ffffffffffffffffffffffffffffffffffffffff16637855d30c6040518163ffffffff1660e01b8152600401602060405180830381865afa158015612c04573d6000803e3d6000fd5b505050506040513d601f19601f82011682018060405250810190612c2891906145fb565b6003811115612c3957612c396145cc565b145b15612ce457808173ffffffffffffffffffffffffffffffffffffffff16637855d30c6040518163ffffffff1660e01b8152600401602060405180830381865afa158015612c8c573d6000803e3d6000fd5b505050506040513d601f19601f82011682018060405250810190612cb091906145fb565b6040517fe0bf90300000000000000000000000000000000000000000000000000000000081526004016107ae92919061461c565b505050505050565b612cf68383613085565b612d036000848484612d8f565b610876576040517f08c379a000000000000000000000000000000000000000000000000000000000815260206004820152603260248201527f4552433732313a207472616e7366657220746f206e6f6e20455243373231526560448201527f63656976657220696d706c656d656e746572000000000000000000000000000060648201526084016107ae565b600073ffffffffffffffffffffffffffffffffffffffff84163b15612f77576040517f150b7a0200000000000000000000000000000000000000000000000000000000815273ffffffffffffffffffffffffffffffffffffffff85169063150b7a0290612e0690339089908890889060040161467d565b6020604051808303816000875af1925050508015612e5f575060408051601f3d9081017fffffffffffffffffffffffffffffffffffffffffffffffffffffffffffffffe0168201909252612e5c91810190613d2b565b60015b612f2c573d808015612e8d576040519150601f19603f3d011682016040523d82523d6000602084013e612e92565b606091505b508051600003612f24576040517f08c379a000000000000000000000000000000000000000000000000000000000815260206004820152603260248201527f4552433732313a207472616e7366657220746f206e6f6e20455243373231526560448201527f63656976657220696d706c656d656e746572000000000000000000000000000060648201526084016107ae565b805181602001fd5b7fffffffff00000000000000000000000000000000000000000000000000000000167f150b7a02000000000000000000000000000000000000000000000000000000001490506110fd565b5060016110fd565b73ffffffffffffffffffffffffffffffffffffffff8316612fe757612fe281600880546000838152600960205260408120829055600182018355919091527ff3f7a9fe364faab93b216da50a3214154f22a0a2b415b23a84c8169e8b636ee30155565b613024565b8173ffffffffffffffffffffffffffffffffffffffff168373ffffffffffffffffffffffffffffffffffffffff1614613024576130248382613253565b73ffffffffffffffffffffffffffffffffffffffff8216613048576108768161330a565b8273ffffffffffffffffffffffffffffffffffffffff168273ffffffffffffffffffffffffffffffffffffffff16146108765761087682826133b9565b73ffffffffffffffffffffffffffffffffffffffff8216613102576040517f08c379a000000000000000000000000000000000000000000000000000000000815260206004820181905260248201527f4552433732313a206d696e7420746f20746865207a65726f206164647265737360448201526064016107ae565b60008181526002602052604090205473ffffffffffffffffffffffffffffffffffffffff161561318e576040517f08c379a000000000000000000000000000000000000000000000000000000000815260206004820152601c60248201527f4552433732313a20746f6b656e20616c7265616479206d696e7465640000000060448201526064016107ae565b61319a60008383612acb565b73ffffffffffffffffffffffffffffffffffffffff821660009081526003602052604081208054600192906131d090849061412a565b909155505060008181526002602052604080822080547fffffffffffffffffffffffff00000000000000000000000000000000000000001673ffffffffffffffffffffffffffffffffffffffff861690811790915590518392907fddf252ad1be2c89b69c2b068fc378daa952ba7f163c4a11628f55a4df523b3ef908290a45050565b600060016132608461165e565b61326a9190614473565b6000838152600760205260409020549091508082146132ca5773ffffffffffffffffffffffffffffffffffffffff841660009081526006602090815260408083208584528252808320548484528184208190558352600790915290208190555b50600091825260076020908152604080842084905573ffffffffffffffffffffffffffffffffffffffff9094168352600681528383209183525290812055565b60085460009061331c90600190614473565b600083815260096020526040812054600880549394509092849081106133445761334461413d565b9060005260206000200154905080600883815481106133655761336561413d565b600091825260208083209091019290925582815260099091526040808220849055858252812055600880548061339d5761339d6146bc565b6001900381819060005260206000200160009055905550505050565b60006133c48361165e565b73ffffffffffffffffffffffffffffffffffffffff9093166000908152600660209081526040808320868452825280832085905593825260079052919091209190915550565b8260048101928215613438579160200282015b8281111561343857823582559160200191906001019061341d565b506134449291506134bb565b5090565b8260048101928215613438579160200282015b8281111561343857825182559160200191906001019061345b565b82600481019282156134af579160200282015b828111156134af578251829061349f9082614731565b5091602001919060010190613489565b506134449291506134d0565b5b8082111561344457600081556001016134bc565b808211156134445760006134e482826134ed565b506001016134d0565b5080546134f990613c11565b6000825580601f10613509575050565b601f01602090049060005260206000209081019061230391906134bb565b7fffffffff000000000000000000000000000000000000000000000000000000008116811461230357600080fd5b60006020828403121561356757600080fd5b81356108c781613527565b60005b8381101561358d578181015183820152602001613575565b50506000910152565b600081518084526135ae816020860160208601613572565b601f017fffffffffffffffffffffffffffffffffffffffffffffffffffffffffffffffe0169290920160200192915050565b6020815260006108c76020830184613596565b60006020828403121561360557600080fd5b5035919050565b73ffffffffffffffffffffffffffffffffffffffff8116811461230357600080fd5b80356128a78161360c565b6000806040838503121561364c57600080fd5b82356136578161360c565b946020939093013593505050565b6000806040838503121561367857600080fd5b50508035926020909101359150565b60008083601f84011261369957600080fd5b50813567ffffffffffffffff8111156136b157600080fd5b60208301915083602082850101111561214257600080fd5b600080602083850312156136dc57600080fd5b823567ffffffffffffffff8111156136f357600080fd5b6136ff85828601613687565b90969095509350505050565b60008060006060848603121561372057600080fd5b833561372b8161360c565b9250602084013561373b8161360c565b929592945050506040919091013590565b806080810183101561061e57600080fd5b801515811461230357600080fd5b60008060008060e0858703121561378157600080fd5b843561378c8161360c565b935061379b866020870161374c565b925060a08501356137ab8161375d565b915060c08501356137bb8161360c565b939692955090935050565b600080600080604085870312156137dc57600080fd5b843567ffffffffffffffff808211156137f457600080fd5b61380088838901613687565b9096509450602087013591508082111561381957600080fd5b5061382687828801613687565b95989497509550505050565b60006020828403121561384457600080fd5b81356108c78161360c565b7f4e487b7100000000000000000000000000000000000000000000000000000000600052604160045260246000fd5b6040516080810167ffffffffffffffff811182821017156138a1576138a161384f565b60405290565b604051601f82017fffffffffffffffffffffffffffffffffffffffffffffffffffffffffffffffe016810167ffffffffffffffff811182821017156138ee576138ee61384f565b604052919050565b600067ffffffffffffffff8211156139105761391061384f565b50601f017fffffffffffffffffffffffffffffffffffffffffffffffffffffffffffffffe01660200190565b600061394f61394a846138f6565b6138a7565b905082815283838301111561396357600080fd5b828260208301376000602084830101529392505050565b60008060006060848603121561398f57600080fd5b833567ffffffffffffffff808211156139a757600080fd5b908501906101c082880312156139bc57600080fd5b90935060209085820135818111156139d357600080fd5b8601601f80820189136139e557600080fd5b6139ed61387e565b80608084018b8111156139ff57600080fd5b845b81811015613a4657803587811115613a195760008081fd5b86018581018e13613a2a5760008081fd5b613a388e82358b840161393c565b855250928701928701613a01565b5050809750505050505050613a5d6040850161362e565b90509250925092565b60008060408385031215613a7957600080fd5b8235613a848161360c565b91506020830135613a948161375d565b809150509250929050565b60008060408385031215613ab257600080fd5b823591506020830135613a948161375d565b600082601f830112613ad557600080fd5b6108c78383356020850161393c565b60008060008060808587031215613afa57600080fd5b8435613b058161360c565b93506020850135613b158161360c565b925060408501359150606085013567ffffffffffffffff811115613b3857600080fd5b613b4487828801613ac4565b91505092959194509250565b60008060a08385031215613b6357600080fd5b8235613b6e8161360c565b9150613b7d846020850161374c565b90509250929050565b8183528181602085013750600060208284010152600060207fffffffffffffffffffffffffffffffffffffffffffffffffffffffffffffffe0601f840116840101905092915050565b6020815260006110fd602083018486613b86565b60008060408385031215613bf657600080fd5b8235613c018161360c565b91506020830135613a948161360c565b600181811c90821680613c2557607f821691505b602082108103613c5e577f4e487b7100000000000000000000000000000000000000000000000000000000600052602260045260246000fd5b50919050565b60008085851115613c7457600080fd5b83861115613c8157600080fd5b5050820193919092039150565b7fffffffff000000000000000000000000000000000000000000000000000000008135818116916004851015613cce5780818660040360031b1b83161692505b505092915050565b60808183375050565b73ffffffffffffffffffffffffffffffffffffffff858116825260e0820190608086602085013784151560a084015280841660c08401525095945050505050565b80516128a781613527565b600060208284031215613d3d57600080fd5b81516108c781613527565b600082601f830112613d5957600080fd5b8151613d6761394a826138f6565b818152846020838601011115613d7c57600080fd5b6110fd826020830160208701613572565b600060208284031215613d9f57600080fd5b815167ffffffffffffffff811115613db657600080fd5b6110fd84828501613d48565b600080600080600060a08688031215613dda57600080fd5b8551613de58161360c565b8095505060208087015167ffffffffffffffff80821115613e0557600080fd5b818901915089601f830112613e1957600080fd5b815181811115613e2b57613e2b61384f565b8060051b613e3a8582016138a7565b918252838101850191858101908d841115613e5457600080fd5b86860192505b83831015613e9057825185811115613e725760008081fd5b613e808f89838a0101613d48565b8352509186019190860190613e5a565b60408d0151909a50955050505080831115613eaa57600080fd5b613eb68a848b01613d48565b9550613ec460608a01613d20565b94506080890151925080831115613eda57600080fd5b5050613ee888828901613d48565b9150509295509295909350565b73ffffffffffffffffffffffffffffffffffffffff841681527fffffffff0000000000000000000000000000000000000000000000000000000083166020820152606060408201526000613f4c6060830184613596565b95945050505050565b600060a0820173ffffffffffffffffffffffffffffffffffffffff88168352602060a08185015281885180845260c08601915060c08160051b8701019350828a0160005b82811015613fe5577fffffffffffffffffffffffffffffffffffffffffffffffffffffffffffffff40888703018452613fd3868351613596565b95509284019290840190600101613f99565b50505050508281036040840152613ffc8187613596565b7fffffffff0000000000000000000000000000000000000000000000000000000086166060850152905082810360808401526140388185613596565b98975050505050505050565b805167ffffffffffffffff811681146128a757600080fd5b6000806040838503121561406f57600080fd5b61407883614044565b9150613b7d60208401614044565b7f4e487b7100000000000000000000000000000000000000000000000000000000600052601160045260246000fd5b60007fffffffffffffffffffffffffffffffffffffffffffffffffffffffffffffffff82036140e6576140e6614086565b5060010190565b6000817fffffffffffffffffffffffffffffffffffffffffffffffffffffffffffffffff048311821515161561412557614125614086565b500290565b8082018082111561061e5761061e614086565b7f4e487b7100000000000000000000000000000000000000000000000000000000600052603260045260246000fd5b60008060006060848603121561418157600080fd5b833561418c8161360c565b9250602084013561419c81613527565b9150604084013567ffffffffffffffff8111156141b857600080fd5b6141c486828701613ac4565b9150509250925092565b7f4e487b7100000000000000000000000000000000000000000000000000000000600052600160045260246000fd5b60008060008060e0858703121561421357600080fd5b845161421e8161360c565b93506020603f8601871361423157600080fd5b61423961387e565b8060a088018981111561424b57600080fd5b8389015b81811015614266578051845292840192840161424f565b5051909550915061427890508161375d565b60c08601519092506137bb8161360c565b60408152600061429d604083018587613b86565b82810360208401526142af8185613596565b9695505050505050565b60008083357fffffffffffffffffffffffffffffffffffffffffffffffffffffffffffffffe18436030181126142ee57600080fd5b830160208101925035905067ffffffffffffffff81111561430e57600080fd5b80360382131561214257600080fd5b73ffffffffffffffffffffffffffffffffffffffff83168152604060208201526143676040820161434d8461362e565b73ffffffffffffffffffffffffffffffffffffffff169052565b60006143756020840161362e565b73ffffffffffffffffffffffffffffffffffffffff811660608401525060408301356080830152606083013560a0830152608083013560c083015260a083013560e08301526143cb610100830160c08501613cd6565b610180610140840135818401526101a0610160850135818501526143f082860161362e565b91506101c06144168186018473ffffffffffffffffffffffffffffffffffffffff169052565b614422828701876142b9565b93509150806101e0860152506142af61020085018383613b86565b60006020828403121561444f57600080fd5b81516108c78161360c565b60006020828403121561446c57600080fd5b5051919050565b8181038181111561061e5761061e614086565b8060005b6004811015611bb357815184526020938401939091019060010161448a565b600082608081018360005b60048110156144e35783830387526144cd838351613596565b60209788019790935091909101906001016144b4565b509095945050505050565b60208152815160208201526020820151604082015273ffffffffffffffffffffffffffffffffffffffff604083015116606082015260006060830151614538608084018215159052565b50608083015161454b60a0840182614486565b5060a083015161455f610120840182614486565b5060c08301516101c0806101a085015261457d6101e08501836144a9565b60e095909501519301929092525090919050565b6000826145c7577f4e487b7100000000000000000000000000000000000000000000000000000000600052601260045260246000fd5b500490565b7f4e487b7100000000000000000000000000000000000000000000000000000000600052602160045260246000fd5b60006020828403121561460d57600080fd5b8151600481106108c757600080fd5b73ffffffffffffffffffffffffffffffffffffffff831681526040810160048310614670577f4e487b7100000000000000000000000000000000000000000000000000000000600052602160045260246000fd5b8260208301529392505050565b600073ffffffffffffffffffffffffffffffffffffffff8087168352808616602084015250836040830152608060608301526142af6080830184613596565b7f4e487b7100000000000000000000000000000000000000000000000000000000600052603160045260246000fd5b601f82111561087657600081815260208120601f850160051c810160208610156147125750805b601f850160051c820191505b81811015612ce45782815560010161471e565b815167ffffffffffffffff81111561474b5761474b61384f565b61475f816147598454613c11565b846146eb565b602080601f8311600181146147b2576000841561477c5750858301515b7fffffffffffffffffffffffffffffffffffffffffffffffffffffffffffffffff600386901b1c1916600185901b178555612ce4565b6000858152602081207fffffffffffffffffffffffffffffffffffffffffffffffffffffffffffffffe08616915b828110156147ff578886015182559484019460019091019084016147e0565b508582101561483b57878501517fffffffffffffffffffffffffffffffffffffffffffffffffffffffffffffffff600388901b60f8161c191681555b5050505050600190811b0190555056fea264697066735822122008b057b2041778ab4fba72f5b29aa91099aa52a4421bc9c9be81d34794a00b5164736f6c63430008100033",
    "linkReferences": {}
  },
  "methodIdentifiers": {
    "ID_MULTIPLE()": "c91539bc",
    "approve(address,uint256)": "095ea7b3",
    "balanceOf(address)": "70a08231",
    "createCrowdtainer((address,address,uint256,uint256,uint256,uint256,uint256[4],uint256,uint256,address,string),string[4],address)": "a0ae459d",
    "crowdtainerCount()": "cbe80712",
    "crowdtainerForId(uint256)": "b5022343",
    "crowdtainerIdToAddress(uint256)": "351a41c5",
    "getApproved(uint256)": "081812fc",
    "getClaimStatus(uint256)": "36dbd2f9",
    "getParameters(bytes)": "da581532",
    "getSignature(bytes)": "1ed113ae",
    "idForCrowdtainer(address)": "6df0c83a",
    "isApprovedForAll(address,address)": "e985e9c5",
    "join(address,uint256[4])": "d4a0f6b8",
    "join(address,uint256[4],bool,address)": "464eff50",
    "joinWithSignature(bytes,bytes)": "566a2cc2",
    "leave(uint256)": "67dfd4c9",
    "metadataServiceForCrowdatinerId(uint256)": "ca6d45ca",
    "name()": "06fdde03",
    "ownerOf(uint256)": "6352211e",
    "productDescription(uint256,uint256)": "7169d23b",
    "safeTransferFrom(address,address,uint256)": "42842e0e",
    "safeTransferFrom(address,address,uint256,bytes)": "b88d4fde",
    "setApprovalForAll(address,bool)": "a22cb465",
    "setClaimStatus(uint256,bool)": "a3b9871a",
    "supportsInterface(bytes4)": "01ffc9a7",
    "symbol()": "95d89b41",
    "tokenByIndex(uint256)": "4f6ccce7",
    "tokenIdQuantities(uint256,uint256)": "0b82a21c",
    "tokenIdToCrowdtainerId(uint256)": "db5a0e83",
    "tokenOfOwnerByIndex(address,uint256)": "2f745c59",
    "tokenURI(uint256)": "c87b56dd",
    "totalSupply()": "18160ddd",
    "transferFrom(address,address,uint256)": "23b872dd"
  },
  "id": 35
}