{"abi":[{"type":"constructor","inputs":[{"name":"_crowdtainerImplementation","type":"address","internalType":"address"},{"name":"_owner","type":"address","internalType":"address"}],"stateMutability":"nonpayable"},{"type":"function","name":"ID_MULTIPLE","inputs":[],"outputs":[{"name":"","type":"uint256","internalType":"uint256"}],"stateMutability":"view"},{"type":"function","name":"approve","inputs":[{"name":"to","type":"address","internalType":"address"},{"name":"tokenId","type":"uint256","internalType":"uint256"}],"outputs":[],"stateMutability":"nonpayable"},{"type":"function","name":"balanceOf","inputs":[{"name":"owner","type":"address","internalType":"address"}],"outputs":[{"name":"","type":"uint256","internalType":"uint256"}],"stateMutability":"view"},{"type":"function","name":"createCrowdtainer","inputs":[{"name":"_campaignData","type":"tuple","internalType":"struct CampaignData","components":[{"name":"shippingAgent","type":"address","internalType":"address"},{"name":"signer","type":"address","internalType":"address"},{"name":"openingTime","type":"uint256","internalType":"uint256"},{"name":"expireTime","type":"uint256","internalType":"uint256"},{"name":"targetMinimum","type":"uint256","internalType":"uint256"},{"name":"targetMaximum","type":"uint256","internalType":"uint256"},{"name":"unitPricePerType","type":"uint256[]","internalType":"uint256[]"},{"name":"referralRate","type":"uint256","internalType":"uint256"},{"name":"referralEligibilityValue","type":"uint256","internalType":"uint256"},{"name":"token","type":"address","internalType":"address"},{"name":"legalContractURI","type":"string","internalType":"string"}]},{"name":"_productDescription","type":"string[]","internalType":"string[]"},{"name":"_metadataService","type":"address","internalType":"address"}],"outputs":[{"name":"","type":"address","internalType":"address"},{"name":"","type":"uint256","internalType":"uint256"}],"stateMutability":"nonpayable"},{"type":"function","name":"crowdtainerCount","inputs":[],"outputs":[{"name":"","type":"uint256","internalType":"uint256"}],"stateMutability":"view"},{"type":"function","name":"crowdtainerForId","inputs":[{"name":"","type":"uint256","internalType":"uint256"}],"outputs":[{"name":"","type":"address","internalType":"address"}],"stateMutability":"view"},{"type":"function","name":"crowdtainerIdToAddress","inputs":[{"name":"_crowdtainerId","type":"uint256","internalType":"uint256"}],"outputs":[{"name":"","type":"address","internalType":"address"}],"stateMutability":"view"},{"type":"function","name":"getApproved","inputs":[{"name":"tokenId","type":"uint256","internalType":"uint256"}],"outputs":[{"name":"","type":"address","internalType":"address"}],"stateMutability":"view"},{"type":"function","name":"getClaimStatus","inputs":[{"name":"_tokenId","type":"uint256","internalType":"uint256"}],"outputs":[{"name":"","type":"bool","internalType":"bool"}],"stateMutability":"view"},{"type":"function","name":"getParameters","inputs":[{"name":"data","type":"bytes","internalType":"bytes"}],"outputs":[{"name":"","type":"bytes","internalType":"bytes"}],"stateMutability":"pure"},{"type":"function","name":"getSignature","inputs":[{"name":"data","type":"bytes","internalType":"bytes"}],"outputs":[{"name":"","type":"bytes4","internalType":"bytes4"}],"stateMutability":"pure"},{"type":"function","name":"idForCrowdtainer","inputs":[{"name":"","type":"address","internalType":"address"}],"outputs":[{"name":"","type":"uint256","internalType":"uint256"}],"stateMutability":"view"},{"type":"function","name":"isApprovedForAll","inputs":[{"name":"owner","type":"address","internalType":"address"},{"name":"operator","type":"address","internalType":"address"}],"outputs":[{"name":"","type":"bool","internalType":"bool"}],"stateMutability":"view"},{"type":"function","name":"join","inputs":[{"name":"_crowdtainer","type":"address","internalType":"address"},{"name":"_quantities","type":"uint256[]","internalType":"uint256[]"},{"name":"_enableReferral","type":"bool","internalType":"bool"},{"name":"_referrer","type":"address","internalType":"address"},{"name":"_signedPermit","type":"tuple","internalType":"struct SignedPermit","components":[{"name":"owner","type":"address","internalType":"address"},{"name":"spender","type":"address","internalType":"address"},{"name":"value","type":"uint256","internalType":"uint256"},{"name":"nonce","type":"uint256","internalType":"uint256"},{"name":"deadline","type":"uint256","internalType":"uint256"},{"name":"v","type":"uint8","internalType":"uint8"},{"name":"r","type":"bytes32","internalType":"bytes32"},{"name":"s","type":"bytes32","internalType":"bytes32"}]}],"outputs":[{"name":"","type":"uint256","internalType":"uint256"}],"stateMutability":"nonpayable"},{"type":"function","name":"join","inputs":[{"name":"_crowdtainer","type":"address","internalType":"address"},{"name":"_quantities","type":"uint256[]","internalType":"uint256[]"}],"outputs":[{"name":"","type":"uint256","internalType":"uint256"}],"stateMutability":"nonpayable"},{"type":"function","name":"join","inputs":[{"name":"_crowdtainer","type":"address","internalType":"address"},{"name":"_quantities","type":"uint256[]","internalType":"uint256[]"},{"name":"_enableReferral","type":"bool","internalType":"bool"},{"name":"_referrer","type":"address","internalType":"address"}],"outputs":[{"name":"","type":"uint256","internalType":"uint256"}],"stateMutability":"nonpayable"},{"type":"function","name":"joinWithSignature","inputs":[{"name":"result","type":"bytes","internalType":"bytes"},{"name":"extraData","type":"bytes","internalType":"bytes"}],"outputs":[{"name":"","type":"uint256","internalType":"uint256"}],"stateMutability":"nonpayable"},{"type":"function","name":"joinWithSignatureAndPermit","inputs":[{"name":"result","type":"bytes","internalType":"bytes"},{"name":"extraData","type":"bytes","internalType":"bytes"},{"name":"_signedPermit","type":"tuple","internalType":"struct SignedPermit","components":[{"name":"owner","type":"address","internalType":"address"},{"name":"spender","type":"address","internalType":"address"},{"name":"value","type":"uint256","internalType":"uint256"},{"name":"nonce","type":"uint256","internalType":"uint256"},{"name":"deadline","type":"uint256","internalType":"uint256"},{"name":"v","type":"uint8","internalType":"uint8"},{"name":"r","type":"bytes32","internalType":"bytes32"},{"name":"s","type":"bytes32","internalType":"bytes32"}]}],"outputs":[{"name":"","type":"uint256","internalType":"uint256"}],"stateMutability":"nonpayable"},{"type":"function","name":"leave","inputs":[{"name":"_tokenId","type":"uint256","internalType":"uint256"}],"outputs":[],"stateMutability":"nonpayable"},{"type":"function","name":"metadataServiceForCrowdatinerId","inputs":[{"name":"","type":"uint256","internalType":"uint256"}],"outputs":[{"name":"","type":"address","internalType":"address"}],"stateMutability":"view"},{"type":"function","name":"name","inputs":[],"outputs":[{"name":"","type":"string","internalType":"string"}],"stateMutability":"view"},{"type":"function","name":"owner","inputs":[],"outputs":[{"name":"","type":"address","internalType":"address"}],"stateMutability":"view"},{"type":"function","name":"ownerOf","inputs":[{"name":"tokenId","type":"uint256","internalType":"uint256"}],"outputs":[{"name":"","type":"address","internalType":"address"}],"stateMutability":"view"},{"type":"function","name":"productDescription","inputs":[{"name":"","type":"uint256","internalType":"uint256"},{"name":"","type":"uint256","internalType":"uint256"}],"outputs":[{"name":"","type":"string","internalType":"string"}],"stateMutability":"view"},{"type":"function","name":"safeTransferFrom","inputs":[{"name":"from","type":"address","internalType":"address"},{"name":"to","type":"address","internalType":"address"},{"name":"tokenId","type":"uint256","internalType":"uint256"}],"outputs":[],"stateMutability":"nonpayable"},{"type":"function","name":"safeTransferFrom","inputs":[{"name":"from","type":"address","internalType":"address"},{"name":"to","type":"address","internalType":"address"},{"name":"tokenId","type":"uint256","internalType":"uint256"},{"name":"data","type":"bytes","internalType":"bytes"}],"outputs":[],"stateMutability":"nonpayable"},{"type":"function","name":"setApprovalForAll","inputs":[{"name":"operator","type":"address","internalType":"address"},{"name":"approved","type":"bool","internalType":"bool"}],"outputs":[],"stateMutability":"nonpayable"},{"type":"function","name":"setClaimStatus","inputs":[{"name":"_tokenId","type":"uint256","internalType":"uint256"},{"name":"_value","type":"bool","internalType":"bool"}],"outputs":[],"stateMutability":"nonpayable"},{"type":"function","name":"setOwner","inputs":[{"name":"_owner","type":"address","internalType":"address"}],"outputs":[],"stateMutability":"nonpayable"},{"type":"function","name":"supportsInterface","inputs":[{"name":"interfaceId","type":"bytes4","internalType":"bytes4"}],"outputs":[{"name":"","type":"bool","internalType":"bool"}],"stateMutability":"view"},{"type":"function","name":"symbol","inputs":[],"outputs":[{"name":"","type":"string","internalType":"string"}],"stateMutability":"view"},{"type":"function","name":"tokenByIndex","inputs":[{"name":"index","type":"uint256","internalType":"uint256"}],"outputs":[{"name":"","type":"uint256","internalType":"uint256"}],"stateMutability":"view"},{"type":"function","name":"tokenIdQuantities","inputs":[{"name":"","type":"uint256","internalType":"uint256"},{"name":"","type":"uint256","internalType":"uint256"}],"outputs":[{"name":"","type":"uint256","internalType":"uint256"}],"stateMutability":"view"},{"type":"function","name":"tokenIdToCrowdtainerId","inputs":[{"name":"_tokenId","type":"uint256","internalType":"uint256"}],"outputs":[{"name":"","type":"uint256","internalType":"uint256"}],"stateMutability":"pure"},{"type":"function","name":"tokenOfOwnerByIndex","inputs":[{"name":"owner","type":"address","internalType":"address"},{"name":"index","type":"uint256","internalType":"uint256"}],"outputs":[{"name":"","type":"uint256","internalType":"uint256"}],"stateMutability":"view"},{"type":"function","name":"tokenURI","inputs":[{"name":"_tokenId","type":"uint256","internalType":"uint256"}],"outputs":[{"name":"","type":"string","internalType":"string"}],"stateMutability":"view"},{"type":"function","name":"totalSupply","inputs":[],"outputs":[{"name":"","type":"uint256","internalType":"uint256"}],"stateMutability":"view"},{"type":"function","name":"transferFrom","inputs":[{"name":"from","type":"address","internalType":"address"},{"name":"to","type":"address","internalType":"address"},{"name":"tokenId","type":"uint256","internalType":"uint256"}],"outputs":[],"stateMutability":"nonpayable"},{"type":"event","name":"Approval","inputs":[{"name":"owner","type":"address","indexed":true,"internalType":"address"},{"name":"approved","type":"address","indexed":true,"internalType":"address"},{"name":"tokenId","type":"uint256","indexed":true,"internalType":"uint256"}],"anonymous":false},{"type":"event","name":"ApprovalForAll","inputs":[{"name":"owner","type":"address","indexed":true,"internalType":"address"},{"name":"operator","type":"address","indexed":true,"internalType":"address"},{"name":"approved","type":"bool","indexed":false,"internalType":"bool"}],"anonymous":false},{"type":"event","name":"CrowdtainerDeployed","inputs":[{"name":"_crowdtainerAddress","type":"address","indexed":true,"internalType":"address"},{"name":"_nextCrowdtainerId","type":"uint256","indexed":false,"internalType":"uint256"}],"anonymous":false},{"type":"event","name":"OwnerChanged","inputs":[{"name":"newOwner","type":"address","indexed":true,"internalType":"address"}],"anonymous":false},{"type":"event","name":"Transfer","inputs":[{"name":"from","type":"address","indexed":true,"internalType":"address"},{"name":"to","type":"address","indexed":true,"internalType":"address"},{"name":"tokenId","type":"uint256","indexed":true,"internalType":"uint256"}],"anonymous":false},{"type":"event","name":"Vouchers721Created","inputs":[{"name":"crowdtainer","type":"address","indexed":true,"internalType":"address"},{"name":"owner","type":"address","indexed":true,"internalType":"address"}],"anonymous":false},{"type":"error","name":"AccountNotOwner","inputs":[]},{"type":"error","name":"CCIP_Read_InvalidOperation","inputs":[]},{"type":"error","name":"CallerNotAllowed","inputs":[{"name":"expected","type":"address","internalType":"address"},{"name":"actual","type":"address","internalType":"address"}]},{"type":"error","name":"CrowdtainerInexistent","inputs":[]},{"type":"error","name":"InvalidTokenId","inputs":[{"name":"tokenId","type":"uint256","internalType":"uint256"}]},{"type":"error","name":"MaximumNumberOfParticipantsReached","inputs":[{"name":"maximum","type":"uint256","internalType":"uint256"},{"name":"crowdtainer","type":"address","internalType":"address"}]},{"type":"error","name":"MetadataServiceAddressIsZero","inputs":[]},{"type":"error","name":"OffchainLookup","inputs":[{"name":"sender","type":"address","internalType":"address"},{"name":"urls","type":"string[]","internalType":"string[]"},{"name":"callData","type":"bytes","internalType":"bytes"},{"name":"callbackFunction","type":"bytes4","internalType":"bytes4"},{"name":"extraData","type":"bytes","internalType":"bytes"}]},{"type":"error","name":"OwnerAddressIsZero","inputs":[]},{"type":"error","name":"SetClaimedOnlyAllowedByShippingAgent","inputs":[]},{"type":"error","name":"TransferNotAllowed","inputs":[{"name":"crowdtainer","type":"address","internalType":"address"},{"name":"state","type":"uint8","internalType":"enum CrowdtainerState"}]}],"bytecode":{"object":"0x60a06040523480156200001157600080fd5b50604051620055e4380380620055e483398101604081905262000034916200010b565b6040518060400160405280600b81526020016a566f75636865727337323160a81b8152506040518060400160405280600381526020016256563160e81b8152508160009081620000859190620001e8565b506001620000948282620001e8565b5050506001600160a01b03828116608052600c80546001600160a01b031916918316918217905560405130907fcc3f68b98ab4c0f595ef85ae1d10de85993ef096a64b460984477888ce33625f90600090a35050620002b4565b80516001600160a01b03811681146200010657600080fd5b919050565b600080604083850312156200011f57600080fd5b6200012a83620000ee565b91506200013a60208401620000ee565b90509250929050565b634e487b7160e01b600052604160045260246000fd5b600181811c908216806200016e57607f821691505b6020821081036200018f57634e487b7160e01b600052602260045260246000fd5b50919050565b601f821115620001e357600081815260208120601f850160051c81016020861015620001be5750805b601f850160051c820191505b81811015620001df57828155600101620001ca565b5050505b505050565b81516001600160401b0381111562000204576200020462000143565b6200021c8162000215845462000159565b8462000195565b602080601f8311600181146200025457600084156200023b5750858301515b600019600386901b1c1916600185901b178555620001df565b600085815260208120601f198616915b82811015620002855788860151825594840194600190910190840162000264565b5085821015620002a45787850151600019600388901b60f8161c191681555b5050505050600190811b01905550565b60805161530d620002d7600039600081816109e70152610cf0015261530d6000f3fe608060405234801561001057600080fd5b50600436106102925760003560e01c80636df0c83a11610160578063b88d4fde116100d8578063cbe807121161008c578063db5a0e8311610071578063db5a0e831461061e578063e985e9c514610631578063edf006381461067a57600080fd5b8063cbe80712146105f4578063da581532146105fd57600080fd5b8063c87b56dd116100bd578063c87b56dd146105a1578063c91539bc146105b4578063ca6d45ca146105be57600080fd5b8063b88d4fde1461057b578063c0920f6b1461058e57600080fd5b806395d89b411161012f578063a25a7d3b11610114578063a25a7d3b1461051f578063a3b9871a14610532578063b50223431461054557600080fd5b806395d89b4114610504578063a22cb4651461050c57600080fd5b80636df0c83a1461049e57806370a08231146104be5780637169d23b146104d15780638da5cb5b146104e457600080fd5b80631ed113ae1161020e57806342842e0e116101c2578063566a2cc2116101a7578063566a2cc2146104655780636352211e1461047857806367dfd4c91461048b57600080fd5b806342842e0e1461043f5780634f6ccce71461045257600080fd5b80632f745c59116101f35780632f745c5914610406578063351a41c51461041957806336dbd2f91461042c57600080fd5b80631ed113ae146103af57806323b872dd146103f357600080fd5b80630b82a21c1161026557806313af40351161024a57806313af40351461038157806318160ddd146103945780631856bc1b1461039c57600080fd5b80630b82a21c146103215780630cfd7fd61461034257600080fd5b806301ffc9a71461029757806306fdde03146102bf578063081812fc146102d4578063095ea7b31461030c575b600080fd5b6102aa6102a5366004613ce4565b61068d565b60405190151581526020015b60405180910390f35b6102c76106e9565b6040516102b69190613d6f565b6102e76102e2366004613d82565b61077b565b60405173ffffffffffffffffffffffffffffffffffffffff90911681526020016102b6565b61031f61031a366004613dc8565b6107af565b005b61033461032f366004613df4565b610940565b6040519081526020016102b6565b610355610350366004613f3c565b610971565b6040805173ffffffffffffffffffffffffffffffffffffffff90931683526020830191909152016102b6565b61031f61038f36600461403f565b610ddf565b600854610334565b6103346103aa36600461416a565b610fa0565b6103c26103bd366004614238565b61113c565b6040517fffffffff0000000000000000000000000000000000000000000000000000000090911681526020016102b6565b61031f61040136600461427a565b61116d565b610334610414366004613dc8565b61120e565b6102e7610427366004613d82565b6112dd565b6102aa61043a366004613d82565b611339565b61031f61044d36600461427a565b61135c565b610334610460366004613d82565b611377565b6103346104733660046142bb565b611435565b6102e7610486366004613d82565b611834565b61031f610499366004613d82565b6118c0565b6103346104ac36600461403f565b600f6020526000908152604090205481565b6103346104cc36600461403f565b611aa2565b6102c76104df366004613df4565b611b70565b600c546102e79073ffffffffffffffffffffffffffffffffffffffff1681565b6102c7611c29565b61031f61051a366004614327565b611c38565b61033461052d366004614360565b611c43565b61031f6105403660046143b5565b611c53565b6102e7610553366004613d82565b600e6020526000908152604090205473ffffffffffffffffffffffffffffffffffffffff1681565b61031f6105893660046143fa565b611d3d565b61033461059c366004614466565b611ddf565b6102c76105af366004613d82565b611f8d565b610334620f424081565b6102e76105cc366004613d82565b60106020526000908152604090205473ffffffffffffffffffffffffffffffffffffffff1681565b610334600d5481565b61061061060b366004614238565b6123e3565b6040516102b6929190614532565b61033461062c366004613d82565b61240f565b6102aa61063f366004614546565b73ffffffffffffffffffffffffffffffffffffffff918216600090815260056020908152604080832093909416825291909152205460ff1690565b610334610688366004614574565b61245b565b60007fffffffff0000000000000000000000000000000000000000000000000000000082167f780e9d630000000000000000000000000000000000000000000000000000000014806106e357506106e382612641565b92915050565b6060600080546106f8906145f1565b80601f0160208091040260200160405190810160405280929190818152602001828054610724906145f1565b80156107715780601f1061074657610100808354040283529160200191610771565b820191906000526020600020905b81548152906001019060200180831161075457829003601f168201915b5050505050905090565b600061078682612724565b5060009081526004602052604090205473ffffffffffffffffffffffffffffffffffffffff1690565b60006107ba82611834565b90508073ffffffffffffffffffffffffffffffffffffffff168373ffffffffffffffffffffffffffffffffffffffff160361087c576040517f08c379a000000000000000000000000000000000000000000000000000000000815260206004820152602160248201527f4552433732313a20617070726f76616c20746f2063757272656e74206f776e6560448201527f720000000000000000000000000000000000000000000000000000000000000060648201526084015b60405180910390fd5b3373ffffffffffffffffffffffffffffffffffffffff821614806108a557506108a5813361063f565b610931576040517f08c379a000000000000000000000000000000000000000000000000000000000815260206004820152603e60248201527f4552433732313a20617070726f76652063616c6c6572206973206e6f7420746f60448201527f6b656e206f776e6572206e6f7220617070726f76656420666f7220616c6c00006064820152608401610873565b61093b83836127b2565b505050565b6011602052816000526040600020818154811061095c57600080fd5b90600052602060002001600091509150505481565b600c54600090819073ffffffffffffffffffffffffffffffffffffffff16610c055773ffffffffffffffffffffffffffffffffffffffff83166109e0576040517f9ccb6ed000000000000000000000000000000000000000000000000000000000815260040160405180910390fd5b6000610a0b7f0000000000000000000000000000000000000000000000000000000000000000612852565b6040517f6f9d99d900000000000000000000000000000000000000000000000000000000815290915073ffffffffffffffffffffffffffffffffffffffff821690636f9d99d990610a629030908a9060040161475a565b600060405180830381600087803b158015610a7c57600080fd5b505af1925050508015610a8d575060015b610ad1573d808015610abb576040519150601f19603f3d011682016040523d82523d6000602084013e610ac0565b606091505b50610aca81612934565b5050610bff565b600d60008154610ae0906148e3565b918290555073ffffffffffffffffffffffffffffffffffffffff82166000818152600f6020908152604080832094909455600d80548352600e825284832080547fffffffffffffffffffffffff0000000000000000000000000000000000000000169094179093559154815260128252919091208651610b6292880190613b54565b50600d805460009081526010602090815260409182902080547fffffffffffffffffffffffff00000000000000000000000000000000000000001673ffffffffffffffffffffffffffffffffffffffff8981169190911790915592549151918252918316917f19d6f90297684f8b888bfdd40dece239ff62def4dd8aedd00245b6c846853b97910160405180910390a2600d549092509050610dd7565b50610dd7565b600c5473ffffffffffffffffffffffffffffffffffffffff163314610c7857600c546040517f50a5f40500000000000000000000000000000000000000000000000000000000815273ffffffffffffffffffffffffffffffffffffffff9091166004820152336024820152604401610873565b600c5473ffffffffffffffffffffffffffffffffffffffff163314610c9c57600080fd5b73ffffffffffffffffffffffffffffffffffffffff8316610ce9576040517f9ccb6ed000000000000000000000000000000000000000000000000000000000815260040160405180910390fd5b6000610d147f0000000000000000000000000000000000000000000000000000000000000000612852565b6040517f6f9d99d900000000000000000000000000000000000000000000000000000000815290915073ffffffffffffffffffffffffffffffffffffffff821690636f9d99d990610d6b9030908a9060040161475a565b600060405180830381600087803b158015610d8557600080fd5b505af1925050508015610d96575060015b610ad1573d808015610dc4576040519150601f19603f3d011682016040523d82523d6000602084013e610dc9565b606091505b50610dd381612934565b5050505b935093915050565b600c5473ffffffffffffffffffffffffffffffffffffffff16610eba57600c5473ffffffffffffffffffffffffffffffffffffffff16610e4b576040517f4433e9dd00000000000000000000000000000000000000000000000000000000815260040160405180910390fd5b600c80547fffffffffffffffffffffffff00000000000000000000000000000000000000001673ffffffffffffffffffffffffffffffffffffffff83169081179091556040517fa2ea9883a321a3e97b8266c2b078bfeec6d50c711ed71f874a90d500ae2eaf3690600090a250565b600c5473ffffffffffffffffffffffffffffffffffffffff163314610f2d57600c546040517f50a5f40500000000000000000000000000000000000000000000000000000000815273ffffffffffffffffffffffffffffffffffffffff9091166004820152336024820152604401610873565b600c5473ffffffffffffffffffffffffffffffffffffffff163314610f5157600080fd5b600c5473ffffffffffffffffffffffffffffffffffffffff16610e4b576040517f4433e9dd00000000000000000000000000000000000000000000000000000000815260040160405180910390fd5b6000808773ffffffffffffffffffffffffffffffffffffffff1663fc0c546a6040518163ffffffff1660e01b8152600401602060405180830381865afa158015610fee573d6000803e3d6000fd5b505050506040513d601f19601f82011682018060405250810190611012919061491b565b8351604080860151608087015160a088015160c089015160e08a015194517fd505accf00000000000000000000000000000000000000000000000000000000815273ffffffffffffffffffffffffffffffffffffffff96871660048201528f871660248201526044810194909452606484019290925260ff16608483015260a482015260c481019190915291925082169063d505accf9060e401600060405180830381600087803b1580156110c657600080fd5b505af19250505080156110d7575060015b61111b573d808015611105576040519150601f19603f3d011682016040523d82523d6000602084013e61110a565b606091505b5061111481612934565b5050611130565b611128888888888861245b565b915050611132565b505b9695505050505050565b6000600482101561114f5761114f614938565b61115d600460008486614967565b61116691614991565b9392505050565b611177338261294c565b611203576040517f08c379a000000000000000000000000000000000000000000000000000000000815260206004820152602e60248201527f4552433732313a2063616c6c6572206973206e6f7420746f6b656e206f776e6560448201527f72206e6f7220617070726f7665640000000000000000000000000000000000006064820152608401610873565b61093b838383612a0b565b600061121983611aa2565b82106112a7576040517f08c379a000000000000000000000000000000000000000000000000000000000815260206004820152602b60248201527f455243373231456e756d657261626c653a206f776e657220696e646578206f7560448201527f74206f6620626f756e64730000000000000000000000000000000000000000006064820152608401610873565b5073ffffffffffffffffffffffffffffffffffffffff919091166000908152600660209081526040808320938352929052205490565b6000818152600e602052604081205473ffffffffffffffffffffffffffffffffffffffff16806106e3576040517fba3f1ed100000000000000000000000000000000000000000000000000000000815260040160405180910390fd5b600881901c6000908152600a6020526040812054600160ff84161b1615156106e3565b61093b83838360405180602001604052806000815250611d3d565b600061138260085490565b8210611410576040517f08c379a000000000000000000000000000000000000000000000000000000000815260206004820152602c60248201527f455243373231456e756d657261626c653a20676c6f62616c20696e646578206f60448201527f7574206f6620626f756e647300000000000000000000000000000000000000006064820152608401610873565b60088281548110611423576114236149d9565b90600052602060002001549050919050565b600080808061144685870187614a08565b919450925090507fffffffff0000000000000000000000000000000000000000000000000000000082167f566a2cc2000000000000000000000000000000000000000000000000000000001461149b57600080fd5b600080828060200190518101906114b29190614a80565b5091935091505073ffffffffffffffffffffffffffffffffffffffff85166114d957600080fd5b73ffffffffffffffffffffffffffffffffffffffff85166000908152600f602052604081205490819003611539576040517fba3f1ed100000000000000000000000000000000000000000000000000000000815260040160405180910390fd5b60008673ffffffffffffffffffffffffffffffffffffffff163b1161155d57600080fd5b6040517faab1e47b00000000000000000000000000000000000000000000000000000000815273ffffffffffffffffffffffffffffffffffffffff84811660048301526000919088169063aab1e47b90602401602060405180830381865afa1580156115cd573d6000803e3d6000fd5b505050506040513d601f19601f820116820180604052508101906115f19190614b49565b6040517f566a2cc200000000000000000000000000000000000000000000000000000000815290915073ffffffffffffffffffffffffffffffffffffffff88169063566a2cc29061164a908f908f908a90600401614b62565b600060405180830381600087803b15801561166457600080fd5b505af1925050508015611675575060015b6116b9573d8080156116a3576040519150601f19603f3d011682016040523d82523d6000602084013e6116a8565b606091505b506116b38882612c7d565b50611759565b6040517faab1e47b00000000000000000000000000000000000000000000000000000000815273ffffffffffffffffffffffffffffffffffffffff858116600483015282919089169063aab1e47b90602401602060405180830381865afa158015611728573d6000803e3d6000fd5b505050506040513d601f19601f8201168201806040525081019061174c9190614b49565b1161175957611759614938565b6000828152600b6020526040812080548290611774906148e3565b91829055509050620f424081106117d8576040517f1495c920000000000000000000000000000000000000000000000000000000008152620f4240600482015273ffffffffffffffffffffffffffffffffffffffff89166024820152604401610873565b6000816117e885620f4240614b88565b6117f29190614b9f565b60008181526011602090815260409091208751929350611816929091880190613baa565b506118218682612f03565b985050505050505050505b949350505050565b60008181526002602052604081205473ffffffffffffffffffffffffffffffffffffffff16806106e3576040517f08c379a000000000000000000000000000000000000000000000000000000000815260206004820152601860248201527f4552433732313a20696e76616c696420746f6b656e20494400000000000000006044820152606401610873565b336118ca82611834565b73ffffffffffffffffffffffffffffffffffffffff1614611917576040517f9d6cfcf900000000000000000000000000000000000000000000000000000000815260040160405180910390fd5b60006119256104278361240f565b6040517fbedf77a600000000000000000000000000000000000000000000000000000000815233600482015290915073ffffffffffffffffffffffffffffffffffffffff82169063bedf77a690602401600060405180830381600087803b15801561198f57600080fd5b505af19250505080156119a0575060015b6119e3573d8080156119ce576040519150601f19603f3d011682016040523d82523d6000602084013e6119d3565b606091505b506119dd81612934565b50505050565b6040517faab1e47b00000000000000000000000000000000000000000000000000000000815233600482015273ffffffffffffffffffffffffffffffffffffffff82169063aab1e47b90602401602060405180830381865afa158015611a4d573d6000803e3d6000fd5b505050506040513d601f19601f82011682018060405250810190611a719190614b49565b15611a7e57611a7e614938565b6000828152601160205260408120611a9591613bf1565b611a9e82612f1d565b5050565b600073ffffffffffffffffffffffffffffffffffffffff8216611b47576040517f08c379a000000000000000000000000000000000000000000000000000000000815260206004820152602960248201527f4552433732313a2061646472657373207a65726f206973206e6f74206120766160448201527f6c6964206f776e657200000000000000000000000000000000000000000000006064820152608401610873565b5073ffffffffffffffffffffffffffffffffffffffff1660009081526003602052604090205490565b60126020528160005260406000208181548110611b8c57600080fd5b90600052602060002001600091509150508054611ba8906145f1565b80601f0160208091040260200160405190810160405280929190818152602001828054611bd4906145f1565b8015611c215780601f10611bf657610100808354040283529160200191611c21565b820191906000526020600020905b815481529060010190602001808311611c0457829003601f168201915b505050505081565b6060600180546106f8906145f1565b611a9e338383612ff6565b600061182c84848460008061245b565b6000611c616104278461240f565b9050600081905060008173ffffffffffffffffffffffffffffffffffffffff1663cf0840566040518163ffffffff1660e01b8152600401602060405180830381865afa158015611cb5573d6000803e3d6000fd5b505050506040513d601f19601f82011682018060405250810190611cd9919061491b565b90503373ffffffffffffffffffffffffffffffffffffffff821614611d2a576040517f3944c6d200000000000000000000000000000000000000000000000000000000815260040160405180910390fd5b611d36600a8686613123565b5050505050565b611d47338361294c565b611dd3576040517f08c379a000000000000000000000000000000000000000000000000000000000815260206004820152602e60248201527f4552433732313a2063616c6c6572206973206e6f7420746f6b656e206f776e6560448201527f72206e6f7220617070726f7665640000000000000000000000000000000000006064820152608401610873565b6119dd84848484613172565b600080611dee84860186614a08565b5050905060008173ffffffffffffffffffffffffffffffffffffffff1663fc0c546a6040518163ffffffff1660e01b8152600401602060405180830381865afa158015611e3f573d6000803e3d6000fd5b505050506040513d601f19601f82011682018060405250810190611e63919061491b565b8451604080870151608088015160a089015160c08a015160e08b015194517fd505accf00000000000000000000000000000000000000000000000000000000815273ffffffffffffffffffffffffffffffffffffffff968716600482015289871660248201526044810194909452606484019290925260ff16608483015260a482015260c481019190915291925082169063d505accf9060e401600060405180830381600087803b158015611f1757600080fd5b505af1925050508015611f28575060015b611f6c573d808015611f56576040519150601f19603f3d011682016040523d82523d6000602084013e611f5b565b606091505b50611f6581612934565b5050611f81565b611f7888888888611435565b92505050611f84565b50505b95945050505050565b60606000611f9a8361240f565b90506000611fa7826112dd565b9050600081905060008173ffffffffffffffffffffffffffffffffffffffff1663c66301b26040518163ffffffff1660e01b8152600401602060405180830381865afa158015611ffb573d6000803e3d6000fd5b505050506040513d601f19601f8201168201806040525081019061201f9190614b49565b905060008167ffffffffffffffff81111561203c5761203c613e16565b604051908082528060200260200182016040528015612065578160200160208202803683370190505b50905060005b82811015612131576040517f1e1b25730000000000000000000000000000000000000000000000000000000081526004810182905273ffffffffffffffffffffffffffffffffffffffff851690631e1b257390602401602060405180830381865afa1580156120de573d6000803e3d6000fd5b505050506040513d601f19601f820116820180604052508101906121029190614b49565b828281518110612114576121146149d9565b602090810291909101015280612129816148e3565b91505061206b565b506000858152601060209081526040808320548151610100810190925288825273ffffffffffffffffffffffffffffffffffffffff1692918101620f42406121788c61240f565b6121829190614b88565b61218c908c614bb2565b815260200161219a8b611834565b73ffffffffffffffffffffffffffffffffffffffff1681526020016121be8b611339565b15158152602001848152602001601160008c815260200190815260200160002080548060200260200160405190810160405280929190818152602001828054801561222857602002820191906000526020600020905b815481526020019060010190808311612214575b50505050508152602001601260008a8152602001908152602001600020805480602002602001604051908101604052809291908181526020016000905b82821015612311578382906000526020600020018054612284906145f1565b80601f01602080910402602001604051908101604052809291908181526020018280546122b0906145f1565b80156122fd5780601f106122d2576101008083540402835291602001916122fd565b820191906000526020600020905b8154815290600101906020018083116122e057829003601f168201915b505050505081526020019060010190612265565b505050908252506020018590526040517f7f3ecd4800000000000000000000000000000000000000000000000000000000815290915073ffffffffffffffffffffffffffffffffffffffff831690637f3ecd4890612373908490600401614c55565b600060405180830381865afa158015612390573d6000803e3d6000fd5b505050506040513d6000823e601f3d9081017fffffffffffffffffffffffffffffffffffffffffffffffffffffffffffffffe01682016040526123d69190810190614d74565b9998505050505050505050565b366000600483116123f6576123f6614938565b6124038360048187614967565b915091505b9250929050565b60008160000361244e576040517fed15e6cf00000000000000000000000000000000000000000000000000000000815260048101839052602401610873565b6106e3620f424083614da9565b73ffffffffffffffffffffffffffffffffffffffff85166000908152600f60205260408120548082036124ba576040517fba3f1ed100000000000000000000000000000000000000000000000000000000815260040160405180910390fd5b6040517fedf00638000000000000000000000000000000000000000000000000000000008152879073ffffffffffffffffffffffffffffffffffffffff82169063edf00638906125169033908b908b908b908b90600401614de4565b600060405180830381600087803b15801561253057600080fd5b505af1925050508015612541575060015b612581573d80801561256f576040519150601f19603f3d011682016040523d82523d6000602084013e612574565b606091505b5061257f8982612c7d565b505b6000828152600b602052604081208054829061259c906148e3565b91829055509050620f42408110612600576040517f1495c920000000000000000000000000000000000000000000000000000000008152620f4240600482015273ffffffffffffffffffffffffffffffffffffffff8a166024820152604401610873565b60008161261085620f4240614b88565b61261a9190614b9f565b6000818152601160205260409020909150612636908a8a613c0f565b506123d63382612f03565b60007fffffffff0000000000000000000000000000000000000000000000000000000082167f80ac58cd0000000000000000000000000000000000000000000000000000000014806126d457507fffffffff0000000000000000000000000000000000000000000000000000000082167f5b5e139f00000000000000000000000000000000000000000000000000000000145b806106e357507f01ffc9a7000000000000000000000000000000000000000000000000000000007fffffffff000000000000000000000000000000000000000000000000000000008316146106e3565b60008181526002602052604090205473ffffffffffffffffffffffffffffffffffffffff166127af576040517f08c379a000000000000000000000000000000000000000000000000000000000815260206004820152601860248201527f4552433732313a20696e76616c696420746f6b656e20494400000000000000006044820152606401610873565b50565b600081815260046020526040902080547fffffffffffffffffffffffff00000000000000000000000000000000000000001673ffffffffffffffffffffffffffffffffffffffff8416908117909155819061280c82611834565b73ffffffffffffffffffffffffffffffffffffffff167f8c5be1e5ebec7d5bd14f71427d1e84f3dd0314c0f7b2291e5b200ac8c7c3b92560405160405180910390a45050565b60006040517f3d602d80600a3d3981f3363d3d373d3d3d363d7300000000000000000000000081528260601b60148201527f5af43d82803e903d91602b57fd5bf3000000000000000000000000000000000060288201526037816000f091505073ffffffffffffffffffffffffffffffffffffffff811661292f576040517f08c379a000000000000000000000000000000000000000000000000000000000815260206004820152601660248201527f455243313136373a20637265617465206661696c6564000000000000000000006044820152606401610873565b919050565b6060815160000361294457600080fd5b815182602001fd5b60008061295883611834565b90508073ffffffffffffffffffffffffffffffffffffffff168473ffffffffffffffffffffffffffffffffffffffff1614806129c6575073ffffffffffffffffffffffffffffffffffffffff80821660009081526005602090815260408083209388168352929052205460ff165b8061182c57508373ffffffffffffffffffffffffffffffffffffffff166129ec8461077b565b73ffffffffffffffffffffffffffffffffffffffff1614949350505050565b8273ffffffffffffffffffffffffffffffffffffffff16612a2b82611834565b73ffffffffffffffffffffffffffffffffffffffff1614612ace576040517f08c379a000000000000000000000000000000000000000000000000000000000815260206004820152602560248201527f4552433732313a207472616e736665722066726f6d20696e636f72726563742060448201527f6f776e65720000000000000000000000000000000000000000000000000000006064820152608401610873565b73ffffffffffffffffffffffffffffffffffffffff8216612b70576040517f08c379a0000000000000000000000000000000000000000000000000000000008152602060048201526024808201527f4552433732313a207472616e7366657220746f20746865207a65726f2061646460448201527f72657373000000000000000000000000000000000000000000000000000000006064820152608401610873565b612b7b838383613215565b612b866000826127b2565b73ffffffffffffffffffffffffffffffffffffffff83166000908152600360205260408120805460019290612bbc908490614bb2565b909155505073ffffffffffffffffffffffffffffffffffffffff82166000908152600360205260408120805460019290612bf7908490614b9f565b909155505060008181526002602052604080822080547fffffffffffffffffffffffff00000000000000000000000000000000000000001673ffffffffffffffffffffffffffffffffffffffff86811691821790925591518493918716917fddf252ad1be2c89b69c2b068fc378daa952ba7f163c4a11628f55a4df523b3ef91a4505050565b6004815110158015612d4d57506040517f1ed113ae0000000000000000000000000000000000000000000000000000000081527f556f183000000000000000000000000000000000000000000000000000000000903090631ed113ae90612ce8908590600401613d6f565b602060405180830381865afa158015612d05573d6000803e3d6000fd5b505050506040513d601f19601f82011682018060405250810190612d299190614e3a565b7fffffffff0000000000000000000000000000000000000000000000000000000016145b15612efa5760008060008060003073ffffffffffffffffffffffffffffffffffffffff1663da581532876040518263ffffffff1660e01b8152600401612d939190613d6f565b600060405180830381865afa158015612db0573d6000803e3d6000fd5b505050506040513d6000823e601f3d9081017fffffffffffffffffffffffffffffffffffffffffffffffffffffffffffffffe0168201604052612df69190810190614d74565b806020019051810190612e099190614e57565b945094509450945094508673ffffffffffffffffffffffffffffffffffffffff168573ffffffffffffffffffffffffffffffffffffffff1614612e78576040517fcdd3140600000000000000000000000000000000000000000000000000000000815260040160405180910390fd5b30848463566a2cc260e01b8a8686604051602001612e9893929190614f78565b604080517fffffffffffffffffffffffffffffffffffffffffffffffffffffffffffffffe0818403018152908290527f556f18300000000000000000000000000000000000000000000000000000000082526108739594939291600401614fcf565b61093b81612934565b611a9e828260405180602001604052806000815250613436565b6000612f2882611834565b9050612f3681600084613215565b612f416000836127b2565b73ffffffffffffffffffffffffffffffffffffffff81166000908152600360205260408120805460019290612f77908490614bb2565b909155505060008281526002602052604080822080547fffffffffffffffffffffffff00000000000000000000000000000000000000001690555183919073ffffffffffffffffffffffffffffffffffffffff8416907fddf252ad1be2c89b69c2b068fc378daa952ba7f163c4a11628f55a4df523b3ef908390a45050565b8173ffffffffffffffffffffffffffffffffffffffff168373ffffffffffffffffffffffffffffffffffffffff160361308b576040517f08c379a000000000000000000000000000000000000000000000000000000000815260206004820152601960248201527f4552433732313a20617070726f766520746f2063616c6c6572000000000000006044820152606401610873565b73ffffffffffffffffffffffffffffffffffffffff83811660008181526005602090815260408083209487168084529482529182902080547fffffffffffffffffffffffffffffffffffffffffffffffffffffffffffffff001686151590811790915591519182527f17307eab39ab6107e8899845ad3d59bd9653f200f220920489ca2b5937696c31910160405180910390a3505050565b801561314d57600882901c60009081526020849052604090208054600160ff85161b179055505050565b600882901c60009081526020849052604090208054600160ff85161b19169055505050565b61317d848484612a0b565b613189848484846134d9565b6119dd576040517f08c379a000000000000000000000000000000000000000000000000000000000815260206004820152603260248201527f4552433732313a207472616e7366657220746f206e6f6e20455243373231526560448201527f63656976657220696d706c656d656e74657200000000000000000000000000006064820152608401610873565b6132208383836136c9565b600073ffffffffffffffffffffffffffffffffffffffff84161580613259575073ffffffffffffffffffffffffffffffffffffffff8316155b905080156132675750505050565b60006132756104278461240f565b90508060018173ffffffffffffffffffffffffffffffffffffffff16637855d30c6040518163ffffffff1660e01b8152600401602060405180830381865afa1580156132c5573d6000803e3d6000fd5b505050506040513d601f19601f820116820180604052508101906132e99190615087565b60038111156132fa576132fa615058565b1480613385575060008173ffffffffffffffffffffffffffffffffffffffff16637855d30c6040518163ffffffff1660e01b8152600401602060405180830381865afa15801561334e573d6000803e3d6000fd5b505050506040513d601f19601f820116820180604052508101906133729190615087565b600381111561338357613383615058565b145b1561342e57808173ffffffffffffffffffffffffffffffffffffffff16637855d30c6040518163ffffffff1660e01b8152600401602060405180830381865afa1580156133d6573d6000803e3d6000fd5b505050506040513d601f19601f820116820180604052508101906133fa9190615087565b6040517fe0bf90300000000000000000000000000000000000000000000000000000000081526004016108739291906150a8565b505050505050565b61344083836137cf565b61344d60008484846134d9565b61093b576040517f08c379a000000000000000000000000000000000000000000000000000000000815260206004820152603260248201527f4552433732313a207472616e7366657220746f206e6f6e20455243373231526560448201527f63656976657220696d706c656d656e74657200000000000000000000000000006064820152608401610873565b600073ffffffffffffffffffffffffffffffffffffffff84163b156136c1576040517f150b7a0200000000000000000000000000000000000000000000000000000000815273ffffffffffffffffffffffffffffffffffffffff85169063150b7a0290613550903390899088908890600401615109565b6020604051808303816000875af19250505080156135a9575060408051601f3d9081017fffffffffffffffffffffffffffffffffffffffffffffffffffffffffffffffe01682019092526135a691810190614e3a565b60015b613676573d8080156135d7576040519150601f19603f3d011682016040523d82523d6000602084013e6135dc565b606091505b50805160000361366e576040517f08c379a000000000000000000000000000000000000000000000000000000000815260206004820152603260248201527f4552433732313a207472616e7366657220746f206e6f6e20455243373231526560448201527f63656976657220696d706c656d656e74657200000000000000000000000000006064820152608401610873565b805181602001fd5b7fffffffff00000000000000000000000000000000000000000000000000000000167f150b7a020000000000000000000000000000000000000000000000000000000014905061182c565b50600161182c565b73ffffffffffffffffffffffffffffffffffffffff83166137315761372c81600880546000838152600960205260408120829055600182018355919091527ff3f7a9fe364faab93b216da50a3214154f22a0a2b415b23a84c8169e8b636ee30155565b61376e565b8173ffffffffffffffffffffffffffffffffffffffff168373ffffffffffffffffffffffffffffffffffffffff161461376e5761376e838261399d565b73ffffffffffffffffffffffffffffffffffffffff82166137925761093b81613a54565b8273ffffffffffffffffffffffffffffffffffffffff168273ffffffffffffffffffffffffffffffffffffffff161461093b5761093b8282613b03565b73ffffffffffffffffffffffffffffffffffffffff821661384c576040517f08c379a000000000000000000000000000000000000000000000000000000000815260206004820181905260248201527f4552433732313a206d696e7420746f20746865207a65726f20616464726573736044820152606401610873565b60008181526002602052604090205473ffffffffffffffffffffffffffffffffffffffff16156138d8576040517f08c379a000000000000000000000000000000000000000000000000000000000815260206004820152601c60248201527f4552433732313a20746f6b656e20616c7265616479206d696e746564000000006044820152606401610873565b6138e460008383613215565b73ffffffffffffffffffffffffffffffffffffffff8216600090815260036020526040812080546001929061391a908490614b9f565b909155505060008181526002602052604080822080547fffffffffffffffffffffffff00000000000000000000000000000000000000001673ffffffffffffffffffffffffffffffffffffffff861690811790915590518392907fddf252ad1be2c89b69c2b068fc378daa952ba7f163c4a11628f55a4df523b3ef908290a45050565b600060016139aa84611aa2565b6139b49190614bb2565b600083815260076020526040902054909150808214613a145773ffffffffffffffffffffffffffffffffffffffff841660009081526006602090815260408083208584528252808320548484528184208190558352600790915290208190555b50600091825260076020908152604080842084905573ffffffffffffffffffffffffffffffffffffffff9094168352600681528383209183525290812055565b600854600090613a6690600190614bb2565b60008381526009602052604081205460088054939450909284908110613a8e57613a8e6149d9565b906000526020600020015490508060088381548110613aaf57613aaf6149d9565b6000918252602080832090910192909255828152600990915260408082208490558582528120556008805480613ae757613ae7615148565b6001900381819060005260206000200160009055905550505050565b6000613b0e83611aa2565b73ffffffffffffffffffffffffffffffffffffffff9093166000908152600660209081526040808320868452825280832085905593825260079052919091209190915550565b828054828255906000526020600020908101928215613b9a579160200282015b82811115613b9a5782518290613b8a90826151bd565b5091602001919060010190613b74565b50613ba6929150613c4a565b5090565b828054828255906000526020600020908101928215613be5579160200282015b82811115613be5578251825591602001919060010190613bca565b50613ba6929150613c67565b50805460008255906000526020600020908101906127af9190613c67565b828054828255906000526020600020908101928215613be5579160200282015b82811115613be5578235825591602001919060010190613c2f565b80821115613ba6576000613c5e8282613c7c565b50600101613c4a565b5b80821115613ba65760008155600101613c68565b508054613c88906145f1565b6000825580601f10613c98575050565b601f0160209004906000526020600020908101906127af9190613c67565b7fffffffff00000000000000000000000000000000000000000000000000000000811681146127af57600080fd5b600060208284031215613cf657600080fd5b813561116681613cb6565b60005b83811015613d1c578181015183820152602001613d04565b50506000910152565b60008151808452613d3d816020860160208601613d01565b601f017fffffffffffffffffffffffffffffffffffffffffffffffffffffffffffffffe0169290920160200192915050565b6020815260006111666020830184613d25565b600060208284031215613d9457600080fd5b5035919050565b73ffffffffffffffffffffffffffffffffffffffff811681146127af57600080fd5b803561292f81613d9b565b60008060408385031215613ddb57600080fd5b8235613de681613d9b565b946020939093013593505050565b60008060408385031215613e0757600080fd5b50508035926020909101359150565b7f4e487b7100000000000000000000000000000000000000000000000000000000600052604160045260246000fd5b604051601f82017fffffffffffffffffffffffffffffffffffffffffffffffffffffffffffffffe016810167ffffffffffffffff81118282101715613e8c57613e8c613e16565b604052919050565b600067ffffffffffffffff821115613eae57613eae613e16565b5060051b60200190565b600067ffffffffffffffff821115613ed257613ed2613e16565b50601f017fffffffffffffffffffffffffffffffffffffffffffffffffffffffffffffffe01660200190565b6000613f11613f0c84613eb8565b613e45565b9050828152838383011115613f2557600080fd5b828260208301376000602084830101529392505050565b600080600060608486031215613f5157600080fd5b833567ffffffffffffffff80821115613f6957600080fd5b908501906101608288031215613f7e57600080fd5b9093506020908582013581811115613f9557600080fd5b8601601f81018813613fa657600080fd5b8035613fb4613f0c82613e94565b81815260059190911b8201840190848101908a831115613fd357600080fd5b8584015b8381101561402057803586811115613fef5760008081fd5b8501603f81018d136140015760008081fd5b6140128d8983013560408401613efe565b845250918601918601613fd7565b5080975050505050505061403660408501613dbd565b90509250925092565b60006020828403121561405157600080fd5b813561116681613d9b565b60008083601f84011261406e57600080fd5b50813567ffffffffffffffff81111561408657600080fd5b6020830191508360208260051b850101111561240857600080fd5b80151581146127af57600080fd5b803560ff8116811461292f57600080fd5b60006101008083850312156140d457600080fd5b6040519081019067ffffffffffffffff821181831017156140f7576140f7613e16565b816040528092508335915061410b82613d9b565b81815261411a60208501613dbd565b602082015260408401356040820152606084013560608201526080840135608082015261414960a085016140af565b60a082015260c084013560c082015260e084013560e0820152505092915050565b600080600080600080610180878903121561418457600080fd5b863561418f81613d9b565b9550602087013567ffffffffffffffff8111156141ab57600080fd5b6141b789828a0161405c565b90965094505060408701356141cb816140a1565b925060608701356141db81613d9b565b91506141ea88608089016140c0565b90509295509295509295565b60008083601f84011261420857600080fd5b50813567ffffffffffffffff81111561422057600080fd5b60208301915083602082850101111561240857600080fd5b6000806020838503121561424b57600080fd5b823567ffffffffffffffff81111561426257600080fd5b61426e858286016141f6565b90969095509350505050565b60008060006060848603121561428f57600080fd5b833561429a81613d9b565b925060208401356142aa81613d9b565b929592945050506040919091013590565b600080600080604085870312156142d157600080fd5b843567ffffffffffffffff808211156142e957600080fd5b6142f5888389016141f6565b9096509450602087013591508082111561430e57600080fd5b5061431b878288016141f6565b95989497509550505050565b6000806040838503121561433a57600080fd5b823561434581613d9b565b91506020830135614355816140a1565b809150509250929050565b60008060006040848603121561437557600080fd5b833561438081613d9b565b9250602084013567ffffffffffffffff81111561439c57600080fd5b6143a88682870161405c565b9497909650939450505050565b600080604083850312156143c857600080fd5b823591506020830135614355816140a1565b600082601f8301126143eb57600080fd5b61116683833560208501613efe565b6000806000806080858703121561441057600080fd5b843561441b81613d9b565b9350602085013561442b81613d9b565b925060408501359150606085013567ffffffffffffffff81111561444e57600080fd5b61445a878288016143da565b91505092959194509250565b6000806000806000610140868803121561447f57600080fd5b853567ffffffffffffffff8082111561449757600080fd5b6144a389838a016141f6565b909750955060208801359150808211156144bc57600080fd5b506144c9888289016141f6565b90945092506144dd905087604088016140c0565b90509295509295909350565b8183528181602085013750600060208284010152600060207fffffffffffffffffffffffffffffffffffffffffffffffffffffffffffffffe0601f840116840101905092915050565b60208152600061182c6020830184866144e9565b6000806040838503121561455957600080fd5b823561456481613d9b565b9150602083013561435581613d9b565b60008060008060006080868803121561458c57600080fd5b853561459781613d9b565b9450602086013567ffffffffffffffff8111156145b357600080fd5b6145bf8882890161405c565b90955093505060408601356145d3816140a1565b915060608601356145e381613d9b565b809150509295509295909350565b600181811c9082168061460557607f821691505b60208210810361463e577f4e487b7100000000000000000000000000000000000000000000000000000000600052602260045260246000fd5b50919050565b60008083357fffffffffffffffffffffffffffffffffffffffffffffffffffffffffffffffe184360301811261467957600080fd5b830160208101925035905067ffffffffffffffff81111561469957600080fd5b8060051b360382131561240857600080fd5b81835260007f07ffffffffffffffffffffffffffffffffffffffffffffffffffffffffffffff8311156146dd57600080fd5b8260051b80836020870137939093016020019392505050565b60008083357fffffffffffffffffffffffffffffffffffffffffffffffffffffffffffffffe184360301811261472b57600080fd5b830160208101925035905067ffffffffffffffff81111561474b57600080fd5b80360382131561240857600080fd5b73ffffffffffffffffffffffffffffffffffffffff83168152604060208201526147a46040820161478a84613dbd565b73ffffffffffffffffffffffffffffffffffffffff169052565b60006147b260208401613dbd565b73ffffffffffffffffffffffffffffffffffffffff811660608401525060408301356080830152606083013560a0830152608083013560c083015260a083013560e083015261480460c0840184614644565b610160610100818187015261481e6101a0870184866146ab565b9350610120925060e0870135838701526101408188013581880152614844848901613dbd565b73ffffffffffffffffffffffffffffffffffffffff811688850152935061486d818901896146f6565b9450925050507fffffffffffffffffffffffffffffffffffffffffffffffffffffffffffffffc0858403016101808601526148a98383836144e9565b979650505050505050565b7f4e487b7100000000000000000000000000000000000000000000000000000000600052601160045260246000fd5b60007fffffffffffffffffffffffffffffffffffffffffffffffffffffffffffffffff8203614914576149146148b4565b5060010190565b60006020828403121561492d57600080fd5b815161116681613d9b565b7f4e487b7100000000000000000000000000000000000000000000000000000000600052600160045260246000fd5b6000808585111561497757600080fd5b8386111561498457600080fd5b5050820193919092039150565b7fffffffff0000000000000000000000000000000000000000000000000000000081358181169160048510156149d15780818660040360031b1b83161692505b505092915050565b7f4e487b7100000000000000000000000000000000000000000000000000000000600052603260045260246000fd5b600080600060608486031215614a1d57600080fd5b8335614a2881613d9b565b92506020840135614a3881613cb6565b9150604084013567ffffffffffffffff811115614a5457600080fd5b614a60868287016143da565b9150509250925092565b805161292f81613d9b565b805161292f816140a1565b60008060008060808587031215614a9657600080fd5b8451614aa181613d9b565b8094505060208086015167ffffffffffffffff811115614ac057600080fd5b8601601f81018813614ad157600080fd5b8051614adf613f0c82613e94565b81815260059190911b8201830190838101908a831115614afe57600080fd5b928401925b82841015614b1c57835182529284019290840190614b03565b8097505050505050614b3060408601614a75565b9150614b3e60608601614a6a565b905092959194509250565b600060208284031215614b5b57600080fd5b5051919050565b604081526000614b766040830185876144e9565b82810360208401526111328185613d25565b80820281158282048414176106e3576106e36148b4565b808201808211156106e3576106e36148b4565b818103818111156106e3576106e36148b4565b600081518084526020808501945080840160005b83811015614bf557815187529582019590820190600101614bd9565b509495945050505050565b600081518084526020808501808196508360051b8101915082860160005b85811015614c48578284038952614c36848351613d25565b98850198935090840190600101614c1e565b5091979650505050505050565b60208152815160208201526020820151604082015260006040830151614c93606084018273ffffffffffffffffffffffffffffffffffffffff169052565b50606083015180151560808401525060808301516101008060a0850152614cbe610120850183614bc5565b915060a08501517fffffffffffffffffffffffffffffffffffffffffffffffffffffffffffffffe0808685030160c0870152614cfa8483614bc5565b935060c08701519150808685030160e087015250614d188382614c00565b92505060e085015181850152508091505092915050565b600082601f830112614d4057600080fd5b8151614d4e613f0c82613eb8565b818152846020838601011115614d6357600080fd5b61182c826020830160208701613d01565b600060208284031215614d8657600080fd5b815167ffffffffffffffff811115614d9d57600080fd5b61182c84828501614d2f565b600082614ddf577f4e487b7100000000000000000000000000000000000000000000000000000000600052601260045260246000fd5b500490565b600073ffffffffffffffffffffffffffffffffffffffff808816835260806020840152614e156080840187896146ab565b941515604084015292909216606090910152509392505050565b805161292f81613cb6565b600060208284031215614e4c57600080fd5b815161116681613cb6565b600080600080600060a08688031215614e6f57600080fd5b8551614e7a81613d9b565b8095505060208087015167ffffffffffffffff80821115614e9a57600080fd5b818901915089601f830112614eae57600080fd5b8151614ebc613f0c82613e94565b81815260059190911b8301840190848101908c831115614edb57600080fd5b8585015b83811015614f1357805185811115614ef75760008081fd5b614f058f89838a0101614d2f565b845250918601918601614edf565b5060408c01519099509450505080831115614f2d57600080fd5b614f398a848b01614d2f565b9550614f4760608a01614e2f565b94506080890151925080831115614f5d57600080fd5b5050614f6b88828901614d2f565b9150509295509295909350565b73ffffffffffffffffffffffffffffffffffffffff841681527fffffffff0000000000000000000000000000000000000000000000000000000083166020820152606060408201526000611f846060830184613d25565b73ffffffffffffffffffffffffffffffffffffffff8616815260a060208201526000614ffe60a0830187614c00565b82810360408401526150108187613d25565b90507fffffffff0000000000000000000000000000000000000000000000000000000085166060840152828103608084015261504c8185613d25565b98975050505050505050565b7f4e487b7100000000000000000000000000000000000000000000000000000000600052602160045260246000fd5b60006020828403121561509957600080fd5b81516004811061116657600080fd5b73ffffffffffffffffffffffffffffffffffffffff8316815260408101600483106150fc577f4e487b7100000000000000000000000000000000000000000000000000000000600052602160045260246000fd5b8260208301529392505050565b600073ffffffffffffffffffffffffffffffffffffffff8087168352808616602084015250836040830152608060608301526111326080830184613d25565b7f4e487b7100000000000000000000000000000000000000000000000000000000600052603160045260246000fd5b601f82111561093b57600081815260208120601f850160051c8101602086101561519e5750805b601f850160051c820191505b8181101561342e578281556001016151aa565b815167ffffffffffffffff8111156151d7576151d7613e16565b6151eb816151e584546145f1565b84615177565b602080601f83116001811461523e57600084156152085750858301515b7fffffffffffffffffffffffffffffffffffffffffffffffffffffffffffffffff600386901b1c1916600185901b17855561342e565b6000858152602081207fffffffffffffffffffffffffffffffffffffffffffffffffffffffffffffffe08616915b8281101561528b5788860151825594840194600190910190840161526c565b50858210156152c757878501517fffffffffffffffffffffffffffffffffffffffffffffffffffffffffffffffff600388901b60f8161c191681555b5050505050600190811b0190555056fea26469706673582212201a032020751c70f11662d7bd05251e15385cc36ce246cd1a4512b0459ac3e2e864736f6c63430008150033","linkReferences":{}},"methodIdentifiers":{"ID_MULTIPLE()":"c91539bc","approve(address,uint256)":"095ea7b3","balanceOf(address)":"70a08231","createCrowdtainer((address,address,uint256,uint256,uint256,uint256,uint256[],uint256,uint256,address,string),string[],address)":"0cfd7fd6","crowdtainerCount()":"cbe80712","crowdtainerForId(uint256)":"b5022343","crowdtainerIdToAddress(uint256)":"351a41c5","getApproved(uint256)":"081812fc","getClaimStatus(uint256)":"36dbd2f9","getParameters(bytes)":"da581532","getSignature(bytes)":"1ed113ae","idForCrowdtainer(address)":"6df0c83a","isApprovedForAll(address,address)":"e985e9c5","join(address,uint256[])":"a25a7d3b","join(address,uint256[],bool,address)":"edf00638","join(address,uint256[],bool,address,(address,address,uint256,uint256,uint256,uint8,bytes32,bytes32))":"1856bc1b","joinWithSignature(bytes,bytes)":"566a2cc2","joinWithSignatureAndPermit(bytes,bytes,(address,address,uint256,uint256,uint256,uint8,bytes32,bytes32))":"c0920f6b","leave(uint256)":"67dfd4c9","metadataServiceForCrowdatinerId(uint256)":"ca6d45ca","name()":"06fdde03","owner()":"8da5cb5b","ownerOf(uint256)":"6352211e","productDescription(uint256,uint256)":"7169d23b","safeTransferFrom(address,address,uint256)":"42842e0e","safeTransferFrom(address,address,uint256,bytes)":"b88d4fde","setApprovalForAll(address,bool)":"a22cb465","setClaimStatus(uint256,bool)":"a3b9871a","setOwner(address)":"13af4035","supportsInterface(bytes4)":"01ffc9a7","symbol()":"95d89b41","tokenByIndex(uint256)":"4f6ccce7","tokenIdQuantities(uint256,uint256)":"0b82a21c","tokenIdToCrowdtainerId(uint256)":"db5a0e83","tokenOfOwnerByIndex(address,uint256)":"2f745c59","tokenURI(uint256)":"c87b56dd","totalSupply()":"18160ddd","transferFrom(address,address,uint256)":"23b872dd"},"id":33}