{
  "abi": [
    {
      "inputs": [
        {
          "internalType": "address",
          "name": "_crowdtainerImplementation",
          "type": "address"
        }
      ],
      "stateMutability": "nonpayable",
      "type": "constructor"
    },
    {
      "inputs": [],
      "name": "AccountNotOwner",
      "type": "error"
    },
    {
      "inputs": [],
      "name": "CCIP_Read_InvalidOperation",
      "type": "error"
    },
    {
      "inputs": [
        {
          "internalType": "address",
          "name": "expected",
          "type": "address"
        },
        {
          "internalType": "address",
          "name": "actual",
          "type": "address"
        }
      ],
      "name": "CallerNotAllowed",
      "type": "error"
    },
    {
      "inputs": [],
      "name": "CrowdtainerInexistent",
      "type": "error"
    },
    {
      "inputs": [
        {
          "internalType": "uint256",
          "name": "tokenId",
          "type": "uint256"
        }
      ],
      "name": "InvalidTokenId",
      "type": "error"
    },
    {
      "inputs": [
        {
          "internalType": "uint256",
          "name": "maximum",
          "type": "uint256"
        },
        {
          "internalType": "address",
          "name": "crowdtainer",
          "type": "address"
        }
      ],
      "name": "MaximumNumberOfParticipantsReached",
      "type": "error"
    },
    {
      "inputs": [],
      "name": "MetadataServiceAddressIsZero",
      "type": "error"
    },
    {
      "inputs": [
        {
          "internalType": "address",
          "name": "sender",
          "type": "address"
        },
        {
          "internalType": "string[]",
          "name": "urls",
          "type": "string[]"
        },
        {
          "internalType": "bytes",
          "name": "callData",
          "type": "bytes"
        },
        {
          "internalType": "bytes4",
          "name": "callbackFunction",
          "type": "bytes4"
        },
        {
          "internalType": "bytes",
          "name": "extraData",
          "type": "bytes"
        }
      ],
      "name": "OffchainLookup",
      "type": "error"
    },
    {
      "inputs": [],
      "name": "SetClaimedOnlyAllowedByShippingAgent",
      "type": "error"
    },
    {
      "inputs": [
        {
          "internalType": "uint64",
          "name": "current",
          "type": "uint64"
        },
        {
          "internalType": "uint64",
          "name": "expires",
          "type": "uint64"
        }
      ],
      "name": "SignatureExpired",
      "type": "error"
    },
    {
      "inputs": [
        {
          "internalType": "address",
          "name": "crowdtainer",
          "type": "address"
        },
        {
          "internalType": "enum CrowdtainerState",
          "name": "state",
          "type": "uint8"
        }
      ],
      "name": "TransferNotAllowed",
      "type": "error"
    },
    {
      "anonymous": false,
      "inputs": [
        {
          "indexed": true,
          "internalType": "address",
          "name": "owner",
          "type": "address"
        },
        {
          "indexed": true,
          "internalType": "address",
          "name": "approved",
          "type": "address"
        },
        {
          "indexed": true,
          "internalType": "uint256",
          "name": "tokenId",
          "type": "uint256"
        }
      ],
      "name": "Approval",
      "type": "event"
    },
    {
      "anonymous": false,
      "inputs": [
        {
          "indexed": true,
          "internalType": "address",
          "name": "owner",
          "type": "address"
        },
        {
          "indexed": true,
          "internalType": "address",
          "name": "operator",
          "type": "address"
        },
        {
          "indexed": false,
          "internalType": "bool",
          "name": "approved",
          "type": "bool"
        }
      ],
      "name": "ApprovalForAll",
      "type": "event"
    },
    {
      "anonymous": false,
      "inputs": [
        {
          "indexed": true,
          "internalType": "address",
          "name": "_crowdtainerAddress",
          "type": "address"
        },
        {
          "indexed": false,
          "internalType": "uint256",
          "name": "_nextCrowdtainerId",
          "type": "uint256"
        }
      ],
      "name": "CrowdtainerDeployed",
      "type": "event"
    },
    {
      "anonymous": false,
      "inputs": [
        {
          "indexed": true,
          "internalType": "address",
          "name": "from",
          "type": "address"
        },
        {
          "indexed": true,
          "internalType": "address",
          "name": "to",
          "type": "address"
        },
        {
          "indexed": true,
          "internalType": "uint256",
          "name": "tokenId",
          "type": "uint256"
        }
      ],
      "name": "Transfer",
      "type": "event"
    },
    {
      "anonymous": false,
      "inputs": [
        {
          "indexed": true,
          "internalType": "address",
          "name": "crowdtainer",
          "type": "address"
        }
      ],
      "name": "Vouchers721Created",
      "type": "event"
    },
    {
      "inputs": [],
      "name": "ID_MULTIPLE",
      "outputs": [
        {
          "internalType": "uint256",
          "name": "",
          "type": "uint256"
        }
      ],
      "stateMutability": "view",
      "type": "function"
    },
    {
      "inputs": [
        {
          "internalType": "address",
          "name": "to",
          "type": "address"
        },
        {
          "internalType": "uint256",
          "name": "tokenId",
          "type": "uint256"
        }
      ],
      "name": "approve",
      "outputs": [],
      "stateMutability": "nonpayable",
      "type": "function"
    },
    {
      "inputs": [
        {
          "internalType": "address",
          "name": "owner",
          "type": "address"
        }
      ],
      "name": "balanceOf",
      "outputs": [
        {
          "internalType": "uint256",
          "name": "",
          "type": "uint256"
        }
      ],
      "stateMutability": "view",
      "type": "function"
    },
    {
      "inputs": [
        {
          "components": [
            {
              "internalType": "address",
              "name": "shippingAgent",
              "type": "address"
            },
            {
              "internalType": "address",
              "name": "signer",
              "type": "address"
            },
            {
              "internalType": "uint256",
              "name": "openingTime",
              "type": "uint256"
            },
            {
              "internalType": "uint256",
              "name": "expireTime",
              "type": "uint256"
            },
            {
              "internalType": "uint256",
              "name": "targetMinimum",
              "type": "uint256"
            },
            {
              "internalType": "uint256",
              "name": "targetMaximum",
              "type": "uint256"
            },
            {
              "internalType": "uint256[4]",
              "name": "unitPricePerType",
              "type": "uint256[4]"
            },
            {
              "internalType": "uint256",
              "name": "referralRate",
              "type": "uint256"
            },
            {
              "internalType": "uint256",
              "name": "referralEligibilityValue",
              "type": "uint256"
            },
            {
              "internalType": "address",
              "name": "token",
              "type": "address"
            },
            {
              "internalType": "string",
              "name": "legalContractURI",
              "type": "string"
            }
          ],
          "internalType": "struct CampaignData",
          "name": "_campaignData",
          "type": "tuple"
        },
        {
          "internalType": "string[4]",
          "name": "_productDescription",
          "type": "string[4]"
        },
        {
          "internalType": "address",
          "name": "_metadataService",
          "type": "address"
        }
      ],
      "name": "createCrowdtainer",
      "outputs": [
        {
          "internalType": "address",
          "name": "",
          "type": "address"
        },
        {
          "internalType": "uint256",
          "name": "",
          "type": "uint256"
        }
      ],
      "stateMutability": "nonpayable",
      "type": "function"
    },
    {
      "inputs": [],
      "name": "crowdtainerCount",
      "outputs": [
        {
          "internalType": "uint256",
          "name": "",
          "type": "uint256"
        }
      ],
      "stateMutability": "view",
      "type": "function"
    },
    {
      "inputs": [
        {
          "internalType": "uint256",
          "name": "",
          "type": "uint256"
        }
      ],
      "name": "crowdtainerForId",
      "outputs": [
        {
          "internalType": "address",
          "name": "",
          "type": "address"
        }
      ],
      "stateMutability": "view",
      "type": "function"
    },
    {
      "inputs": [
        {
          "internalType": "uint256",
          "name": "_crowdtainerId",
          "type": "uint256"
        }
      ],
      "name": "crowdtainerIdToAddress",
      "outputs": [
        {
          "internalType": "address",
          "name": "",
          "type": "address"
        }
      ],
      "stateMutability": "view",
      "type": "function"
    },
    {
      "inputs": [
        {
          "internalType": "uint256",
          "name": "tokenId",
          "type": "uint256"
        }
      ],
      "name": "getApproved",
      "outputs": [
        {
          "internalType": "address",
          "name": "",
          "type": "address"
        }
      ],
      "stateMutability": "view",
      "type": "function"
    },
    {
      "inputs": [
        {
          "internalType": "uint256",
          "name": "_tokenId",
          "type": "uint256"
        }
      ],
      "name": "getClaimStatus",
      "outputs": [
        {
          "internalType": "bool",
          "name": "",
          "type": "bool"
        }
      ],
      "stateMutability": "view",
      "type": "function"
    },
    {
      "inputs": [
        {
          "internalType": "bytes",
          "name": "data",
          "type": "bytes"
        }
      ],
      "name": "getParameters",
      "outputs": [
        {
          "internalType": "bytes",
          "name": "",
          "type": "bytes"
        }
      ],
      "stateMutability": "pure",
      "type": "function"
    },
    {
      "inputs": [
        {
          "internalType": "bytes",
          "name": "data",
          "type": "bytes"
        }
      ],
      "name": "getSignature",
      "outputs": [
        {
          "internalType": "bytes4",
          "name": "",
          "type": "bytes4"
        }
      ],
      "stateMutability": "pure",
      "type": "function"
    },
    {
      "inputs": [
        {
          "internalType": "address",
          "name": "",
          "type": "address"
        }
      ],
      "name": "idForCrowdtainer",
      "outputs": [
        {
          "internalType": "uint256",
          "name": "",
          "type": "uint256"
        }
      ],
      "stateMutability": "view",
      "type": "function"
    },
    {
      "inputs": [
        {
          "internalType": "address",
          "name": "owner",
          "type": "address"
        },
        {
          "internalType": "address",
          "name": "operator",
          "type": "address"
        }
      ],
      "name": "isApprovedForAll",
      "outputs": [
        {
          "internalType": "bool",
          "name": "",
          "type": "bool"
        }
      ],
      "stateMutability": "view",
      "type": "function"
    },
    {
      "inputs": [
        {
          "internalType": "address",
          "name": "_crowdtainer",
          "type": "address"
        },
        {
          "internalType": "uint256[4]",
          "name": "_quantities",
          "type": "uint256[4]"
        },
        {
          "internalType": "bool",
          "name": "_enableReferral",
          "type": "bool"
        },
        {
          "internalType": "address",
          "name": "_referrer",
          "type": "address"
        }
      ],
      "name": "join",
      "outputs": [
        {
          "internalType": "uint256",
          "name": "",
          "type": "uint256"
        }
      ],
      "stateMutability": "nonpayable",
      "type": "function"
    },
    {
      "inputs": [
        {
          "internalType": "bytes",
          "name": "result",
          "type": "bytes"
        },
        {
          "internalType": "bytes",
          "name": "extraData",
          "type": "bytes"
        }
      ],
      "name": "joinWithSignature",
      "outputs": [
        {
          "internalType": "uint256",
          "name": "",
          "type": "uint256"
        }
      ],
      "stateMutability": "nonpayable",
      "type": "function"
    },
    {
      "inputs": [
        {
          "internalType": "uint256",
          "name": "_tokenId",
          "type": "uint256"
        }
      ],
      "name": "leave",
      "outputs": [],
      "stateMutability": "nonpayable",
      "type": "function"
    },
    {
      "inputs": [
        {
          "internalType": "uint256",
          "name": "",
          "type": "uint256"
        }
      ],
      "name": "metadataServiceForCrowdatinerId",
      "outputs": [
        {
          "internalType": "address",
          "name": "",
          "type": "address"
        }
      ],
      "stateMutability": "view",
      "type": "function"
    },
    {
      "inputs": [],
      "name": "name",
      "outputs": [
        {
          "internalType": "string",
          "name": "",
          "type": "string"
        }
      ],
      "stateMutability": "view",
      "type": "function"
    },
    {
      "inputs": [
        {
          "internalType": "uint256",
          "name": "tokenId",
          "type": "uint256"
        }
      ],
      "name": "ownerOf",
      "outputs": [
        {
          "internalType": "address",
          "name": "",
          "type": "address"
        }
      ],
      "stateMutability": "view",
      "type": "function"
    },
    {
      "inputs": [
        {
          "internalType": "uint256",
          "name": "",
          "type": "uint256"
        },
        {
          "internalType": "uint256",
          "name": "",
          "type": "uint256"
        }
      ],
      "name": "productDescription",
      "outputs": [
        {
          "internalType": "string",
          "name": "",
          "type": "string"
        }
      ],
      "stateMutability": "view",
      "type": "function"
    },
    {
      "inputs": [
        {
          "internalType": "address",
          "name": "from",
          "type": "address"
        },
        {
          "internalType": "address",
          "name": "to",
          "type": "address"
        },
        {
          "internalType": "uint256",
          "name": "tokenId",
          "type": "uint256"
        }
      ],
      "name": "safeTransferFrom",
      "outputs": [],
      "stateMutability": "nonpayable",
      "type": "function"
    },
    {
      "inputs": [
        {
          "internalType": "address",
          "name": "from",
          "type": "address"
        },
        {
          "internalType": "address",
          "name": "to",
          "type": "address"
        },
        {
          "internalType": "uint256",
          "name": "tokenId",
          "type": "uint256"
        },
        {
          "internalType": "bytes",
          "name": "data",
          "type": "bytes"
        }
      ],
      "name": "safeTransferFrom",
      "outputs": [],
      "stateMutability": "nonpayable",
      "type": "function"
    },
    {
      "inputs": [
        {
          "internalType": "address",
          "name": "operator",
          "type": "address"
        },
        {
          "internalType": "bool",
          "name": "approved",
          "type": "bool"
        }
      ],
      "name": "setApprovalForAll",
      "outputs": [],
      "stateMutability": "nonpayable",
      "type": "function"
    },
    {
      "inputs": [
        {
          "internalType": "uint256",
          "name": "_tokenId",
          "type": "uint256"
        },
        {
          "internalType": "bool",
          "name": "_value",
          "type": "bool"
        }
      ],
      "name": "setClaimStatus",
      "outputs": [],
      "stateMutability": "nonpayable",
      "type": "function"
    },
    {
      "inputs": [
        {
          "internalType": "bytes4",
          "name": "interfaceId",
          "type": "bytes4"
        }
      ],
      "name": "supportsInterface",
      "outputs": [
        {
          "internalType": "bool",
          "name": "",
          "type": "bool"
        }
      ],
      "stateMutability": "view",
      "type": "function"
    },
    {
      "inputs": [],
      "name": "symbol",
      "outputs": [
        {
          "internalType": "string",
          "name": "",
          "type": "string"
        }
      ],
      "stateMutability": "view",
      "type": "function"
    },
    {
      "inputs": [
        {
          "internalType": "uint256",
          "name": "index",
          "type": "uint256"
        }
      ],
      "name": "tokenByIndex",
      "outputs": [
        {
          "internalType": "uint256",
          "name": "",
          "type": "uint256"
        }
      ],
      "stateMutability": "view",
      "type": "function"
    },
    {
      "inputs": [
        {
          "internalType": "uint256",
          "name": "",
          "type": "uint256"
        },
        {
          "internalType": "uint256",
          "name": "",
          "type": "uint256"
        }
      ],
      "name": "tokenIdQuantities",
      "outputs": [
        {
          "internalType": "uint256",
          "name": "",
          "type": "uint256"
        }
      ],
      "stateMutability": "view",
      "type": "function"
    },
    {
      "inputs": [
        {
          "internalType": "uint256",
          "name": "_tokenId",
          "type": "uint256"
        }
      ],
      "name": "tokenIdToCrowdtainerId",
      "outputs": [
        {
          "internalType": "uint256",
          "name": "",
          "type": "uint256"
        }
      ],
      "stateMutability": "pure",
      "type": "function"
    },
    {
      "inputs": [
        {
          "internalType": "address",
          "name": "owner",
          "type": "address"
        },
        {
          "internalType": "uint256",
          "name": "index",
          "type": "uint256"
        }
      ],
      "name": "tokenOfOwnerByIndex",
      "outputs": [
        {
          "internalType": "uint256",
          "name": "",
          "type": "uint256"
        }
      ],
      "stateMutability": "view",
      "type": "function"
    },
    {
      "inputs": [
        {
          "internalType": "uint256",
          "name": "_tokenId",
          "type": "uint256"
        }
      ],
      "name": "tokenURI",
      "outputs": [
        {
          "internalType": "string",
          "name": "",
          "type": "string"
        }
      ],
      "stateMutability": "view",
      "type": "function"
    },
    {
      "inputs": [],
      "name": "totalSupply",
      "outputs": [
        {
          "internalType": "uint256",
          "name": "",
          "type": "uint256"
        }
      ],
      "stateMutability": "view",
      "type": "function"
    },
    {
      "inputs": [
        {
          "internalType": "address",
          "name": "from",
          "type": "address"
        },
        {
          "internalType": "address",
          "name": "to",
          "type": "address"
        },
        {
          "internalType": "uint256",
          "name": "tokenId",
          "type": "uint256"
        }
      ],
      "name": "transferFrom",
      "outputs": [],
      "stateMutability": "nonpayable",
      "type": "function"
    }
  ],
  "bytecode": {
    "object": "0x60a06040523480156200001157600080fd5b5060405162004a9f38038062004a9f8339810160408190526200003491620000d6565b6040518060400160405280600b81526020016a566f75636865727337323160a81b8152506040518060400160405280600381526020016256563160e81b8152508160009081620000859190620001ad565b506001620000948282620001ad565b5050506001600160a01b03811660805260405130907fdd7bf9deccc329033ee50f9e925f9bf2a608eac8950906d19cb2ed39ec61cf3690600090a25062000279565b600060208284031215620000e957600080fd5b81516001600160a01b03811681146200010157600080fd5b9392505050565b634e487b7160e01b600052604160045260246000fd5b600181811c908216806200013357607f821691505b6020821081036200015457634e487b7160e01b600052602260045260246000fd5b50919050565b601f821115620001a857600081815260208120601f850160051c81016020861015620001835750805b601f850160051c820191505b81811015620001a4578281556001016200018f565b5050505b505050565b81516001600160401b03811115620001c957620001c962000108565b620001e181620001da84546200011e565b846200015a565b602080601f831160018114620002195760008415620002005750858301515b600019600386901b1c1916600185901b178555620001a4565b600085815260208120601f198616915b828110156200024a5788860151825594840194600190910190840162000229565b5085821015620002695787850151600019600388901b60f8161c191681555b5050505050600190811b01905550565b60805161480a620002956000396000611811015261480a6000f3fe608060405234801561001057600080fd5b506004361061020b5760003560e01c806367dfd4c91161012a578063b5022343116100bd578063ca6d45ca1161008c578063da58153211610071578063da5815321461051d578063db5a0e831461053e578063e985e9c51461055157600080fd5b8063ca6d45ca146104de578063cbe807121461051457600080fd5b8063b502234314610478578063b88d4fde146104ae578063c87b56dd146104c1578063c91539bc146104d457600080fd5b806395d89b41116100f957806395d89b411461040b578063a0ae459d14610413578063a22cb46514610452578063a3b9871a1461046557600080fd5b806367dfd4c9146103b25780636df0c83a146103c557806370a08231146103e55780637169d23b146103f857600080fd5b80632f745c59116101a2578063464eff5011610171578063464eff50146103665780634f6ccce714610379578063566a2cc21461038c5780636352211e1461039f57600080fd5b80632f745c591461031a578063351a41c51461032d57806336dbd2f91461034057806342842e0e1461035357600080fd5b80630b82a21c116101de5780630b82a21c1461029a57806318160ddd146102bb5780631ed113ae146102c357806323b872dd1461030757600080fd5b806301ffc9a71461021057806306fdde0314610238578063081812fc1461024d578063095ea7b314610285575b600080fd5b61022361021e366004613518565b61059a565b60405190151581526020015b60405180910390f35b6102406105f6565b60405161022f91906135a3565b61026061025b3660046135b6565b610688565b60405173ffffffffffffffffffffffffffffffffffffffff909116815260200161022f565b6102986102933660046135fc565b6106bc565b005b6102ad6102a8366004613628565b61084d565b60405190815260200161022f565b6008546102ad565b6102d66102d136600461368c565b610872565b6040517fffffffff00000000000000000000000000000000000000000000000000000000909116815260200161022f565b6102986103153660046136ce565b6108a0565b6102ad6103283660046135fc565b610941565b61026061033b3660046135b6565b610a10565b61022361034e3660046135b6565b610a6c565b6102986103613660046136ce565b610a8f565b6102ad61037436600461371d565b610aaa565b6102ad6103873660046135b6565b6110d7565b6102ad61039a36600461377c565b611195565b6102606103ad3660046135b6565b61148f565b6102986103c03660046135b6565b61151b565b6102ad6103d33660046137e8565b600e6020526000908152604090205481565b6102ad6103f33660046137e8565b611630565b610240610406366004613628565b6116fe565b6102406117ab565b610426610421366004613930565b6117ba565b6040805173ffffffffffffffffffffffffffffffffffffffff909316835260208301919091520161022f565b610298610460366004613a1c565b6119ea565b610298610473366004613a55565b6119f9565b6102606104863660046135b6565b600d6020526000908152604090205473ffffffffffffffffffffffffffffffffffffffff1681565b6102986104bc366004613a9a565b611ae3565b6102406104cf3660046135b6565b611b8b565b6102ad620f424081565b6102606104ec3660046135b6565b600f6020526000908152604090205473ffffffffffffffffffffffffffffffffffffffff1681565b6102ad600c5481565b61053061052b36600461368c565b6120e3565b60405161022f929190613b4f565b6102ad61054c3660046135b6565b61210c565b61022361055f366004613b63565b73ffffffffffffffffffffffffffffffffffffffff918216600090815260056020908152604080832093909416825291909152205460ff1690565b60007fffffffff0000000000000000000000000000000000000000000000000000000082167f780e9d630000000000000000000000000000000000000000000000000000000014806105f057506105f082612158565b92915050565b60606000805461060590613b91565b80601f016020809104026020016040519081016040528092919081815260200182805461063190613b91565b801561067e5780601f106106535761010080835404028352916020019161067e565b820191906000526020600020905b81548152906001019060200180831161066157829003601f168201915b5050505050905090565b60006106938261223b565b5060009081526004602052604090205473ffffffffffffffffffffffffffffffffffffffff1690565b60006106c78261148f565b90508073ffffffffffffffffffffffffffffffffffffffff168373ffffffffffffffffffffffffffffffffffffffff1603610789576040517f08c379a000000000000000000000000000000000000000000000000000000000815260206004820152602160248201527f4552433732313a20617070726f76616c20746f2063757272656e74206f776e6560448201527f720000000000000000000000000000000000000000000000000000000000000060648201526084015b60405180910390fd5b3373ffffffffffffffffffffffffffffffffffffffff821614806107b257506107b2813361055f565b61083e576040517f08c379a000000000000000000000000000000000000000000000000000000000815260206004820152603e60248201527f4552433732313a20617070726f76652063616c6c6572206973206e6f7420746f60448201527f6b656e206f776e6572206e6f7220617070726f76656420666f7220616c6c00006064820152608401610780565b61084883836122c9565b505050565b6010602052816000526040600020816004811061086957600080fd5b01549150829050565b6000600482101561088257600080fd5b610890600460008486613be4565b61089991613c0e565b9392505050565b6108aa3382612369565b610936576040517f08c379a000000000000000000000000000000000000000000000000000000000815260206004820152602e60248201527f4552433732313a2063616c6c6572206973206e6f7420746f6b656e206f776e6560448201527f72206e6f7220617070726f7665640000000000000000000000000000000000006064820152608401610780565b610848838383612428565b600061094c83611630565b82106109da576040517f08c379a000000000000000000000000000000000000000000000000000000000815260206004820152602b60248201527f455243373231456e756d657261626c653a206f776e657220696e646578206f7560448201527f74206f6620626f756e64730000000000000000000000000000000000000000006064820152608401610780565b5073ffffffffffffffffffffffffffffffffffffffff919091166000908152600660209081526040808320938352929052205490565b6000818152600d602052604081205473ffffffffffffffffffffffffffffffffffffffff16806105f0576040517fba3f1ed100000000000000000000000000000000000000000000000000000000815260040160405180910390fd5b600881901c6000908152600a6020526040812054600160ff84161b1615156105f0565b61084883838360405180602001604052806000815250611ae3565b73ffffffffffffffffffffffffffffffffffffffff84166000908152600e6020526040812054808203610b09576040517fba3f1ed100000000000000000000000000000000000000000000000000000000815260040160405180910390fd5b6040517f464eff50000000000000000000000000000000000000000000000000000000008152869073ffffffffffffffffffffffffffffffffffffffff82169063464eff5090610b639033908a908a908a90600401613c5f565b600060405180830381600087803b158015610b7d57600080fd5b505af1925050508015610b8e575060015b611008573d808015610bbc576040519150601f19603f3d011682016040523d82523d6000602084013e610bc1565b606091505b506040517f1ed113ae0000000000000000000000000000000000000000000000000000000081526000903090631ed113ae90610c019085906004016135a3565b602060405180830381865afa158015610c1e573d6000803e3d6000fd5b505050506040513d601f19601f82011682018060405250810190610c429190613cab565b90507faa90e7d0000000000000000000000000000000000000000000000000000000007fffffffff00000000000000000000000000000000000000000000000000000000821601610e355760008060008060003073ffffffffffffffffffffffffffffffffffffffff1663da581532886040518263ffffffff1660e01b8152600401610cce91906135a3565b600060405180830381865afa158015610ceb573d6000803e3d6000fd5b505050506040513d6000823e601f3d9081017fffffffffffffffffffffffffffffffffffffffffffffffffffffffffffffffe0168201604052610d319190810190613d0d565b806020019051810190610d449190613d42565b945094509450945094508773ffffffffffffffffffffffffffffffffffffffff168573ffffffffffffffffffffffffffffffffffffffff1614610db3576040517fcdd3140600000000000000000000000000000000000000000000000000000000815260040160405180910390fd5b30848463566a2cc260e01b8b8686604051602001610dd393929190613e75565b604080517fffffffffffffffffffffffffffffffffffffffffffffffffffffffffffffffe0818403018152908290527f556f18300000000000000000000000000000000000000000000000000000000082526107809594939291600401613ed5565b7f9652ec60000000000000000000000000000000000000000000000000000000007fffffffff00000000000000000000000000000000000000000000000000000000821601610f80576040517fda5815320000000000000000000000000000000000000000000000000000000081526000908190309063da58153290610ebf9087906004016135a3565b600060405180830381865afa158015610edc573d6000803e3d6000fd5b505050506040513d6000823e601f3d9081017fffffffffffffffffffffffffffffffffffffffffffffffffffffffffffffffe0168201604052610f229190810190613d0d565b806020019051810190610f359190613fdc565b6040517f69ad13a000000000000000000000000000000000000000000000000000000000815267ffffffffffffffff8084166004830152821660248201529193509150604401610780565b6040517f08c379a000000000000000000000000000000000000000000000000000000000815260206004820152602c60248201527f4f7468657220657863657074696f6e207468726f776e2c206d7573742068616c60448201527f7420657865637574696f6e2e00000000000000000000000000000000000000006064820152608401610780565b6000828152600b60205260408120805482906110239061403e565b91829055509050620f42408110611087576040517f1495c920000000000000000000000000000000000000000000000000000000008152620f4240600482015273ffffffffffffffffffffffffffffffffffffffff89166024820152604401610780565b60008161109785620f4240614076565b6110a191906140b3565b60008181526010602052604090209091506110be908960046133cd565b506110c9338261269a565b93505050505b949350505050565b60006110e260085490565b8210611170576040517f08c379a000000000000000000000000000000000000000000000000000000000815260206004820152602c60248201527f455243373231456e756d657261626c653a20676c6f62616c20696e646578206f60448201527f7574206f6620626f756e647300000000000000000000000000000000000000006064820152608401610780565b60088281548110611183576111836140c6565b90600052602060002001549050919050565b60008080806111a6858701876140f5565b919450925090507fffffffff0000000000000000000000000000000000000000000000000000000082167f566a2cc200000000000000000000000000000000000000000000000000000000146111fe576111fe614157565b600080828060200190518101906112159190614186565b509193509150503373ffffffffffffffffffffffffffffffffffffffff831614611289576040517f50a5f40500000000000000000000000000000000000000000000000000000000815233600482015273ffffffffffffffffffffffffffffffffffffffff83166024820152604401610780565b73ffffffffffffffffffffffffffffffffffffffff85166112ac576112ac614157565b73ffffffffffffffffffffffffffffffffffffffff85166000908152600e60205260408120549081900361130c576040517fba3f1ed100000000000000000000000000000000000000000000000000000000815260040160405180910390fd5b60008673ffffffffffffffffffffffffffffffffffffffff163b1161133357611333614157565b6040517f566a2cc200000000000000000000000000000000000000000000000000000000815273ffffffffffffffffffffffffffffffffffffffff87169063566a2cc290611389908e908e908990600401614212565b600060405180830381600087803b1580156113a357600080fd5b505af11580156113b7573d6000803e3d6000fd5b5050506000828152600b6020526040812080549192509082906113d99061403e565b91829055509050620f4240811061143d576040517f1495c920000000000000000000000000000000000000000000000000000000008152620f4240600482015273ffffffffffffffffffffffffffffffffffffffff88166024820152604401610780565b60008161144d84620f4240614076565b61145791906140b3565b60008181526010602052604090209091506114749085600461340b565b5061147f858261269a565b9c9b505050505050505050505050565b60008181526002602052604081205473ffffffffffffffffffffffffffffffffffffffff16806105f0576040517f08c379a000000000000000000000000000000000000000000000000000000000815260206004820152601860248201527f4552433732313a20696e76616c696420746f6b656e20494400000000000000006044820152606401610780565b336115258261148f565b73ffffffffffffffffffffffffffffffffffffffff1614611572576040517f9d6cfcf900000000000000000000000000000000000000000000000000000000815260040160405180910390fd5b600061158061033b8361210c565b6040517fbedf77a6000000000000000000000000000000000000000000000000000000008152336004820152909150819073ffffffffffffffffffffffffffffffffffffffff82169063bedf77a690602401600060405180830381600087803b1580156115ec57600080fd5b505af1158015611600573d6000803e3d6000fd5b505050600084815260106020526040812081815560018101829055600281018290556003015550610848836126b4565b600073ffffffffffffffffffffffffffffffffffffffff82166116d5576040517f08c379a000000000000000000000000000000000000000000000000000000000815260206004820152602960248201527f4552433732313a2061646472657373207a65726f206973206e6f74206120766160448201527f6c6964206f776e657200000000000000000000000000000000000000000000006064820152608401610780565b5073ffffffffffffffffffffffffffffffffffffffff1660009081526003602052604090205490565b6011602052816000526040600020816004811061171a57600080fd5b01805490925061172a9150613b91565b80601f016020809104026020016040519081016040528092919081815260200182805461175690613b91565b80156117a35780601f10611778576101008083540402835291602001916117a3565b820191906000526020600020905b81548152906001019060200180831161178657829003601f168201915b505050505081565b60606001805461060590613b91565b60008073ffffffffffffffffffffffffffffffffffffffff831661180a576040517f9ccb6ed000000000000000000000000000000000000000000000000000000000815260040160405180910390fd5b60006118357f000000000000000000000000000000000000000000000000000000000000000061278d565b6040517f708c456100000000000000000000000000000000000000000000000000000000815290915073ffffffffffffffffffffffffffffffffffffffff82169063708c45619061188c9030908a906004016142a6565b600060405180830381600087803b1580156118a657600080fd5b505af11580156118ba573d6000803e3d6000fd5b50505050600c600081546118cd9061403e565b918290555073ffffffffffffffffffffffffffffffffffffffff82166000818152600e6020908152604080832094909455600c80548352600d825284832080547fffffffffffffffffffffffff0000000000000000000000000000000000000000169094179093559154815260119091522061194b90866004613439565b50600c80546000908152600f602090815260409182902080547fffffffffffffffffffffffff00000000000000000000000000000000000000001673ffffffffffffffffffffffffffffffffffffffff8981169190911790915592549151918252918316917f19d6f90297684f8b888bfdd40dece239ff62def4dd8aedd00245b6c846853b97910160405180910390a2600c5490969095509350505050565b6119f533838361286f565b5050565b6000611a0761033b8461210c565b9050600081905060008173ffffffffffffffffffffffffffffffffffffffff1663cf0840566040518163ffffffff1660e01b8152600401602060405180830381865afa158015611a5b573d6000803e3d6000fd5b505050506040513d601f19601f82011682018060405250810190611a7f91906143c6565b90503373ffffffffffffffffffffffffffffffffffffffff821614611ad0576040517f3944c6d200000000000000000000000000000000000000000000000000000000815260040160405180910390fd5b611adc600a868661299c565b5050505050565b611aed3383612369565b611b79576040517f08c379a000000000000000000000000000000000000000000000000000000000815260206004820152602e60248201527f4552433732313a2063616c6c6572206973206e6f7420746f6b656e206f776e6560448201527f72206e6f7220617070726f7665640000000000000000000000000000000000006064820152608401610780565b611b85848484846129eb565b50505050565b60606000611b988361210c565b90506000611ba582610a10565b9050600081905060008173ffffffffffffffffffffffffffffffffffffffff1663c66301b26040518163ffffffff1660e01b8152600401602060405180830381865afa158015611bf9573d6000803e3d6000fd5b505050506040513d601f19601f82011682018060405250810190611c1d91906143e3565b6000858152600f602052604080822054815160808101928390527f1e1b2573000000000000000000000000000000000000000000000000000000009092526084820183905292935073ffffffffffffffffffffffffffffffffffffffff9283169281908616631e1b257360a48301602060405180830381865afa158015611ca8573d6000803e3d6000fd5b505050506040513d601f19601f82011682018060405250810190611ccc91906143e3565b81526040517f1e1b25730000000000000000000000000000000000000000000000000000000081526001600482015260209091019073ffffffffffffffffffffffffffffffffffffffff871690631e1b257390602401602060405180830381865afa158015611d3f573d6000803e3d6000fd5b505050506040513d601f19601f82011682018060405250810190611d6391906143e3565b81526040517f1e1b25730000000000000000000000000000000000000000000000000000000081526002600482015260209091019073ffffffffffffffffffffffffffffffffffffffff871690631e1b257390602401602060405180830381865afa158015611dd6573d6000803e3d6000fd5b505050506040513d601f19601f82011682018060405250810190611dfa91906143e3565b81526040517f1e1b25730000000000000000000000000000000000000000000000000000000081526003600482015260209091019073ffffffffffffffffffffffffffffffffffffffff871690631e1b257390602401602060405180830381865afa158015611e6d573d6000803e3d6000fd5b505050506040513d601f19601f82011682018060405250810190611e9191906143e3565b81525090506000604051806101000160405280888152602001620f4240611eb78c61210c565b611ec19190614076565b611ecb908c6143fc565b8152602001611ed98b61148f565b73ffffffffffffffffffffffffffffffffffffffff168152602001611efd8b610a6c565b15158152602080820185905260008c8152601090915260409081902081516080810180845292909301929160049082845b815481526020019060010190808311611f2e5750505091835250506000898152601160209081526040808320815160808101909252919093019291600490835b82821015612011578382018054611f8490613b91565b80601f0160208091040260200160405190810160405280929190818152602001828054611fb090613b91565b8015611ffd5780601f10611fd257610100808354040283529160200191611ffd565b820191906000526020600020905b815481529060010190602001808311611fe057829003601f168201915b505050505081526020019060010190611f6e565b505050908252506020018590526040517f9b9300f400000000000000000000000000000000000000000000000000000000815290915073ffffffffffffffffffffffffffffffffffffffff841690639b9300f490612073908490600401614477565b600060405180830381865afa158015612090573d6000803e3d6000fd5b505050506040513d6000823e601f3d9081017fffffffffffffffffffffffffffffffffffffffffffffffffffffffffffffffe01682016040526120d69190810190613d0d565b9998505050505050505050565b366000600483116120f357600080fd5b6121008360048187613be4565b915091505b9250929050565b60008160000361214b576040517fed15e6cf00000000000000000000000000000000000000000000000000000000815260048101839052602401610780565b6105f0620f42408361451a565b60007fffffffff0000000000000000000000000000000000000000000000000000000082167f80ac58cd0000000000000000000000000000000000000000000000000000000014806121eb57507fffffffff0000000000000000000000000000000000000000000000000000000082167f5b5e139f00000000000000000000000000000000000000000000000000000000145b806105f057507f01ffc9a7000000000000000000000000000000000000000000000000000000007fffffffff000000000000000000000000000000000000000000000000000000008316146105f0565b60008181526002602052604090205473ffffffffffffffffffffffffffffffffffffffff166122c6576040517f08c379a000000000000000000000000000000000000000000000000000000000815260206004820152601860248201527f4552433732313a20696e76616c696420746f6b656e20494400000000000000006044820152606401610780565b50565b600081815260046020526040902080547fffffffffffffffffffffffff00000000000000000000000000000000000000001673ffffffffffffffffffffffffffffffffffffffff841690811790915581906123238261148f565b73ffffffffffffffffffffffffffffffffffffffff167f8c5be1e5ebec7d5bd14f71427d1e84f3dd0314c0f7b2291e5b200ac8c7c3b92560405160405180910390a45050565b6000806123758361148f565b90508073ffffffffffffffffffffffffffffffffffffffff168473ffffffffffffffffffffffffffffffffffffffff1614806123e3575073ffffffffffffffffffffffffffffffffffffffff80821660009081526005602090815260408083209388168352929052205460ff165b806110cf57508373ffffffffffffffffffffffffffffffffffffffff1661240984610688565b73ffffffffffffffffffffffffffffffffffffffff1614949350505050565b8273ffffffffffffffffffffffffffffffffffffffff166124488261148f565b73ffffffffffffffffffffffffffffffffffffffff16146124eb576040517f08c379a000000000000000000000000000000000000000000000000000000000815260206004820152602560248201527f4552433732313a207472616e736665722066726f6d20696e636f72726563742060448201527f6f776e65720000000000000000000000000000000000000000000000000000006064820152608401610780565b73ffffffffffffffffffffffffffffffffffffffff821661258d576040517f08c379a0000000000000000000000000000000000000000000000000000000008152602060048201526024808201527f4552433732313a207472616e7366657220746f20746865207a65726f2061646460448201527f72657373000000000000000000000000000000000000000000000000000000006064820152608401610780565b612598838383612a8e565b6125a36000826122c9565b73ffffffffffffffffffffffffffffffffffffffff831660009081526003602052604081208054600192906125d99084906143fc565b909155505073ffffffffffffffffffffffffffffffffffffffff821660009081526003602052604081208054600192906126149084906140b3565b909155505060008181526002602052604080822080547fffffffffffffffffffffffff00000000000000000000000000000000000000001673ffffffffffffffffffffffffffffffffffffffff86811691821790925591518493918716917fddf252ad1be2c89b69c2b068fc378daa952ba7f163c4a11628f55a4df523b3ef91a4505050565b6119f5828260405180602001604052806000815250612caf565b60006126bf8261148f565b90506126cd81600084612a8e565b6126d86000836122c9565b73ffffffffffffffffffffffffffffffffffffffff8116600090815260036020526040812080546001929061270e9084906143fc565b909155505060008281526002602052604080822080547fffffffffffffffffffffffff00000000000000000000000000000000000000001690555183919073ffffffffffffffffffffffffffffffffffffffff8416907fddf252ad1be2c89b69c2b068fc378daa952ba7f163c4a11628f55a4df523b3ef908390a45050565b60006040517f3d602d80600a3d3981f3363d3d373d3d3d363d7300000000000000000000000081528260601b60148201527f5af43d82803e903d91602b57fd5bf3000000000000000000000000000000000060288201526037816000f091505073ffffffffffffffffffffffffffffffffffffffff811661286a576040517f08c379a000000000000000000000000000000000000000000000000000000000815260206004820152601660248201527f455243313136373a20637265617465206661696c6564000000000000000000006044820152606401610780565b919050565b8173ffffffffffffffffffffffffffffffffffffffff168373ffffffffffffffffffffffffffffffffffffffff1603612904576040517f08c379a000000000000000000000000000000000000000000000000000000000815260206004820152601960248201527f4552433732313a20617070726f766520746f2063616c6c6572000000000000006044820152606401610780565b73ffffffffffffffffffffffffffffffffffffffff83811660008181526005602090815260408083209487168084529482529182902080547fffffffffffffffffffffffffffffffffffffffffffffffffffffffffffffff001686151590811790915591519182527f17307eab39ab6107e8899845ad3d59bd9653f200f220920489ca2b5937696c31910160405180910390a3505050565b80156129c657600882901c60009081526020849052604090208054600160ff85161b179055505050565b600882901c60009081526020849052604090208054600160ff85161b19169055505050565b6129f6848484612428565b612a0284848484612d52565b611b85576040517f08c379a000000000000000000000000000000000000000000000000000000000815260206004820152603260248201527f4552433732313a207472616e7366657220746f206e6f6e20455243373231526560448201527f63656976657220696d706c656d656e74657200000000000000000000000000006064820152608401610780565b612a99838383612f42565b600073ffffffffffffffffffffffffffffffffffffffff84161580612ad2575073ffffffffffffffffffffffffffffffffffffffff8316155b90508015612ae05750505050565b6000612aee61033b8461210c565b90508060018173ffffffffffffffffffffffffffffffffffffffff16637855d30c6040518163ffffffff1660e01b8152600401602060405180830381865afa158015612b3e573d6000803e3d6000fd5b505050506040513d601f19601f82011682018060405250810190612b629190614584565b6003811115612b7357612b73614555565b1480612bfe575060008173ffffffffffffffffffffffffffffffffffffffff16637855d30c6040518163ffffffff1660e01b8152600401602060405180830381865afa158015612bc7573d6000803e3d6000fd5b505050506040513d601f19601f82011682018060405250810190612beb9190614584565b6003811115612bfc57612bfc614555565b145b15612ca757808173ffffffffffffffffffffffffffffffffffffffff16637855d30c6040518163ffffffff1660e01b8152600401602060405180830381865afa158015612c4f573d6000803e3d6000fd5b505050506040513d601f19601f82011682018060405250810190612c739190614584565b6040517fe0bf90300000000000000000000000000000000000000000000000000000000081526004016107809291906145a5565b505050505050565b612cb98383613048565b612cc66000848484612d52565b610848576040517f08c379a000000000000000000000000000000000000000000000000000000000815260206004820152603260248201527f4552433732313a207472616e7366657220746f206e6f6e20455243373231526560448201527f63656976657220696d706c656d656e74657200000000000000000000000000006064820152608401610780565b600073ffffffffffffffffffffffffffffffffffffffff84163b15612f3a576040517f150b7a0200000000000000000000000000000000000000000000000000000000815273ffffffffffffffffffffffffffffffffffffffff85169063150b7a0290612dc9903390899088908890600401614606565b6020604051808303816000875af1925050508015612e22575060408051601f3d9081017fffffffffffffffffffffffffffffffffffffffffffffffffffffffffffffffe0168201909252612e1f91810190613cab565b60015b612eef573d808015612e50576040519150601f19603f3d011682016040523d82523d6000602084013e612e55565b606091505b508051600003612ee7576040517f08c379a000000000000000000000000000000000000000000000000000000000815260206004820152603260248201527f4552433732313a207472616e7366657220746f206e6f6e20455243373231526560448201527f63656976657220696d706c656d656e74657200000000000000000000000000006064820152608401610780565b805181602001fd5b7fffffffff00000000000000000000000000000000000000000000000000000000167f150b7a02000000000000000000000000000000000000000000000000000000001490506110cf565b5060016110cf565b73ffffffffffffffffffffffffffffffffffffffff8316612faa57612fa581600880546000838152600960205260408120829055600182018355919091527ff3f7a9fe364faab93b216da50a3214154f22a0a2b415b23a84c8169e8b636ee30155565b612fe7565b8173ffffffffffffffffffffffffffffffffffffffff168373ffffffffffffffffffffffffffffffffffffffff1614612fe757612fe78382613216565b73ffffffffffffffffffffffffffffffffffffffff821661300b57610848816132cd565b8273ffffffffffffffffffffffffffffffffffffffff168273ffffffffffffffffffffffffffffffffffffffff161461084857610848828261337c565b73ffffffffffffffffffffffffffffffffffffffff82166130c5576040517f08c379a000000000000000000000000000000000000000000000000000000000815260206004820181905260248201527f4552433732313a206d696e7420746f20746865207a65726f20616464726573736044820152606401610780565b60008181526002602052604090205473ffffffffffffffffffffffffffffffffffffffff1615613151576040517f08c379a000000000000000000000000000000000000000000000000000000000815260206004820152601c60248201527f4552433732313a20746f6b656e20616c7265616479206d696e746564000000006044820152606401610780565b61315d60008383612a8e565b73ffffffffffffffffffffffffffffffffffffffff821660009081526003602052604081208054600192906131939084906140b3565b909155505060008181526002602052604080822080547fffffffffffffffffffffffff00000000000000000000000000000000000000001673ffffffffffffffffffffffffffffffffffffffff861690811790915590518392907fddf252ad1be2c89b69c2b068fc378daa952ba7f163c4a11628f55a4df523b3ef908290a45050565b6000600161322384611630565b61322d91906143fc565b60008381526007602052604090205490915080821461328d5773ffffffffffffffffffffffffffffffffffffffff841660009081526006602090815260408083208584528252808320548484528184208190558352600790915290208190555b50600091825260076020908152604080842084905573ffffffffffffffffffffffffffffffffffffffff9094168352600681528383209183525290812055565b6008546000906132df906001906143fc565b60008381526009602052604081205460088054939450909284908110613307576133076140c6565b906000526020600020015490508060088381548110613328576133286140c6565b600091825260208083209091019290925582815260099091526040808220849055858252812055600880548061336057613360614645565b6001900381819060005260206000200160009055905550505050565b600061338783611630565b73ffffffffffffffffffffffffffffffffffffffff9093166000908152600660209081526040808320868452825280832085905593825260079052919091209190915550565b82600481019282156133fb579160200282015b828111156133fb5782358255916020019190600101906133e0565b5061340792915061347e565b5090565b82600481019282156133fb579160200282015b828111156133fb57825182559160200191906001019061341e565b8260048101928215613472579160200282015b82811115613472578251829061346290826146ba565b509160200191906001019061344c565b50613407929150613493565b5b80821115613407576000815560010161347f565b808211156134075760006134a782826134b0565b50600101613493565b5080546134bc90613b91565b6000825580601f106134cc575050565b601f0160209004906000526020600020908101906122c6919061347e565b7fffffffff00000000000000000000000000000000000000000000000000000000811681146122c657600080fd5b60006020828403121561352a57600080fd5b8135610899816134ea565b60005b83811015613550578181015183820152602001613538565b50506000910152565b60008151808452613571816020860160208601613535565b601f017fffffffffffffffffffffffffffffffffffffffffffffffffffffffffffffffe0169290920160200192915050565b6020815260006108996020830184613559565b6000602082840312156135c857600080fd5b5035919050565b73ffffffffffffffffffffffffffffffffffffffff811681146122c657600080fd5b803561286a816135cf565b6000806040838503121561360f57600080fd5b823561361a816135cf565b946020939093013593505050565b6000806040838503121561363b57600080fd5b50508035926020909101359150565b60008083601f84011261365c57600080fd5b50813567ffffffffffffffff81111561367457600080fd5b60208301915083602082850101111561210557600080fd5b6000806020838503121561369f57600080fd5b823567ffffffffffffffff8111156136b657600080fd5b6136c28582860161364a565b90969095509350505050565b6000806000606084860312156136e357600080fd5b83356136ee816135cf565b925060208401356136fe816135cf565b929592945050506040919091013590565b80151581146122c657600080fd5b60008060008060e0858703121561373357600080fd5b843561373e816135cf565b935060a085018681111561375157600080fd5b602086019350356137618161370f565b915060c0850135613771816135cf565b939692955090935050565b6000806000806040858703121561379257600080fd5b843567ffffffffffffffff808211156137aa57600080fd5b6137b68883890161364a565b909650945060208701359150808211156137cf57600080fd5b506137dc8782880161364a565b95989497509550505050565b6000602082840312156137fa57600080fd5b8135610899816135cf565b7f4e487b7100000000000000000000000000000000000000000000000000000000600052604160045260246000fd5b6040516080810167ffffffffffffffff8111828210171561385757613857613805565b60405290565b604051601f82017fffffffffffffffffffffffffffffffffffffffffffffffffffffffffffffffe016810167ffffffffffffffff811182821017156138a4576138a4613805565b604052919050565b600067ffffffffffffffff8211156138c6576138c6613805565b50601f017fffffffffffffffffffffffffffffffffffffffffffffffffffffffffffffffe01660200190565b6000613905613900846138ac565b61385d565b905082815283838301111561391957600080fd5b828260208301376000602084830101529392505050565b60008060006060848603121561394557600080fd5b833567ffffffffffffffff8082111561395d57600080fd5b908501906101c0828803121561397257600080fd5b909350602090858201358181111561398957600080fd5b8601601f808201891361399b57600080fd5b6139a3613834565b80608084018b8111156139b557600080fd5b845b818110156139fc578035878111156139cf5760008081fd5b86018581018e136139e05760008081fd5b6139ee8e82358b84016138f2565b8552509287019287016139b7565b5050809750505050505050613a13604085016135f1565b90509250925092565b60008060408385031215613a2f57600080fd5b8235613a3a816135cf565b91506020830135613a4a8161370f565b809150509250929050565b60008060408385031215613a6857600080fd5b823591506020830135613a4a8161370f565b600082601f830112613a8b57600080fd5b610899838335602085016138f2565b60008060008060808587031215613ab057600080fd5b8435613abb816135cf565b93506020850135613acb816135cf565b925060408501359150606085013567ffffffffffffffff811115613aee57600080fd5b613afa87828801613a7a565b91505092959194509250565b8183528181602085013750600060208284010152600060207fffffffffffffffffffffffffffffffffffffffffffffffffffffffffffffffe0601f840116840101905092915050565b6020815260006110cf602083018486613b06565b60008060408385031215613b7657600080fd5b8235613b81816135cf565b91506020830135613a4a816135cf565b600181811c90821680613ba557607f821691505b602082108103613bde577f4e487b7100000000000000000000000000000000000000000000000000000000600052602260045260246000fd5b50919050565b60008085851115613bf457600080fd5b83861115613c0157600080fd5b5050820193919092039150565b7fffffffff000000000000000000000000000000000000000000000000000000008135818116916004851015613c4e5780818660040360031b1b83161692505b505092915050565b60808183375050565b73ffffffffffffffffffffffffffffffffffffffff858116825260e0820190608086602085013784151560a084015280841660c08401525095945050505050565b805161286a816134ea565b600060208284031215613cbd57600080fd5b8151610899816134ea565b600082601f830112613cd957600080fd5b8151613ce7613900826138ac565b818152846020838601011115613cfc57600080fd5b6110cf826020830160208701613535565b600060208284031215613d1f57600080fd5b815167ffffffffffffffff811115613d3657600080fd5b6110cf84828501613cc8565b600080600080600060a08688031215613d5a57600080fd5b8551613d65816135cf565b8095505060208087015167ffffffffffffffff80821115613d8557600080fd5b818901915089601f830112613d9957600080fd5b815181811115613dab57613dab613805565b8060051b613dba85820161385d565b918252838101850191858101908d841115613dd457600080fd5b86860192505b83831015613e1057825185811115613df25760008081fd5b613e008f89838a0101613cc8565b8352509186019190860190613dda565b60408d0151909a50955050505080831115613e2a57600080fd5b613e368a848b01613cc8565b9550613e4460608a01613ca0565b94506080890151925080831115613e5a57600080fd5b5050613e6888828901613cc8565b9150509295509295909350565b73ffffffffffffffffffffffffffffffffffffffff841681527fffffffff0000000000000000000000000000000000000000000000000000000083166020820152606060408201526000613ecc6060830184613559565b95945050505050565b600060a0820173ffffffffffffffffffffffffffffffffffffffff88168352602060a08185015281885180845260c08601915060c08160051b8701019350828a0160005b82811015613f65577fffffffffffffffffffffffffffffffffffffffffffffffffffffffffffffff40888703018452613f53868351613559565b95509284019290840190600101613f19565b50505050508281036040840152613f7c8187613559565b7fffffffff000000000000000000000000000000000000000000000000000000008616606085015290508281036080840152613fb88185613559565b98975050505050505050565b805167ffffffffffffffff8116811461286a57600080fd5b60008060408385031215613fef57600080fd5b613ff883613fc4565b915061400660208401613fc4565b90509250929050565b7f4e487b7100000000000000000000000000000000000000000000000000000000600052601160045260246000fd5b60007fffffffffffffffffffffffffffffffffffffffffffffffffffffffffffffffff820361406f5761406f61400f565b5060010190565b6000817fffffffffffffffffffffffffffffffffffffffffffffffffffffffffffffffff04831182151516156140ae576140ae61400f565b500290565b808201808211156105f0576105f061400f565b7f4e487b7100000000000000000000000000000000000000000000000000000000600052603260045260246000fd5b60008060006060848603121561410a57600080fd5b8335614115816135cf565b92506020840135614125816134ea565b9150604084013567ffffffffffffffff81111561414157600080fd5b61414d86828701613a7a565b9150509250925092565b7f4e487b7100000000000000000000000000000000000000000000000000000000600052600160045260246000fd5b60008060008060e0858703121561419c57600080fd5b84516141a7816135cf565b93506020603f860187136141ba57600080fd5b6141c2613834565b8060a08801898111156141d457600080fd5b8389015b818110156141ef57805184529284019284016141d8565b5051909550915061420190508161370f565b60c0860151909250613771816135cf565b604081526000614226604083018587613b06565b82810360208401526142388185613559565b9695505050505050565b60008083357fffffffffffffffffffffffffffffffffffffffffffffffffffffffffffffffe184360301811261427757600080fd5b830160208101925035905067ffffffffffffffff81111561429757600080fd5b80360382131561210557600080fd5b73ffffffffffffffffffffffffffffffffffffffff83168152604060208201526142f0604082016142d6846135f1565b73ffffffffffffffffffffffffffffffffffffffff169052565b60006142fe602084016135f1565b73ffffffffffffffffffffffffffffffffffffffff811660608401525060408301356080830152606083013560a0830152608083013560c083015260a083013560e0830152614354610100830160c08501613c56565b610180610140840135818401526101a0610160850135818501526143798286016135f1565b91506101c061439f8186018473ffffffffffffffffffffffffffffffffffffffff169052565b6143ab82870187614242565b93509150806101e08601525061423861020085018383613b06565b6000602082840312156143d857600080fd5b8151610899816135cf565b6000602082840312156143f557600080fd5b5051919050565b818103818111156105f0576105f061400f565b8060005b6004811015611b85578151845260209384019390910190600101614413565b600082608081018360005b600481101561446c578383038752614456838351613559565b602097880197909350919091019060010161443d565b509095945050505050565b60208152815160208201526020820151604082015273ffffffffffffffffffffffffffffffffffffffff6040830151166060820152600060608301516144c1608084018215159052565b5060808301516144d460a084018261440f565b5060a08301516144e861012084018261440f565b5060c08301516101c0806101a08501526145066101e0850183614432565b60e095909501519301929092525090919050565b600082614550577f4e487b7100000000000000000000000000000000000000000000000000000000600052601260045260246000fd5b500490565b7f4e487b7100000000000000000000000000000000000000000000000000000000600052602160045260246000fd5b60006020828403121561459657600080fd5b81516004811061089957600080fd5b73ffffffffffffffffffffffffffffffffffffffff8316815260408101600483106145f9577f4e487b7100000000000000000000000000000000000000000000000000000000600052602160045260246000fd5b8260208301529392505050565b600073ffffffffffffffffffffffffffffffffffffffff8087168352808616602084015250836040830152608060608301526142386080830184613559565b7f4e487b7100000000000000000000000000000000000000000000000000000000600052603160045260246000fd5b601f82111561084857600081815260208120601f850160051c8101602086101561469b5750805b601f850160051c820191505b81811015612ca7578281556001016146a7565b815167ffffffffffffffff8111156146d4576146d4613805565b6146e8816146e28454613b91565b84614674565b602080601f83116001811461473b57600084156147055750858301515b7fffffffffffffffffffffffffffffffffffffffffffffffffffffffffffffffff600386901b1c1916600185901b178555612ca7565b6000858152602081207fffffffffffffffffffffffffffffffffffffffffffffffffffffffffffffffe08616915b8281101561478857888601518255948401946001909101908401614769565b50858210156147c457878501517fffffffffffffffffffffffffffffffffffffffffffffffffffffffffffffffff600388901b60f8161c191681555b5050505050600190811b0190555056fea264697066735822122006fe4e3192f41381e942887e53e9feda0808f11635524c38b52e9afb1110e97864736f6c63430008100033",
    "linkReferences": {}
  },
  "methodIdentifiers": {
    "ID_MULTIPLE()": "c91539bc",
    "approve(address,uint256)": "095ea7b3",
    "balanceOf(address)": "70a08231",
    "createCrowdtainer((address,address,uint256,uint256,uint256,uint256,uint256[4],uint256,uint256,address,string),string[4],address)": "a0ae459d",
    "crowdtainerCount()": "cbe80712",
    "crowdtainerForId(uint256)": "b5022343",
    "crowdtainerIdToAddress(uint256)": "351a41c5",
    "getApproved(uint256)": "081812fc",
    "getClaimStatus(uint256)": "36dbd2f9",
    "getParameters(bytes)": "da581532",
    "getSignature(bytes)": "1ed113ae",
    "idForCrowdtainer(address)": "6df0c83a",
    "isApprovedForAll(address,address)": "e985e9c5",
    "join(address,uint256[4],bool,address)": "464eff50",
    "joinWithSignature(bytes,bytes)": "566a2cc2",
    "leave(uint256)": "67dfd4c9",
    "metadataServiceForCrowdatinerId(uint256)": "ca6d45ca",
    "name()": "06fdde03",
    "ownerOf(uint256)": "6352211e",
    "productDescription(uint256,uint256)": "7169d23b",
    "safeTransferFrom(address,address,uint256)": "42842e0e",
    "safeTransferFrom(address,address,uint256,bytes)": "b88d4fde",
    "setApprovalForAll(address,bool)": "a22cb465",
    "setClaimStatus(uint256,bool)": "a3b9871a",
    "supportsInterface(bytes4)": "01ffc9a7",
    "symbol()": "95d89b41",
    "tokenByIndex(uint256)": "4f6ccce7",
    "tokenIdQuantities(uint256,uint256)": "0b82a21c",
    "tokenIdToCrowdtainerId(uint256)": "db5a0e83",
    "tokenOfOwnerByIndex(address,uint256)": "2f745c59",
    "tokenURI(uint256)": "c87b56dd",
    "totalSupply()": "18160ddd",
    "transferFrom(address,address,uint256)": "23b872dd"
  },
  "id": 35
}