{
  "abi": [
    {
      "inputs": [
        {
          "internalType": "address",
          "name": "_crowdtainerImplementation",
          "type": "address"
        }
      ],
      "stateMutability": "nonpayable",
      "type": "constructor"
    },
    {
      "inputs": [],
      "name": "AccountNotOwner",
      "type": "error"
    },
    {
      "inputs": [],
      "name": "CCIP_Read_InvalidOperation",
      "type": "error"
    },
    {
      "inputs": [
        {
          "internalType": "address",
          "name": "expected",
          "type": "address"
        },
        {
          "internalType": "address",
          "name": "actual",
          "type": "address"
        }
      ],
      "name": "CallerNotAllowed",
      "type": "error"
    },
    {
      "inputs": [],
      "name": "CannotLeaveDueAccumulatedReferralCredits",
      "type": "error"
    },
    {
      "inputs": [],
      "name": "CrowdtainerInexistent",
      "type": "error"
    },
    {
      "inputs": [
        {
          "internalType": "bytes",
          "name": "reason",
          "type": "bytes"
        }
      ],
      "name": "CrowdtainerLowLevelError",
      "type": "error"
    },
    {
      "inputs": [
        {
          "internalType": "uint256",
          "name": "received",
          "type": "uint256"
        },
        {
          "internalType": "uint256",
          "name": "maximum",
          "type": "uint256"
        }
      ],
      "name": "ExceededNumberOfItemsAllowed",
      "type": "error"
    },
    {
      "inputs": [],
      "name": "InvalidNumberOfQuantities",
      "type": "error"
    },
    {
      "inputs": [],
      "name": "InvalidProductNumberAndPrices",
      "type": "error"
    },
    {
      "inputs": [
        {
          "internalType": "uint256",
          "name": "tokenId",
          "type": "uint256"
        }
      ],
      "name": "InvalidTokenId",
      "type": "error"
    },
    {
      "inputs": [
        {
          "internalType": "uint256",
          "name": "maximum",
          "type": "uint256"
        },
        {
          "internalType": "address",
          "name": "crowdtainer",
          "type": "address"
        }
      ],
      "name": "MaximumNumberOfParticipantsReached",
      "type": "error"
    },
    {
      "inputs": [],
      "name": "MetadataServiceAddressIsZero",
      "type": "error"
    },
    {
      "inputs": [
        {
          "internalType": "uint256",
          "name": "received",
          "type": "uint256"
        },
        {
          "internalType": "uint256",
          "name": "minimum",
          "type": "uint256"
        }
      ],
      "name": "MinimumPurchaseValueForReferralNotMet",
      "type": "error"
    },
    {
      "inputs": [
        {
          "internalType": "address",
          "name": "wallet",
          "type": "address"
        },
        {
          "internalType": "bytes32",
          "name": "nonce",
          "type": "bytes32"
        }
      ],
      "name": "NonceAlreadyUsed",
      "type": "error"
    },
    {
      "inputs": [
        {
          "internalType": "address",
          "name": "sender",
          "type": "address"
        },
        {
          "internalType": "string[]",
          "name": "urls",
          "type": "string[]"
        },
        {
          "internalType": "bytes",
          "name": "callData",
          "type": "bytes"
        },
        {
          "internalType": "bytes4",
          "name": "callbackFunction",
          "type": "bytes4"
        },
        {
          "internalType": "bytes",
          "name": "extraData",
          "type": "bytes"
        }
      ],
      "name": "OffchainLookup",
      "type": "error"
    },
    {
      "inputs": [
        {
          "internalType": "uint256",
          "name": "received",
          "type": "uint256"
        },
        {
          "internalType": "uint256",
          "name": "maximum",
          "type": "uint256"
        }
      ],
      "name": "PurchaseExceedsMaximumTarget",
      "type": "error"
    },
    {
      "inputs": [],
      "name": "ReferralDisabledForProvidedCode",
      "type": "error"
    },
    {
      "inputs": [],
      "name": "ReferralInexistent",
      "type": "error"
    },
    {
      "inputs": [],
      "name": "SetClaimedOnlyAllowedByShippingAgent",
      "type": "error"
    },
    {
      "inputs": [
        {
          "internalType": "uint64",
          "name": "current",
          "type": "uint64"
        },
        {
          "internalType": "uint64",
          "name": "expires",
          "type": "uint64"
        }
      ],
      "name": "SignatureExpired",
      "type": "error"
    },
    {
      "inputs": [
        {
          "internalType": "address",
          "name": "crowdtainer",
          "type": "address"
        },
        {
          "internalType": "enum CrowdtainerState",
          "name": "state",
          "type": "uint8"
        }
      ],
      "name": "TransferNotAllowed",
      "type": "error"
    },
    {
      "inputs": [],
      "name": "UserAlreadyJoined",
      "type": "error"
    },
    {
      "anonymous": false,
      "inputs": [
        {
          "indexed": true,
          "internalType": "address",
          "name": "owner",
          "type": "address"
        },
        {
          "indexed": true,
          "internalType": "address",
          "name": "approved",
          "type": "address"
        },
        {
          "indexed": true,
          "internalType": "uint256",
          "name": "tokenId",
          "type": "uint256"
        }
      ],
      "name": "Approval",
      "type": "event"
    },
    {
      "anonymous": false,
      "inputs": [
        {
          "indexed": true,
          "internalType": "address",
          "name": "owner",
          "type": "address"
        },
        {
          "indexed": true,
          "internalType": "address",
          "name": "operator",
          "type": "address"
        },
        {
          "indexed": false,
          "internalType": "bool",
          "name": "approved",
          "type": "bool"
        }
      ],
      "name": "ApprovalForAll",
      "type": "event"
    },
    {
      "anonymous": false,
      "inputs": [
        {
          "indexed": true,
          "internalType": "address",
          "name": "_crowdtainerAddress",
          "type": "address"
        },
        {
          "indexed": false,
          "internalType": "uint256",
          "name": "_nextCrowdtainerId",
          "type": "uint256"
        }
      ],
      "name": "CrowdtainerDeployed",
      "type": "event"
    },
    {
      "anonymous": false,
      "inputs": [
        {
          "indexed": true,
          "internalType": "address",
          "name": "from",
          "type": "address"
        },
        {
          "indexed": true,
          "internalType": "address",
          "name": "to",
          "type": "address"
        },
        {
          "indexed": true,
          "internalType": "uint256",
          "name": "tokenId",
          "type": "uint256"
        }
      ],
      "name": "Transfer",
      "type": "event"
    },
    {
      "anonymous": false,
      "inputs": [
        {
          "indexed": true,
          "internalType": "address",
          "name": "crowdtainer",
          "type": "address"
        }
      ],
      "name": "Vouchers721Created",
      "type": "event"
    },
    {
      "inputs": [],
      "name": "ID_MULTIPLE",
      "outputs": [
        {
          "internalType": "uint256",
          "name": "",
          "type": "uint256"
        }
      ],
      "stateMutability": "view",
      "type": "function"
    },
    {
      "inputs": [
        {
          "internalType": "address",
          "name": "to",
          "type": "address"
        },
        {
          "internalType": "uint256",
          "name": "tokenId",
          "type": "uint256"
        }
      ],
      "name": "approve",
      "outputs": [],
      "stateMutability": "nonpayable",
      "type": "function"
    },
    {
      "inputs": [
        {
          "internalType": "address",
          "name": "owner",
          "type": "address"
        }
      ],
      "name": "balanceOf",
      "outputs": [
        {
          "internalType": "uint256",
          "name": "",
          "type": "uint256"
        }
      ],
      "stateMutability": "view",
      "type": "function"
    },
    {
      "inputs": [
        {
          "components": [
            {
              "internalType": "address",
              "name": "shippingAgent",
              "type": "address"
            },
            {
              "internalType": "address",
              "name": "signer",
              "type": "address"
            },
            {
              "internalType": "uint256",
              "name": "openingTime",
              "type": "uint256"
            },
            {
              "internalType": "uint256",
              "name": "expireTime",
              "type": "uint256"
            },
            {
              "internalType": "uint256",
              "name": "targetMinimum",
              "type": "uint256"
            },
            {
              "internalType": "uint256",
              "name": "targetMaximum",
              "type": "uint256"
            },
            {
              "internalType": "uint256[]",
              "name": "unitPricePerType",
              "type": "uint256[]"
            },
            {
              "internalType": "uint256",
              "name": "referralRate",
              "type": "uint256"
            },
            {
              "internalType": "uint256",
              "name": "referralEligibilityValue",
              "type": "uint256"
            },
            {
              "internalType": "address",
              "name": "token",
              "type": "address"
            },
            {
              "internalType": "string",
              "name": "legalContractURI",
              "type": "string"
            }
          ],
          "internalType": "struct CampaignData",
          "name": "_campaignData",
          "type": "tuple"
        },
        {
          "internalType": "string[]",
          "name": "_productDescription",
          "type": "string[]"
        },
        {
          "internalType": "address",
          "name": "_metadataService",
          "type": "address"
        }
      ],
      "name": "createCrowdtainer",
      "outputs": [
        {
          "internalType": "address",
          "name": "",
          "type": "address"
        },
        {
          "internalType": "uint256",
          "name": "",
          "type": "uint256"
        }
      ],
      "stateMutability": "nonpayable",
      "type": "function"
    },
    {
      "inputs": [],
      "name": "crowdtainerCount",
      "outputs": [
        {
          "internalType": "uint256",
          "name": "",
          "type": "uint256"
        }
      ],
      "stateMutability": "view",
      "type": "function"
    },
    {
      "inputs": [
        {
          "internalType": "uint256",
          "name": "",
          "type": "uint256"
        }
      ],
      "name": "crowdtainerForId",
      "outputs": [
        {
          "internalType": "address",
          "name": "",
          "type": "address"
        }
      ],
      "stateMutability": "view",
      "type": "function"
    },
    {
      "inputs": [
        {
          "internalType": "uint256",
          "name": "_crowdtainerId",
          "type": "uint256"
        }
      ],
      "name": "crowdtainerIdToAddress",
      "outputs": [
        {
          "internalType": "address",
          "name": "",
          "type": "address"
        }
      ],
      "stateMutability": "view",
      "type": "function"
    },
    {
      "inputs": [
        {
          "internalType": "uint256",
          "name": "tokenId",
          "type": "uint256"
        }
      ],
      "name": "getApproved",
      "outputs": [
        {
          "internalType": "address",
          "name": "",
          "type": "address"
        }
      ],
      "stateMutability": "view",
      "type": "function"
    },
    {
      "inputs": [
        {
          "internalType": "uint256",
          "name": "_tokenId",
          "type": "uint256"
        }
      ],
      "name": "getClaimStatus",
      "outputs": [
        {
          "internalType": "bool",
          "name": "",
          "type": "bool"
        }
      ],
      "stateMutability": "view",
      "type": "function"
    },
    {
      "inputs": [
        {
          "internalType": "bytes",
          "name": "data",
          "type": "bytes"
        }
      ],
      "name": "getParameters",
      "outputs": [
        {
          "internalType": "bytes",
          "name": "",
          "type": "bytes"
        }
      ],
      "stateMutability": "pure",
      "type": "function"
    },
    {
      "inputs": [
        {
          "internalType": "bytes",
          "name": "data",
          "type": "bytes"
        }
      ],
      "name": "getSignature",
      "outputs": [
        {
          "internalType": "bytes4",
          "name": "",
          "type": "bytes4"
        }
      ],
      "stateMutability": "pure",
      "type": "function"
    },
    {
      "inputs": [
        {
          "internalType": "address",
          "name": "",
          "type": "address"
        }
      ],
      "name": "idForCrowdtainer",
      "outputs": [
        {
          "internalType": "uint256",
          "name": "",
          "type": "uint256"
        }
      ],
      "stateMutability": "view",
      "type": "function"
    },
    {
      "inputs": [
        {
          "internalType": "address",
          "name": "owner",
          "type": "address"
        },
        {
          "internalType": "address",
          "name": "operator",
          "type": "address"
        }
      ],
      "name": "isApprovedForAll",
      "outputs": [
        {
          "internalType": "bool",
          "name": "",
          "type": "bool"
        }
      ],
      "stateMutability": "view",
      "type": "function"
    },
    {
      "inputs": [
        {
          "internalType": "address",
          "name": "_crowdtainer",
          "type": "address"
        },
        {
          "internalType": "uint256[]",
          "name": "_quantities",
          "type": "uint256[]"
        }
      ],
      "name": "join",
      "outputs": [
        {
          "internalType": "uint256",
          "name": "",
          "type": "uint256"
        }
      ],
      "stateMutability": "nonpayable",
      "type": "function"
    },
    {
      "inputs": [
        {
          "internalType": "address",
          "name": "_crowdtainer",
          "type": "address"
        },
        {
          "internalType": "uint256[]",
          "name": "_quantities",
          "type": "uint256[]"
        },
        {
          "internalType": "bool",
          "name": "_enableReferral",
          "type": "bool"
        },
        {
          "internalType": "address",
          "name": "_referrer",
          "type": "address"
        }
      ],
      "name": "join",
      "outputs": [
        {
          "internalType": "uint256",
          "name": "",
          "type": "uint256"
        }
      ],
      "stateMutability": "nonpayable",
      "type": "function"
    },
    {
      "inputs": [
        {
          "internalType": "bytes",
          "name": "result",
          "type": "bytes"
        },
        {
          "internalType": "bytes",
          "name": "extraData",
          "type": "bytes"
        }
      ],
      "name": "joinWithSignature",
      "outputs": [
        {
          "internalType": "uint256",
          "name": "",
          "type": "uint256"
        }
      ],
      "stateMutability": "nonpayable",
      "type": "function"
    },
    {
      "inputs": [
        {
          "internalType": "uint256",
          "name": "_tokenId",
          "type": "uint256"
        }
      ],
      "name": "leave",
      "outputs": [],
      "stateMutability": "nonpayable",
      "type": "function"
    },
    {
      "inputs": [
        {
          "internalType": "uint256",
          "name": "",
          "type": "uint256"
        }
      ],
      "name": "metadataServiceForCrowdatinerId",
      "outputs": [
        {
          "internalType": "address",
          "name": "",
          "type": "address"
        }
      ],
      "stateMutability": "view",
      "type": "function"
    },
    {
      "inputs": [],
      "name": "name",
      "outputs": [
        {
          "internalType": "string",
          "name": "",
          "type": "string"
        }
      ],
      "stateMutability": "view",
      "type": "function"
    },
    {
      "inputs": [
        {
          "internalType": "uint256",
          "name": "tokenId",
          "type": "uint256"
        }
      ],
      "name": "ownerOf",
      "outputs": [
        {
          "internalType": "address",
          "name": "",
          "type": "address"
        }
      ],
      "stateMutability": "view",
      "type": "function"
    },
    {
      "inputs": [
        {
          "internalType": "uint256",
          "name": "",
          "type": "uint256"
        },
        {
          "internalType": "uint256",
          "name": "",
          "type": "uint256"
        }
      ],
      "name": "productDescription",
      "outputs": [
        {
          "internalType": "string",
          "name": "",
          "type": "string"
        }
      ],
      "stateMutability": "view",
      "type": "function"
    },
    {
      "inputs": [
        {
          "internalType": "address",
          "name": "from",
          "type": "address"
        },
        {
          "internalType": "address",
          "name": "to",
          "type": "address"
        },
        {
          "internalType": "uint256",
          "name": "tokenId",
          "type": "uint256"
        }
      ],
      "name": "safeTransferFrom",
      "outputs": [],
      "stateMutability": "nonpayable",
      "type": "function"
    },
    {
      "inputs": [
        {
          "internalType": "address",
          "name": "from",
          "type": "address"
        },
        {
          "internalType": "address",
          "name": "to",
          "type": "address"
        },
        {
          "internalType": "uint256",
          "name": "tokenId",
          "type": "uint256"
        },
        {
          "internalType": "bytes",
          "name": "data",
          "type": "bytes"
        }
      ],
      "name": "safeTransferFrom",
      "outputs": [],
      "stateMutability": "nonpayable",
      "type": "function"
    },
    {
      "inputs": [
        {
          "internalType": "address",
          "name": "operator",
          "type": "address"
        },
        {
          "internalType": "bool",
          "name": "approved",
          "type": "bool"
        }
      ],
      "name": "setApprovalForAll",
      "outputs": [],
      "stateMutability": "nonpayable",
      "type": "function"
    },
    {
      "inputs": [
        {
          "internalType": "uint256",
          "name": "_tokenId",
          "type": "uint256"
        },
        {
          "internalType": "bool",
          "name": "_value",
          "type": "bool"
        }
      ],
      "name": "setClaimStatus",
      "outputs": [],
      "stateMutability": "nonpayable",
      "type": "function"
    },
    {
      "inputs": [
        {
          "internalType": "bytes4",
          "name": "interfaceId",
          "type": "bytes4"
        }
      ],
      "name": "supportsInterface",
      "outputs": [
        {
          "internalType": "bool",
          "name": "",
          "type": "bool"
        }
      ],
      "stateMutability": "view",
      "type": "function"
    },
    {
      "inputs": [],
      "name": "symbol",
      "outputs": [
        {
          "internalType": "string",
          "name": "",
          "type": "string"
        }
      ],
      "stateMutability": "view",
      "type": "function"
    },
    {
      "inputs": [
        {
          "internalType": "uint256",
          "name": "index",
          "type": "uint256"
        }
      ],
      "name": "tokenByIndex",
      "outputs": [
        {
          "internalType": "uint256",
          "name": "",
          "type": "uint256"
        }
      ],
      "stateMutability": "view",
      "type": "function"
    },
    {
      "inputs": [
        {
          "internalType": "uint256",
          "name": "",
          "type": "uint256"
        },
        {
          "internalType": "uint256",
          "name": "",
          "type": "uint256"
        }
      ],
      "name": "tokenIdQuantities",
      "outputs": [
        {
          "internalType": "uint256",
          "name": "",
          "type": "uint256"
        }
      ],
      "stateMutability": "view",
      "type": "function"
    },
    {
      "inputs": [
        {
          "internalType": "uint256",
          "name": "_tokenId",
          "type": "uint256"
        }
      ],
      "name": "tokenIdToCrowdtainerId",
      "outputs": [
        {
          "internalType": "uint256",
          "name": "",
          "type": "uint256"
        }
      ],
      "stateMutability": "pure",
      "type": "function"
    },
    {
      "inputs": [
        {
          "internalType": "address",
          "name": "owner",
          "type": "address"
        },
        {
          "internalType": "uint256",
          "name": "index",
          "type": "uint256"
        }
      ],
      "name": "tokenOfOwnerByIndex",
      "outputs": [
        {
          "internalType": "uint256",
          "name": "",
          "type": "uint256"
        }
      ],
      "stateMutability": "view",
      "type": "function"
    },
    {
      "inputs": [
        {
          "internalType": "uint256",
          "name": "_tokenId",
          "type": "uint256"
        }
      ],
      "name": "tokenURI",
      "outputs": [
        {
          "internalType": "string",
          "name": "",
          "type": "string"
        }
      ],
      "stateMutability": "view",
      "type": "function"
    },
    {
      "inputs": [],
      "name": "totalSupply",
      "outputs": [
        {
          "internalType": "uint256",
          "name": "",
          "type": "uint256"
        }
      ],
      "stateMutability": "view",
      "type": "function"
    },
    {
      "inputs": [
        {
          "internalType": "address",
          "name": "from",
          "type": "address"
        },
        {
          "internalType": "address",
          "name": "to",
          "type": "address"
        },
        {
          "internalType": "uint256",
          "name": "tokenId",
          "type": "uint256"
        }
      ],
      "name": "transferFrom",
      "outputs": [],
      "stateMutability": "nonpayable",
      "type": "function"
    }
  ],
  "bytecode": {
    "object": "0x60a06040523480156200001157600080fd5b50604051620058ae380380620058ae8339810160408190526200003491620000d6565b6040518060400160405280600b81526020016a566f75636865727337323160a81b8152506040518060400160405280600381526020016256563160e81b8152508160009081620000859190620001ad565b506001620000948282620001ad565b5050506001600160a01b03811660805260405130907fdd7bf9deccc329033ee50f9e925f9bf2a608eac8950906d19cb2ed39ec61cf3690600090a25062000279565b600060208284031215620000e957600080fd5b81516001600160a01b03811681146200010157600080fd5b9392505050565b634e487b7160e01b600052604160045260246000fd5b600181811c908216806200013357607f821691505b6020821081036200015457634e487b7160e01b600052602260045260246000fd5b50919050565b601f821115620001a857600081815260208120601f850160051c81016020861015620001835750805b601f850160051c820191505b81811015620001a4578281556001016200018f565b5050505b505050565b81516001600160401b03811115620001c957620001c962000108565b620001e181620001da84546200011e565b846200015a565b602080601f831160018114620002195760008415620002005750858301515b600019600386901b1c1916600185901b178555620001a4565b600085815260208120601f198616915b828110156200024a5788860151825594840194600190910190840162000229565b5085821015620002695787850151600019600388901b60f8161c191681555b5050505050600190811b01905550565b60805161561962000295600039600061090301526156196000f3fe608060405234801561001057600080fd5b50600436106102265760003560e01c80636df0c83a1161012a578063b88d4fde116100bd578063cbe807121161008c578063db5a0e8311610071578063db5a0e8314610559578063e985e9c51461056c578063edf00638146105b557600080fd5b8063cbe807121461052f578063da5815321461053857600080fd5b8063b88d4fde146104c9578063c87b56dd146104dc578063c91539bc146104ef578063ca6d45ca146104f957600080fd5b8063a22cb465116100f9578063a22cb4651461045a578063a25a7d3b1461046d578063a3b9871a14610480578063b50223431461049357600080fd5b80636df0c83a1461040c57806370a082311461042c5780637169d23b1461043f57806395d89b411461045257600080fd5b806323b872dd116101bd57806342842e0e1161018c578063566a2cc211610171578063566a2cc2146103d35780636352211e146103e657806367dfd4c9146103f957600080fd5b806342842e0e146103ad5780634f6ccce7146103c057600080fd5b806323b872dd146103615780632f745c5914610374578063351a41c51461038757806336dbd2f91461039a57600080fd5b80630b82a21c116101f95780630b82a21c146102b55780630cfd7fd6146102d657806318160ddd146103155780631ed113ae1461031d57600080fd5b806301ffc9a71461022b57806306fdde0314610253578063081812fc14610268578063095ea7b3146102a0575b600080fd5b61023e6102393660046140e4565b6105c8565b60405190151581526020015b60405180910390f35b61025b610624565b60405161024a919061416f565b61027b610276366004614182565b6106b6565b60405173ffffffffffffffffffffffffffffffffffffffff909116815260200161024a565b6102b36102ae3660046141c8565b6106ea565b005b6102c86102c33660046141f4565b61087b565b60405190815260200161024a565b6102e96102e436600461433c565b6108ac565b6040805173ffffffffffffffffffffffffffffffffffffffff909316835260208301919091520161024a565b6008546102c8565b61033061032b366004614481565b610ae0565b6040517fffffffff00000000000000000000000000000000000000000000000000000000909116815260200161024a565b6102b361036f3660046144c3565b610b0e565b6102c86103823660046141c8565b610baf565b61027b610395366004614182565b610c7e565b61023e6103a8366004614182565b610cda565b6102b36103bb3660046144c3565b610cfd565b6102c86103ce366004614182565b610d18565b6102c86103e1366004614504565b610dd6565b61027b6103f4366004614182565b61123f565b6102b3610407366004614182565b6112cb565b6102c861041a366004614570565b600e6020526000908152604090205481565b6102c861043a366004614570565b611723565b61025b61044d3660046141f4565b6117f1565b61025b6118aa565b6102b361046836600461459b565b6118b9565b6102c861047b366004614619565b6118c4565b6102b361048e36600461466e565b6118d4565b61027b6104a1366004614182565b600d6020526000908152604090205473ffffffffffffffffffffffffffffffffffffffff1681565b6102b36104d73660046146b3565b6119be565b61025b6104ea366004614182565b611a66565b6102c8620f424081565b61027b610507366004614182565b600f6020526000908152604090205473ffffffffffffffffffffffffffffffffffffffff1681565b6102c8600c5481565b61054b610546366004614481565b611ebc565b60405161024a929190614768565b6102c8610567366004614182565b611ee5565b61023e61057a36600461477c565b73ffffffffffffffffffffffffffffffffffffffff918216600090815260056020908152604080832093909416825291909152205460ff1690565b6102c86105c33660046147aa565b611f31565b60007fffffffff0000000000000000000000000000000000000000000000000000000082167f780e9d6300000000000000000000000000000000000000000000000000000000148061061e575061061e82612117565b92915050565b60606000805461063390614827565b80601f016020809104026020016040519081016040528092919081815260200182805461065f90614827565b80156106ac5780601f10610681576101008083540402835291602001916106ac565b820191906000526020600020905b81548152906001019060200180831161068f57829003601f168201915b5050505050905090565b60006106c1826121fa565b5060009081526004602052604090205473ffffffffffffffffffffffffffffffffffffffff1690565b60006106f58261123f565b90508073ffffffffffffffffffffffffffffffffffffffff168373ffffffffffffffffffffffffffffffffffffffff16036107b7576040517f08c379a000000000000000000000000000000000000000000000000000000000815260206004820152602160248201527f4552433732313a20617070726f76616c20746f2063757272656e74206f776e6560448201527f720000000000000000000000000000000000000000000000000000000000000060648201526084015b60405180910390fd5b3373ffffffffffffffffffffffffffffffffffffffff821614806107e057506107e0813361057a565b61086c576040517f08c379a000000000000000000000000000000000000000000000000000000000815260206004820152603e60248201527f4552433732313a20617070726f76652063616c6c6572206973206e6f7420746f60448201527f6b656e206f776e6572206e6f7220617070726f76656420666f7220616c6c000060648201526084016107ae565b6108768383612288565b505050565b6010602052816000526040600020818154811061089757600080fd5b90600052602060002001600091509150505481565b60008073ffffffffffffffffffffffffffffffffffffffff83166108fc576040517f9ccb6ed000000000000000000000000000000000000000000000000000000000815260040160405180910390fd5b60006109277f0000000000000000000000000000000000000000000000000000000000000000612328565b6040517f6f9d99d900000000000000000000000000000000000000000000000000000000815290915073ffffffffffffffffffffffffffffffffffffffff821690636f9d99d99061097e9030908a90600401614990565b600060405180830381600087803b15801561099857600080fd5b505af11580156109ac573d6000803e3d6000fd5b50505050600c600081546109bf90614b19565b918290555073ffffffffffffffffffffffffffffffffffffffff82166000818152600e6020908152604080832094909455600c80548352600d825284832080547fffffffffffffffffffffffff0000000000000000000000000000000000000000169094179093559154815260118252919091208651610a4192880190613f54565b50600c80546000908152600f602090815260409182902080547fffffffffffffffffffffffff00000000000000000000000000000000000000001673ffffffffffffffffffffffffffffffffffffffff8981169190911790915592549151918252918316917f19d6f90297684f8b888bfdd40dece239ff62def4dd8aedd00245b6c846853b97910160405180910390a2600c5490969095509350505050565b60006004821015610af057600080fd5b610afe600460008486614b51565b610b0791614b7b565b9392505050565b610b18338261240a565b610ba4576040517f08c379a000000000000000000000000000000000000000000000000000000000815260206004820152602e60248201527f4552433732313a2063616c6c6572206973206e6f7420746f6b656e206f776e6560448201527f72206e6f7220617070726f76656400000000000000000000000000000000000060648201526084016107ae565b6108768383836124c9565b6000610bba83611723565b8210610c48576040517f08c379a000000000000000000000000000000000000000000000000000000000815260206004820152602b60248201527f455243373231456e756d657261626c653a206f776e657220696e646578206f7560448201527f74206f6620626f756e647300000000000000000000000000000000000000000060648201526084016107ae565b5073ffffffffffffffffffffffffffffffffffffffff919091166000908152600660209081526040808320938352929052205490565b6000818152600d602052604081205473ffffffffffffffffffffffffffffffffffffffff168061061e576040517fba3f1ed100000000000000000000000000000000000000000000000000000000815260040160405180910390fd5b600881901c6000908152600a6020526040812054600160ff84161b16151561061e565b610876838383604051806020016040528060008152506119be565b6000610d2360085490565b8210610db1576040517f08c379a000000000000000000000000000000000000000000000000000000000815260206004820152602c60248201527f455243373231456e756d657261626c653a20676c6f62616c20696e646578206f60448201527f7574206f6620626f756e6473000000000000000000000000000000000000000060648201526084016107ae565b60088281548110610dc457610dc4614bc3565b90600052602060002001549050919050565b6000808080610de785870187614bf2565b919450925090507fffffffff0000000000000000000000000000000000000000000000000000000082167f566a2cc20000000000000000000000000000000000000000000000000000000014610e3c57600080fd5b60008082806020019051810190610e539190614c6a565b509193509150503373ffffffffffffffffffffffffffffffffffffffff831614610ec7576040517f50a5f40500000000000000000000000000000000000000000000000000000000815273ffffffffffffffffffffffffffffffffffffffff831660048201523360248201526044016107ae565b73ffffffffffffffffffffffffffffffffffffffff8516610ee757600080fd5b73ffffffffffffffffffffffffffffffffffffffff85166000908152600e602052604081205490819003610f47576040517fba3f1ed100000000000000000000000000000000000000000000000000000000815260040160405180910390fd5b60008673ffffffffffffffffffffffffffffffffffffffff163b11610f6b57600080fd5b6040517faab1e47b00000000000000000000000000000000000000000000000000000000815273ffffffffffffffffffffffffffffffffffffffff84811660048301526000919088169063aab1e47b90602401602060405180830381865afa158015610fdb573d6000803e3d6000fd5b505050506040513d601f19601f82011682018060405250810190610fff9190614d33565b6040517f566a2cc200000000000000000000000000000000000000000000000000000000815290915073ffffffffffffffffffffffffffffffffffffffff88169063566a2cc290611058908f908f908a90600401614d4c565b600060405180830381600087803b15801561107257600080fd5b505af1925050508015611083575060015b6110c7573d8080156110b1576040519150601f19603f3d011682016040523d82523d6000602084013e6110b6565b606091505b506110c1888261273b565b50611164565b6040517faab1e47b00000000000000000000000000000000000000000000000000000000815273ffffffffffffffffffffffffffffffffffffffff858116600483015282919089169063aab1e47b90602401602060405180830381865afa158015611136573d6000803e3d6000fd5b505050506040513d601f19601f8201168201806040525081019061115a9190614d33565b1161116457600080fd5b6000828152600b602052604081208054829061117f90614b19565b91829055509050620f424081106111e3576040517f1495c920000000000000000000000000000000000000000000000000000000008152620f4240600482015273ffffffffffffffffffffffffffffffffffffffff891660248201526044016107ae565b6000816111f385620f4240614d7c565b6111fd9190614db9565b60008181526010602090815260409091208751929350611221929091880190613faa565b5061122c8682613303565b985050505050505050505b949350505050565b60008181526002602052604081205473ffffffffffffffffffffffffffffffffffffffff168061061e576040517f08c379a000000000000000000000000000000000000000000000000000000000815260206004820152601860248201527f4552433732313a20696e76616c696420746f6b656e204944000000000000000060448201526064016107ae565b336112d58261123f565b73ffffffffffffffffffffffffffffffffffffffff1614611322576040517f9d6cfcf900000000000000000000000000000000000000000000000000000000815260040160405180910390fd5b600061133061039583611ee5565b6040517fbedf77a600000000000000000000000000000000000000000000000000000000815233600482015290915073ffffffffffffffffffffffffffffffffffffffff82169063bedf77a690602401600060405180830381600087803b15801561139a57600080fd5b505af19250505080156113ab575060015b611667573d8080156113d9576040519150601f19603f3d011682016040523d82523d6000602084013e6113de565b606091505b506040517f1ed113ae0000000000000000000000000000000000000000000000000000000081526000903090631ed113ae9061141e90859060040161416f565b602060405180830381865afa15801561143b573d6000803e3d6000fd5b505050506040513d601f19601f8201168201806040525081019061145f9190614dd7565b90507f2d8c8dda000000000000000000000000000000000000000000000000000000007fffffffff000000000000000000000000000000000000000000000000000000008216016114dc576040517fd273722600000000000000000000000000000000000000000000000000000000815260040160405180910390fd5b7faf5a0bfb000000000000000000000000000000000000000000000000000000007fffffffff00000000000000000000000000000000000000000000000000000000821601611633576040517fda5815320000000000000000000000000000000000000000000000000000000081526000908190309063da5815329061156690879060040161416f565b600060405180830381865afa158015611583573d6000803e3d6000fd5b505050506040513d6000823e601f3d9081017fffffffffffffffffffffffffffffffffffffffffffffffffffffffffffffffe01682016040526115c99190810190614e39565b8060200190518101906115dc9190614e6e565b6040517f50a5f40500000000000000000000000000000000000000000000000000000000815273ffffffffffffffffffffffffffffffffffffffff80841660048301528216602482015291935091506044016107ae565b816040517ff4de152a0000000000000000000000000000000000000000000000000000000081526004016107ae919061416f565b6040517faab1e47b00000000000000000000000000000000000000000000000000000000815233600482015273ffffffffffffffffffffffffffffffffffffffff82169063aab1e47b90602401602060405180830381865afa1580156116d1573d6000803e3d6000fd5b505050506040513d601f19601f820116820180604052508101906116f59190614d33565b156116ff57600080fd5b600082815260106020526040812061171691613ff1565b61171f8261331d565b5050565b600073ffffffffffffffffffffffffffffffffffffffff82166117c8576040517f08c379a000000000000000000000000000000000000000000000000000000000815260206004820152602960248201527f4552433732313a2061646472657373207a65726f206973206e6f74206120766160448201527f6c6964206f776e6572000000000000000000000000000000000000000000000060648201526084016107ae565b5073ffffffffffffffffffffffffffffffffffffffff1660009081526003602052604090205490565b6011602052816000526040600020818154811061180d57600080fd5b9060005260206000200160009150915050805461182990614827565b80601f016020809104026020016040519081016040528092919081815260200182805461185590614827565b80156118a25780601f10611877576101008083540402835291602001916118a2565b820191906000526020600020905b81548152906001019060200180831161188557829003601f168201915b505050505081565b60606001805461063390614827565b61171f3383836133f6565b6000611237848484600080611f31565b60006118e261039584611ee5565b9050600081905060008173ffffffffffffffffffffffffffffffffffffffff1663cf0840566040518163ffffffff1660e01b8152600401602060405180830381865afa158015611936573d6000803e3d6000fd5b505050506040513d601f19601f8201168201806040525081019061195a9190614e9d565b90503373ffffffffffffffffffffffffffffffffffffffff8216146119ab576040517f3944c6d200000000000000000000000000000000000000000000000000000000815260040160405180910390fd5b6119b7600a8686613523565b5050505050565b6119c8338361240a565b611a54576040517f08c379a000000000000000000000000000000000000000000000000000000000815260206004820152602e60248201527f4552433732313a2063616c6c6572206973206e6f7420746f6b656e206f776e6560448201527f72206e6f7220617070726f76656400000000000000000000000000000000000060648201526084016107ae565b611a6084848484613572565b50505050565b60606000611a7383611ee5565b90506000611a8082610c7e565b9050600081905060008173ffffffffffffffffffffffffffffffffffffffff1663c66301b26040518163ffffffff1660e01b8152600401602060405180830381865afa158015611ad4573d6000803e3d6000fd5b505050506040513d601f19601f82011682018060405250810190611af89190614d33565b905060008167ffffffffffffffff811115611b1557611b15614216565b604051908082528060200260200182016040528015611b3e578160200160208202803683370190505b50905060005b82811015611c0a576040517f1e1b25730000000000000000000000000000000000000000000000000000000081526004810182905273ffffffffffffffffffffffffffffffffffffffff851690631e1b257390602401602060405180830381865afa158015611bb7573d6000803e3d6000fd5b505050506040513d601f19601f82011682018060405250810190611bdb9190614d33565b828281518110611bed57611bed614bc3565b602090810291909101015280611c0281614b19565b915050611b44565b506000858152600f60209081526040808320548151610100810190925288825273ffffffffffffffffffffffffffffffffffffffff1692918101620f4240611c518c611ee5565b611c5b9190614d7c565b611c65908c614eba565b8152602001611c738b61123f565b73ffffffffffffffffffffffffffffffffffffffff168152602001611c978b610cda565b15158152602001848152602001601060008c8152602001908152602001600020805480602002602001604051908101604052809291908181526020018280548015611d0157602002820191906000526020600020905b815481526020019060010190808311611ced575b50505050508152602001601160008a8152602001908152602001600020805480602002602001604051908101604052809291908181526020016000905b82821015611dea578382906000526020600020018054611d5d90614827565b80601f0160208091040260200160405190810160405280929190818152602001828054611d8990614827565b8015611dd65780601f10611dab57610100808354040283529160200191611dd6565b820191906000526020600020905b815481529060010190602001808311611db957829003601f168201915b505050505081526020019060010190611d3e565b505050908252506020018590526040517f7f3ecd4800000000000000000000000000000000000000000000000000000000815290915073ffffffffffffffffffffffffffffffffffffffff831690637f3ecd4890611e4c908490600401614f5d565b600060405180830381865afa158015611e69573d6000803e3d6000fd5b505050506040513d6000823e601f3d9081017fffffffffffffffffffffffffffffffffffffffffffffffffffffffffffffffe0168201604052611eaf9190810190614e39565b9998505050505050505050565b36600060048311611ecc57600080fd5b611ed98360048187614b51565b915091505b9250929050565b600081600003611f24576040517fed15e6cf000000000000000000000000000000000000000000000000000000008152600481018390526024016107ae565b61061e620f424083615037565b73ffffffffffffffffffffffffffffffffffffffff85166000908152600e6020526040812054808203611f90576040517fba3f1ed100000000000000000000000000000000000000000000000000000000815260040160405180910390fd5b6040517fedf00638000000000000000000000000000000000000000000000000000000008152879073ffffffffffffffffffffffffffffffffffffffff82169063edf0063890611fec9033908b908b908b908b90600401615072565b600060405180830381600087803b15801561200657600080fd5b505af1925050508015612017575060015b612057573d808015612045576040519150601f19603f3d011682016040523d82523d6000602084013e61204a565b606091505b50612055898261273b565b505b6000828152600b602052604081208054829061207290614b19565b91829055509050620f424081106120d6576040517f1495c920000000000000000000000000000000000000000000000000000000008152620f4240600482015273ffffffffffffffffffffffffffffffffffffffff8a1660248201526044016107ae565b6000816120e685620f4240614d7c565b6120f09190614db9565b600081815260106020526040902090915061210c908a8a61400f565b50611eaf3382613303565b60007fffffffff0000000000000000000000000000000000000000000000000000000082167f80ac58cd0000000000000000000000000000000000000000000000000000000014806121aa57507fffffffff0000000000000000000000000000000000000000000000000000000082167f5b5e139f00000000000000000000000000000000000000000000000000000000145b8061061e57507f01ffc9a7000000000000000000000000000000000000000000000000000000007fffffffff0000000000000000000000000000000000000000000000000000000083161461061e565b60008181526002602052604090205473ffffffffffffffffffffffffffffffffffffffff16612285576040517f08c379a000000000000000000000000000000000000000000000000000000000815260206004820152601860248201527f4552433732313a20696e76616c696420746f6b656e204944000000000000000060448201526064016107ae565b50565b600081815260046020526040902080547fffffffffffffffffffffffff00000000000000000000000000000000000000001673ffffffffffffffffffffffffffffffffffffffff841690811790915581906122e28261123f565b73ffffffffffffffffffffffffffffffffffffffff167f8c5be1e5ebec7d5bd14f71427d1e84f3dd0314c0f7b2291e5b200ac8c7c3b92560405160405180910390a45050565b60006040517f3d602d80600a3d3981f3363d3d373d3d3d363d7300000000000000000000000081528260601b60148201527f5af43d82803e903d91602b57fd5bf3000000000000000000000000000000000060288201526037816000f091505073ffffffffffffffffffffffffffffffffffffffff8116612405576040517f08c379a000000000000000000000000000000000000000000000000000000000815260206004820152601660248201527f455243313136373a20637265617465206661696c65640000000000000000000060448201526064016107ae565b919050565b6000806124168361123f565b90508073ffffffffffffffffffffffffffffffffffffffff168473ffffffffffffffffffffffffffffffffffffffff161480612484575073ffffffffffffffffffffffffffffffffffffffff80821660009081526005602090815260408083209388168352929052205460ff165b8061123757508373ffffffffffffffffffffffffffffffffffffffff166124aa846106b6565b73ffffffffffffffffffffffffffffffffffffffff1614949350505050565b8273ffffffffffffffffffffffffffffffffffffffff166124e98261123f565b73ffffffffffffffffffffffffffffffffffffffff161461258c576040517f08c379a000000000000000000000000000000000000000000000000000000000815260206004820152602560248201527f4552433732313a207472616e736665722066726f6d20696e636f72726563742060448201527f6f776e657200000000000000000000000000000000000000000000000000000060648201526084016107ae565b73ffffffffffffffffffffffffffffffffffffffff821661262e576040517f08c379a0000000000000000000000000000000000000000000000000000000008152602060048201526024808201527f4552433732313a207472616e7366657220746f20746865207a65726f2061646460448201527f726573730000000000000000000000000000000000000000000000000000000060648201526084016107ae565b612639838383613615565b612644600082612288565b73ffffffffffffffffffffffffffffffffffffffff8316600090815260036020526040812080546001929061267a908490614eba565b909155505073ffffffffffffffffffffffffffffffffffffffff821660009081526003602052604081208054600192906126b5908490614db9565b909155505060008181526002602052604080822080547fffffffffffffffffffffffff00000000000000000000000000000000000000001673ffffffffffffffffffffffffffffffffffffffff86811691821790925591518493918716917fddf252ad1be2c89b69c2b068fc378daa952ba7f163c4a11628f55a4df523b3ef91a4505050565b6040517f1ed113ae0000000000000000000000000000000000000000000000000000000081526000903090631ed113ae9061277a90859060040161416f565b602060405180830381865afa158015612797573d6000803e3d6000fd5b505050506040513d601f19601f820116820180604052508101906127bb9190614dd7565b90507faa90e7d0000000000000000000000000000000000000000000000000000000007fffffffff000000000000000000000000000000000000000000000000000000008216016129ae5760008060008060003073ffffffffffffffffffffffffffffffffffffffff1663da581532886040518263ffffffff1660e01b8152600401612847919061416f565b600060405180830381865afa158015612864573d6000803e3d6000fd5b505050506040513d6000823e601f3d9081017fffffffffffffffffffffffffffffffffffffffffffffffffffffffffffffffe01682016040526128aa9190810190614e39565b8060200190518101906128bd91906150bd565b945094509450945094508773ffffffffffffffffffffffffffffffffffffffff168573ffffffffffffffffffffffffffffffffffffffff161461292c576040517fcdd3140600000000000000000000000000000000000000000000000000000000815260040160405180910390fd5b30848463566a2cc260e01b8b868660405160200161294c939291906151de565b604080517fffffffffffffffffffffffffffffffffffffffffffffffffffffffffffffffe0818403018152908290527f556f18300000000000000000000000000000000000000000000000000000000082526107ae959493929160040161523e565b7f9652ec60000000000000000000000000000000000000000000000000000000007fffffffff00000000000000000000000000000000000000000000000000000000821601612af9576040517fda5815320000000000000000000000000000000000000000000000000000000081526000908190309063da58153290612a3890879060040161416f565b600060405180830381865afa158015612a55573d6000803e3d6000fd5b505050506040513d6000823e601f3d9081017fffffffffffffffffffffffffffffffffffffffffffffffffffffffffffffffe0168201604052612a9b9190810190614e39565b806020019051810190612aae91906152df565b6040517f69ad13a000000000000000000000000000000000000000000000000000000000815267ffffffffffffffff80841660048301528216602482015291935091506044016107ae565b7faf5a0bfb000000000000000000000000000000000000000000000000000000007fffffffff00000000000000000000000000000000000000000000000000000000821601612b83576040517fda5815320000000000000000000000000000000000000000000000000000000081526000908190309063da5815329061156690879060040161416f565b7f4f181085000000000000000000000000000000000000000000000000000000007fffffffff00000000000000000000000000000000000000000000000000000000821601612bfe576040517fb0e7ef7b00000000000000000000000000000000000000000000000000000000815260040160405180910390fd5b7f7850816d000000000000000000000000000000000000000000000000000000007fffffffff00000000000000000000000000000000000000000000000000000000821601612c79576040517f87af7e9300000000000000000000000000000000000000000000000000000000815260040160405180910390fd5b7faa0409ff000000000000000000000000000000000000000000000000000000007fffffffff00000000000000000000000000000000000000000000000000000000821601612cf4576040517f55fbf60100000000000000000000000000000000000000000000000000000000815260040160405180910390fd5b7f5262fb44000000000000000000000000000000000000000000000000000000007fffffffff00000000000000000000000000000000000000000000000000000000821601612e35576040517fda5815320000000000000000000000000000000000000000000000000000000081526000908190309063da58153290612d7e90879060040161416f565b600060405180830381865afa158015612d9b573d6000803e3d6000fd5b505050506040513d6000823e601f3d9081017fffffffffffffffffffffffffffffffffffffffffffffffffffffffffffffffe0168201604052612de19190810190614e39565b806020019051810190612df49190615312565b6040517fad9d04bc000000000000000000000000000000000000000000000000000000008152600481018390526024810182905291935091506044016107ae565b7fc0da8dcd000000000000000000000000000000000000000000000000000000007fffffffff00000000000000000000000000000000000000000000000000000000821601612f76576040517fda5815320000000000000000000000000000000000000000000000000000000081526000908190309063da58153290612ebf90879060040161416f565b600060405180830381865afa158015612edc573d6000803e3d6000fd5b505050506040513d6000823e601f3d9081017fffffffffffffffffffffffffffffffffffffffffffffffffffffffffffffffe0168201604052612f229190810190614e39565b806020019051810190612f359190615312565b6040517f3f257233000000000000000000000000000000000000000000000000000000008152600481018390526024810182905291935091506044016107ae565b7f0ba2bc41000000000000000000000000000000000000000000000000000000007fffffffff00000000000000000000000000000000000000000000000000000000821601612ff1576040517ff45d43bf00000000000000000000000000000000000000000000000000000000815260040160405180910390fd5b7f28bff90c000000000000000000000000000000000000000000000000000000007fffffffff0000000000000000000000000000000000000000000000000000000082160161306c576040517fd74006f400000000000000000000000000000000000000000000000000000000815260040160405180910390fd5b7f99cc706a000000000000000000000000000000000000000000000000000000007fffffffff000000000000000000000000000000000000000000000000000000008216016131ad576040517fda5815320000000000000000000000000000000000000000000000000000000081526000908190309063da581532906130f690879060040161416f565b600060405180830381865afa158015613113573d6000803e3d6000fd5b505050506040513d6000823e601f3d9081017fffffffffffffffffffffffffffffffffffffffffffffffffffffffffffffffe01682016040526131599190810190614e39565b80602001905181019061316c9190615312565b6040517f66338f96000000000000000000000000000000000000000000000000000000008152600481018390526024810182905291935091506044016107ae565b7f798b23c2000000000000000000000000000000000000000000000000000000007fffffffff00000000000000000000000000000000000000000000000000000000821601611633576040517fda5815320000000000000000000000000000000000000000000000000000000081526000908190309063da5815329061323790879060040161416f565b600060405180830381865afa158015613254573d6000803e3d6000fd5b505050506040513d6000823e601f3d9081017fffffffffffffffffffffffffffffffffffffffffffffffffffffffffffffffe016820160405261329a9190810190614e39565b8060200190518101906132ad9190615336565b6040517f8674dc3e00000000000000000000000000000000000000000000000000000000815273ffffffffffffffffffffffffffffffffffffffff831660048201526024810182905291935091506044016107ae565b61171f828260405180602001604052806000815250613836565b60006133288261123f565b905061333681600084613615565b613341600083612288565b73ffffffffffffffffffffffffffffffffffffffff81166000908152600360205260408120805460019290613377908490614eba565b909155505060008281526002602052604080822080547fffffffffffffffffffffffff00000000000000000000000000000000000000001690555183919073ffffffffffffffffffffffffffffffffffffffff8416907fddf252ad1be2c89b69c2b068fc378daa952ba7f163c4a11628f55a4df523b3ef908390a45050565b8173ffffffffffffffffffffffffffffffffffffffff168373ffffffffffffffffffffffffffffffffffffffff160361348b576040517f08c379a000000000000000000000000000000000000000000000000000000000815260206004820152601960248201527f4552433732313a20617070726f766520746f2063616c6c65720000000000000060448201526064016107ae565b73ffffffffffffffffffffffffffffffffffffffff83811660008181526005602090815260408083209487168084529482529182902080547fffffffffffffffffffffffffffffffffffffffffffffffffffffffffffffff001686151590811790915591519182527f17307eab39ab6107e8899845ad3d59bd9653f200f220920489ca2b5937696c31910160405180910390a3505050565b801561354d57600882901c60009081526020849052604090208054600160ff85161b179055505050565b600882901c60009081526020849052604090208054600160ff85161b19169055505050565b61357d8484846124c9565b613589848484846138d9565b611a60576040517f08c379a000000000000000000000000000000000000000000000000000000000815260206004820152603260248201527f4552433732313a207472616e7366657220746f206e6f6e20455243373231526560448201527f63656976657220696d706c656d656e746572000000000000000000000000000060648201526084016107ae565b613620838383613ac9565b600073ffffffffffffffffffffffffffffffffffffffff84161580613659575073ffffffffffffffffffffffffffffffffffffffff8316155b905080156136675750505050565b600061367561039584611ee5565b90508060018173ffffffffffffffffffffffffffffffffffffffff16637855d30c6040518163ffffffff1660e01b8152600401602060405180830381865afa1580156136c5573d6000803e3d6000fd5b505050506040513d601f19601f820116820180604052508101906136e99190615393565b60038111156136fa576136fa615364565b1480613785575060008173ffffffffffffffffffffffffffffffffffffffff16637855d30c6040518163ffffffff1660e01b8152600401602060405180830381865afa15801561374e573d6000803e3d6000fd5b505050506040513d601f19601f820116820180604052508101906137729190615393565b600381111561378357613783615364565b145b1561382e57808173ffffffffffffffffffffffffffffffffffffffff16637855d30c6040518163ffffffff1660e01b8152600401602060405180830381865afa1580156137d6573d6000803e3d6000fd5b505050506040513d601f19601f820116820180604052508101906137fa9190615393565b6040517fe0bf90300000000000000000000000000000000000000000000000000000000081526004016107ae9291906153b4565b505050505050565b6138408383613bcf565b61384d60008484846138d9565b610876576040517f08c379a000000000000000000000000000000000000000000000000000000000815260206004820152603260248201527f4552433732313a207472616e7366657220746f206e6f6e20455243373231526560448201527f63656976657220696d706c656d656e746572000000000000000000000000000060648201526084016107ae565b600073ffffffffffffffffffffffffffffffffffffffff84163b15613ac1576040517f150b7a0200000000000000000000000000000000000000000000000000000000815273ffffffffffffffffffffffffffffffffffffffff85169063150b7a0290613950903390899088908890600401615415565b6020604051808303816000875af19250505080156139a9575060408051601f3d9081017fffffffffffffffffffffffffffffffffffffffffffffffffffffffffffffffe01682019092526139a691810190614dd7565b60015b613a76573d8080156139d7576040519150601f19603f3d011682016040523d82523d6000602084013e6139dc565b606091505b508051600003613a6e576040517f08c379a000000000000000000000000000000000000000000000000000000000815260206004820152603260248201527f4552433732313a207472616e7366657220746f206e6f6e20455243373231526560448201527f63656976657220696d706c656d656e746572000000000000000000000000000060648201526084016107ae565b805181602001fd5b7fffffffff00000000000000000000000000000000000000000000000000000000167f150b7a0200000000000000000000000000000000000000000000000000000000149050611237565b506001611237565b73ffffffffffffffffffffffffffffffffffffffff8316613b3157613b2c81600880546000838152600960205260408120829055600182018355919091527ff3f7a9fe364faab93b216da50a3214154f22a0a2b415b23a84c8169e8b636ee30155565b613b6e565b8173ffffffffffffffffffffffffffffffffffffffff168373ffffffffffffffffffffffffffffffffffffffff1614613b6e57613b6e8382613d9d565b73ffffffffffffffffffffffffffffffffffffffff8216613b925761087681613e54565b8273ffffffffffffffffffffffffffffffffffffffff168273ffffffffffffffffffffffffffffffffffffffff1614610876576108768282613f03565b73ffffffffffffffffffffffffffffffffffffffff8216613c4c576040517f08c379a000000000000000000000000000000000000000000000000000000000815260206004820181905260248201527f4552433732313a206d696e7420746f20746865207a65726f206164647265737360448201526064016107ae565b60008181526002602052604090205473ffffffffffffffffffffffffffffffffffffffff1615613cd8576040517f08c379a000000000000000000000000000000000000000000000000000000000815260206004820152601c60248201527f4552433732313a20746f6b656e20616c7265616479206d696e7465640000000060448201526064016107ae565b613ce460008383613615565b73ffffffffffffffffffffffffffffffffffffffff82166000908152600360205260408120805460019290613d1a908490614db9565b909155505060008181526002602052604080822080547fffffffffffffffffffffffff00000000000000000000000000000000000000001673ffffffffffffffffffffffffffffffffffffffff861690811790915590518392907fddf252ad1be2c89b69c2b068fc378daa952ba7f163c4a11628f55a4df523b3ef908290a45050565b60006001613daa84611723565b613db49190614eba565b600083815260076020526040902054909150808214613e145773ffffffffffffffffffffffffffffffffffffffff841660009081526006602090815260408083208584528252808320548484528184208190558352600790915290208190555b50600091825260076020908152604080842084905573ffffffffffffffffffffffffffffffffffffffff9094168352600681528383209183525290812055565b600854600090613e6690600190614eba565b60008381526009602052604081205460088054939450909284908110613e8e57613e8e614bc3565b906000526020600020015490508060088381548110613eaf57613eaf614bc3565b6000918252602080832090910192909255828152600990915260408082208490558582528120556008805480613ee757613ee7615454565b6001900381819060005260206000200160009055905550505050565b6000613f0e83611723565b73ffffffffffffffffffffffffffffffffffffffff9093166000908152600660209081526040808320868452825280832085905593825260079052919091209190915550565b828054828255906000526020600020908101928215613f9a579160200282015b82811115613f9a5782518290613f8a90826154c9565b5091602001919060010190613f74565b50613fa692915061404a565b5090565b828054828255906000526020600020908101928215613fe5579160200282015b82811115613fe5578251825591602001919060010190613fca565b50613fa6929150614067565b50805460008255906000526020600020908101906122859190614067565b828054828255906000526020600020908101928215613fe5579160200282015b82811115613fe557823582559160200191906001019061402f565b80821115613fa657600061405e828261407c565b5060010161404a565b5b80821115613fa65760008155600101614068565b50805461408890614827565b6000825580601f10614098575050565b601f0160209004906000526020600020908101906122859190614067565b7fffffffff000000000000000000000000000000000000000000000000000000008116811461228557600080fd5b6000602082840312156140f657600080fd5b8135610b07816140b6565b60005b8381101561411c578181015183820152602001614104565b50506000910152565b6000815180845261413d816020860160208601614101565b601f017fffffffffffffffffffffffffffffffffffffffffffffffffffffffffffffffe0169290920160200192915050565b602081526000610b076020830184614125565b60006020828403121561419457600080fd5b5035919050565b73ffffffffffffffffffffffffffffffffffffffff8116811461228557600080fd5b80356124058161419b565b600080604083850312156141db57600080fd5b82356141e68161419b565b946020939093013593505050565b6000806040838503121561420757600080fd5b50508035926020909101359150565b7f4e487b7100000000000000000000000000000000000000000000000000000000600052604160045260246000fd5b604051601f82017fffffffffffffffffffffffffffffffffffffffffffffffffffffffffffffffe016810167ffffffffffffffff8111828210171561428c5761428c614216565b604052919050565b600067ffffffffffffffff8211156142ae576142ae614216565b5060051b60200190565b600067ffffffffffffffff8211156142d2576142d2614216565b50601f017fffffffffffffffffffffffffffffffffffffffffffffffffffffffffffffffe01660200190565b600061431161430c846142b8565b614245565b905082815283838301111561432557600080fd5b828260208301376000602084830101529392505050565b60008060006060848603121561435157600080fd5b833567ffffffffffffffff8082111561436957600080fd5b90850190610160828803121561437e57600080fd5b909350602090858201358181111561439557600080fd5b8601601f810188136143a657600080fd5b80356143b461430c82614294565b81815260059190911b8201840190848101908a8311156143d357600080fd5b8584015b83811015614420578035868111156143ef5760008081fd5b8501603f81018d136144015760008081fd5b6144128d89830135604084016142fe565b8452509186019186016143d7565b50809750505050505050614436604085016141bd565b90509250925092565b60008083601f84011261445157600080fd5b50813567ffffffffffffffff81111561446957600080fd5b602083019150836020828501011115611ede57600080fd5b6000806020838503121561449457600080fd5b823567ffffffffffffffff8111156144ab57600080fd5b6144b78582860161443f565b90969095509350505050565b6000806000606084860312156144d857600080fd5b83356144e38161419b565b925060208401356144f38161419b565b929592945050506040919091013590565b6000806000806040858703121561451a57600080fd5b843567ffffffffffffffff8082111561453257600080fd5b61453e8883890161443f565b9096509450602087013591508082111561455757600080fd5b506145648782880161443f565b95989497509550505050565b60006020828403121561458257600080fd5b8135610b078161419b565b801515811461228557600080fd5b600080604083850312156145ae57600080fd5b82356145b98161419b565b915060208301356145c98161458d565b809150509250929050565b60008083601f8401126145e657600080fd5b50813567ffffffffffffffff8111156145fe57600080fd5b6020830191508360208260051b8501011115611ede57600080fd5b60008060006040848603121561462e57600080fd5b83356146398161419b565b9250602084013567ffffffffffffffff81111561465557600080fd5b614661868287016145d4565b9497909650939450505050565b6000806040838503121561468157600080fd5b8235915060208301356145c98161458d565b600082601f8301126146a457600080fd5b610b07838335602085016142fe565b600080600080608085870312156146c957600080fd5b84356146d48161419b565b935060208501356146e48161419b565b925060408501359150606085013567ffffffffffffffff81111561470757600080fd5b61471387828801614693565b91505092959194509250565b8183528181602085013750600060208284010152600060207fffffffffffffffffffffffffffffffffffffffffffffffffffffffffffffffe0601f840116840101905092915050565b60208152600061123760208301848661471f565b6000806040838503121561478f57600080fd5b823561479a8161419b565b915060208301356145c98161419b565b6000806000806000608086880312156147c257600080fd5b85356147cd8161419b565b9450602086013567ffffffffffffffff8111156147e957600080fd5b6147f5888289016145d4565b90955093505060408601356148098161458d565b915060608601356148198161419b565b809150509295509295909350565b600181811c9082168061483b57607f821691505b602082108103614874577f4e487b7100000000000000000000000000000000000000000000000000000000600052602260045260246000fd5b50919050565b60008083357fffffffffffffffffffffffffffffffffffffffffffffffffffffffffffffffe18436030181126148af57600080fd5b830160208101925035905067ffffffffffffffff8111156148cf57600080fd5b8060051b3603821315611ede57600080fd5b81835260007f07ffffffffffffffffffffffffffffffffffffffffffffffffffffffffffffff83111561491357600080fd5b8260051b80836020870137939093016020019392505050565b60008083357fffffffffffffffffffffffffffffffffffffffffffffffffffffffffffffffe184360301811261496157600080fd5b830160208101925035905067ffffffffffffffff81111561498157600080fd5b803603821315611ede57600080fd5b73ffffffffffffffffffffffffffffffffffffffff83168152604060208201526149da604082016149c0846141bd565b73ffffffffffffffffffffffffffffffffffffffff169052565b60006149e8602084016141bd565b73ffffffffffffffffffffffffffffffffffffffff811660608401525060408301356080830152606083013560a0830152608083013560c083015260a083013560e0830152614a3a60c084018461487a565b6101606101008181870152614a546101a0870184866148e1565b9350610120925060e0870135838701526101408188013581880152614a7a8489016141bd565b73ffffffffffffffffffffffffffffffffffffffff8116888501529350614aa38189018961492c565b9450925050507fffffffffffffffffffffffffffffffffffffffffffffffffffffffffffffffc085840301610180860152614adf83838361471f565b979650505050505050565b7f4e487b7100000000000000000000000000000000000000000000000000000000600052601160045260246000fd5b60007fffffffffffffffffffffffffffffffffffffffffffffffffffffffffffffffff8203614b4a57614b4a614aea565b5060010190565b60008085851115614b6157600080fd5b83861115614b6e57600080fd5b5050820193919092039150565b7fffffffff000000000000000000000000000000000000000000000000000000008135818116916004851015614bbb5780818660040360031b1b83161692505b505092915050565b7f4e487b7100000000000000000000000000000000000000000000000000000000600052603260045260246000fd5b600080600060608486031215614c0757600080fd5b8335614c128161419b565b92506020840135614c22816140b6565b9150604084013567ffffffffffffffff811115614c3e57600080fd5b614c4a86828701614693565b9150509250925092565b80516124058161419b565b80516124058161458d565b60008060008060808587031215614c8057600080fd5b8451614c8b8161419b565b8094505060208086015167ffffffffffffffff811115614caa57600080fd5b8601601f81018813614cbb57600080fd5b8051614cc961430c82614294565b81815260059190911b8201830190838101908a831115614ce857600080fd5b928401925b82841015614d0657835182529284019290840190614ced565b8097505050505050614d1a60408601614c5f565b9150614d2860608601614c54565b905092959194509250565b600060208284031215614d4557600080fd5b5051919050565b604081526000614d6060408301858761471f565b8281036020840152614d728185614125565b9695505050505050565b6000817fffffffffffffffffffffffffffffffffffffffffffffffffffffffffffffffff0483118215151615614db457614db4614aea565b500290565b8082018082111561061e5761061e614aea565b8051612405816140b6565b600060208284031215614de957600080fd5b8151610b07816140b6565b600082601f830112614e0557600080fd5b8151614e1361430c826142b8565b818152846020838601011115614e2857600080fd5b611237826020830160208701614101565b600060208284031215614e4b57600080fd5b815167ffffffffffffffff811115614e6257600080fd5b61123784828501614df4565b60008060408385031215614e8157600080fd5b8251614e8c8161419b565b60208401519092506145c98161419b565b600060208284031215614eaf57600080fd5b8151610b078161419b565b8181038181111561061e5761061e614aea565b600081518084526020808501945080840160005b83811015614efd57815187529582019590820190600101614ee1565b509495945050505050565b600081518084526020808501808196508360051b8101915082860160005b85811015614f50578284038952614f3e848351614125565b98850198935090840190600101614f26565b5091979650505050505050565b60208152815160208201526020820151604082015260006040830151614f9b606084018273ffffffffffffffffffffffffffffffffffffffff169052565b50606083015180151560808401525060808301516101008060a0850152614fc6610120850183614ecd565b915060a08501517fffffffffffffffffffffffffffffffffffffffffffffffffffffffffffffffe0808685030160c08701526150028483614ecd565b935060c08701519150808685030160e0870152506150208382614f08565b92505060e085015181850152508091505092915050565b60008261506d577f4e487b7100000000000000000000000000000000000000000000000000000000600052601260045260246000fd5b500490565b600073ffffffffffffffffffffffffffffffffffffffff8088168352608060208401526150a36080840187896148e1565b941515604084015292909216606090910152509392505050565b600080600080600060a086880312156150d557600080fd5b85516150e08161419b565b8095505060208087015167ffffffffffffffff8082111561510057600080fd5b818901915089601f83011261511457600080fd5b815161512261430c82614294565b81815260059190911b8301840190848101908c83111561514157600080fd5b8585015b838110156151795780518581111561515d5760008081fd5b61516b8f89838a0101614df4565b845250918601918601615145565b5060408c0151909950945050508083111561519357600080fd5b61519f8a848b01614df4565b95506151ad60608a01614dcc565b945060808901519250808311156151c357600080fd5b50506151d188828901614df4565b9150509295509295909350565b73ffffffffffffffffffffffffffffffffffffffff841681527fffffffff00000000000000000000000000000000000000000000000000000000831660208201526060604082015260006152356060830184614125565b95945050505050565b73ffffffffffffffffffffffffffffffffffffffff8616815260a06020820152600061526d60a0830187614f08565b828103604084015261527f8187614125565b90507fffffffff000000000000000000000000000000000000000000000000000000008516606084015282810360808401526152bb8185614125565b98975050505050505050565b805167ffffffffffffffff8116811461240557600080fd5b600080604083850312156152f257600080fd5b6152fb836152c7565b9150615309602084016152c7565b90509250929050565b6000806040838503121561532557600080fd5b505080516020909101519092909150565b6000806040838503121561534957600080fd5b82516153548161419b565b6020939093015192949293505050565b7f4e487b7100000000000000000000000000000000000000000000000000000000600052602160045260246000fd5b6000602082840312156153a557600080fd5b815160048110610b0757600080fd5b73ffffffffffffffffffffffffffffffffffffffff831681526040810160048310615408577f4e487b7100000000000000000000000000000000000000000000000000000000600052602160045260246000fd5b8260208301529392505050565b600073ffffffffffffffffffffffffffffffffffffffff808716835280861660208401525083604083015260806060830152614d726080830184614125565b7f4e487b7100000000000000000000000000000000000000000000000000000000600052603160045260246000fd5b601f82111561087657600081815260208120601f850160051c810160208610156154aa5750805b601f850160051c820191505b8181101561382e578281556001016154b6565b815167ffffffffffffffff8111156154e3576154e3614216565b6154f7816154f18454614827565b84615483565b602080601f83116001811461554a57600084156155145750858301515b7fffffffffffffffffffffffffffffffffffffffffffffffffffffffffffffffff600386901b1c1916600185901b17855561382e565b6000858152602081207fffffffffffffffffffffffffffffffffffffffffffffffffffffffffffffffe08616915b8281101561559757888601518255948401946001909101908401615578565b50858210156155d357878501517fffffffffffffffffffffffffffffffffffffffffffffffffffffffffffffffff600388901b60f8161c191681555b5050505050600190811b0190555056fea2646970667358221220b00689b670446de3c2f1b110c11d0eb2958a9c3200cdf062ad715f3432de1aa264736f6c63430008100033",
    "linkReferences": {}
  },
  "methodIdentifiers": {
    "ID_MULTIPLE()": "c91539bc",
    "approve(address,uint256)": "095ea7b3",
    "balanceOf(address)": "70a08231",
    "createCrowdtainer((address,address,uint256,uint256,uint256,uint256,uint256[],uint256,uint256,address,string),string[],address)": "0cfd7fd6",
    "crowdtainerCount()": "cbe80712",
    "crowdtainerForId(uint256)": "b5022343",
    "crowdtainerIdToAddress(uint256)": "351a41c5",
    "getApproved(uint256)": "081812fc",
    "getClaimStatus(uint256)": "36dbd2f9",
    "getParameters(bytes)": "da581532",
    "getSignature(bytes)": "1ed113ae",
    "idForCrowdtainer(address)": "6df0c83a",
    "isApprovedForAll(address,address)": "e985e9c5",
    "join(address,uint256[])": "a25a7d3b",
    "join(address,uint256[],bool,address)": "edf00638",
    "joinWithSignature(bytes,bytes)": "566a2cc2",
    "leave(uint256)": "67dfd4c9",
    "metadataServiceForCrowdatinerId(uint256)": "ca6d45ca",
    "name()": "06fdde03",
    "ownerOf(uint256)": "6352211e",
    "productDescription(uint256,uint256)": "7169d23b",
    "safeTransferFrom(address,address,uint256)": "42842e0e",
    "safeTransferFrom(address,address,uint256,bytes)": "b88d4fde",
    "setApprovalForAll(address,bool)": "a22cb465",
    "setClaimStatus(uint256,bool)": "a3b9871a",
    "supportsInterface(bytes4)": "01ffc9a7",
    "symbol()": "95d89b41",
    "tokenByIndex(uint256)": "4f6ccce7",
    "tokenIdQuantities(uint256,uint256)": "0b82a21c",
    "tokenIdToCrowdtainerId(uint256)": "db5a0e83",
    "tokenOfOwnerByIndex(address,uint256)": "2f745c59",
    "tokenURI(uint256)": "c87b56dd",
    "totalSupply()": "18160ddd",
    "transferFrom(address,address,uint256)": "23b872dd"
  },
  "id": 33
}