{
  "abi": [
    {
      "inputs": [
        {
          "internalType": "address",
          "name": "_crowdtainerImplementation",
          "type": "address"
        }
      ],
      "stateMutability": "nonpayable",
      "type": "constructor"
    },
    {
      "inputs": [],
      "name": "AccountNotOwner",
      "type": "error"
    },
    {
      "inputs": [],
      "name": "CCIP_Read_InvalidOperation",
      "type": "error"
    },
    {
      "inputs": [
        {
          "internalType": "address",
          "name": "expected",
          "type": "address"
        },
        {
          "internalType": "address",
          "name": "actual",
          "type": "address"
        }
      ],
      "name": "CallerNotAllowed",
      "type": "error"
    },
    {
      "inputs": [],
      "name": "CannotLeaveDueAccumulatedReferralCredits",
      "type": "error"
    },
    {
      "inputs": [],
      "name": "CrowdtainerInexistent",
      "type": "error"
    },
    {
      "inputs": [
        {
          "internalType": "bytes",
          "name": "reason",
          "type": "bytes"
        }
      ],
      "name": "CrowdtainerLowLevelError",
      "type": "error"
    },
    {
      "inputs": [
        {
          "internalType": "uint256",
          "name": "received",
          "type": "uint256"
        },
        {
          "internalType": "uint256",
          "name": "maximum",
          "type": "uint256"
        }
      ],
      "name": "ExceededNumberOfItemsAllowed",
      "type": "error"
    },
    {
      "inputs": [],
      "name": "InvalidNumberOfQuantities",
      "type": "error"
    },
    {
      "inputs": [],
      "name": "InvalidProductNumberAndPrices",
      "type": "error"
    },
    {
      "inputs": [
        {
          "internalType": "uint256",
          "name": "tokenId",
          "type": "uint256"
        }
      ],
      "name": "InvalidTokenId",
      "type": "error"
    },
    {
      "inputs": [
        {
          "internalType": "uint256",
          "name": "maximum",
          "type": "uint256"
        },
        {
          "internalType": "address",
          "name": "crowdtainer",
          "type": "address"
        }
      ],
      "name": "MaximumNumberOfParticipantsReached",
      "type": "error"
    },
    {
      "inputs": [],
      "name": "MetadataServiceAddressIsZero",
      "type": "error"
    },
    {
      "inputs": [
        {
          "internalType": "uint256",
          "name": "received",
          "type": "uint256"
        },
        {
          "internalType": "uint256",
          "name": "minimum",
          "type": "uint256"
        }
      ],
      "name": "MinimumPurchaseValueForReferralNotMet",
      "type": "error"
    },
    {
      "inputs": [
        {
          "internalType": "address",
          "name": "sender",
          "type": "address"
        },
        {
          "internalType": "string[]",
          "name": "urls",
          "type": "string[]"
        },
        {
          "internalType": "bytes",
          "name": "callData",
          "type": "bytes"
        },
        {
          "internalType": "bytes4",
          "name": "callbackFunction",
          "type": "bytes4"
        },
        {
          "internalType": "bytes",
          "name": "extraData",
          "type": "bytes"
        }
      ],
      "name": "OffchainLookup",
      "type": "error"
    },
    {
      "inputs": [
        {
          "internalType": "uint256",
          "name": "received",
          "type": "uint256"
        },
        {
          "internalType": "uint256",
          "name": "maximum",
          "type": "uint256"
        }
      ],
      "name": "PurchaseExceedsMaximumTarget",
      "type": "error"
    },
    {
      "inputs": [],
      "name": "ReferralDisabledForProvidedCode",
      "type": "error"
    },
    {
      "inputs": [],
      "name": "ReferralInexistent",
      "type": "error"
    },
    {
      "inputs": [],
      "name": "SetClaimedOnlyAllowedByShippingAgent",
      "type": "error"
    },
    {
      "inputs": [
        {
          "internalType": "uint64",
          "name": "current",
          "type": "uint64"
        },
        {
          "internalType": "uint64",
          "name": "expires",
          "type": "uint64"
        }
      ],
      "name": "SignatureExpired",
      "type": "error"
    },
    {
      "inputs": [
        {
          "internalType": "address",
          "name": "crowdtainer",
          "type": "address"
        },
        {
          "internalType": "enum CrowdtainerState",
          "name": "state",
          "type": "uint8"
        }
      ],
      "name": "TransferNotAllowed",
      "type": "error"
    },
    {
      "inputs": [],
      "name": "UserAlreadyJoined",
      "type": "error"
    },
    {
      "anonymous": false,
      "inputs": [
        {
          "indexed": true,
          "internalType": "address",
          "name": "owner",
          "type": "address"
        },
        {
          "indexed": true,
          "internalType": "address",
          "name": "approved",
          "type": "address"
        },
        {
          "indexed": true,
          "internalType": "uint256",
          "name": "tokenId",
          "type": "uint256"
        }
      ],
      "name": "Approval",
      "type": "event"
    },
    {
      "anonymous": false,
      "inputs": [
        {
          "indexed": true,
          "internalType": "address",
          "name": "owner",
          "type": "address"
        },
        {
          "indexed": true,
          "internalType": "address",
          "name": "operator",
          "type": "address"
        },
        {
          "indexed": false,
          "internalType": "bool",
          "name": "approved",
          "type": "bool"
        }
      ],
      "name": "ApprovalForAll",
      "type": "event"
    },
    {
      "anonymous": false,
      "inputs": [
        {
          "indexed": true,
          "internalType": "address",
          "name": "_crowdtainerAddress",
          "type": "address"
        },
        {
          "indexed": false,
          "internalType": "uint256",
          "name": "_nextCrowdtainerId",
          "type": "uint256"
        }
      ],
      "name": "CrowdtainerDeployed",
      "type": "event"
    },
    {
      "anonymous": false,
      "inputs": [
        {
          "indexed": true,
          "internalType": "address",
          "name": "from",
          "type": "address"
        },
        {
          "indexed": true,
          "internalType": "address",
          "name": "to",
          "type": "address"
        },
        {
          "indexed": true,
          "internalType": "uint256",
          "name": "tokenId",
          "type": "uint256"
        }
      ],
      "name": "Transfer",
      "type": "event"
    },
    {
      "anonymous": false,
      "inputs": [
        {
          "indexed": true,
          "internalType": "address",
          "name": "crowdtainer",
          "type": "address"
        }
      ],
      "name": "Vouchers721Created",
      "type": "event"
    },
    {
      "inputs": [],
      "name": "ID_MULTIPLE",
      "outputs": [
        {
          "internalType": "uint256",
          "name": "",
          "type": "uint256"
        }
      ],
      "stateMutability": "view",
      "type": "function"
    },
    {
      "inputs": [
        {
          "internalType": "address",
          "name": "to",
          "type": "address"
        },
        {
          "internalType": "uint256",
          "name": "tokenId",
          "type": "uint256"
        }
      ],
      "name": "approve",
      "outputs": [],
      "stateMutability": "nonpayable",
      "type": "function"
    },
    {
      "inputs": [
        {
          "internalType": "address",
          "name": "owner",
          "type": "address"
        }
      ],
      "name": "balanceOf",
      "outputs": [
        {
          "internalType": "uint256",
          "name": "",
          "type": "uint256"
        }
      ],
      "stateMutability": "view",
      "type": "function"
    },
    {
      "inputs": [
        {
          "components": [
            {
              "internalType": "address",
              "name": "shippingAgent",
              "type": "address"
            },
            {
              "internalType": "address",
              "name": "signer",
              "type": "address"
            },
            {
              "internalType": "uint256",
              "name": "openingTime",
              "type": "uint256"
            },
            {
              "internalType": "uint256",
              "name": "expireTime",
              "type": "uint256"
            },
            {
              "internalType": "uint256",
              "name": "targetMinimum",
              "type": "uint256"
            },
            {
              "internalType": "uint256",
              "name": "targetMaximum",
              "type": "uint256"
            },
            {
              "internalType": "uint256[]",
              "name": "unitPricePerType",
              "type": "uint256[]"
            },
            {
              "internalType": "uint256",
              "name": "referralRate",
              "type": "uint256"
            },
            {
              "internalType": "uint256",
              "name": "referralEligibilityValue",
              "type": "uint256"
            },
            {
              "internalType": "address",
              "name": "token",
              "type": "address"
            },
            {
              "internalType": "string",
              "name": "legalContractURI",
              "type": "string"
            }
          ],
          "internalType": "struct CampaignData",
          "name": "_campaignData",
          "type": "tuple"
        },
        {
          "internalType": "string[]",
          "name": "_productDescription",
          "type": "string[]"
        },
        {
          "internalType": "address",
          "name": "_metadataService",
          "type": "address"
        }
      ],
      "name": "createCrowdtainer",
      "outputs": [
        {
          "internalType": "address",
          "name": "",
          "type": "address"
        },
        {
          "internalType": "uint256",
          "name": "",
          "type": "uint256"
        }
      ],
      "stateMutability": "nonpayable",
      "type": "function"
    },
    {
      "inputs": [],
      "name": "crowdtainerCount",
      "outputs": [
        {
          "internalType": "uint256",
          "name": "",
          "type": "uint256"
        }
      ],
      "stateMutability": "view",
      "type": "function"
    },
    {
      "inputs": [
        {
          "internalType": "uint256",
          "name": "",
          "type": "uint256"
        }
      ],
      "name": "crowdtainerForId",
      "outputs": [
        {
          "internalType": "address",
          "name": "",
          "type": "address"
        }
      ],
      "stateMutability": "view",
      "type": "function"
    },
    {
      "inputs": [
        {
          "internalType": "uint256",
          "name": "_crowdtainerId",
          "type": "uint256"
        }
      ],
      "name": "crowdtainerIdToAddress",
      "outputs": [
        {
          "internalType": "address",
          "name": "",
          "type": "address"
        }
      ],
      "stateMutability": "view",
      "type": "function"
    },
    {
      "inputs": [
        {
          "internalType": "uint256",
          "name": "tokenId",
          "type": "uint256"
        }
      ],
      "name": "getApproved",
      "outputs": [
        {
          "internalType": "address",
          "name": "",
          "type": "address"
        }
      ],
      "stateMutability": "view",
      "type": "function"
    },
    {
      "inputs": [
        {
          "internalType": "uint256",
          "name": "_tokenId",
          "type": "uint256"
        }
      ],
      "name": "getClaimStatus",
      "outputs": [
        {
          "internalType": "bool",
          "name": "",
          "type": "bool"
        }
      ],
      "stateMutability": "view",
      "type": "function"
    },
    {
      "inputs": [
        {
          "internalType": "bytes",
          "name": "data",
          "type": "bytes"
        }
      ],
      "name": "getParameters",
      "outputs": [
        {
          "internalType": "bytes",
          "name": "",
          "type": "bytes"
        }
      ],
      "stateMutability": "pure",
      "type": "function"
    },
    {
      "inputs": [
        {
          "internalType": "bytes",
          "name": "data",
          "type": "bytes"
        }
      ],
      "name": "getSignature",
      "outputs": [
        {
          "internalType": "bytes4",
          "name": "",
          "type": "bytes4"
        }
      ],
      "stateMutability": "pure",
      "type": "function"
    },
    {
      "inputs": [
        {
          "internalType": "address",
          "name": "",
          "type": "address"
        }
      ],
      "name": "idForCrowdtainer",
      "outputs": [
        {
          "internalType": "uint256",
          "name": "",
          "type": "uint256"
        }
      ],
      "stateMutability": "view",
      "type": "function"
    },
    {
      "inputs": [
        {
          "internalType": "address",
          "name": "owner",
          "type": "address"
        },
        {
          "internalType": "address",
          "name": "operator",
          "type": "address"
        }
      ],
      "name": "isApprovedForAll",
      "outputs": [
        {
          "internalType": "bool",
          "name": "",
          "type": "bool"
        }
      ],
      "stateMutability": "view",
      "type": "function"
    },
    {
      "inputs": [
        {
          "internalType": "address",
          "name": "_crowdtainer",
          "type": "address"
        },
        {
          "internalType": "uint256[]",
          "name": "_quantities",
          "type": "uint256[]"
        }
      ],
      "name": "join",
      "outputs": [
        {
          "internalType": "uint256",
          "name": "",
          "type": "uint256"
        }
      ],
      "stateMutability": "nonpayable",
      "type": "function"
    },
    {
      "inputs": [
        {
          "internalType": "address",
          "name": "_crowdtainer",
          "type": "address"
        },
        {
          "internalType": "uint256[]",
          "name": "_quantities",
          "type": "uint256[]"
        },
        {
          "internalType": "bool",
          "name": "_enableReferral",
          "type": "bool"
        },
        {
          "internalType": "address",
          "name": "_referrer",
          "type": "address"
        }
      ],
      "name": "join",
      "outputs": [
        {
          "internalType": "uint256",
          "name": "",
          "type": "uint256"
        }
      ],
      "stateMutability": "nonpayable",
      "type": "function"
    },
    {
      "inputs": [
        {
          "internalType": "bytes",
          "name": "result",
          "type": "bytes"
        },
        {
          "internalType": "bytes",
          "name": "extraData",
          "type": "bytes"
        }
      ],
      "name": "joinWithSignature",
      "outputs": [
        {
          "internalType": "uint256",
          "name": "",
          "type": "uint256"
        }
      ],
      "stateMutability": "nonpayable",
      "type": "function"
    },
    {
      "inputs": [
        {
          "internalType": "uint256",
          "name": "_tokenId",
          "type": "uint256"
        }
      ],
      "name": "leave",
      "outputs": [],
      "stateMutability": "nonpayable",
      "type": "function"
    },
    {
      "inputs": [
        {
          "internalType": "uint256",
          "name": "",
          "type": "uint256"
        }
      ],
      "name": "metadataServiceForCrowdatinerId",
      "outputs": [
        {
          "internalType": "address",
          "name": "",
          "type": "address"
        }
      ],
      "stateMutability": "view",
      "type": "function"
    },
    {
      "inputs": [],
      "name": "name",
      "outputs": [
        {
          "internalType": "string",
          "name": "",
          "type": "string"
        }
      ],
      "stateMutability": "view",
      "type": "function"
    },
    {
      "inputs": [
        {
          "internalType": "uint256",
          "name": "tokenId",
          "type": "uint256"
        }
      ],
      "name": "ownerOf",
      "outputs": [
        {
          "internalType": "address",
          "name": "",
          "type": "address"
        }
      ],
      "stateMutability": "view",
      "type": "function"
    },
    {
      "inputs": [
        {
          "internalType": "uint256",
          "name": "",
          "type": "uint256"
        },
        {
          "internalType": "uint256",
          "name": "",
          "type": "uint256"
        }
      ],
      "name": "productDescription",
      "outputs": [
        {
          "internalType": "string",
          "name": "",
          "type": "string"
        }
      ],
      "stateMutability": "view",
      "type": "function"
    },
    {
      "inputs": [
        {
          "internalType": "address",
          "name": "from",
          "type": "address"
        },
        {
          "internalType": "address",
          "name": "to",
          "type": "address"
        },
        {
          "internalType": "uint256",
          "name": "tokenId",
          "type": "uint256"
        }
      ],
      "name": "safeTransferFrom",
      "outputs": [],
      "stateMutability": "nonpayable",
      "type": "function"
    },
    {
      "inputs": [
        {
          "internalType": "address",
          "name": "from",
          "type": "address"
        },
        {
          "internalType": "address",
          "name": "to",
          "type": "address"
        },
        {
          "internalType": "uint256",
          "name": "tokenId",
          "type": "uint256"
        },
        {
          "internalType": "bytes",
          "name": "data",
          "type": "bytes"
        }
      ],
      "name": "safeTransferFrom",
      "outputs": [],
      "stateMutability": "nonpayable",
      "type": "function"
    },
    {
      "inputs": [
        {
          "internalType": "address",
          "name": "operator",
          "type": "address"
        },
        {
          "internalType": "bool",
          "name": "approved",
          "type": "bool"
        }
      ],
      "name": "setApprovalForAll",
      "outputs": [],
      "stateMutability": "nonpayable",
      "type": "function"
    },
    {
      "inputs": [
        {
          "internalType": "uint256",
          "name": "_tokenId",
          "type": "uint256"
        },
        {
          "internalType": "bool",
          "name": "_value",
          "type": "bool"
        }
      ],
      "name": "setClaimStatus",
      "outputs": [],
      "stateMutability": "nonpayable",
      "type": "function"
    },
    {
      "inputs": [
        {
          "internalType": "bytes4",
          "name": "interfaceId",
          "type": "bytes4"
        }
      ],
      "name": "supportsInterface",
      "outputs": [
        {
          "internalType": "bool",
          "name": "",
          "type": "bool"
        }
      ],
      "stateMutability": "view",
      "type": "function"
    },
    {
      "inputs": [],
      "name": "symbol",
      "outputs": [
        {
          "internalType": "string",
          "name": "",
          "type": "string"
        }
      ],
      "stateMutability": "view",
      "type": "function"
    },
    {
      "inputs": [
        {
          "internalType": "uint256",
          "name": "index",
          "type": "uint256"
        }
      ],
      "name": "tokenByIndex",
      "outputs": [
        {
          "internalType": "uint256",
          "name": "",
          "type": "uint256"
        }
      ],
      "stateMutability": "view",
      "type": "function"
    },
    {
      "inputs": [
        {
          "internalType": "uint256",
          "name": "",
          "type": "uint256"
        },
        {
          "internalType": "uint256",
          "name": "",
          "type": "uint256"
        }
      ],
      "name": "tokenIdQuantities",
      "outputs": [
        {
          "internalType": "uint256",
          "name": "",
          "type": "uint256"
        }
      ],
      "stateMutability": "view",
      "type": "function"
    },
    {
      "inputs": [
        {
          "internalType": "uint256",
          "name": "_tokenId",
          "type": "uint256"
        }
      ],
      "name": "tokenIdToCrowdtainerId",
      "outputs": [
        {
          "internalType": "uint256",
          "name": "",
          "type": "uint256"
        }
      ],
      "stateMutability": "pure",
      "type": "function"
    },
    {
      "inputs": [
        {
          "internalType": "address",
          "name": "owner",
          "type": "address"
        },
        {
          "internalType": "uint256",
          "name": "index",
          "type": "uint256"
        }
      ],
      "name": "tokenOfOwnerByIndex",
      "outputs": [
        {
          "internalType": "uint256",
          "name": "",
          "type": "uint256"
        }
      ],
      "stateMutability": "view",
      "type": "function"
    },
    {
      "inputs": [
        {
          "internalType": "uint256",
          "name": "_tokenId",
          "type": "uint256"
        }
      ],
      "name": "tokenURI",
      "outputs": [
        {
          "internalType": "string",
          "name": "",
          "type": "string"
        }
      ],
      "stateMutability": "view",
      "type": "function"
    },
    {
      "inputs": [],
      "name": "totalSupply",
      "outputs": [
        {
          "internalType": "uint256",
          "name": "",
          "type": "uint256"
        }
      ],
      "stateMutability": "view",
      "type": "function"
    },
    {
      "inputs": [
        {
          "internalType": "address",
          "name": "from",
          "type": "address"
        },
        {
          "internalType": "address",
          "name": "to",
          "type": "address"
        },
        {
          "internalType": "uint256",
          "name": "tokenId",
          "type": "uint256"
        }
      ],
      "name": "transferFrom",
      "outputs": [],
      "stateMutability": "nonpayable",
      "type": "function"
    }
  ],
  "bytecode": {
    "object": "0x60a06040523480156200001157600080fd5b5060405162005762380380620057628339810160408190526200003491620000d6565b6040518060400160405280600b81526020016a566f75636865727337323160a81b8152506040518060400160405280600381526020016256563160e81b8152508160009081620000859190620001ad565b506001620000948282620001ad565b5050506001600160a01b03811660805260405130907fdd7bf9deccc329033ee50f9e925f9bf2a608eac8950906d19cb2ed39ec61cf3690600090a25062000279565b600060208284031215620000e957600080fd5b81516001600160a01b03811681146200010157600080fd5b9392505050565b634e487b7160e01b600052604160045260246000fd5b600181811c908216806200013357607f821691505b6020821081036200015457634e487b7160e01b600052602260045260246000fd5b50919050565b601f821115620001a857600081815260208120601f850160051c81016020861015620001835750805b601f850160051c820191505b81811015620001a4578281556001016200018f565b5050505b505050565b81516001600160401b03811115620001c957620001c962000108565b620001e181620001da84546200011e565b846200015a565b602080601f831160018114620002195760008415620002005750858301515b600019600386901b1c1916600185901b178555620001a4565b600085815260208120601f198616915b828110156200024a5788860151825594840194600190910190840162000229565b5085821015620002695787850151600019600388901b60f8161c191681555b5050505050600190811b01905550565b6080516154cd62000295600039600061090301526154cd6000f3fe608060405234801561001057600080fd5b50600436106102265760003560e01c80636df0c83a1161012a578063b88d4fde116100bd578063cbe807121161008c578063db5a0e8311610071578063db5a0e8314610559578063e985e9c51461056c578063edf00638146105b557600080fd5b8063cbe807121461052f578063da5815321461053857600080fd5b8063b88d4fde146104c9578063c87b56dd146104dc578063c91539bc146104ef578063ca6d45ca146104f957600080fd5b8063a22cb465116100f9578063a22cb4651461045a578063a25a7d3b1461046d578063a3b9871a14610480578063b50223431461049357600080fd5b80636df0c83a1461040c57806370a082311461042c5780637169d23b1461043f57806395d89b411461045257600080fd5b806323b872dd116101bd57806342842e0e1161018c578063566a2cc211610171578063566a2cc2146103d35780636352211e146103e657806367dfd4c9146103f957600080fd5b806342842e0e146103ad5780634f6ccce7146103c057600080fd5b806323b872dd146103615780632f745c5914610374578063351a41c51461038757806336dbd2f91461039a57600080fd5b80630b82a21c116101f95780630b82a21c146102b55780630cfd7fd6146102d657806318160ddd146103155780631ed113ae1461031d57600080fd5b806301ffc9a71461022b57806306fdde0314610253578063081812fc14610268578063095ea7b3146102a0575b600080fd5b61023e610239366004613f97565b6105c8565b60405190151581526020015b60405180910390f35b61025b610624565b60405161024a9190614022565b61027b610276366004614035565b6106b6565b60405173ffffffffffffffffffffffffffffffffffffffff909116815260200161024a565b6102b36102ae36600461407b565b6106ea565b005b6102c86102c33660046140a7565b61087b565b60405190815260200161024a565b6102e96102e43660046141ef565b6108ac565b6040805173ffffffffffffffffffffffffffffffffffffffff909316835260208301919091520161024a565b6008546102c8565b61033061032b366004614334565b610ae0565b6040517fffffffff00000000000000000000000000000000000000000000000000000000909116815260200161024a565b6102b361036f366004614376565b610b0e565b6102c861038236600461407b565b610baf565b61027b610395366004614035565b610c7e565b61023e6103a8366004614035565b610cda565b6102b36103bb366004614376565b610cfd565b6102c86103ce366004614035565b610d18565b6102c86103e13660046143b7565b610dd6565b61027b6103f4366004614035565b611248565b6102b3610407366004614035565b6112d4565b6102c861041a366004614423565b600e6020526000908152604090205481565b6102c861043a366004614423565b61172c565b61025b61044d3660046140a7565b6117fa565b61025b6118b3565b6102b361046836600461444e565b6118c2565b6102c861047b3660046144cc565b6118cd565b6102b361048e366004614521565b6118dd565b61027b6104a1366004614035565b600d6020526000908152604090205473ffffffffffffffffffffffffffffffffffffffff1681565b6102b36104d7366004614566565b6119c7565b61025b6104ea366004614035565b611a6f565b6102c8620f424081565b61027b610507366004614035565b600f6020526000908152604090205473ffffffffffffffffffffffffffffffffffffffff1681565b6102c8600c5481565b61054b610546366004614334565b611ec5565b60405161024a92919061461b565b6102c8610567366004614035565b611eee565b61023e61057a36600461462f565b73ffffffffffffffffffffffffffffffffffffffff918216600090815260056020908152604080832093909416825291909152205460ff1690565b6102c86105c336600461465d565b611f3a565b60007fffffffff0000000000000000000000000000000000000000000000000000000082167f780e9d6300000000000000000000000000000000000000000000000000000000148061061e575061061e82612120565b92915050565b606060008054610633906146da565b80601f016020809104026020016040519081016040528092919081815260200182805461065f906146da565b80156106ac5780601f10610681576101008083540402835291602001916106ac565b820191906000526020600020905b81548152906001019060200180831161068f57829003601f168201915b5050505050905090565b60006106c182612203565b5060009081526004602052604090205473ffffffffffffffffffffffffffffffffffffffff1690565b60006106f582611248565b90508073ffffffffffffffffffffffffffffffffffffffff168373ffffffffffffffffffffffffffffffffffffffff16036107b7576040517f08c379a000000000000000000000000000000000000000000000000000000000815260206004820152602160248201527f4552433732313a20617070726f76616c20746f2063757272656e74206f776e6560448201527f720000000000000000000000000000000000000000000000000000000000000060648201526084015b60405180910390fd5b3373ffffffffffffffffffffffffffffffffffffffff821614806107e057506107e0813361057a565b61086c576040517f08c379a000000000000000000000000000000000000000000000000000000000815260206004820152603e60248201527f4552433732313a20617070726f76652063616c6c6572206973206e6f7420746f60448201527f6b656e206f776e6572206e6f7220617070726f76656420666f7220616c6c000060648201526084016107ae565b6108768383612291565b505050565b6010602052816000526040600020818154811061089757600080fd5b90600052602060002001600091509150505481565b60008073ffffffffffffffffffffffffffffffffffffffff83166108fc576040517f9ccb6ed000000000000000000000000000000000000000000000000000000000815260040160405180910390fd5b60006109277f0000000000000000000000000000000000000000000000000000000000000000612331565b6040517f6f9d99d900000000000000000000000000000000000000000000000000000000815290915073ffffffffffffffffffffffffffffffffffffffff821690636f9d99d99061097e9030908a90600401614843565b600060405180830381600087803b15801561099857600080fd5b505af11580156109ac573d6000803e3d6000fd5b50505050600c600081546109bf906149cc565b918290555073ffffffffffffffffffffffffffffffffffffffff82166000818152600e6020908152604080832094909455600c80548352600d825284832080547fffffffffffffffffffffffff0000000000000000000000000000000000000000169094179093559154815260118252919091208651610a4192880190613e07565b50600c80546000908152600f602090815260409182902080547fffffffffffffffffffffffff00000000000000000000000000000000000000001673ffffffffffffffffffffffffffffffffffffffff8981169190911790915592549151918252918316917f19d6f90297684f8b888bfdd40dece239ff62def4dd8aedd00245b6c846853b97910160405180910390a2600c5490969095509350505050565b60006004821015610af057600080fd5b610afe600460008486614a04565b610b0791614a2e565b9392505050565b610b183382612413565b610ba4576040517f08c379a000000000000000000000000000000000000000000000000000000000815260206004820152602e60248201527f4552433732313a2063616c6c6572206973206e6f7420746f6b656e206f776e6560448201527f72206e6f7220617070726f76656400000000000000000000000000000000000060648201526084016107ae565b6108768383836124d2565b6000610bba8361172c565b8210610c48576040517f08c379a000000000000000000000000000000000000000000000000000000000815260206004820152602b60248201527f455243373231456e756d657261626c653a206f776e657220696e646578206f7560448201527f74206f6620626f756e647300000000000000000000000000000000000000000060648201526084016107ae565b5073ffffffffffffffffffffffffffffffffffffffff919091166000908152600660209081526040808320938352929052205490565b6000818152600d602052604081205473ffffffffffffffffffffffffffffffffffffffff168061061e576040517fba3f1ed100000000000000000000000000000000000000000000000000000000815260040160405180910390fd5b600881901c6000908152600a6020526040812054600160ff84161b16151561061e565b610876838383604051806020016040528060008152506119c7565b6000610d2360085490565b8210610db1576040517f08c379a000000000000000000000000000000000000000000000000000000000815260206004820152602c60248201527f455243373231456e756d657261626c653a20676c6f62616c20696e646578206f60448201527f7574206f6620626f756e6473000000000000000000000000000000000000000060648201526084016107ae565b60088281548110610dc457610dc4614a76565b90600052602060002001549050919050565b6000808080610de785870187614aa5565b919450925090507fffffffff0000000000000000000000000000000000000000000000000000000082167f566a2cc20000000000000000000000000000000000000000000000000000000014610e3f57610e3f614b07565b60008082806020019051810190610e569190614b4c565b509193509150503373ffffffffffffffffffffffffffffffffffffffff831614610eca576040517f50a5f40500000000000000000000000000000000000000000000000000000000815273ffffffffffffffffffffffffffffffffffffffff831660048201523360248201526044016107ae565b73ffffffffffffffffffffffffffffffffffffffff8516610eed57610eed614b07565b73ffffffffffffffffffffffffffffffffffffffff85166000908152600e602052604081205490819003610f4d576040517fba3f1ed100000000000000000000000000000000000000000000000000000000815260040160405180910390fd5b60008673ffffffffffffffffffffffffffffffffffffffff163b11610f7457610f74614b07565b6040517faab1e47b00000000000000000000000000000000000000000000000000000000815273ffffffffffffffffffffffffffffffffffffffff84811660048301526000919088169063aab1e47b90602401602060405180830381865afa158015610fe4573d6000803e3d6000fd5b505050506040513d601f19601f820116820180604052508101906110089190614c15565b6040517f566a2cc200000000000000000000000000000000000000000000000000000000815290915073ffffffffffffffffffffffffffffffffffffffff88169063566a2cc290611061908f908f908a90600401614c2e565b600060405180830381600087803b15801561107b57600080fd5b505af192505050801561108c575060015b6110d0573d8080156110ba576040519150601f19603f3d011682016040523d82523d6000602084013e6110bf565b606091505b506110ca8882612744565b5061116d565b6040517faab1e47b00000000000000000000000000000000000000000000000000000000815273ffffffffffffffffffffffffffffffffffffffff858116600483015282919089169063aab1e47b90602401602060405180830381865afa15801561113f573d6000803e3d6000fd5b505050506040513d601f19601f820116820180604052508101906111639190614c15565b1161116d57600080fd5b6000828152600b6020526040812080548290611188906149cc565b91829055509050620f424081106111ec576040517f1495c920000000000000000000000000000000000000000000000000000000008152620f4240600482015273ffffffffffffffffffffffffffffffffffffffff891660248201526044016107ae565b6000816111fc85620f4240614c5e565b6112069190614c9b565b6000818152601060209081526040909120875192935061122a929091880190613e5d565b5061123586826131b6565b985050505050505050505b949350505050565b60008181526002602052604081205473ffffffffffffffffffffffffffffffffffffffff168061061e576040517f08c379a000000000000000000000000000000000000000000000000000000000815260206004820152601860248201527f4552433732313a20696e76616c696420746f6b656e204944000000000000000060448201526064016107ae565b336112de82611248565b73ffffffffffffffffffffffffffffffffffffffff161461132b576040517f9d6cfcf900000000000000000000000000000000000000000000000000000000815260040160405180910390fd5b600061133961039583611eee565b6040517fbedf77a600000000000000000000000000000000000000000000000000000000815233600482015290915073ffffffffffffffffffffffffffffffffffffffff82169063bedf77a690602401600060405180830381600087803b1580156113a357600080fd5b505af19250505080156113b4575060015b611670573d8080156113e2576040519150601f19603f3d011682016040523d82523d6000602084013e6113e7565b606091505b506040517f1ed113ae0000000000000000000000000000000000000000000000000000000081526000903090631ed113ae90611427908590600401614022565b602060405180830381865afa158015611444573d6000803e3d6000fd5b505050506040513d601f19601f820116820180604052508101906114689190614cb9565b90507f2d8c8dda000000000000000000000000000000000000000000000000000000007fffffffff000000000000000000000000000000000000000000000000000000008216016114e5576040517fd273722600000000000000000000000000000000000000000000000000000000815260040160405180910390fd5b7faf5a0bfb000000000000000000000000000000000000000000000000000000007fffffffff0000000000000000000000000000000000000000000000000000000082160161163c576040517fda5815320000000000000000000000000000000000000000000000000000000081526000908190309063da5815329061156f908790600401614022565b600060405180830381865afa15801561158c573d6000803e3d6000fd5b505050506040513d6000823e601f3d9081017fffffffffffffffffffffffffffffffffffffffffffffffffffffffffffffffe01682016040526115d29190810190614d1b565b8060200190518101906115e59190614d50565b6040517f50a5f40500000000000000000000000000000000000000000000000000000000815273ffffffffffffffffffffffffffffffffffffffff80841660048301528216602482015291935091506044016107ae565b816040517ff4de152a0000000000000000000000000000000000000000000000000000000081526004016107ae9190614022565b6040517faab1e47b00000000000000000000000000000000000000000000000000000000815233600482015273ffffffffffffffffffffffffffffffffffffffff82169063aab1e47b90602401602060405180830381865afa1580156116da573d6000803e3d6000fd5b505050506040513d601f19601f820116820180604052508101906116fe9190614c15565b1561170857600080fd5b600082815260106020526040812061171f91613ea4565b611728826131d0565b5050565b600073ffffffffffffffffffffffffffffffffffffffff82166117d1576040517f08c379a000000000000000000000000000000000000000000000000000000000815260206004820152602960248201527f4552433732313a2061646472657373207a65726f206973206e6f74206120766160448201527f6c6964206f776e6572000000000000000000000000000000000000000000000060648201526084016107ae565b5073ffffffffffffffffffffffffffffffffffffffff1660009081526003602052604090205490565b6011602052816000526040600020818154811061181657600080fd5b90600052602060002001600091509150508054611832906146da565b80601f016020809104026020016040519081016040528092919081815260200182805461185e906146da565b80156118ab5780601f10611880576101008083540402835291602001916118ab565b820191906000526020600020905b81548152906001019060200180831161188e57829003601f168201915b505050505081565b606060018054610633906146da565b6117283383836132a9565b6000611240848484600080611f3a565b60006118eb61039584611eee565b9050600081905060008173ffffffffffffffffffffffffffffffffffffffff1663cf0840566040518163ffffffff1660e01b8152600401602060405180830381865afa15801561193f573d6000803e3d6000fd5b505050506040513d601f19601f820116820180604052508101906119639190614d7f565b90503373ffffffffffffffffffffffffffffffffffffffff8216146119b4576040517f3944c6d200000000000000000000000000000000000000000000000000000000815260040160405180910390fd5b6119c0600a86866133d6565b5050505050565b6119d13383612413565b611a5d576040517f08c379a000000000000000000000000000000000000000000000000000000000815260206004820152602e60248201527f4552433732313a2063616c6c6572206973206e6f7420746f6b656e206f776e6560448201527f72206e6f7220617070726f76656400000000000000000000000000000000000060648201526084016107ae565b611a6984848484613425565b50505050565b60606000611a7c83611eee565b90506000611a8982610c7e565b9050600081905060008173ffffffffffffffffffffffffffffffffffffffff1663c66301b26040518163ffffffff1660e01b8152600401602060405180830381865afa158015611add573d6000803e3d6000fd5b505050506040513d601f19601f82011682018060405250810190611b019190614c15565b905060008167ffffffffffffffff811115611b1e57611b1e6140c9565b604051908082528060200260200182016040528015611b47578160200160208202803683370190505b50905060005b82811015611c13576040517f1e1b25730000000000000000000000000000000000000000000000000000000081526004810182905273ffffffffffffffffffffffffffffffffffffffff851690631e1b257390602401602060405180830381865afa158015611bc0573d6000803e3d6000fd5b505050506040513d601f19601f82011682018060405250810190611be49190614c15565b828281518110611bf657611bf6614a76565b602090810291909101015280611c0b816149cc565b915050611b4d565b506000858152600f60209081526040808320548151610100810190925288825273ffffffffffffffffffffffffffffffffffffffff1692918101620f4240611c5a8c611eee565b611c649190614c5e565b611c6e908c614d9c565b8152602001611c7c8b611248565b73ffffffffffffffffffffffffffffffffffffffff168152602001611ca08b610cda565b15158152602001848152602001601060008c8152602001908152602001600020805480602002602001604051908101604052809291908181526020018280548015611d0a57602002820191906000526020600020905b815481526020019060010190808311611cf6575b50505050508152602001601160008a8152602001908152602001600020805480602002602001604051908101604052809291908181526020016000905b82821015611df3578382906000526020600020018054611d66906146da565b80601f0160208091040260200160405190810160405280929190818152602001828054611d92906146da565b8015611ddf5780601f10611db457610100808354040283529160200191611ddf565b820191906000526020600020905b815481529060010190602001808311611dc257829003601f168201915b505050505081526020019060010190611d47565b505050908252506020018590526040517f7f3ecd4800000000000000000000000000000000000000000000000000000000815290915073ffffffffffffffffffffffffffffffffffffffff831690637f3ecd4890611e55908490600401614e3f565b600060405180830381865afa158015611e72573d6000803e3d6000fd5b505050506040513d6000823e601f3d9081017fffffffffffffffffffffffffffffffffffffffffffffffffffffffffffffffe0168201604052611eb89190810190614d1b565b9998505050505050505050565b36600060048311611ed557600080fd5b611ee28360048187614a04565b915091505b9250929050565b600081600003611f2d576040517fed15e6cf000000000000000000000000000000000000000000000000000000008152600481018390526024016107ae565b61061e620f424083614f19565b73ffffffffffffffffffffffffffffffffffffffff85166000908152600e6020526040812054808203611f99576040517fba3f1ed100000000000000000000000000000000000000000000000000000000815260040160405180910390fd5b6040517fedf00638000000000000000000000000000000000000000000000000000000008152879073ffffffffffffffffffffffffffffffffffffffff82169063edf0063890611ff59033908b908b908b908b90600401614f54565b600060405180830381600087803b15801561200f57600080fd5b505af1925050508015612020575060015b612060573d80801561204e576040519150601f19603f3d011682016040523d82523d6000602084013e612053565b606091505b5061205e8982612744565b505b6000828152600b602052604081208054829061207b906149cc565b91829055509050620f424081106120df576040517f1495c920000000000000000000000000000000000000000000000000000000008152620f4240600482015273ffffffffffffffffffffffffffffffffffffffff8a1660248201526044016107ae565b6000816120ef85620f4240614c5e565b6120f99190614c9b565b6000818152601060205260409020909150612115908a8a613ec2565b50611eb833826131b6565b60007fffffffff0000000000000000000000000000000000000000000000000000000082167f80ac58cd0000000000000000000000000000000000000000000000000000000014806121b357507fffffffff0000000000000000000000000000000000000000000000000000000082167f5b5e139f00000000000000000000000000000000000000000000000000000000145b8061061e57507f01ffc9a7000000000000000000000000000000000000000000000000000000007fffffffff0000000000000000000000000000000000000000000000000000000083161461061e565b60008181526002602052604090205473ffffffffffffffffffffffffffffffffffffffff1661228e576040517f08c379a000000000000000000000000000000000000000000000000000000000815260206004820152601860248201527f4552433732313a20696e76616c696420746f6b656e204944000000000000000060448201526064016107ae565b50565b600081815260046020526040902080547fffffffffffffffffffffffff00000000000000000000000000000000000000001673ffffffffffffffffffffffffffffffffffffffff841690811790915581906122eb82611248565b73ffffffffffffffffffffffffffffffffffffffff167f8c5be1e5ebec7d5bd14f71427d1e84f3dd0314c0f7b2291e5b200ac8c7c3b92560405160405180910390a45050565b60006040517f3d602d80600a3d3981f3363d3d373d3d3d363d7300000000000000000000000081528260601b60148201527f5af43d82803e903d91602b57fd5bf3000000000000000000000000000000000060288201526037816000f091505073ffffffffffffffffffffffffffffffffffffffff811661240e576040517f08c379a000000000000000000000000000000000000000000000000000000000815260206004820152601660248201527f455243313136373a20637265617465206661696c65640000000000000000000060448201526064016107ae565b919050565b60008061241f83611248565b90508073ffffffffffffffffffffffffffffffffffffffff168473ffffffffffffffffffffffffffffffffffffffff16148061248d575073ffffffffffffffffffffffffffffffffffffffff80821660009081526005602090815260408083209388168352929052205460ff165b8061124057508373ffffffffffffffffffffffffffffffffffffffff166124b3846106b6565b73ffffffffffffffffffffffffffffffffffffffff1614949350505050565b8273ffffffffffffffffffffffffffffffffffffffff166124f282611248565b73ffffffffffffffffffffffffffffffffffffffff1614612595576040517f08c379a000000000000000000000000000000000000000000000000000000000815260206004820152602560248201527f4552433732313a207472616e736665722066726f6d20696e636f72726563742060448201527f6f776e657200000000000000000000000000000000000000000000000000000060648201526084016107ae565b73ffffffffffffffffffffffffffffffffffffffff8216612637576040517f08c379a0000000000000000000000000000000000000000000000000000000008152602060048201526024808201527f4552433732313a207472616e7366657220746f20746865207a65726f2061646460448201527f726573730000000000000000000000000000000000000000000000000000000060648201526084016107ae565b6126428383836134c8565b61264d600082612291565b73ffffffffffffffffffffffffffffffffffffffff83166000908152600360205260408120805460019290612683908490614d9c565b909155505073ffffffffffffffffffffffffffffffffffffffff821660009081526003602052604081208054600192906126be908490614c9b565b909155505060008181526002602052604080822080547fffffffffffffffffffffffff00000000000000000000000000000000000000001673ffffffffffffffffffffffffffffffffffffffff86811691821790925591518493918716917fddf252ad1be2c89b69c2b068fc378daa952ba7f163c4a11628f55a4df523b3ef91a4505050565b6040517f1ed113ae0000000000000000000000000000000000000000000000000000000081526000903090631ed113ae90612783908590600401614022565b602060405180830381865afa1580156127a0573d6000803e3d6000fd5b505050506040513d601f19601f820116820180604052508101906127c49190614cb9565b90507faa90e7d0000000000000000000000000000000000000000000000000000000007fffffffff000000000000000000000000000000000000000000000000000000008216016129b75760008060008060003073ffffffffffffffffffffffffffffffffffffffff1663da581532886040518263ffffffff1660e01b81526004016128509190614022565b600060405180830381865afa15801561286d573d6000803e3d6000fd5b505050506040513d6000823e601f3d9081017fffffffffffffffffffffffffffffffffffffffffffffffffffffffffffffffe01682016040526128b39190810190614d1b565b8060200190518101906128c69190614f9f565b945094509450945094508773ffffffffffffffffffffffffffffffffffffffff168573ffffffffffffffffffffffffffffffffffffffff1614612935576040517fcdd3140600000000000000000000000000000000000000000000000000000000815260040160405180910390fd5b30848463566a2cc260e01b8b8686604051602001612955939291906150c0565b604080517fffffffffffffffffffffffffffffffffffffffffffffffffffffffffffffffe0818403018152908290527f556f18300000000000000000000000000000000000000000000000000000000082526107ae9594939291600401615120565b7f9652ec60000000000000000000000000000000000000000000000000000000007fffffffff00000000000000000000000000000000000000000000000000000000821601612b02576040517fda5815320000000000000000000000000000000000000000000000000000000081526000908190309063da58153290612a41908790600401614022565b600060405180830381865afa158015612a5e573d6000803e3d6000fd5b505050506040513d6000823e601f3d9081017fffffffffffffffffffffffffffffffffffffffffffffffffffffffffffffffe0168201604052612aa49190810190614d1b565b806020019051810190612ab791906151c1565b6040517f69ad13a000000000000000000000000000000000000000000000000000000000815267ffffffffffffffff80841660048301528216602482015291935091506044016107ae565b7faf5a0bfb000000000000000000000000000000000000000000000000000000007fffffffff00000000000000000000000000000000000000000000000000000000821601612b8c576040517fda5815320000000000000000000000000000000000000000000000000000000081526000908190309063da5815329061156f908790600401614022565b7f4f181085000000000000000000000000000000000000000000000000000000007fffffffff00000000000000000000000000000000000000000000000000000000821601612c07576040517fb0e7ef7b00000000000000000000000000000000000000000000000000000000815260040160405180910390fd5b7f7850816d000000000000000000000000000000000000000000000000000000007fffffffff00000000000000000000000000000000000000000000000000000000821601612c82576040517f87af7e9300000000000000000000000000000000000000000000000000000000815260040160405180910390fd5b7faa0409ff000000000000000000000000000000000000000000000000000000007fffffffff00000000000000000000000000000000000000000000000000000000821601612cfd576040517f55fbf60100000000000000000000000000000000000000000000000000000000815260040160405180910390fd5b7f5262fb44000000000000000000000000000000000000000000000000000000007fffffffff00000000000000000000000000000000000000000000000000000000821601612e3e576040517fda5815320000000000000000000000000000000000000000000000000000000081526000908190309063da58153290612d87908790600401614022565b600060405180830381865afa158015612da4573d6000803e3d6000fd5b505050506040513d6000823e601f3d9081017fffffffffffffffffffffffffffffffffffffffffffffffffffffffffffffffe0168201604052612dea9190810190614d1b565b806020019051810190612dfd91906151f4565b6040517fad9d04bc000000000000000000000000000000000000000000000000000000008152600481018390526024810182905291935091506044016107ae565b7fc0da8dcd000000000000000000000000000000000000000000000000000000007fffffffff00000000000000000000000000000000000000000000000000000000821601612f7f576040517fda5815320000000000000000000000000000000000000000000000000000000081526000908190309063da58153290612ec8908790600401614022565b600060405180830381865afa158015612ee5573d6000803e3d6000fd5b505050506040513d6000823e601f3d9081017fffffffffffffffffffffffffffffffffffffffffffffffffffffffffffffffe0168201604052612f2b9190810190614d1b565b806020019051810190612f3e91906151f4565b6040517f3f257233000000000000000000000000000000000000000000000000000000008152600481018390526024810182905291935091506044016107ae565b7f0ba2bc41000000000000000000000000000000000000000000000000000000007fffffffff00000000000000000000000000000000000000000000000000000000821601612ffa576040517ff45d43bf00000000000000000000000000000000000000000000000000000000815260040160405180910390fd5b7f28bff90c000000000000000000000000000000000000000000000000000000007fffffffff00000000000000000000000000000000000000000000000000000000821601613075576040517fd74006f400000000000000000000000000000000000000000000000000000000815260040160405180910390fd5b7f99cc706a000000000000000000000000000000000000000000000000000000007fffffffff0000000000000000000000000000000000000000000000000000000082160161163c576040517fda5815320000000000000000000000000000000000000000000000000000000081526000908190309063da581532906130ff908790600401614022565b600060405180830381865afa15801561311c573d6000803e3d6000fd5b505050506040513d6000823e601f3d9081017fffffffffffffffffffffffffffffffffffffffffffffffffffffffffffffffe01682016040526131629190810190614d1b565b80602001905181019061317591906151f4565b6040517f66338f96000000000000000000000000000000000000000000000000000000008152600481018390526024810182905291935091506044016107ae565b6117288282604051806020016040528060008152506136e9565b60006131db82611248565b90506131e9816000846134c8565b6131f4600083612291565b73ffffffffffffffffffffffffffffffffffffffff8116600090815260036020526040812080546001929061322a908490614d9c565b909155505060008281526002602052604080822080547fffffffffffffffffffffffff00000000000000000000000000000000000000001690555183919073ffffffffffffffffffffffffffffffffffffffff8416907fddf252ad1be2c89b69c2b068fc378daa952ba7f163c4a11628f55a4df523b3ef908390a45050565b8173ffffffffffffffffffffffffffffffffffffffff168373ffffffffffffffffffffffffffffffffffffffff160361333e576040517f08c379a000000000000000000000000000000000000000000000000000000000815260206004820152601960248201527f4552433732313a20617070726f766520746f2063616c6c65720000000000000060448201526064016107ae565b73ffffffffffffffffffffffffffffffffffffffff83811660008181526005602090815260408083209487168084529482529182902080547fffffffffffffffffffffffffffffffffffffffffffffffffffffffffffffff001686151590811790915591519182527f17307eab39ab6107e8899845ad3d59bd9653f200f220920489ca2b5937696c31910160405180910390a3505050565b801561340057600882901c60009081526020849052604090208054600160ff85161b179055505050565b600882901c60009081526020849052604090208054600160ff85161b19169055505050565b6134308484846124d2565b61343c8484848461378c565b611a69576040517f08c379a000000000000000000000000000000000000000000000000000000000815260206004820152603260248201527f4552433732313a207472616e7366657220746f206e6f6e20455243373231526560448201527f63656976657220696d706c656d656e746572000000000000000000000000000060648201526084016107ae565b6134d383838361397c565b600073ffffffffffffffffffffffffffffffffffffffff8416158061350c575073ffffffffffffffffffffffffffffffffffffffff8316155b9050801561351a5750505050565b600061352861039584611eee565b90508060018173ffffffffffffffffffffffffffffffffffffffff16637855d30c6040518163ffffffff1660e01b8152600401602060405180830381865afa158015613578573d6000803e3d6000fd5b505050506040513d601f19601f8201168201806040525081019061359c9190615247565b60038111156135ad576135ad615218565b1480613638575060008173ffffffffffffffffffffffffffffffffffffffff16637855d30c6040518163ffffffff1660e01b8152600401602060405180830381865afa158015613601573d6000803e3d6000fd5b505050506040513d601f19601f820116820180604052508101906136259190615247565b600381111561363657613636615218565b145b156136e157808173ffffffffffffffffffffffffffffffffffffffff16637855d30c6040518163ffffffff1660e01b8152600401602060405180830381865afa158015613689573d6000803e3d6000fd5b505050506040513d601f19601f820116820180604052508101906136ad9190615247565b6040517fe0bf90300000000000000000000000000000000000000000000000000000000081526004016107ae929190615268565b505050505050565b6136f38383613a82565b613700600084848461378c565b610876576040517f08c379a000000000000000000000000000000000000000000000000000000000815260206004820152603260248201527f4552433732313a207472616e7366657220746f206e6f6e20455243373231526560448201527f63656976657220696d706c656d656e746572000000000000000000000000000060648201526084016107ae565b600073ffffffffffffffffffffffffffffffffffffffff84163b15613974576040517f150b7a0200000000000000000000000000000000000000000000000000000000815273ffffffffffffffffffffffffffffffffffffffff85169063150b7a02906138039033908990889088906004016152c9565b6020604051808303816000875af192505050801561385c575060408051601f3d9081017fffffffffffffffffffffffffffffffffffffffffffffffffffffffffffffffe016820190925261385991810190614cb9565b60015b613929573d80801561388a576040519150601f19603f3d011682016040523d82523d6000602084013e61388f565b606091505b508051600003613921576040517f08c379a000000000000000000000000000000000000000000000000000000000815260206004820152603260248201527f4552433732313a207472616e7366657220746f206e6f6e20455243373231526560448201527f63656976657220696d706c656d656e746572000000000000000000000000000060648201526084016107ae565b805181602001fd5b7fffffffff00000000000000000000000000000000000000000000000000000000167f150b7a0200000000000000000000000000000000000000000000000000000000149050611240565b506001611240565b73ffffffffffffffffffffffffffffffffffffffff83166139e4576139df81600880546000838152600960205260408120829055600182018355919091527ff3f7a9fe364faab93b216da50a3214154f22a0a2b415b23a84c8169e8b636ee30155565b613a21565b8173ffffffffffffffffffffffffffffffffffffffff168373ffffffffffffffffffffffffffffffffffffffff1614613a2157613a218382613c50565b73ffffffffffffffffffffffffffffffffffffffff8216613a455761087681613d07565b8273ffffffffffffffffffffffffffffffffffffffff168273ffffffffffffffffffffffffffffffffffffffff1614610876576108768282613db6565b73ffffffffffffffffffffffffffffffffffffffff8216613aff576040517f08c379a000000000000000000000000000000000000000000000000000000000815260206004820181905260248201527f4552433732313a206d696e7420746f20746865207a65726f206164647265737360448201526064016107ae565b60008181526002602052604090205473ffffffffffffffffffffffffffffffffffffffff1615613b8b576040517f08c379a000000000000000000000000000000000000000000000000000000000815260206004820152601c60248201527f4552433732313a20746f6b656e20616c7265616479206d696e7465640000000060448201526064016107ae565b613b97600083836134c8565b73ffffffffffffffffffffffffffffffffffffffff82166000908152600360205260408120805460019290613bcd908490614c9b565b909155505060008181526002602052604080822080547fffffffffffffffffffffffff00000000000000000000000000000000000000001673ffffffffffffffffffffffffffffffffffffffff861690811790915590518392907fddf252ad1be2c89b69c2b068fc378daa952ba7f163c4a11628f55a4df523b3ef908290a45050565b60006001613c5d8461172c565b613c679190614d9c565b600083815260076020526040902054909150808214613cc75773ffffffffffffffffffffffffffffffffffffffff841660009081526006602090815260408083208584528252808320548484528184208190558352600790915290208190555b50600091825260076020908152604080842084905573ffffffffffffffffffffffffffffffffffffffff9094168352600681528383209183525290812055565b600854600090613d1990600190614d9c565b60008381526009602052604081205460088054939450909284908110613d4157613d41614a76565b906000526020600020015490508060088381548110613d6257613d62614a76565b6000918252602080832090910192909255828152600990915260408082208490558582528120556008805480613d9a57613d9a615308565b6001900381819060005260206000200160009055905550505050565b6000613dc18361172c565b73ffffffffffffffffffffffffffffffffffffffff9093166000908152600660209081526040808320868452825280832085905593825260079052919091209190915550565b828054828255906000526020600020908101928215613e4d579160200282015b82811115613e4d5782518290613e3d908261537d565b5091602001919060010190613e27565b50613e59929150613efd565b5090565b828054828255906000526020600020908101928215613e98579160200282015b82811115613e98578251825591602001919060010190613e7d565b50613e59929150613f1a565b508054600082559060005260206000209081019061228e9190613f1a565b828054828255906000526020600020908101928215613e98579160200282015b82811115613e98578235825591602001919060010190613ee2565b80821115613e59576000613f118282613f2f565b50600101613efd565b5b80821115613e595760008155600101613f1b565b508054613f3b906146da565b6000825580601f10613f4b575050565b601f01602090049060005260206000209081019061228e9190613f1a565b7fffffffff000000000000000000000000000000000000000000000000000000008116811461228e57600080fd5b600060208284031215613fa957600080fd5b8135610b0781613f69565b60005b83811015613fcf578181015183820152602001613fb7565b50506000910152565b60008151808452613ff0816020860160208601613fb4565b601f017fffffffffffffffffffffffffffffffffffffffffffffffffffffffffffffffe0169290920160200192915050565b602081526000610b076020830184613fd8565b60006020828403121561404757600080fd5b5035919050565b73ffffffffffffffffffffffffffffffffffffffff8116811461228e57600080fd5b803561240e8161404e565b6000806040838503121561408e57600080fd5b82356140998161404e565b946020939093013593505050565b600080604083850312156140ba57600080fd5b50508035926020909101359150565b7f4e487b7100000000000000000000000000000000000000000000000000000000600052604160045260246000fd5b604051601f82017fffffffffffffffffffffffffffffffffffffffffffffffffffffffffffffffe016810167ffffffffffffffff8111828210171561413f5761413f6140c9565b604052919050565b600067ffffffffffffffff821115614161576141616140c9565b5060051b60200190565b600067ffffffffffffffff821115614185576141856140c9565b50601f017fffffffffffffffffffffffffffffffffffffffffffffffffffffffffffffffe01660200190565b60006141c46141bf8461416b565b6140f8565b90508281528383830111156141d857600080fd5b828260208301376000602084830101529392505050565b60008060006060848603121561420457600080fd5b833567ffffffffffffffff8082111561421c57600080fd5b90850190610160828803121561423157600080fd5b909350602090858201358181111561424857600080fd5b8601601f8101881361425957600080fd5b80356142676141bf82614147565b81815260059190911b8201840190848101908a83111561428657600080fd5b8584015b838110156142d3578035868111156142a25760008081fd5b8501603f81018d136142b45760008081fd5b6142c58d89830135604084016141b1565b84525091860191860161428a565b508097505050505050506142e960408501614070565b90509250925092565b60008083601f84011261430457600080fd5b50813567ffffffffffffffff81111561431c57600080fd5b602083019150836020828501011115611ee757600080fd5b6000806020838503121561434757600080fd5b823567ffffffffffffffff81111561435e57600080fd5b61436a858286016142f2565b90969095509350505050565b60008060006060848603121561438b57600080fd5b83356143968161404e565b925060208401356143a68161404e565b929592945050506040919091013590565b600080600080604085870312156143cd57600080fd5b843567ffffffffffffffff808211156143e557600080fd5b6143f1888389016142f2565b9096509450602087013591508082111561440a57600080fd5b50614417878288016142f2565b95989497509550505050565b60006020828403121561443557600080fd5b8135610b078161404e565b801515811461228e57600080fd5b6000806040838503121561446157600080fd5b823561446c8161404e565b9150602083013561447c81614440565b809150509250929050565b60008083601f84011261449957600080fd5b50813567ffffffffffffffff8111156144b157600080fd5b6020830191508360208260051b8501011115611ee757600080fd5b6000806000604084860312156144e157600080fd5b83356144ec8161404e565b9250602084013567ffffffffffffffff81111561450857600080fd5b61451486828701614487565b9497909650939450505050565b6000806040838503121561453457600080fd5b82359150602083013561447c81614440565b600082601f83011261455757600080fd5b610b07838335602085016141b1565b6000806000806080858703121561457c57600080fd5b84356145878161404e565b935060208501356145978161404e565b925060408501359150606085013567ffffffffffffffff8111156145ba57600080fd5b6145c687828801614546565b91505092959194509250565b8183528181602085013750600060208284010152600060207fffffffffffffffffffffffffffffffffffffffffffffffffffffffffffffffe0601f840116840101905092915050565b6020815260006112406020830184866145d2565b6000806040838503121561464257600080fd5b823561464d8161404e565b9150602083013561447c8161404e565b60008060008060006080868803121561467557600080fd5b85356146808161404e565b9450602086013567ffffffffffffffff81111561469c57600080fd5b6146a888828901614487565b90955093505060408601356146bc81614440565b915060608601356146cc8161404e565b809150509295509295909350565b600181811c908216806146ee57607f821691505b602082108103614727577f4e487b7100000000000000000000000000000000000000000000000000000000600052602260045260246000fd5b50919050565b60008083357fffffffffffffffffffffffffffffffffffffffffffffffffffffffffffffffe184360301811261476257600080fd5b830160208101925035905067ffffffffffffffff81111561478257600080fd5b8060051b3603821315611ee757600080fd5b81835260007f07ffffffffffffffffffffffffffffffffffffffffffffffffffffffffffffff8311156147c657600080fd5b8260051b80836020870137939093016020019392505050565b60008083357fffffffffffffffffffffffffffffffffffffffffffffffffffffffffffffffe184360301811261481457600080fd5b830160208101925035905067ffffffffffffffff81111561483457600080fd5b803603821315611ee757600080fd5b73ffffffffffffffffffffffffffffffffffffffff831681526040602082015261488d6040820161487384614070565b73ffffffffffffffffffffffffffffffffffffffff169052565b600061489b60208401614070565b73ffffffffffffffffffffffffffffffffffffffff811660608401525060408301356080830152606083013560a0830152608083013560c083015260a083013560e08301526148ed60c084018461472d565b61016061010081818701526149076101a087018486614794565b9350610120925060e087013583870152610140818801358188015261492d848901614070565b73ffffffffffffffffffffffffffffffffffffffff8116888501529350614956818901896147df565b9450925050507fffffffffffffffffffffffffffffffffffffffffffffffffffffffffffffffc0858403016101808601526149928383836145d2565b979650505050505050565b7f4e487b7100000000000000000000000000000000000000000000000000000000600052601160045260246000fd5b60007fffffffffffffffffffffffffffffffffffffffffffffffffffffffffffffffff82036149fd576149fd61499d565b5060010190565b60008085851115614a1457600080fd5b83861115614a2157600080fd5b5050820193919092039150565b7fffffffff000000000000000000000000000000000000000000000000000000008135818116916004851015614a6e5780818660040360031b1b83161692505b505092915050565b7f4e487b7100000000000000000000000000000000000000000000000000000000600052603260045260246000fd5b600080600060608486031215614aba57600080fd5b8335614ac58161404e565b92506020840135614ad581613f69565b9150604084013567ffffffffffffffff811115614af157600080fd5b614afd86828701614546565b9150509250925092565b7f4e487b7100000000000000000000000000000000000000000000000000000000600052600160045260246000fd5b805161240e8161404e565b805161240e81614440565b60008060008060808587031215614b6257600080fd5b8451614b6d8161404e565b8094505060208086015167ffffffffffffffff811115614b8c57600080fd5b8601601f81018813614b9d57600080fd5b8051614bab6141bf82614147565b81815260059190911b8201830190838101908a831115614bca57600080fd5b928401925b82841015614be857835182529284019290840190614bcf565b8097505050505050614bfc60408601614b41565b9150614c0a60608601614b36565b905092959194509250565b600060208284031215614c2757600080fd5b5051919050565b604081526000614c426040830185876145d2565b8281036020840152614c548185613fd8565b9695505050505050565b6000817fffffffffffffffffffffffffffffffffffffffffffffffffffffffffffffffff0483118215151615614c9657614c9661499d565b500290565b8082018082111561061e5761061e61499d565b805161240e81613f69565b600060208284031215614ccb57600080fd5b8151610b0781613f69565b600082601f830112614ce757600080fd5b8151614cf56141bf8261416b565b818152846020838601011115614d0a57600080fd5b611240826020830160208701613fb4565b600060208284031215614d2d57600080fd5b815167ffffffffffffffff811115614d4457600080fd5b61124084828501614cd6565b60008060408385031215614d6357600080fd5b8251614d6e8161404e565b602084015190925061447c8161404e565b600060208284031215614d9157600080fd5b8151610b078161404e565b8181038181111561061e5761061e61499d565b600081518084526020808501945080840160005b83811015614ddf57815187529582019590820190600101614dc3565b509495945050505050565b600081518084526020808501808196508360051b8101915082860160005b85811015614e32578284038952614e20848351613fd8565b98850198935090840190600101614e08565b5091979650505050505050565b60208152815160208201526020820151604082015260006040830151614e7d606084018273ffffffffffffffffffffffffffffffffffffffff169052565b50606083015180151560808401525060808301516101008060a0850152614ea8610120850183614daf565b915060a08501517fffffffffffffffffffffffffffffffffffffffffffffffffffffffffffffffe0808685030160c0870152614ee48483614daf565b935060c08701519150808685030160e087015250614f028382614dea565b92505060e085015181850152508091505092915050565b600082614f4f577f4e487b7100000000000000000000000000000000000000000000000000000000600052601260045260246000fd5b500490565b600073ffffffffffffffffffffffffffffffffffffffff808816835260806020840152614f85608084018789614794565b941515604084015292909216606090910152509392505050565b600080600080600060a08688031215614fb757600080fd5b8551614fc28161404e565b8095505060208087015167ffffffffffffffff80821115614fe257600080fd5b818901915089601f830112614ff657600080fd5b81516150046141bf82614147565b81815260059190911b8301840190848101908c83111561502357600080fd5b8585015b8381101561505b5780518581111561503f5760008081fd5b61504d8f89838a0101614cd6565b845250918601918601615027565b5060408c0151909950945050508083111561507557600080fd5b6150818a848b01614cd6565b955061508f60608a01614cae565b945060808901519250808311156150a557600080fd5b50506150b388828901614cd6565b9150509295509295909350565b73ffffffffffffffffffffffffffffffffffffffff841681527fffffffff00000000000000000000000000000000000000000000000000000000831660208201526060604082015260006151176060830184613fd8565b95945050505050565b73ffffffffffffffffffffffffffffffffffffffff8616815260a06020820152600061514f60a0830187614dea565b82810360408401526151618187613fd8565b90507fffffffff0000000000000000000000000000000000000000000000000000000085166060840152828103608084015261519d8185613fd8565b98975050505050505050565b805167ffffffffffffffff8116811461240e57600080fd5b600080604083850312156151d457600080fd5b6151dd836151a9565b91506151eb602084016151a9565b90509250929050565b6000806040838503121561520757600080fd5b505080516020909101519092909150565b7f4e487b7100000000000000000000000000000000000000000000000000000000600052602160045260246000fd5b60006020828403121561525957600080fd5b815160048110610b0757600080fd5b73ffffffffffffffffffffffffffffffffffffffff8316815260408101600483106152bc577f4e487b7100000000000000000000000000000000000000000000000000000000600052602160045260246000fd5b8260208301529392505050565b600073ffffffffffffffffffffffffffffffffffffffff808716835280861660208401525083604083015260806060830152614c546080830184613fd8565b7f4e487b7100000000000000000000000000000000000000000000000000000000600052603160045260246000fd5b601f82111561087657600081815260208120601f850160051c8101602086101561535e5750805b601f850160051c820191505b818110156136e15782815560010161536a565b815167ffffffffffffffff811115615397576153976140c9565b6153ab816153a584546146da565b84615337565b602080601f8311600181146153fe57600084156153c85750858301515b7fffffffffffffffffffffffffffffffffffffffffffffffffffffffffffffffff600386901b1c1916600185901b1785556136e1565b6000858152602081207fffffffffffffffffffffffffffffffffffffffffffffffffffffffffffffffe08616915b8281101561544b5788860151825594840194600190910190840161542c565b508582101561548757878501517fffffffffffffffffffffffffffffffffffffffffffffffffffffffffffffffff600388901b60f8161c191681555b5050505050600190811b0190555056fea26469706673582212203e5b9333b47b7fd2d554b11f976b038275b0d150ee227ac4bc0f47a3fbbb7f0d64736f6c63430008100033",
    "linkReferences": {}
  },
  "methodIdentifiers": {
    "ID_MULTIPLE()": "c91539bc",
    "approve(address,uint256)": "095ea7b3",
    "balanceOf(address)": "70a08231",
    "createCrowdtainer((address,address,uint256,uint256,uint256,uint256,uint256[],uint256,uint256,address,string),string[],address)": "0cfd7fd6",
    "crowdtainerCount()": "cbe80712",
    "crowdtainerForId(uint256)": "b5022343",
    "crowdtainerIdToAddress(uint256)": "351a41c5",
    "getApproved(uint256)": "081812fc",
    "getClaimStatus(uint256)": "36dbd2f9",
    "getParameters(bytes)": "da581532",
    "getSignature(bytes)": "1ed113ae",
    "idForCrowdtainer(address)": "6df0c83a",
    "isApprovedForAll(address,address)": "e985e9c5",
    "join(address,uint256[])": "a25a7d3b",
    "join(address,uint256[],bool,address)": "edf00638",
    "joinWithSignature(bytes,bytes)": "566a2cc2",
    "leave(uint256)": "67dfd4c9",
    "metadataServiceForCrowdatinerId(uint256)": "ca6d45ca",
    "name()": "06fdde03",
    "ownerOf(uint256)": "6352211e",
    "productDescription(uint256,uint256)": "7169d23b",
    "safeTransferFrom(address,address,uint256)": "42842e0e",
    "safeTransferFrom(address,address,uint256,bytes)": "b88d4fde",
    "setApprovalForAll(address,bool)": "a22cb465",
    "setClaimStatus(uint256,bool)": "a3b9871a",
    "supportsInterface(bytes4)": "01ffc9a7",
    "symbol()": "95d89b41",
    "tokenByIndex(uint256)": "4f6ccce7",
    "tokenIdQuantities(uint256,uint256)": "0b82a21c",
    "tokenIdToCrowdtainerId(uint256)": "db5a0e83",
    "tokenOfOwnerByIndex(address,uint256)": "2f745c59",
    "tokenURI(uint256)": "c87b56dd",
    "totalSupply()": "18160ddd",
    "transferFrom(address,address,uint256)": "23b872dd"
  },
  "id": 33
}