{
  "abi": [
    {
      "inputs": [
        {
          "internalType": "address",
          "name": "_crowdtainerImplementation",
          "type": "address"
        }
      ],
      "stateMutability": "nonpayable",
      "type": "constructor"
    },
    {
      "inputs": [],
      "name": "AccountNotOwner",
      "type": "error"
    },
    {
      "inputs": [],
      "name": "CrowdtainerInexistent",
      "type": "error"
    },
    {
      "inputs": [
        {
          "internalType": "uint256",
          "name": "tokenId",
          "type": "uint256"
        }
      ],
      "name": "InvalidTokenId",
      "type": "error"
    },
    {
      "inputs": [
        {
          "internalType": "uint256",
          "name": "maximum",
          "type": "uint256"
        },
        {
          "internalType": "address",
          "name": "crowdtainer",
          "type": "address"
        }
      ],
      "name": "MaximumNumberOfParticipantsReached",
      "type": "error"
    },
    {
      "inputs": [],
      "name": "MetadataServiceAddressIsZero",
      "type": "error"
    },
    {
      "inputs": [],
      "name": "SetClaimedOnlyAllowedByShippingAgent",
      "type": "error"
    },
    {
      "inputs": [
        {
          "internalType": "address",
          "name": "crowdtainer",
          "type": "address"
        },
        {
          "internalType": "enum CrowdtainerState",
          "name": "state",
          "type": "uint8"
        }
      ],
      "name": "TransferNotAllowed",
      "type": "error"
    },
    {
      "anonymous": false,
      "inputs": [
        {
          "indexed": true,
          "internalType": "address",
          "name": "owner",
          "type": "address"
        },
        {
          "indexed": true,
          "internalType": "address",
          "name": "approved",
          "type": "address"
        },
        {
          "indexed": true,
          "internalType": "uint256",
          "name": "tokenId",
          "type": "uint256"
        }
      ],
      "name": "Approval",
      "type": "event"
    },
    {
      "anonymous": false,
      "inputs": [
        {
          "indexed": true,
          "internalType": "address",
          "name": "owner",
          "type": "address"
        },
        {
          "indexed": true,
          "internalType": "address",
          "name": "operator",
          "type": "address"
        },
        {
          "indexed": false,
          "internalType": "bool",
          "name": "approved",
          "type": "bool"
        }
      ],
      "name": "ApprovalForAll",
      "type": "event"
    },
    {
      "anonymous": false,
      "inputs": [
        {
          "indexed": true,
          "internalType": "address",
          "name": "_crowdtainerAddress",
          "type": "address"
        },
        {
          "indexed": false,
          "internalType": "uint256",
          "name": "_nextCrowdtainerId",
          "type": "uint256"
        }
      ],
      "name": "CrowdtainerDeployed",
      "type": "event"
    },
    {
      "anonymous": false,
      "inputs": [
        {
          "indexed": true,
          "internalType": "address",
          "name": "from",
          "type": "address"
        },
        {
          "indexed": true,
          "internalType": "address",
          "name": "to",
          "type": "address"
        },
        {
          "indexed": true,
          "internalType": "uint256",
          "name": "tokenId",
          "type": "uint256"
        }
      ],
      "name": "Transfer",
      "type": "event"
    },
    {
      "anonymous": false,
      "inputs": [
        {
          "indexed": true,
          "internalType": "address",
          "name": "crowdtainer",
          "type": "address"
        }
      ],
      "name": "Vouchers721Created",
      "type": "event"
    },
    {
      "inputs": [],
      "name": "ID_MULTIPLE",
      "outputs": [
        {
          "internalType": "uint256",
          "name": "",
          "type": "uint256"
        }
      ],
      "stateMutability": "view",
      "type": "function"
    },
    {
      "inputs": [
        {
          "internalType": "address",
          "name": "to",
          "type": "address"
        },
        {
          "internalType": "uint256",
          "name": "tokenId",
          "type": "uint256"
        }
      ],
      "name": "approve",
      "outputs": [],
      "stateMutability": "nonpayable",
      "type": "function"
    },
    {
      "inputs": [
        {
          "internalType": "address",
          "name": "owner",
          "type": "address"
        }
      ],
      "name": "balanceOf",
      "outputs": [
        {
          "internalType": "uint256",
          "name": "",
          "type": "uint256"
        }
      ],
      "stateMutability": "view",
      "type": "function"
    },
    {
      "inputs": [
        {
          "components": [
            {
              "internalType": "address",
              "name": "shippingAgent",
              "type": "address"
            },
            {
              "internalType": "uint256",
              "name": "openingTime",
              "type": "uint256"
            },
            {
              "internalType": "uint256",
              "name": "expireTime",
              "type": "uint256"
            },
            {
              "internalType": "uint256",
              "name": "targetMinimum",
              "type": "uint256"
            },
            {
              "internalType": "uint256",
              "name": "targetMaximum",
              "type": "uint256"
            },
            {
              "internalType": "uint256[4]",
              "name": "unitPricePerType",
              "type": "uint256[4]"
            },
            {
              "internalType": "uint256",
              "name": "referralRate",
              "type": "uint256"
            },
            {
              "internalType": "uint256",
              "name": "referralEligibilityValue",
              "type": "uint256"
            },
            {
              "internalType": "address",
              "name": "token",
              "type": "address"
            }
          ],
          "internalType": "struct CampaignData",
          "name": "_campaignData",
          "type": "tuple"
        },
        {
          "internalType": "string[4]",
          "name": "_productDescription",
          "type": "string[4]"
        },
        {
          "internalType": "address",
          "name": "_metadataService",
          "type": "address"
        }
      ],
      "name": "createCrowdtainer",
      "outputs": [
        {
          "internalType": "address",
          "name": "",
          "type": "address"
        },
        {
          "internalType": "uint256",
          "name": "",
          "type": "uint256"
        }
      ],
      "stateMutability": "nonpayable",
      "type": "function"
    },
    {
      "inputs": [],
      "name": "crowdtainerCount",
      "outputs": [
        {
          "internalType": "uint256",
          "name": "",
          "type": "uint256"
        }
      ],
      "stateMutability": "view",
      "type": "function"
    },
    {
      "inputs": [
        {
          "internalType": "uint256",
          "name": "",
          "type": "uint256"
        }
      ],
      "name": "crowdtainerForId",
      "outputs": [
        {
          "internalType": "address",
          "name": "",
          "type": "address"
        }
      ],
      "stateMutability": "view",
      "type": "function"
    },
    {
      "inputs": [
        {
          "internalType": "uint256",
          "name": "_crowdtainerId",
          "type": "uint256"
        }
      ],
      "name": "crowdtainerIdToAddress",
      "outputs": [
        {
          "internalType": "address",
          "name": "",
          "type": "address"
        }
      ],
      "stateMutability": "view",
      "type": "function"
    },
    {
      "inputs": [
        {
          "internalType": "uint256",
          "name": "tokenId",
          "type": "uint256"
        }
      ],
      "name": "getApproved",
      "outputs": [
        {
          "internalType": "address",
          "name": "",
          "type": "address"
        }
      ],
      "stateMutability": "view",
      "type": "function"
    },
    {
      "inputs": [
        {
          "internalType": "uint256",
          "name": "_tokenId",
          "type": "uint256"
        }
      ],
      "name": "getClaimStatus",
      "outputs": [
        {
          "internalType": "bool",
          "name": "",
          "type": "bool"
        }
      ],
      "stateMutability": "view",
      "type": "function"
    },
    {
      "inputs": [
        {
          "internalType": "address",
          "name": "",
          "type": "address"
        }
      ],
      "name": "idForCrowdtainer",
      "outputs": [
        {
          "internalType": "uint256",
          "name": "",
          "type": "uint256"
        }
      ],
      "stateMutability": "view",
      "type": "function"
    },
    {
      "inputs": [
        {
          "internalType": "address",
          "name": "owner",
          "type": "address"
        },
        {
          "internalType": "address",
          "name": "operator",
          "type": "address"
        }
      ],
      "name": "isApprovedForAll",
      "outputs": [
        {
          "internalType": "bool",
          "name": "",
          "type": "bool"
        }
      ],
      "stateMutability": "view",
      "type": "function"
    },
    {
      "inputs": [
        {
          "internalType": "address",
          "name": "_crowdtainer",
          "type": "address"
        },
        {
          "internalType": "uint256[4]",
          "name": "_quantities",
          "type": "uint256[4]"
        },
        {
          "internalType": "bool",
          "name": "_enableReferral",
          "type": "bool"
        },
        {
          "internalType": "address",
          "name": "_referrer",
          "type": "address"
        }
      ],
      "name": "join",
      "outputs": [
        {
          "internalType": "uint256",
          "name": "",
          "type": "uint256"
        }
      ],
      "stateMutability": "nonpayable",
      "type": "function"
    },
    {
      "inputs": [
        {
          "internalType": "uint256",
          "name": "_tokenId",
          "type": "uint256"
        }
      ],
      "name": "leave",
      "outputs": [],
      "stateMutability": "nonpayable",
      "type": "function"
    },
    {
      "inputs": [
        {
          "internalType": "uint256",
          "name": "",
          "type": "uint256"
        }
      ],
      "name": "metadataServiceForCrowdatinerId",
      "outputs": [
        {
          "internalType": "address",
          "name": "",
          "type": "address"
        }
      ],
      "stateMutability": "view",
      "type": "function"
    },
    {
      "inputs": [],
      "name": "name",
      "outputs": [
        {
          "internalType": "string",
          "name": "",
          "type": "string"
        }
      ],
      "stateMutability": "view",
      "type": "function"
    },
    {
      "inputs": [
        {
          "internalType": "uint256",
          "name": "tokenId",
          "type": "uint256"
        }
      ],
      "name": "ownerOf",
      "outputs": [
        {
          "internalType": "address",
          "name": "",
          "type": "address"
        }
      ],
      "stateMutability": "view",
      "type": "function"
    },
    {
      "inputs": [
        {
          "internalType": "uint256",
          "name": "",
          "type": "uint256"
        },
        {
          "internalType": "uint256",
          "name": "",
          "type": "uint256"
        }
      ],
      "name": "productDescription",
      "outputs": [
        {
          "internalType": "string",
          "name": "",
          "type": "string"
        }
      ],
      "stateMutability": "view",
      "type": "function"
    },
    {
      "inputs": [
        {
          "internalType": "address",
          "name": "from",
          "type": "address"
        },
        {
          "internalType": "address",
          "name": "to",
          "type": "address"
        },
        {
          "internalType": "uint256",
          "name": "tokenId",
          "type": "uint256"
        }
      ],
      "name": "safeTransferFrom",
      "outputs": [],
      "stateMutability": "nonpayable",
      "type": "function"
    },
    {
      "inputs": [
        {
          "internalType": "address",
          "name": "from",
          "type": "address"
        },
        {
          "internalType": "address",
          "name": "to",
          "type": "address"
        },
        {
          "internalType": "uint256",
          "name": "tokenId",
          "type": "uint256"
        },
        {
          "internalType": "bytes",
          "name": "_data",
          "type": "bytes"
        }
      ],
      "name": "safeTransferFrom",
      "outputs": [],
      "stateMutability": "nonpayable",
      "type": "function"
    },
    {
      "inputs": [
        {
          "internalType": "address",
          "name": "operator",
          "type": "address"
        },
        {
          "internalType": "bool",
          "name": "approved",
          "type": "bool"
        }
      ],
      "name": "setApprovalForAll",
      "outputs": [],
      "stateMutability": "nonpayable",
      "type": "function"
    },
    {
      "inputs": [
        {
          "internalType": "uint256",
          "name": "_tokenId",
          "type": "uint256"
        },
        {
          "internalType": "bool",
          "name": "_value",
          "type": "bool"
        }
      ],
      "name": "setClaimStatus",
      "outputs": [],
      "stateMutability": "nonpayable",
      "type": "function"
    },
    {
      "inputs": [
        {
          "internalType": "bytes4",
          "name": "interfaceId",
          "type": "bytes4"
        }
      ],
      "name": "supportsInterface",
      "outputs": [
        {
          "internalType": "bool",
          "name": "",
          "type": "bool"
        }
      ],
      "stateMutability": "view",
      "type": "function"
    },
    {
      "inputs": [],
      "name": "symbol",
      "outputs": [
        {
          "internalType": "string",
          "name": "",
          "type": "string"
        }
      ],
      "stateMutability": "view",
      "type": "function"
    },
    {
      "inputs": [
        {
          "internalType": "uint256",
          "name": "",
          "type": "uint256"
        },
        {
          "internalType": "uint256",
          "name": "",
          "type": "uint256"
        }
      ],
      "name": "tokenIdQuantities",
      "outputs": [
        {
          "internalType": "uint256",
          "name": "",
          "type": "uint256"
        }
      ],
      "stateMutability": "view",
      "type": "function"
    },
    {
      "inputs": [
        {
          "internalType": "uint256",
          "name": "_tokenId",
          "type": "uint256"
        }
      ],
      "name": "tokenIdToCrowdtainerId",
      "outputs": [
        {
          "internalType": "uint256",
          "name": "",
          "type": "uint256"
        }
      ],
      "stateMutability": "pure",
      "type": "function"
    },
    {
      "inputs": [
        {
          "internalType": "uint256",
          "name": "_tokenId",
          "type": "uint256"
        }
      ],
      "name": "tokenURI",
      "outputs": [
        {
          "internalType": "string",
          "name": "",
          "type": "string"
        }
      ],
      "stateMutability": "view",
      "type": "function"
    },
    {
      "inputs": [
        {
          "internalType": "address",
          "name": "from",
          "type": "address"
        },
        {
          "internalType": "address",
          "name": "to",
          "type": "address"
        },
        {
          "internalType": "uint256",
          "name": "tokenId",
          "type": "uint256"
        }
      ],
      "name": "transferFrom",
      "outputs": [],
      "stateMutability": "nonpayable",
      "type": "function"
    }
  ],
  "bytecode": {
    "object": "0x60a06040523480156200001157600080fd5b506040516200359338038062003593833981016040819052620000349162000180565b604080518082018252600b81526a566f75636865727337323160a81b60208083019182528351808501909452600384526256563160e81b9084015281519192916200008291600091620000da565b50805162000098906001906020840190620000da565b5050506001600160a01b03811660805260405130907fdd7bf9deccc329033ee50f9e925f9bf2a608eac8950906d19cb2ed39ec61cf3690600090a250620001ef565b828054620000e890620001b2565b90600052602060002090601f0160209004810192826200010c576000855562000157565b82601f106200012757805160ff191683800117855562000157565b8280016001018555821562000157579182015b82811115620001575782518255916020019190600101906200013a565b506200016592915062000169565b5090565b5b808211156200016557600081556001016200016a565b6000602082840312156200019357600080fd5b81516001600160a01b0381168114620001ab57600080fd5b9392505050565b600181811c90821680620001c757607f821691505b60208210811415620001e957634e487b7160e01b600052602260045260246000fd5b50919050565b6080516133886200020b600039600061168a01526133886000f3fe608060405234801561001057600080fd5b50600436106101b95760003560e01c806370a08231116100f9578063c87b56dd11610097578063cbe8071211610071578063cbe80712146103fe578063db5a0e8314610407578063e985e9c51461041a578063f5599b2b1461046357600080fd5b8063c87b56dd146103ab578063c91539bc146103be578063ca6d45ca146103c857600080fd5b8063a22cb465116100d3578063a22cb4651461033c578063a3b9871a1461034f578063b502234314610362578063b88d4fde1461039857600080fd5b806370a082311461030e5780637169d23b1461032157806395d89b411461033457600080fd5b8063351a41c511610166578063464eff5011610140578063464eff50146102b55780636352211e146102c857806367dfd4c9146102db5780636df0c83a146102ee57600080fd5b8063351a41c51461027c57806336dbd2f91461028f57806342842e0e146102a257600080fd5b8063095ea7b311610197578063095ea7b3146102335780630b82a21c1461024857806323b872dd1461026957600080fd5b806301ffc9a7146101be57806306fdde03146101e6578063081812fc146101fb575b600080fd5b6101d16101cc3660046128e8565b6104a2565b60405190151581526020015b60405180910390f35b6101ee610587565b6040516101dd9190612982565b61020e610209366004612995565b610619565b60405173ffffffffffffffffffffffffffffffffffffffff90911681526020016101dd565b6102466102413660046129db565b6106f8565b005b61025b610256366004612a07565b610885565b6040519081526020016101dd565b610246610277366004612a29565b6108aa565b61020e61028a366004612995565b61094b565b6101d161029d366004612995565b6109a7565b6102466102b0366004612a29565b6109ca565b61025b6102c3366004612a7a565b6109e5565b61020e6102d6366004612995565b610ba0565b6102466102e9366004612995565b610c52565b61025b6102fc366004612ad9565b600a6020526000908152604090205481565b61025b61031c366004612ad9565b610d67565b6101ee61032f366004612a07565b610e35565b6101ee610ee2565b61024661034a366004612af6565b610ef1565b61024661035d366004612b2b565b610f00565b61020e610370366004612995565b60096020526000908152604090205473ffffffffffffffffffffffffffffffffffffffff1681565b6102466103a6366004612c79565b610fea565b6101ee6103b9366004612995565b611092565b61025b620f424081565b61020e6103d6366004612995565b600b6020526000908152604090205473ffffffffffffffffffffffffffffffffffffffff1681565b61025b60085481565b61025b610415366004612995565b6115ea565b6101d1610428366004612cf9565b73ffffffffffffffffffffffffffffffffffffffff918216600090815260056020908152604080832093909416825291909152205460ff1690565b610476610471366004612d32565b611633565b6040805173ffffffffffffffffffffffffffffffffffffffff90931683526020830191909152016101dd565b60007fffffffff0000000000000000000000000000000000000000000000000000000082167f80ac58cd00000000000000000000000000000000000000000000000000000000148061053557507fffffffff0000000000000000000000000000000000000000000000000000000082167f5b5e139f00000000000000000000000000000000000000000000000000000000145b8061058157507f01ffc9a7000000000000000000000000000000000000000000000000000000007fffffffff000000000000000000000000000000000000000000000000000000008316145b92915050565b60606000805461059690612e10565b80601f01602080910402602001604051908101604052809291908181526020018280546105c290612e10565b801561060f5780601f106105e45761010080835404028352916020019161060f565b820191906000526020600020905b8154815290600101906020018083116105f257829003601f168201915b5050505050905090565b60008181526002602052604081205473ffffffffffffffffffffffffffffffffffffffff166106cf576040517f08c379a000000000000000000000000000000000000000000000000000000000815260206004820152602c60248201527f4552433732313a20617070726f76656420717565727920666f72206e6f6e657860448201527f697374656e7420746f6b656e000000000000000000000000000000000000000060648201526084015b60405180910390fd5b5060009081526004602052604090205473ffffffffffffffffffffffffffffffffffffffff1690565b600061070382610ba0565b90508073ffffffffffffffffffffffffffffffffffffffff168373ffffffffffffffffffffffffffffffffffffffff1614156107c1576040517f08c379a000000000000000000000000000000000000000000000000000000000815260206004820152602160248201527f4552433732313a20617070726f76616c20746f2063757272656e74206f776e6560448201527f720000000000000000000000000000000000000000000000000000000000000060648201526084016106c6565b3373ffffffffffffffffffffffffffffffffffffffff821614806107ea57506107ea8133610428565b610876576040517f08c379a000000000000000000000000000000000000000000000000000000000815260206004820152603860248201527f4552433732313a20617070726f76652063616c6c6572206973206e6f74206f7760448201527f6e6572206e6f7220617070726f76656420666f7220616c6c000000000000000060648201526084016106c6565b6108808383611863565b505050565b600c60205281600052604060002081600481106108a157600080fd5b01549150829050565b6108b43382611903565b610940576040517f08c379a000000000000000000000000000000000000000000000000000000000815260206004820152603160248201527f4552433732313a207472616e736665722063616c6c6572206973206e6f74206f60448201527f776e6572206e6f7220617070726f76656400000000000000000000000000000060648201526084016106c6565b610880838383611a72565b60008181526009602052604081205473ffffffffffffffffffffffffffffffffffffffff1680610581576040517fba3f1ed100000000000000000000000000000000000000000000000000000000815260040160405180910390fd5b600881901c600090815260066020526040812054600160ff84161b161515610581565b61088083838360405180602001604052806000815250610fea565b73ffffffffffffffffffffffffffffffffffffffff84166000908152600a602052604081205480610a42576040517fba3f1ed100000000000000000000000000000000000000000000000000000000815260040160405180910390fd5b6040517f464eff50000000000000000000000000000000000000000000000000000000008152869073ffffffffffffffffffffffffffffffffffffffff82169063464eff5090610a9c9033908a908a908a90600401612e74565b600060405180830381600087803b158015610ab657600080fd5b505af1158015610aca573d6000803e3d6000fd5b50505060008381526007602052604081208054919250908290610aec90612ee5565b91829055509050620f42408110610b50576040517f1495c920000000000000000000000000000000000000000000000000000000008152620f4240600482015273ffffffffffffffffffffffffffffffffffffffff891660248201526044016106c6565b600081610b6085620f4240612f1e565b610b6a9190612f5b565b6000818152600c60205260409020909150610b879089600461274d565b50610b923382611ce4565b93505050505b949350505050565b60008181526002602052604081205473ffffffffffffffffffffffffffffffffffffffff1680610581576040517f08c379a000000000000000000000000000000000000000000000000000000000815260206004820152602960248201527f4552433732313a206f776e657220717565727920666f72206e6f6e657869737460448201527f656e7420746f6b656e000000000000000000000000000000000000000000000060648201526084016106c6565b33610c5c82610ba0565b73ffffffffffffffffffffffffffffffffffffffff1614610ca9576040517f9d6cfcf900000000000000000000000000000000000000000000000000000000815260040160405180910390fd5b6000610cb761028a836115ea565b6040517fbedf77a6000000000000000000000000000000000000000000000000000000008152336004820152909150819073ffffffffffffffffffffffffffffffffffffffff82169063bedf77a690602401600060405180830381600087803b158015610d2357600080fd5b505af1158015610d37573d6000803e3d6000fd5b5050506000848152600c602052604081208181556001810182905560028101829055600301555061088083611cfe565b600073ffffffffffffffffffffffffffffffffffffffff8216610e0c576040517f08c379a000000000000000000000000000000000000000000000000000000000815260206004820152602a60248201527f4552433732313a2062616c616e636520717565727920666f7220746865207a6560448201527f726f20616464726573730000000000000000000000000000000000000000000060648201526084016106c6565b5073ffffffffffffffffffffffffffffffffffffffff1660009081526003602052604090205490565b600d6020528160005260406000208160048110610e5157600080fd5b018054909250610e619150612e10565b80601f0160208091040260200160405190810160405280929190818152602001828054610e8d90612e10565b8015610eda5780601f10610eaf57610100808354040283529160200191610eda565b820191906000526020600020905b815481529060010190602001808311610ebd57829003601f168201915b505050505081565b60606001805461059690612e10565b610efc338383611dd7565b5050565b6000610f0e61028a846115ea565b9050600081905060008173ffffffffffffffffffffffffffffffffffffffff1663cf0840566040518163ffffffff1660e01b8152600401602060405180830381865afa158015610f62573d6000803e3d6000fd5b505050506040513d601f19601f82011682018060405250810190610f869190612f73565b90503373ffffffffffffffffffffffffffffffffffffffff821614610fd7576040517f3944c6d200000000000000000000000000000000000000000000000000000000815260040160405180910390fd5b610fe360068686611f05565b5050505050565b610ff43383611903565b611080576040517f08c379a000000000000000000000000000000000000000000000000000000000815260206004820152603160248201527f4552433732313a207472616e736665722063616c6c6572206973206e6f74206f60448201527f776e6572206e6f7220617070726f76656400000000000000000000000000000060648201526084016106c6565b61108c84848484611f54565b50505050565b6060600061109f836115ea565b905060006110ac8261094b565b9050600081905060008173ffffffffffffffffffffffffffffffffffffffff1663c66301b26040518163ffffffff1660e01b8152600401602060405180830381865afa158015611100573d6000803e3d6000fd5b505050506040513d601f19601f820116820180604052508101906111249190612f90565b6000858152600b602052604080822054815160808101928390527f1e1b2573000000000000000000000000000000000000000000000000000000009092526084820183905292935073ffffffffffffffffffffffffffffffffffffffff9283169281908616631e1b257360a48301602060405180830381865afa1580156111af573d6000803e3d6000fd5b505050506040513d601f19601f820116820180604052508101906111d39190612f90565b81526040517f1e1b25730000000000000000000000000000000000000000000000000000000081526001600482015260209091019073ffffffffffffffffffffffffffffffffffffffff871690631e1b257390602401602060405180830381865afa158015611246573d6000803e3d6000fd5b505050506040513d601f19601f8201168201806040525081019061126a9190612f90565b81526040517f1e1b25730000000000000000000000000000000000000000000000000000000081526002600482015260209091019073ffffffffffffffffffffffffffffffffffffffff871690631e1b257390602401602060405180830381865afa1580156112dd573d6000803e3d6000fd5b505050506040513d601f19601f820116820180604052508101906113019190612f90565b81526040517f1e1b25730000000000000000000000000000000000000000000000000000000081526003600482015260209091019073ffffffffffffffffffffffffffffffffffffffff871690631e1b257390602401602060405180830381865afa158015611374573d6000803e3d6000fd5b505050506040513d601f19601f820116820180604052508101906113989190612f90565b81525090506000604051806101000160405280888152602001620f42406113be8c6115ea565b6113c89190612f1e565b6113d2908c612fa9565b81526020016113e08b610ba0565b73ffffffffffffffffffffffffffffffffffffffff1681526020016114048b6109a7565b15158152602080820185905260008c8152600c90915260409081902081516080810180845292909301929160049082845b8154815260200190600101908083116114355750505091835250506000898152600d60209081526040808320815160808101909252919093019291600490835b8282101561151857838201805461148b90612e10565b80601f01602080910402602001604051908101604052809291908181526020018280546114b790612e10565b80156115045780601f106114d957610100808354040283529160200191611504565b820191906000526020600020905b8154815290600101906020018083116114e757829003601f168201915b505050505081526020019060010190611475565b505050908252506020018590526040517f9b9300f400000000000000000000000000000000000000000000000000000000815290915073ffffffffffffffffffffffffffffffffffffffff841690639b9300f49061157a908490600401613028565b600060405180830381865afa158015611597573d6000803e3d6000fd5b505050506040513d6000823e601f3d9081017fffffffffffffffffffffffffffffffffffffffffffffffffffffffffffffffe01682016040526115dd91908101906130cb565b9998505050505050505050565b600081611626576040517fed15e6cf000000000000000000000000000000000000000000000000000000008152600481018390526024016106c6565b610581620f424083613142565b60008073ffffffffffffffffffffffffffffffffffffffff8316611683576040517f9ccb6ed000000000000000000000000000000000000000000000000000000000815260040160405180910390fd5b60006116ae7f0000000000000000000000000000000000000000000000000000000000000000611ff7565b6040517fbc6894fe00000000000000000000000000000000000000000000000000000000815290915073ffffffffffffffffffffffffffffffffffffffff82169063bc6894fe906117059030908a9060040161317d565b600060405180830381600087803b15801561171f57600080fd5b505af1158015611733573d6000803e3d6000fd5b5050505060086000815461174690612ee5565b918290555073ffffffffffffffffffffffffffffffffffffffff82166000818152600a60209081526040808320949094556008805483526009825284832080547fffffffffffffffffffffffff00000000000000000000000000000000000000001690941790935591548152600d909152206117c49086600461278b565b50600880546000908152600b602090815260409182902080547fffffffffffffffffffffffff00000000000000000000000000000000000000001673ffffffffffffffffffffffffffffffffffffffff8981169190911790915592549151918252918316917f19d6f90297684f8b888bfdd40dece239ff62def4dd8aedd00245b6c846853b97910160405180910390a260085490969095509350505050565b600081815260046020526040902080547fffffffffffffffffffffffff00000000000000000000000000000000000000001673ffffffffffffffffffffffffffffffffffffffff841690811790915581906118bd82610ba0565b73ffffffffffffffffffffffffffffffffffffffff167f8c5be1e5ebec7d5bd14f71427d1e84f3dd0314c0f7b2291e5b200ac8c7c3b92560405160405180910390a45050565b60008181526002602052604081205473ffffffffffffffffffffffffffffffffffffffff166119b4576040517f08c379a000000000000000000000000000000000000000000000000000000000815260206004820152602c60248201527f4552433732313a206f70657261746f7220717565727920666f72206e6f6e657860448201527f697374656e7420746f6b656e000000000000000000000000000000000000000060648201526084016106c6565b60006119bf83610ba0565b90508073ffffffffffffffffffffffffffffffffffffffff168473ffffffffffffffffffffffffffffffffffffffff161480611a2d575073ffffffffffffffffffffffffffffffffffffffff80821660009081526005602090815260408083209388168352929052205460ff165b80610b9857508373ffffffffffffffffffffffffffffffffffffffff16611a5384610619565b73ffffffffffffffffffffffffffffffffffffffff1614949350505050565b8273ffffffffffffffffffffffffffffffffffffffff16611a9282610ba0565b73ffffffffffffffffffffffffffffffffffffffff1614611b35576040517f08c379a000000000000000000000000000000000000000000000000000000000815260206004820152602560248201527f4552433732313a207472616e736665722066726f6d20696e636f72726563742060448201527f6f776e657200000000000000000000000000000000000000000000000000000060648201526084016106c6565b73ffffffffffffffffffffffffffffffffffffffff8216611bd7576040517f08c379a0000000000000000000000000000000000000000000000000000000008152602060048201526024808201527f4552433732313a207472616e7366657220746f20746865207a65726f2061646460448201527f726573730000000000000000000000000000000000000000000000000000000060648201526084016106c6565b611be28383836120d9565b611bed600082611863565b73ffffffffffffffffffffffffffffffffffffffff83166000908152600360205260408120805460019290611c23908490612fa9565b909155505073ffffffffffffffffffffffffffffffffffffffff82166000908152600360205260408120805460019290611c5e908490612f5b565b909155505060008181526002602052604080822080547fffffffffffffffffffffffff00000000000000000000000000000000000000001673ffffffffffffffffffffffffffffffffffffffff86811691821790925591518493918716917fddf252ad1be2c89b69c2b068fc378daa952ba7f163c4a11628f55a4df523b3ef91a4505050565b610efc8282604051806020016040528060008152506122ef565b6000611d0982610ba0565b9050611d17816000846120d9565b611d22600083611863565b73ffffffffffffffffffffffffffffffffffffffff81166000908152600360205260408120805460019290611d58908490612fa9565b909155505060008281526002602052604080822080547fffffffffffffffffffffffff00000000000000000000000000000000000000001690555183919073ffffffffffffffffffffffffffffffffffffffff8416907fddf252ad1be2c89b69c2b068fc378daa952ba7f163c4a11628f55a4df523b3ef908390a45050565b8173ffffffffffffffffffffffffffffffffffffffff168373ffffffffffffffffffffffffffffffffffffffff161415611e6d576040517f08c379a000000000000000000000000000000000000000000000000000000000815260206004820152601960248201527f4552433732313a20617070726f766520746f2063616c6c65720000000000000060448201526064016106c6565b73ffffffffffffffffffffffffffffffffffffffff83811660008181526005602090815260408083209487168084529482529182902080547fffffffffffffffffffffffffffffffffffffffffffffffffffffffffffffff001686151590811790915591519182527f17307eab39ab6107e8899845ad3d59bd9653f200f220920489ca2b5937696c31910160405180910390a3505050565b8015611f2f57600882901c60009081526020849052604090208054600160ff85161b179055505050565b600882901c60009081526020849052604090208054600160ff85161b19169055505050565b611f5f848484611a72565b611f6b84848484612392565b61108c576040517f08c379a000000000000000000000000000000000000000000000000000000000815260206004820152603260248201527f4552433732313a207472616e7366657220746f206e6f6e20455243373231526560448201527f63656976657220696d706c656d656e746572000000000000000000000000000060648201526084016106c6565b60006040517f3d602d80600a3d3981f3363d3d373d3d3d363d7300000000000000000000000081528260601b60148201527f5af43d82803e903d91602b57fd5bf3000000000000000000000000000000000060288201526037816000f091505073ffffffffffffffffffffffffffffffffffffffff81166120d4576040517f08c379a000000000000000000000000000000000000000000000000000000000815260206004820152601660248201527f455243313136373a20637265617465206661696c65640000000000000000000060448201526064016106c6565b919050565b600073ffffffffffffffffffffffffffffffffffffffff84161580612112575073ffffffffffffffffffffffffffffffffffffffff8316155b905080156121205750505050565b600061212e61028a846115ea565b90508060018173ffffffffffffffffffffffffffffffffffffffff16637855d30c6040518163ffffffff1660e01b8152600401602060405180830381865afa15801561217e573d6000803e3d6000fd5b505050506040513d601f19601f820116820180604052508101906121a2919061326a565b60038111156121b3576121b361323b565b148061223e575060008173ffffffffffffffffffffffffffffffffffffffff16637855d30c6040518163ffffffff1660e01b8152600401602060405180830381865afa158015612207573d6000803e3d6000fd5b505050506040513d601f19601f8201168201806040525081019061222b919061326a565b600381111561223c5761223c61323b565b145b156122e757808173ffffffffffffffffffffffffffffffffffffffff16637855d30c6040518163ffffffff1660e01b8152600401602060405180830381865afa15801561228f573d6000803e3d6000fd5b505050506040513d601f19601f820116820180604052508101906122b3919061326a565b6040517fe0bf90300000000000000000000000000000000000000000000000000000000081526004016106c692919061328b565b505050505050565b6122f9838361257f565b6123066000848484612392565b610880576040517f08c379a000000000000000000000000000000000000000000000000000000000815260206004820152603260248201527f4552433732313a207472616e7366657220746f206e6f6e20455243373231526560448201527f63656976657220696d706c656d656e746572000000000000000000000000000060648201526084016106c6565b600073ffffffffffffffffffffffffffffffffffffffff84163b15612577576040517f150b7a0200000000000000000000000000000000000000000000000000000000815273ffffffffffffffffffffffffffffffffffffffff85169063150b7a02906124099033908990889088906004016132ec565b6020604051808303816000875af1925050508015612462575060408051601f3d9081017fffffffffffffffffffffffffffffffffffffffffffffffffffffffffffffffe016820190925261245f91810190613335565b60015b61252c573d808015612490576040519150601f19603f3d011682016040523d82523d6000602084013e612495565b606091505b508051612524576040517f08c379a000000000000000000000000000000000000000000000000000000000815260206004820152603260248201527f4552433732313a207472616e7366657220746f206e6f6e20455243373231526560448201527f63656976657220696d706c656d656e746572000000000000000000000000000060648201526084016106c6565b805181602001fd5b7fffffffff00000000000000000000000000000000000000000000000000000000167f150b7a0200000000000000000000000000000000000000000000000000000000149050610b98565b506001610b98565b73ffffffffffffffffffffffffffffffffffffffff82166125fc576040517f08c379a000000000000000000000000000000000000000000000000000000000815260206004820181905260248201527f4552433732313a206d696e7420746f20746865207a65726f206164647265737360448201526064016106c6565b60008181526002602052604090205473ffffffffffffffffffffffffffffffffffffffff1615612688576040517f08c379a000000000000000000000000000000000000000000000000000000000815260206004820152601c60248201527f4552433732313a20746f6b656e20616c7265616479206d696e7465640000000060448201526064016106c6565b612694600083836120d9565b73ffffffffffffffffffffffffffffffffffffffff821660009081526003602052604081208054600192906126ca908490612f5b565b909155505060008181526002602052604080822080547fffffffffffffffffffffffff00000000000000000000000000000000000000001673ffffffffffffffffffffffffffffffffffffffff861690811790915590518392907fddf252ad1be2c89b69c2b068fc378daa952ba7f163c4a11628f55a4df523b3ef908290a45050565b826004810192821561277b579160200282015b8281111561277b578235825591602001919060010190612760565b506127879291506127d7565b5090565b82600481019282156127cb579160200282015b828111156127cb57825180516127bb9184916020909101906127ec565b509160200191906001019061279e565b50612787929150612860565b5b8082111561278757600081556001016127d8565b8280546127f890612e10565b90600052602060002090601f01602090048101928261281a576000855561277b565b82601f1061283357805160ff191683800117855561277b565b8280016001018555821561277b579182015b8281111561277b578251825591602001919060010190612845565b80821115612787576000612874828261287d565b50600101612860565b50805461288990612e10565b6000825580601f10612899575050565b601f0160209004906000526020600020908101906128b791906127d7565b50565b7fffffffff00000000000000000000000000000000000000000000000000000000811681146128b757600080fd5b6000602082840312156128fa57600080fd5b8135612905816128ba565b9392505050565b60005b8381101561292757818101518382015260200161290f565b8381111561108c5750506000910152565b6000815180845261295081602086016020860161290c565b601f017fffffffffffffffffffffffffffffffffffffffffffffffffffffffffffffffe0169290920160200192915050565b6020815260006129056020830184612938565b6000602082840312156129a757600080fd5b5035919050565b73ffffffffffffffffffffffffffffffffffffffff811681146128b757600080fd5b80356120d4816129ae565b600080604083850312156129ee57600080fd5b82356129f9816129ae565b946020939093013593505050565b60008060408385031215612a1a57600080fd5b50508035926020909101359150565b600080600060608486031215612a3e57600080fd5b8335612a49816129ae565b92506020840135612a59816129ae565b929592945050506040919091013590565b803580151581146120d457600080fd5b60008060008060e08587031215612a9057600080fd5b8435612a9b816129ae565b935060a0850186811115612aae57600080fd5b602086019350612abd81612a6a565b92505060c0850135612ace816129ae565b939692955090935050565b600060208284031215612aeb57600080fd5b8135612905816129ae565b60008060408385031215612b0957600080fd5b8235612b14816129ae565b9150612b2260208401612a6a565b90509250929050565b60008060408385031215612b3e57600080fd5b82359150612b2260208401612a6a565b7f4e487b7100000000000000000000000000000000000000000000000000000000600052604160045260246000fd5b6040516080810167ffffffffffffffff81118282101715612ba057612ba0612b4e565b60405290565b604051601f82017fffffffffffffffffffffffffffffffffffffffffffffffffffffffffffffffe016810167ffffffffffffffff81118282101715612bed57612bed612b4e565b604052919050565b600067ffffffffffffffff821115612c0f57612c0f612b4e565b50601f017fffffffffffffffffffffffffffffffffffffffffffffffffffffffffffffffe01660200190565b6000612c4e612c4984612bf5565b612ba6565b9050828152838383011115612c6257600080fd5b828260208301376000602084830101529392505050565b60008060008060808587031215612c8f57600080fd5b8435612c9a816129ae565b93506020850135612caa816129ae565b925060408501359150606085013567ffffffffffffffff811115612ccd57600080fd5b8501601f81018713612cde57600080fd5b612ced87823560208401612c3b565b91505092959194509250565b60008060408385031215612d0c57600080fd5b8235612d17816129ae565b91506020830135612d27816129ae565b809150509250929050565b60008060008385036101c0811215612d4957600080fd5b61018080821215612d5957600080fd5b859450840135905067ffffffffffffffff80821115612d7757600080fd5b8186019150601f8781840112612d8c57600080fd5b612d94612b7d565b80608085018a811115612da657600080fd5b855b81811015612df057803586811115612dc05760008081fd5b87018581018d13612dd15760008081fd5b6020612de18e8335838501612c3b565b86529094019350602001612da8565b50508096505050505050612e076101a085016129d0565b90509250925092565b600181811c90821680612e2457607f821691505b60208210811415612e5e577f4e487b7100000000000000000000000000000000000000000000000000000000600052602260045260246000fd5b50919050565b6080818337506000608082015250565b73ffffffffffffffffffffffffffffffffffffffff858116825260e0820190608086602085013793151560a08301529190921660c09092019190915292915050565b7f4e487b7100000000000000000000000000000000000000000000000000000000600052601160045260246000fd5b60007fffffffffffffffffffffffffffffffffffffffffffffffffffffffffffffffff821415612f1757612f17612eb6565b5060010190565b6000817fffffffffffffffffffffffffffffffffffffffffffffffffffffffffffffffff0483118215151615612f5657612f56612eb6565b500290565b60008219821115612f6e57612f6e612eb6565b500190565b600060208284031215612f8557600080fd5b8151612905816129ae565b600060208284031215612fa257600080fd5b5051919050565b600082821015612fbb57612fbb612eb6565b500390565b8060005b600481101561108c578151845260209384019390910190600101612fc4565b600082608081018360005b600481101561301d578383038752613007838351612938565b6020978801979093509190910190600101612fee565b509095945050505050565b60208152815160208201526020820151604082015273ffffffffffffffffffffffffffffffffffffffff604083015116606082015260006060830151613072608084018215159052565b50608083015161308560a0840182612fc0565b5060a0830151613099610120840182612fc0565b5060c08301516101c0806101a08501526130b76101e0850183612fe3565b60e095909501519301929092525090919050565b6000602082840312156130dd57600080fd5b815167ffffffffffffffff8111156130f457600080fd5b8201601f8101841361310557600080fd5b8051613113612c4982612bf5565b81815285602083850101111561312857600080fd5b61313982602083016020860161290c565b95945050505050565b600082613178577f4e487b7100000000000000000000000000000000000000000000000000000000600052601260045260246000fd5b500490565b73ffffffffffffffffffffffffffffffffffffffff83811682526101a082019083356131a8816129ae565b81811660208501525050602083013560408301526040830135606083015260608301356080830152608083013560a08301526131ea60c0830160a08501612e64565b61014061012084013581840152610160818501358185015261320d8186016129d0565b91505061323361018084018273ffffffffffffffffffffffffffffffffffffffff169052565b509392505050565b7f4e487b7100000000000000000000000000000000000000000000000000000000600052602160045260246000fd5b60006020828403121561327c57600080fd5b81516004811061290557600080fd5b73ffffffffffffffffffffffffffffffffffffffff8316815260408101600483106132df577f4e487b7100000000000000000000000000000000000000000000000000000000600052602160045260246000fd5b8260208301529392505050565b600073ffffffffffffffffffffffffffffffffffffffff80871683528086166020840152508360408301526080606083015261332b6080830184612938565b9695505050505050565b60006020828403121561334757600080fd5b8151612905816128ba56fea26469706673582212206b5289e6d47067d9589dbf7f1213e3c40b6a64057de3354640f04c09b4ee351b64736f6c634300080b0033",
    "linkReferences": {}
  },
  "methodIdentifiers": {
    "ID_MULTIPLE()": "c91539bc",
    "approve(address,uint256)": "095ea7b3",
    "balanceOf(address)": "70a08231",
    "createCrowdtainer((address,uint256,uint256,uint256,uint256,uint256[4],uint256,uint256,address),string[4],address)": "f5599b2b",
    "crowdtainerCount()": "cbe80712",
    "crowdtainerForId(uint256)": "b5022343",
    "crowdtainerIdToAddress(uint256)": "351a41c5",
    "getApproved(uint256)": "081812fc",
    "getClaimStatus(uint256)": "36dbd2f9",
    "idForCrowdtainer(address)": "6df0c83a",
    "isApprovedForAll(address,address)": "e985e9c5",
    "join(address,uint256[4],bool,address)": "464eff50",
    "leave(uint256)": "67dfd4c9",
    "metadataServiceForCrowdatinerId(uint256)": "ca6d45ca",
    "name()": "06fdde03",
    "ownerOf(uint256)": "6352211e",
    "productDescription(uint256,uint256)": "7169d23b",
    "safeTransferFrom(address,address,uint256)": "42842e0e",
    "safeTransferFrom(address,address,uint256,bytes)": "b88d4fde",
    "setApprovalForAll(address,bool)": "a22cb465",
    "setClaimStatus(uint256,bool)": "a3b9871a",
    "supportsInterface(bytes4)": "01ffc9a7",
    "symbol()": "95d89b41",
    "tokenIdQuantities(uint256,uint256)": "0b82a21c",
    "tokenIdToCrowdtainerId(uint256)": "db5a0e83",
    "tokenURI(uint256)": "c87b56dd",
    "transferFrom(address,address,uint256)": "23b872dd"
  },
  "id": 29
}