{
  "abi": [
    {
      "inputs": [
        {
          "internalType": "string",
          "name": "_unitSymbol",
          "type": "string"
        },
        {
          "internalType": "uint8",
          "name": "_erc20Decimals",
          "type": "uint8"
        },
        {
          "internalType": "string",
          "name": "_ticketFootnotes",
          "type": "string"
        }
      ],
      "stateMutability": "nonpayable",
      "type": "constructor"
    },
    {
      "inputs": [
        {
          "components": [
            {
              "internalType": "uint256",
              "name": "crowdtainerId",
              "type": "uint256"
            },
            {
              "internalType": "uint256",
              "name": "tokenId",
              "type": "uint256"
            },
            {
              "internalType": "address",
              "name": "currentOwner",
              "type": "address"
            },
            {
              "internalType": "bool",
              "name": "claimed",
              "type": "bool"
            },
            {
              "internalType": "uint256[4]",
              "name": "unitPricePerType",
              "type": "uint256[4]"
            },
            {
              "internalType": "uint256[4]",
              "name": "quantities",
              "type": "uint256[4]"
            },
            {
              "internalType": "string[4]",
              "name": "productDescription",
              "type": "string[4]"
            },
            {
              "internalType": "uint256",
              "name": "numberOfProducts",
              "type": "uint256"
            }
          ],
          "internalType": "struct Metadata",
          "name": "_metadata",
          "type": "tuple"
        }
      ],
      "name": "uri",
      "outputs": [
        {
          "internalType": "string",
          "name": "",
          "type": "string"
        }
      ],
      "stateMutability": "view",
      "type": "function"
    }
  ],
  "bytecode": {
    "object": "0x60806040523480156200001157600080fd5b506040516200289d3803806200289d83398101604081905262000034916200012f565b600162000042848262000242565b506000805460ff191660ff8416179055600262000060828262000242565b505050506200030e565b634e487b7160e01b600052604160045260246000fd5b600082601f8301126200009257600080fd5b81516001600160401b0380821115620000af57620000af6200006a565b604051601f8301601f19908116603f01168101908282118183101715620000da57620000da6200006a565b81604052838152602092508683858801011115620000f757600080fd5b600091505b838210156200011b5785820183015181830184015290820190620000fc565b600093810190920192909252949350505050565b6000806000606084860312156200014557600080fd5b83516001600160401b03808211156200015d57600080fd5b6200016b8783880162000080565b94506020860151915060ff821682146200018457600080fd5b6040860151919350808211156200019a57600080fd5b50620001a98682870162000080565b9150509250925092565b600181811c90821680620001c857607f821691505b602082108103620001e957634e487b7160e01b600052602260045260246000fd5b50919050565b601f8211156200023d57600081815260208120601f850160051c81016020861015620002185750805b601f850160051c820191505b81811015620002395782815560010162000224565b5050505b505050565b81516001600160401b038111156200025e576200025e6200006a565b62000276816200026f8454620001b3565b84620001ef565b602080601f831160018114620002ae5760008415620002955750858301515b600019600386901b1c1916600185901b17855562000239565b600085815260208120601f198616915b82811015620002df57888601518255948401946001909101908401620002be565b5085821015620002fe5787850151600019600388901b60f8161c191681555b5050505050600190811b01905550565b61257f806200031e6000396000f3fe608060405234801561001057600080fd5b506004361061002b5760003560e01c80639b9300f414610030575b600080fd5b61004361003e36600461103e565b610059565b604051610050919061109e565b60405180910390f35b60408051808201909152600181527f5b0000000000000000000000000000000000000000000000000000000000000060208201526060906000805b846101a0013581101561020857846101000181600481106100b7576100b76110ef565b6020020135156101f657826100d061018087018761111e565b82600481106100e1576100e16110ef565b6020028101906100f1919061115c565b6101148861010001856004811061010a5761010a6110ef565b602002013561037f565b61012c89608001866004811061010a5761010a6110ef565b6040516020016101409594939291906111e4565b604080517fffffffffffffffffffffffffffffffffffffffffffffffffffffffffffffffe0818403018152919052925061018060016101a0870135611307565b8110156101aa5782604051602001610198919061131a565b60405160208183030381529060405292505b846101000181600481106101c0576101c06110ef565b60200201358560800182600481106101da576101da6110ef565b60200201356101e9919061135b565b6101f39083611398565b91505b80610200816113ab565b915050610094565b508160405160200161021a91906113e3565b60405160208183030381529060405291506000826102378361037f565b604051602001610248929190611424565b604051602081830303815290604052905060006102f76102f2876002805461026f906114a6565b80601f016020809104026020016040519081016040528092919081815260200182805461029b906114a6565b80156102e85780601f106102bd576101008083540402835291602001916102e8565b820191906000526020600020905b8154815290600101906020018083116102cb57829003601f168201915b50505050506104bc565b6105e3565b9050610355610306873561037f565b610313886020013561037f565b61032b61032660608b0160408c016114f9565b610736565b858560405160200161034195949392919061152f565b6040516020818303038152906040526105e3565b60405160200161036591906116b6565b604051602081830303815290604052945050505050919050565b6060816000036103c257505060408051808201909152600181527f3000000000000000000000000000000000000000000000000000000000000000602082015290565b8160005b81156103ec57806103d6816113ab565b91506103e59050600a8361172a565b91506103c6565b60008167ffffffffffffffff8111156104075761040761173e565b6040519080825280601f01601f191660200182016040528015610431576020820181803683370190505b5090505b84156104b457610446600183611307565b9150610453600a8661176d565b61045e906030611398565b60f81b818381518110610473576104736110ef565b60200101907effffffffffffffffffffffffffffffffffffffffffffffffffffffffffffff1916908160001a9053506104ad600a8661172a565b9450610435565b949350505050565b606080600061055d85600180546104d2906114a6565b80601f01602080910402602001604051908101604052809291908181526020018280546104fe906114a6565b801561054b5780601f106105205761010080835404028352916020019161054b565b820191906000526020600020905b81548152906001019060200180831161052e57829003601f168201915b505060005460ff169250610759915050565b909250905061056a610942565b610574863561037f565b61058c6105876080890160608a01611781565b610967565b610599886020013561037f565b856105a9868b6101a001356109e9565b896105b2610a4c565b6040516020016105c99897969594939291906117a3565b604051602081830303815290604052925050505b92915050565b6060815160000361060257505060408051602081019091526000815290565b600060405180606001604052806040815260200161243260409139905060006003845160026106319190611398565b61063b919061172a565b61064690600461135b565b67ffffffffffffffff81111561065e5761065e61173e565b6040519080825280601f01601f191660200182016040528015610688576020820181803683370190505b509050600182016020820185865187015b808210156106f4576003820191508151603f8160121c168501518453600184019350603f81600c1c168501518453600184019350603f8160061c168501518453600184019350603f8116850151845350600183019250610699565b505060038651066001811461071057600281146107235761072b565b603d6001830353603d600283035361072b565b603d60018303535b509195945050505050565b60606105dd8273ffffffffffffffffffffffffffffffffffffffff166014610dae565b60606000600a815b866101a001358162ffffff16101561091e5786610100018162ffffff166004811061078e5761078e6110ef565b60200201351561090c57836107a3600261037f565b6107ac8461037f565b6108728a610100018562ffffff16600481106107ca576107ca6110ef565b60200201356107da8a600a611a57565b8c6080018762ffffff16600481106107f4576107f46110ef565b6020020135610803919061172a565b8b6108126101808f018f61111e565b8862ffffff1660048110610828576108286110ef565b602002810190610838919061115c565b8080601f016020809104026020016040519081016040528093929190818152602001838380828437600092019190915250610ffc92505050565b6040516020016108859493929190611a66565b6040516020818303038152906040529350866101a001358162ffffff1610156108b6576108b3600183611398565b91505b86610100018162ffffff16600481106108d1576108d16110ef565b6020020135876080018262ffffff16600481106108f0576108f06110ef565b60200201356108ff919061135b565b6109099084611398565b92505b8061091681611bb5565b915050610761565b508261092b85600a611a57565b610935908461172a565b9250925050935093915050565b606060405160200161095390611bd7565b604051602081830303815290604052905090565b6060600060405180610100016040528060c4815260200161236e60c491399050600060405180610100016040528060d8815260200161247260d89139905083156109d65781816040516020016109be92919061206a565b60405160208183030381529060405292505050919050565b81816040516020016109be9291906120c2565b6060600060026109fa84600161135b565b610a0590600a611398565b610a0f9190611398565b9050610a1a8161037f565b610a238561037f565b604051602001610a3492919061211a565b60405160208183030381529060405291505092915050565b6060604051602001610953907f3c7374796c653e2e737667426f6479207b666f6e742d66616d696c793a20224881527f656c76657469636122207d2e74696e79207b666f6e742d737472657463683a6e60208201527f6f726d616c3b666f6e742d73697a653a302e35323536323470783b6c696e652d60408201527f6865696768743a312e32353b746578742d616e63686f723a656e643b7768697460608201527f652d73706163653a7072653b66696c6c3a236639663966393b7d2e666f6f746560808201527f72207b666f6e742d737472657463683a6e6f726d616c3b666f6e742d73697a6560a08201527f3a3770783b6c696e652d6865696768743a2e32353b77686974652d737061636560c08201527f3a7072653b66696c6c3a236639663966393b7d2e736d616c6c207b666f6e742d60e08201527f73697a653a302e363570783b746578742d616c69676e3a73746172743b7465786101008201527f742d616e63686f723a73746172743b77686974652d73706163653a7072653b666101208201527f696c6c3a236639663966393b7d2e6d656469756d207b666f6e742d73697a653a6101408201527f302e393270783b666f6e742d66616d696c793a48656c7665746963613b7465786101608201527f742d616c69676e3a656e643b746578742d616e63686f723a656e643b776869746101808201527f652d73706163653a7072653b66696c6c3a236639663966393b7d3c2f7374796c6101a08201527f653e3c6c696e6561724772616469656e742078313d273025272079313d2733306101c08201527f25272078323d27363025272079323d2739302527206772616469656e74556e696101e08201527f74733d277573657253706163654f6e557365272069643d275376676a734c696e6102008201527f6561724772616469656e7432353631273e3c73746f702073746f702d636f6c6f6102208201527f723d277267626128302c2035322c2031312c203131312927206f66667365743d6102408201527f27302e3032273e3c2f73746f703e3c73746f702073746f702d636f6c6f723d276102608201527f726762612839302c2034332c2033302c20322927206f66667365743d2731273e6102808201527f3c2f73746f703e3c2f6c696e6561724772616469656e743e3c2f7376673e00006102a08201526102be0190565b60606000610dbd83600261135b565b610dc8906002611398565b67ffffffffffffffff811115610de057610de061173e565b6040519080825280601f01601f191660200182016040528015610e0a576020820181803683370190505b5090507f300000000000000000000000000000000000000000000000000000000000000081600081518110610e4157610e416110ef565b60200101907effffffffffffffffffffffffffffffffffffffffffffffffffffffffffffff1916908160001a9053507f780000000000000000000000000000000000000000000000000000000000000081600181518110610ea457610ea46110ef565b60200101907effffffffffffffffffffffffffffffffffffffffffffffffffffffffffffff1916908160001a9053506000610ee084600261135b565b610eeb906001611398565b90505b6001811115610f88577f303132333435363738396162636465660000000000000000000000000000000085600f1660108110610f2c57610f2c6110ef565b1a60f81b828281518110610f4257610f426110ef565b60200101907effffffffffffffffffffffffffffffffffffffffffffffffffffffffffffff1916908160001a90535060049490941c93610f818161228a565b9050610eee565b508315610ff5576040517f08c379a000000000000000000000000000000000000000000000000000000000815260206004820181905260248201527f537472696e67733a20686578206c656e67746820696e73756666696369656e74604482015260640160405180910390fd5b9392505050565b60606110078561037f565b82846110128761037f565b60405160200161102594939291906122bf565b6040516020818303038152906040529050949350505050565b60006020828403121561105057600080fd5b813567ffffffffffffffff81111561106757600080fd5b82016101c08185031215610ff557600080fd5b60005b8381101561109557818101518382015260200161107d565b50506000910152565b60208152600082518060208401526110bd81604085016020870161107a565b601f017fffffffffffffffffffffffffffffffffffffffffffffffffffffffffffffffe0169190910160400192915050565b7f4e487b7100000000000000000000000000000000000000000000000000000000600052603260045260246000fd5b600082357fffffffffffffffffffffffffffffffffffffffffffffffffffffffffffffff8183360301811261115257600080fd5b9190910192915050565b60008083357fffffffffffffffffffffffffffffffffffffffffffffffffffffffffffffffe184360301811261119157600080fd5b83018035915067ffffffffffffffff8211156111ac57600080fd5b6020019150368190038213156111c157600080fd5b9250929050565b600081516111da81856020860161107a565b9290920192915050565b600086516111f6818460208b0161107a565b7f7b226465736372697074696f6e223a2200000000000000000000000000000000908301908152858760108301377f222c22616d6f756e74223a220000000000000000000000000000000000000000601091870191820152845161126181601c84016020890161107a565b7f222c227072696365506572556e6974223a220000000000000000000000000000601c9290910191820152835161129f81602e84016020880161107a565b7f227d000000000000000000000000000000000000000000000000000000000000602e9290910191820152603001979650505050505050565b7f4e487b7100000000000000000000000000000000000000000000000000000000600052601160045260246000fd5b818103818111156105dd576105dd6112d8565b6000825161132c81846020870161107a565b7f2c20000000000000000000000000000000000000000000000000000000000000920191825250600201919050565b6000817fffffffffffffffffffffffffffffffffffffffffffffffffffffffffffffffff0483118215151615611393576113936112d8565b500290565b808201808211156105dd576105dd6112d8565b60007fffffffffffffffffffffffffffffffffffffffffffffffffffffffffffffffff82036113dc576113dc6112d8565b5060010190565b600082516113f581846020870161107a565b7f5d00000000000000000000000000000000000000000000000000000000000000920191825250600101919050565b6000835161143681846020880161107a565b7f2c2022546f74616c436f7374223a220000000000000000000000000000000000908301908152835161147081600f84016020880161107a565b7f2200000000000000000000000000000000000000000000000000000000000000600f9290910191820152601001949350505050565b600181811c908216806114ba57607f821691505b6020821081036114f3577f4e487b7100000000000000000000000000000000000000000000000000000000600052602260045260246000fd5b50919050565b60006020828403121561150b57600080fd5b813573ffffffffffffffffffffffffffffffffffffffff81168114610ff557600080fd5b7f7b2263726f77647461696e65724964223a220000000000000000000000000000815260008651611567816012850160208b0161107a565b7f222c2022766f75636865724964223a220000000000000000000000000000000060129184019182015286516115a4816022840160208b0161107a565b7f222c202263757272656e744f776e6572223a22307800000000000000000000006022929091019182015285516115e2816037840160208a0161107a565b7f222c20226465736372697074696f6e223a00000000000000000000000000000060379290910191820152845161162081604884016020890161107a565b7f2c2022696d616765223a20220000000000000000000000000000000000000000604892909101918201527f646174613a696d6167652f7376672b786d6c3b6261736536342c00000000000060548201526116aa611681606e8301866111c8565b7f227d000000000000000000000000000000000000000000000000000000000000815260020190565b98975050505050505050565b7f646174613a6170706c69636174696f6e2f6a736f6e3b6261736536342c0000008152600082516116ee81601d85016020870161107a565b91909101601d0192915050565b7f4e487b7100000000000000000000000000000000000000000000000000000000600052601260045260246000fd5b600082611739576117396116fb565b500490565b7f4e487b7100000000000000000000000000000000000000000000000000000000600052604160045260246000fd5b60008261177c5761177c6116fb565b500690565b60006020828403121561179357600080fd5b81358015158114610ff557600080fd5b6000895160206117b68285838f0161107a565b8a51918401916117c98184848f0161107a565b7f3c2f747370616e3e3c2f746578743e000000000000000000000000000000000092018281528a5190929061180481600f8601858f0161107a565b8a5193019261181981600f8601858e0161107a565b600f930192830152875161183381601e8501848c0161107a565b875192019161184881601e8501848b0161107a565b7f3c7465787420786d6c3a73706163653d2270726573657276652220636c617373601e9390910192830152507f3d22666f6f7465722220783d2238352220793d2233383022207472616e73666f603e8201527f726d3d227363616c6528312e303237323733332c302e39373334353038312922605e8201527f3e00000000000000000000000000000000000000000000000000000000000000607e8201526119286119226118f9607f8401886111c8565b7f3c2f746578743e3c2f673e0000000000000000000000000000000000000000008152600b0190565b856111c8565b9b9a5050505050505050505050565b600181815b8085111561199057817fffffffffffffffffffffffffffffffffffffffffffffffffffffffffffffffff04821115611976576119766112d8565b8085161561198357918102915b93841c939080029061193c565b509250929050565b6000826119a7575060016105dd565b816119b4575060006105dd565b81600181146119ca57600281146119d4576119f0565b60019150506105dd565b60ff8411156119e5576119e56112d8565b50506001821b6105dd565b5060208310610133831016604e8410600b8410161715611a13575081810a6105dd565b611a1d8383611937565b807fffffffffffffffffffffffffffffffffffffffffffffffffffffffffffffffff04821115611a4f57611a4f6112d8565b029392505050565b6000610ff560ff841683611998565b60008551611a78818460208a0161107a565b80830190507f3c7465787420786d6c3a73706163653d2270726573657276652220636c61737381527f3d22736d616c6c2220783d22000000000000000000000000000000000000000060208201528551611ad981602c840160208a0161107a565b7f2220793d22000000000000000000000000000000000000000000000000000000602c92909101918201528451611b1781603184016020890161107a565b611b6f6031828401017f22207472616e73666f726d3d226d61747269782831362e343931362c302c302c81527f31352e3632373534372c372e3538393737322c362e3939343739303329223e006020820152603f0190565b9150508351611b8281836020880161107a565b7f3c2f746578743e0000000000000000000000000000000000000000000000000091019081526007019695505050505050565b600062ffffff808316818103611bcd57611bcd6112d8565b6001019392505050565b7f3c7376672077696474683d223130306d6d22206865696768743d223133306d6d81527f222076696577426f783d223020302033303020343330222076657273696f6e3d60208201527f22312e31222069643d22737667352220636c6173733d22737667426f6479222060408201527f786d6c6e733d22687474703a2f2f7777772e77332e6f72672f323030302f737660608201527f67223e3c672069643d226c6179657231223e3c706174682069643d227061746860808201527f3222207374796c653d22636f6c6f723a233030303030303b66696c6c3a75726c60a08201527f28235376676a734c696e6561724772616469656e7432353631293b66696c6c2d60c08201527f6f7061636974793a302e3839393139333b66696c6c2d72756c653a6576656e6f60e08201527f64643b7374726f6b652d77696474683a312e35343534333b2d696e6b736361706101008201527f652d7374726f6b653a6e6f6e652220643d226d33322e3230322031322e3538716101208201527f2d32362e353034372d2e303231362d32362e343438312032362e3938336c30206101408201527f3336312e37333834712e303131342031312e3833312031352e373236392031316101608201527f2e373830396837362e373937632d2e313630392d312e373431382d2e363733346101808201527f2d31312e3532393120382e313930382d31312e303637392e313435332e3030386101a08201527f2e333831342e303136352e353237352e303136356839302e38303638632e31346101c08201527f36312030202e3338332d2e3030352e353239312d2e30303520362e373031362d6101e08201527f2e30303620372e3730383320392e3335353420372e3833362031312e303536316102008201527f2e303130392e313435332e313335322e323633342e323831332e323633346c386102208201527f302e3039333120307131322e323834392e30322031322e323934372d31322e326102408201527f393437762d3336312e37363639712d2e313036382d32362e393631342d32362e6102608201527f343438322d32362e39383332682d36362e32373934632e3030332031322e36336102808201527f31352e3035303420392e353535392d35342e37323820392e3534362d34382e336102a08201527f34382e303130362d35312e3538353420322e313736382d35312e383034342d396102c08201527f2e373534327a222f3e3c7465787420786d6c3a73706163653d227072657365726102e08201527f76652220636c6173733d226d656469756d2220783d2231302e343738333534226103008201527f20793d2230222069643d227465787431363238302d362d3922207472616e73666103208201527f6f726d3d226d61747269782831362e343931362c302c302c31352e36323735346103408201527f372c372e313332353231312c35342e36363439333229223e00000000000000006103608201527f3c747370616e20783d2231352e3437383335342220793d2231223e43726f77646103788201527f7461696e65722000000000000000000000000000000000000000000000000000610398820152600061039f82016105dd565b6000835161207c81846020880161107a565b7f596573000000000000000000000000000000000000000000000000000000000090830190815283516120b681600384016020880161107a565b01600301949350505050565b600083516120d481846020880161107a565b7f4e6f000000000000000000000000000000000000000000000000000000000000908301908152835161210e81600284016020880161107a565b01600201949350505050565b7f3c7465787420786d6c3a73706163653d2270726573657276652220636c61737381527f3d22736d616c6c2220000000000000000000000000000000000000000000000060208201527f783d22322220793d22000000000000000000000000000000000000000000000060298201526000835161219e81603285016020880161107a565b6121f66032828501017f22207472616e73666f726d3d226d61747269782831362e343931362c302c302c81527f31352e3632373534372c372e3538393737322c362e3939343739303329223e006020820152603f0190565b90507f546f74616c20000000000000000000000000000000000000000000000000000081527fefbc8400000000000000000000000000000000000000000000000000000000006006820152835161225481600984016020880161107a565b7f3c2f746578743e0000000000000000000000000000000000000000000000000060099290910191820152601001949350505050565b600081612299576122996112d8565b507fffffffffffffffffffffffffffffffffffffffffffffffffffffffffffffffff0190565b600085516122d1818460208a0161107a565b7f2020782020000000000000000000000000000000000000000000000000000000908301908152855161230b816005840160208a0161107a565b7f202d20000000000000000000000000000000000000000000000000000000000060059290910191820152845161234981600884016020890161107a565b845191019061235f81600884016020880161107a565b01600801969550505050505056fe3c7465787420786d6c3a73706163653d2270726573657276652220636c6173733d2274696e792220783d2231302e3437383335342220793d2230222069643d227465787431363238302d362d392d3722207472616e73666f726d3d226d61747269782831362e343931362c302c302c31352e3632373534372c352e373238323838342c39302e31363030393829223e3c747370616e20783d2231352e3437383335342220793d22312e35222069643d22747370616e31313633223e436c61696d65643a204142434445464748494a4b4c4d4e4f505152535455565758595a6162636465666768696a6b6c6d6e6f707172737475767778797a303132333435363738392b2f3c2f747370616e3e3c2f746578743e3c7465787420786d6c3a73706163653d2270726573657276652220636c6173733d226d656469756d2220783d2231332e3437383335342220793d2231342e31363839393434222069643d227465787431363238302d3622207472616e73666f726d3d226d61747269782831362e343931362c302c302c31352e3632373534372c372e3538393737322c362e3939343739303329223e3c747370616e20783d2231352e3437383335342220793d22352e34222069643d22747370616e31313635223e566f756368657220a26469706673582212204a5077559397fce6106fe9eddc85c0bba22f5df7625cd40d7ad2b1af587175b164736f6c63430008100033",
    "linkReferences": {}
  },
  "methodIdentifiers": {
    "uri((uint256,uint256,address,bool,uint256[4],uint256[4],string[4],uint256))": "9b9300f4"
  },
  "id": 33
}