{
  "abi": [
    {
      "inputs": [
        {
          "internalType": "string",
          "name": "_unitSymbol",
          "type": "string"
        },
        {
          "internalType": "uint8",
          "name": "_erc20Decimals",
          "type": "uint8"
        },
        {
          "internalType": "string",
          "name": "_ticketFootnotes",
          "type": "string"
        }
      ],
      "stateMutability": "nonpayable",
      "type": "constructor"
    },
    {
      "inputs": [
        {
          "components": [
            {
              "internalType": "uint256",
              "name": "crowdtainerId",
              "type": "uint256"
            },
            {
              "internalType": "uint256",
              "name": "tokenId",
              "type": "uint256"
            },
            {
              "internalType": "address",
              "name": "currentOwner",
              "type": "address"
            },
            {
              "internalType": "bool",
              "name": "claimed",
              "type": "bool"
            },
            {
              "internalType": "uint256[4]",
              "name": "unitPricePerType",
              "type": "uint256[4]"
            },
            {
              "internalType": "uint256[4]",
              "name": "quantities",
              "type": "uint256[4]"
            },
            {
              "internalType": "string[4]",
              "name": "productDescription",
              "type": "string[4]"
            },
            {
              "internalType": "uint256",
              "name": "numberOfProducts",
              "type": "uint256"
            }
          ],
          "internalType": "struct Metadata",
          "name": "_metadata",
          "type": "tuple"
        }
      ],
      "name": "uri",
      "outputs": [
        {
          "internalType": "string",
          "name": "",
          "type": "string"
        }
      ],
      "stateMutability": "view",
      "type": "function"
    }
  ],
  "bytecode": {
    "object": "0x60806040523480156200001157600080fd5b5060405162002859380380620028598339810160408190526200003491620001eb565b82516200004990600190602086019062000078565b506000805460ff191660ff841617905580516200006e90600290602084019062000078565b50505050620002ac565b82805462000086906200026f565b90600052602060002090601f016020900481019282620000aa5760008555620000f5565b82601f10620000c557805160ff1916838001178555620000f5565b82800160010185558215620000f5579182015b82811115620000f5578251825591602001919060010190620000d8565b506200010392915062000107565b5090565b5b8082111562000103576000815560010162000108565b634e487b7160e01b600052604160045260246000fd5b600082601f8301126200014657600080fd5b81516001600160401b03808211156200016357620001636200011e565b604051601f8301601f19908116603f011681019082821181831017156200018e576200018e6200011e565b81604052838152602092508683858801011115620001ab57600080fd5b600091505b83821015620001cf5785820183015181830184015290820190620001b0565b83821115620001e15760008385830101525b9695505050505050565b6000806000606084860312156200020157600080fd5b83516001600160401b03808211156200021957600080fd5b620002278783880162000134565b94506020860151915060ff821682146200024057600080fd5b6040860151919350808211156200025657600080fd5b50620002658682870162000134565b9150509250925092565b600181811c908216806200028457607f821691505b60208210811415620002a657634e487b7160e01b600052602260045260246000fd5b50919050565b61259d80620002bc6000396000f3fe608060405234801561001057600080fd5b506004361061002b5760003560e01c80639b9300f414610030575b600080fd5b61004361003e366004611044565b610059565b60405161005091906110b0565b60405180910390f35b60408051808201909152600181527f5b0000000000000000000000000000000000000000000000000000000000000060208201526060906000805b846101a0013581101561020c57846101000181600481106100b7576100b7611101565b60200201356100c5576101fa565b826100d4610180870187611130565b82600481106100e5576100e5611101565b6020028101906100f5919061116e565b6101188861010001856004811061010e5761010e611101565b6020020135610383565b61013089608001866004811061010e5761010e611101565b6040516020016101449594939291906111f6565b604080517fffffffffffffffffffffffffffffffffffffffffffffffffffffffffffffffe0818403018152919052925061018460016101a0870135611319565b8110156101ae578260405160200161019c9190611330565b60405160208183030381529060405292505b846101000181600481106101c4576101c4611101565b60200201358560800182600481106101de576101de611101565b60200201356101ed9190611371565b6101f790836113ae565b91505b80610204816113c6565b915050610094565b508160405160200161021e91906113ff565b604051602081830303815290604052915060008261023b83610383565b60405160200161024c929190611440565b604051602081830303815290604052905060006102fb6102f68760028054610273906114c2565b80601f016020809104026020016040519081016040528092919081815260200182805461029f906114c2565b80156102ec5780601f106102c1576101008083540402835291602001916102ec565b820191906000526020600020905b8154815290600101906020018083116102cf57829003601f168201915b50505050506104bd565b6105e4565b905061035961030a8735610383565b6103178860200135610383565b61032f61032a60608b0160408c01611516565b610738565b858560405160200161034595949392919061154c565b6040516020818303038152906040526105e4565b60405160200161036991906116d3565b604051602081830303815290604052945050505050919050565b6060816103c357505060408051808201909152600181527f3000000000000000000000000000000000000000000000000000000000000000602082015290565b8160005b81156103ed57806103d7816113c6565b91506103e69050600a83611747565b91506103c7565b60008167ffffffffffffffff8111156104085761040861175b565b6040519080825280601f01601f191660200182016040528015610432576020820181803683370190505b5090505b84156104b557610447600183611319565b9150610454600a8661178a565b61045f9060306113ae565b60f81b81838151811061047457610474611101565b60200101907effffffffffffffffffffffffffffffffffffffffffffffffffffffffffffff1916908160001a9053506104ae600a86611747565b9450610436565b949350505050565b606080600061055e85600180546104d3906114c2565b80601f01602080910402602001604051908101604052809291908181526020018280546104ff906114c2565b801561054c5780601f106105215761010080835404028352916020019161054c565b820191906000526020600020905b81548152906001019060200180831161052f57829003601f168201915b505060005460ff16925061075b915050565b909250905061056b610948565b6105758635610383565b61058d6105886080890160608a0161179e565b61096d565b61059a8860200135610383565b856105aa868b6101a001356109ef565b896105b3610a52565b6040516020016105ca9897969594939291906117c0565b604051602081830303815290604052925050505b92915050565b606081516000141561060457505060408051602081019091526000815290565b6000604051806060016040528060408152602001612450604091399050600060038451600261063391906113ae565b61063d9190611747565b610648906004611371565b67ffffffffffffffff8111156106605761066061175b565b6040519080825280601f01601f19166020018201604052801561068a576020820181803683370190505b509050600182016020820185865187015b808210156106f6576003820191508151603f8160121c168501518453600184019350603f81600c1c168501518453600184019350603f8160061c168501518453600184019350603f811685015184535060018301925061069b565b505060038651066001811461071257600281146107255761072d565b603d6001830353603d600283035361072d565b603d60018303535b509195945050505050565b60606105de8273ffffffffffffffffffffffffffffffffffffffff166014610db4565b60606000600a815b866101a001358162ffffff1610156109245786610100018162ffffff166004811061079057610790611101565b602002013561079e57610912565b836107a96002610383565b6107b284610383565b6108788a610100018562ffffff16600481106107d0576107d0611101565b60200201356107e08a600a611a74565b8c6080018762ffffff16600481106107fa576107fa611101565b60200201356108099190611747565b8b6108186101808f018f611130565b8862ffffff166004811061082e5761082e611101565b60200281019061083e919061116e565b8080601f01602080910402602001604051908101604052809392919081815260200183838082843760009201919091525061100292505050565b60405160200161088b9493929190611a83565b6040516020818303038152906040529350866101a001358162ffffff1610156108bc576108b96001836113ae565b91505b86610100018162ffffff16600481106108d7576108d7611101565b6020020135876080018262ffffff16600481106108f6576108f6611101565b60200201356109059190611371565b61090f90846113ae565b92505b8061091c81611bd2565b915050610763565b508261093185600a611a74565b61093b9084611747565b9250925050935093915050565b606060405160200161095990611bf5565b604051602081830303815290604052905090565b6060600060405180610100016040528060c4815260200161238c60c491399050600060405180610100016040528060d8815260200161249060d89139905083156109dc5781816040516020016109c4929190612088565b60405160208183030381529060405292505050919050565b81816040516020016109c49291906120e0565b606060006002610a00846001611371565b610a0b90600a6113ae565b610a1591906113ae565b9050610a2081610383565b610a2985610383565b604051602001610a3a929190612138565b60405160208183030381529060405291505092915050565b6060604051602001610959907f3c7374796c653e2e737667426f6479207b666f6e742d66616d696c793a20224881527f656c76657469636122207d2e74696e79207b666f6e742d737472657463683a6e60208201527f6f726d616c3b666f6e742d73697a653a302e35323536323470783b6c696e652d60408201527f6865696768743a312e32353b746578742d616e63686f723a656e643b7768697460608201527f652d73706163653a7072653b66696c6c3a236639663966393b7d2e666f6f746560808201527f72207b666f6e742d737472657463683a6e6f726d616c3b666f6e742d73697a6560a08201527f3a3770783b6c696e652d6865696768743a2e32353b77686974652d737061636560c08201527f3a7072653b66696c6c3a236639663966393b7d2e736d616c6c207b666f6e742d60e08201527f73697a653a302e363570783b746578742d616c69676e3a73746172743b7465786101008201527f742d616e63686f723a73746172743b77686974652d73706163653a7072653b666101208201527f696c6c3a236639663966393b7d2e6d656469756d207b666f6e742d73697a653a6101408201527f302e393270783b666f6e742d66616d696c793a48656c7665746963613b7465786101608201527f742d616c69676e3a656e643b746578742d616e63686f723a656e643b776869746101808201527f652d73706163653a7072653b66696c6c3a236639663966393b7d3c2f7374796c6101a08201527f653e3c6c696e6561724772616469656e742078313d273025272079313d2733306101c08201527f25272078323d27363025272079323d2739302527206772616469656e74556e696101e08201527f74733d277573657253706163654f6e557365272069643d275376676a734c696e6102008201527f6561724772616469656e7432353631273e3c73746f702073746f702d636f6c6f6102208201527f723d277267626128302c2035322c2031312c203131312927206f66667365743d6102408201527f27302e3032273e3c2f73746f703e3c73746f702073746f702d636f6c6f723d276102608201527f726762612839302c2034332c2033302c20322927206f66667365743d2731273e6102808201527f3c2f73746f703e3c2f6c696e6561724772616469656e743e3c2f7376673e00006102a08201526102be0190565b60606000610dc3836002611371565b610dce9060026113ae565b67ffffffffffffffff811115610de657610de661175b565b6040519080825280601f01601f191660200182016040528015610e10576020820181803683370190505b5090507f300000000000000000000000000000000000000000000000000000000000000081600081518110610e4757610e47611101565b60200101907effffffffffffffffffffffffffffffffffffffffffffffffffffffffffffff1916908160001a9053507f780000000000000000000000000000000000000000000000000000000000000081600181518110610eaa57610eaa611101565b60200101907effffffffffffffffffffffffffffffffffffffffffffffffffffffffffffff1916908160001a9053506000610ee6846002611371565b610ef19060016113ae565b90505b6001811115610f8e577f303132333435363738396162636465660000000000000000000000000000000085600f1660108110610f3257610f32611101565b1a60f81b828281518110610f4857610f48611101565b60200101907effffffffffffffffffffffffffffffffffffffffffffffffffffffffffffff1916908160001a90535060049490941c93610f87816122a8565b9050610ef4565b508315610ffb576040517f08c379a000000000000000000000000000000000000000000000000000000000815260206004820181905260248201527f537472696e67733a20686578206c656e67746820696e73756666696369656e74604482015260640160405180910390fd5b9392505050565b606061100d85610383565b828461101887610383565b60405160200161102b94939291906122dd565b6040516020818303038152906040529050949350505050565b60006020828403121561105657600080fd5b813567ffffffffffffffff81111561106d57600080fd5b82016101c08185031215610ffb57600080fd5b60005b8381101561109b578181015183820152602001611083565b838111156110aa576000848401525b50505050565b60208152600082518060208401526110cf816040850160208701611080565b601f017fffffffffffffffffffffffffffffffffffffffffffffffffffffffffffffffe0169190910160400192915050565b7f4e487b7100000000000000000000000000000000000000000000000000000000600052603260045260246000fd5b600082357fffffffffffffffffffffffffffffffffffffffffffffffffffffffffffffff8183360301811261116457600080fd5b9190910192915050565b60008083357fffffffffffffffffffffffffffffffffffffffffffffffffffffffffffffffe18436030181126111a357600080fd5b83018035915067ffffffffffffffff8211156111be57600080fd5b6020019150368190038213156111d357600080fd5b9250929050565b600081516111ec818560208601611080565b9290920192915050565b60008651611208818460208b01611080565b7f7b226465736372697074696f6e223a2200000000000000000000000000000000908301908152858760108301377f222c22616d6f756e74223a220000000000000000000000000000000000000000601091870191820152845161127381601c840160208901611080565b7f222c227072696365506572556e6974223a220000000000000000000000000000601c929091019182015283516112b181602e840160208801611080565b7f227d000000000000000000000000000000000000000000000000000000000000602e9290910191820152603001979650505050505050565b7f4e487b7100000000000000000000000000000000000000000000000000000000600052601160045260246000fd5b60008282101561132b5761132b6112ea565b500390565b60008251611342818460208701611080565b7f2c20000000000000000000000000000000000000000000000000000000000000920191825250600201919050565b6000817fffffffffffffffffffffffffffffffffffffffffffffffffffffffffffffffff04831182151516156113a9576113a96112ea565b500290565b600082198211156113c1576113c16112ea565b500190565b60007fffffffffffffffffffffffffffffffffffffffffffffffffffffffffffffffff8214156113f8576113f86112ea565b5060010190565b60008251611411818460208701611080565b7f5d00000000000000000000000000000000000000000000000000000000000000920191825250600101919050565b60008351611452818460208801611080565b7f2c2022546f74616c436f7374223a220000000000000000000000000000000000908301908152835161148c81600f840160208801611080565b7f2200000000000000000000000000000000000000000000000000000000000000600f9290910191820152601001949350505050565b600181811c908216806114d657607f821691505b60208210811415611510577f4e487b7100000000000000000000000000000000000000000000000000000000600052602260045260246000fd5b50919050565b60006020828403121561152857600080fd5b813573ffffffffffffffffffffffffffffffffffffffff81168114610ffb57600080fd5b7f7b2263726f77647461696e65724964223a220000000000000000000000000000815260008651611584816012850160208b01611080565b7f222c2022766f75636865724964223a220000000000000000000000000000000060129184019182015286516115c1816022840160208b01611080565b7f222c202263757272656e744f776e6572223a22307800000000000000000000006022929091019182015285516115ff816037840160208a01611080565b7f222c20226465736372697074696f6e223a00000000000000000000000000000060379290910191820152845161163d816048840160208901611080565b7f2c2022696d616765223a20220000000000000000000000000000000000000000604892909101918201527f646174613a696d6167652f7376672b786d6c3b6261736536342c00000000000060548201526116c761169e606e8301866111da565b7f227d000000000000000000000000000000000000000000000000000000000000815260020190565b98975050505050505050565b7f646174613a6170706c69636174696f6e2f6a736f6e3b6261736536342c00000081526000825161170b81601d850160208701611080565b91909101601d0192915050565b7f4e487b7100000000000000000000000000000000000000000000000000000000600052601260045260246000fd5b60008261175657611756611718565b500490565b7f4e487b7100000000000000000000000000000000000000000000000000000000600052604160045260246000fd5b60008261179957611799611718565b500690565b6000602082840312156117b057600080fd5b81358015158114610ffb57600080fd5b6000895160206117d38285838f01611080565b8a51918401916117e68184848f01611080565b7f3c2f747370616e3e3c2f746578743e000000000000000000000000000000000092018281528a5190929061182181600f8601858f01611080565b8a5193019261183681600f8601858e01611080565b600f930192830152875161185081601e8501848c01611080565b875192019161186581601e8501848b01611080565b7f3c7465787420786d6c3a73706163653d2270726573657276652220636c617373601e9390910192830152507f3d22666f6f7465722220783d2238352220793d2233383022207472616e73666f603e8201527f726d3d227363616c6528312e303237323733332c302e39373334353038312922605e8201527f3e00000000000000000000000000000000000000000000000000000000000000607e82015261194561193f611916607f8401886111da565b7f3c2f746578743e3c2f673e0000000000000000000000000000000000000000008152600b0190565b856111da565b9b9a5050505050505050505050565b600181815b808511156119ad57817fffffffffffffffffffffffffffffffffffffffffffffffffffffffffffffffff04821115611993576119936112ea565b808516156119a057918102915b93841c9390800290611959565b509250929050565b6000826119c4575060016105de565b816119d1575060006105de565b81600181146119e757600281146119f157611a0d565b60019150506105de565b60ff841115611a0257611a026112ea565b50506001821b6105de565b5060208310610133831016604e8410600b8410161715611a30575081810a6105de565b611a3a8383611954565b807fffffffffffffffffffffffffffffffffffffffffffffffffffffffffffffffff04821115611a6c57611a6c6112ea565b029392505050565b6000610ffb60ff8416836119b5565b60008551611a95818460208a01611080565b80830190507f3c7465787420786d6c3a73706163653d2270726573657276652220636c61737381527f3d22736d616c6c2220783d22000000000000000000000000000000000000000060208201528551611af681602c840160208a01611080565b7f2220793d22000000000000000000000000000000000000000000000000000000602c92909101918201528451611b34816031840160208901611080565b611b8c6031828401017f22207472616e73666f726d3d226d61747269782831362e343931362c302c302c81527f31352e3632373534372c372e3538393737322c362e3939343739303329223e006020820152603f0190565b9150508351611b9f818360208801611080565b7f3c2f746578743e0000000000000000000000000000000000000000000000000091019081526007019695505050505050565b600062ffffff80831681811415611beb57611beb6112ea565b6001019392505050565b7f3c7376672077696474683d223130306d6d22206865696768743d223133306d6d81527f222076696577426f783d223020302033303020343330222076657273696f6e3d60208201527f22312e31222069643d22737667352220636c6173733d22737667426f6479222060408201527f786d6c6e733d22687474703a2f2f7777772e77332e6f72672f323030302f737660608201527f67223e3c672069643d226c6179657231223e3c706174682069643d227061746860808201527f3222207374796c653d22636f6c6f723a233030303030303b66696c6c3a75726c60a08201527f28235376676a734c696e6561724772616469656e7432353631293b66696c6c2d60c08201527f6f7061636974793a302e3839393139333b66696c6c2d72756c653a6576656e6f60e08201527f64643b7374726f6b652d77696474683a312e35343534333b2d696e6b736361706101008201527f652d7374726f6b653a6e6f6e652220643d226d33322e3230322031322e3538716101208201527f2d32362e353034372d2e303231362d32362e343438312032362e3938336c30206101408201527f3336312e37333834712e303131342031312e3833312031352e373236392031316101608201527f2e373830396837362e373937632d2e313630392d312e373431382d2e363733346101808201527f2d31312e3532393120382e313930382d31312e303637392e313435332e3030386101a08201527f2e333831342e303136352e353237352e303136356839302e38303638632e31346101c08201527f36312030202e3338332d2e3030352e353239312d2e30303520362e373031362d6101e08201527f2e30303620372e3730383320392e3335353420372e3833362031312e303536316102008201527f2e303130392e313435332e313335322e323633342e323831332e323633346c386102208201527f302e3039333120307131322e323834392e30322031322e323934372d31322e326102408201527f393437762d3336312e37363639712d2e313036382d32362e393631342d32362e6102608201527f343438322d32362e39383332682d36362e32373934632e3030332031322e36336102808201527f31352e3035303420392e353535392d35342e37323820392e3534362d34382e336102a08201527f34382e303130362d35312e3538353420322e313736382d35312e383034342d396102c08201527f2e373534327a222f3e3c7465787420786d6c3a73706163653d227072657365726102e08201527f76652220636c6173733d226d656469756d2220783d2231302e343738333534226103008201527f20793d2230222069643d227465787431363238302d362d3922207472616e73666103208201527f6f726d3d226d61747269782831362e343931362c302c302c31352e36323735346103408201527f372c372e313332353231312c35342e36363439333229223e00000000000000006103608201527f3c747370616e20783d2231352e3437383335342220793d2231223e43726f77646103788201527f7461696e65722000000000000000000000000000000000000000000000000000610398820152600061039f82016105de565b6000835161209a818460208801611080565b7f596573000000000000000000000000000000000000000000000000000000000090830190815283516120d4816003840160208801611080565b01600301949350505050565b600083516120f2818460208801611080565b7f4e6f000000000000000000000000000000000000000000000000000000000000908301908152835161212c816002840160208801611080565b01600201949350505050565b7f3c7465787420786d6c3a73706163653d2270726573657276652220636c61737381527f3d22736d616c6c2220000000000000000000000000000000000000000000000060208201527f783d22322220793d2200000000000000000000000000000000000000000000006029820152600083516121bc816032850160208801611080565b6122146032828501017f22207472616e73666f726d3d226d61747269782831362e343931362c302c302c81527f31352e3632373534372c372e3538393737322c362e3939343739303329223e006020820152603f0190565b90507f546f74616c20000000000000000000000000000000000000000000000000000081527fefbc84000000000000000000000000000000000000000000000000000000000060068201528351612272816009840160208801611080565b7f3c2f746578743e0000000000000000000000000000000000000000000000000060099290910191820152601001949350505050565b6000816122b7576122b76112ea565b507fffffffffffffffffffffffffffffffffffffffffffffffffffffffffffffffff0190565b600085516122ef818460208a01611080565b7f20207820200000000000000000000000000000000000000000000000000000009083019081528551612329816005840160208a01611080565b7f202d200000000000000000000000000000000000000000000000000000000000600592909101918201528451612367816008840160208901611080565b845191019061237d816008840160208801611080565b01600801969550505050505056fe3c7465787420786d6c3a73706163653d2270726573657276652220636c6173733d2274696e792220783d2231302e3437383335342220793d2230222069643d227465787431363238302d362d392d3722207472616e73666f726d3d226d61747269782831362e343931362c302c302c31352e3632373534372c352e373238323838342c39302e31363030393829223e3c747370616e20783d2231352e3437383335342220793d22312e35222069643d22747370616e31313633223e436c61696d65643a204142434445464748494a4b4c4d4e4f505152535455565758595a6162636465666768696a6b6c6d6e6f707172737475767778797a303132333435363738392b2f3c2f747370616e3e3c2f746578743e3c7465787420786d6c3a73706163653d2270726573657276652220636c6173733d226d656469756d2220783d2231332e3437383335342220793d2231342e31363839393434222069643d227465787431363238302d3622207472616e73666f726d3d226d61747269782831362e343931362c302c302c31352e3632373534372c372e3538393737322c362e3939343739303329223e3c747370616e20783d2231352e3437383335342220793d22352e34222069643d22747370616e31313635223e566f756368657220a26469706673582212209197263e643a7202bbce12de7257af49bc12d788f714a0fdd71008f05ffaa83d64736f6c634300080b0033",
    "linkReferences": {}
  },
  "methodIdentifiers": {
    "uri((uint256,uint256,address,bool,uint256[4],uint256[4],string[4],uint256))": "9b9300f4"
  },
  "id": 27
}