{
  "abi": [
    {
      "inputs": [
        {
          "internalType": "address",
          "name": "expected",
          "type": "address"
        },
        {
          "internalType": "address",
          "name": "actual",
          "type": "address"
        }
      ],
      "name": "CallerNotAllowed",
      "type": "error"
    },
    {
      "inputs": [],
      "name": "CannotLeaveDueAccumulatedReferralCredits",
      "type": "error"
    },
    {
      "inputs": [],
      "name": "CantClaimFundsOnActiveProject",
      "type": "error"
    },
    {
      "inputs": [],
      "name": "ClosingTimeTooEarly",
      "type": "error"
    },
    {
      "inputs": [
        {
          "internalType": "uint256",
          "name": "timestamp",
          "type": "uint256"
        },
        {
          "internalType": "uint256",
          "name": "expiredTime",
          "type": "uint256"
        }
      ],
      "name": "CrowdtainerExpired",
      "type": "error"
    },
    {
      "inputs": [
        {
          "internalType": "uint256",
          "name": "received",
          "type": "uint256"
        },
        {
          "internalType": "uint256",
          "name": "maximum",
          "type": "uint256"
        }
      ],
      "name": "ExceededNumberOfItemsAllowed",
      "type": "error"
    },
    {
      "inputs": [],
      "name": "InsufficientBalance",
      "type": "error"
    },
    {
      "inputs": [],
      "name": "InvalidMaximumTarget",
      "type": "error"
    },
    {
      "inputs": [],
      "name": "InvalidMinimumTarget",
      "type": "error"
    },
    {
      "inputs": [],
      "name": "InvalidNumberOfQuantities",
      "type": "error"
    },
    {
      "inputs": [
        {
          "internalType": "enum CrowdtainerState",
          "name": "state",
          "type": "uint8"
        }
      ],
      "name": "InvalidOperationFor",
      "type": "error"
    },
    {
      "inputs": [],
      "name": "InvalidProductNumberAndPrices",
      "type": "error"
    },
    {
      "inputs": [
        {
          "internalType": "uint256",
          "name": "received",
          "type": "uint256"
        },
        {
          "internalType": "uint256",
          "name": "maximum",
          "type": "uint256"
        }
      ],
      "name": "InvalidReferralRate",
      "type": "error"
    },
    {
      "inputs": [],
      "name": "InvalidSignature",
      "type": "error"
    },
    {
      "inputs": [
        {
          "internalType": "uint256",
          "name": "received",
          "type": "uint256"
        },
        {
          "internalType": "uint256",
          "name": "minimum",
          "type": "uint256"
        }
      ],
      "name": "MinimumPurchaseValueForReferralNotMet",
      "type": "error"
    },
    {
      "inputs": [],
      "name": "MinimumTargetHigherThanMaximum",
      "type": "error"
    },
    {
      "inputs": [
        {
          "internalType": "uint256",
          "name": "minimum",
          "type": "uint256"
        },
        {
          "internalType": "uint256",
          "name": "actual",
          "type": "uint256"
        }
      ],
      "name": "MinimumTargetNotReached",
      "type": "error"
    },
    {
      "inputs": [
        {
          "internalType": "address",
          "name": "wallet",
          "type": "address"
        },
        {
          "internalType": "bytes32",
          "name": "nonce",
          "type": "bytes32"
        }
      ],
      "name": "NonceAlreadyUsed",
      "type": "error"
    },
    {
      "inputs": [
        {
          "internalType": "address",
          "name": "sender",
          "type": "address"
        },
        {
          "internalType": "string[]",
          "name": "urls",
          "type": "string[]"
        },
        {
          "internalType": "bytes",
          "name": "callData",
          "type": "bytes"
        },
        {
          "internalType": "bytes4",
          "name": "callbackFunction",
          "type": "bytes4"
        },
        {
          "internalType": "bytes",
          "name": "extraData",
          "type": "bytes"
        }
      ],
      "name": "OffchainLookup",
      "type": "error"
    },
    {
      "inputs": [
        {
          "internalType": "uint256",
          "name": "timestamp",
          "type": "uint256"
        },
        {
          "internalType": "uint256",
          "name": "openingTime",
          "type": "uint256"
        }
      ],
      "name": "OpeningTimeNotReachedYet",
      "type": "error"
    },
    {
      "inputs": [],
      "name": "PriceTooLow",
      "type": "error"
    },
    {
      "inputs": [
        {
          "internalType": "uint256",
          "name": "received",
          "type": "uint256"
        },
        {
          "internalType": "uint256",
          "name": "maximum",
          "type": "uint256"
        }
      ],
      "name": "PurchaseExceedsMaximumTarget",
      "type": "error"
    },
    {
      "inputs": [],
      "name": "ReferralDisabledForProvidedCode",
      "type": "error"
    },
    {
      "inputs": [],
      "name": "ReferralInexistent",
      "type": "error"
    },
    {
      "inputs": [
        {
          "internalType": "uint256",
          "name": "received",
          "type": "uint256"
        },
        {
          "internalType": "uint256",
          "name": "maximum",
          "type": "uint256"
        }
      ],
      "name": "ReferralMinimumValueTooHigh",
      "type": "error"
    },
    {
      "inputs": [],
      "name": "ReferralRateNotMultipleOfTwo",
      "type": "error"
    },
    {
      "inputs": [],
      "name": "ShippingAgentAddressIsZero",
      "type": "error"
    },
    {
      "inputs": [
        {
          "internalType": "uint64",
          "name": "current",
          "type": "uint64"
        },
        {
          "internalType": "uint64",
          "name": "expires",
          "type": "uint64"
        }
      ],
      "name": "SignatureExpired",
      "type": "error"
    },
    {
      "inputs": [],
      "name": "TokenAddressIsZero",
      "type": "error"
    },
    {
      "inputs": [],
      "name": "UserAlreadyJoined",
      "type": "error"
    },
    {
      "anonymous": false,
      "inputs": [
        {
          "indexed": true,
          "internalType": "string[]",
          "name": "newUrls",
          "type": "string[]"
        }
      ],
      "name": "CCIPURLChanged",
      "type": "event"
    },
    {
      "anonymous": false,
      "inputs": [
        {
          "indexed": true,
          "internalType": "address",
          "name": "owner",
          "type": "address"
        },
        {
          "indexed": true,
          "internalType": "address",
          "name": "shippingAgent",
          "type": "address"
        }
      ],
      "name": "CrowdtainerCreated",
      "type": "event"
    },
    {
      "anonymous": false,
      "inputs": [
        {
          "indexed": true,
          "internalType": "address",
          "name": "shippingAgent",
          "type": "address"
        },
        {
          "indexed": false,
          "internalType": "uint256",
          "name": "totalValueRaised",
          "type": "uint256"
        }
      ],
      "name": "CrowdtainerInDeliveryStage",
      "type": "event"
    },
    {
      "anonymous": false,
      "inputs": [
        {
          "indexed": true,
          "internalType": "address",
          "name": "_owner",
          "type": "address"
        },
        {
          "indexed": false,
          "internalType": "contract IERC20",
          "name": "_token",
          "type": "address"
        },
        {
          "indexed": false,
          "internalType": "uint256",
          "name": "_openingTime",
          "type": "uint256"
        },
        {
          "indexed": false,
          "internalType": "uint256",
          "name": "_expireTime",
          "type": "uint256"
        },
        {
          "indexed": false,
          "internalType": "uint256",
          "name": "_targetMinimum",
          "type": "uint256"
        },
        {
          "indexed": false,
          "internalType": "uint256",
          "name": "_targetMaximum",
          "type": "uint256"
        },
        {
          "indexed": false,
          "internalType": "uint256[4]",
          "name": "_unitPricePerType",
          "type": "uint256[4]"
        },
        {
          "indexed": false,
          "internalType": "uint256",
          "name": "_referralRate",
          "type": "uint256"
        },
        {
          "indexed": false,
          "internalType": "uint256",
          "name": "_referralEligibilityValue",
          "type": "uint256"
        },
        {
          "indexed": false,
          "internalType": "string",
          "name": "_legalContractURI",
          "type": "string"
        },
        {
          "indexed": false,
          "internalType": "address",
          "name": "_signer",
          "type": "address"
        }
      ],
      "name": "CrowdtainerInitialized",
      "type": "event"
    },
    {
      "anonymous": false,
      "inputs": [
        {
          "indexed": true,
          "internalType": "address",
          "name": "wallet",
          "type": "address"
        },
        {
          "indexed": false,
          "internalType": "uint256",
          "name": "withdrawnAmount",
          "type": "uint256"
        }
      ],
      "name": "FundsClaimed",
      "type": "event"
    },
    {
      "anonymous": false,
      "inputs": [
        {
          "indexed": false,
          "internalType": "uint8",
          "name": "version",
          "type": "uint8"
        }
      ],
      "name": "Initialized",
      "type": "event"
    },
    {
      "anonymous": false,
      "inputs": [
        {
          "indexed": true,
          "internalType": "address",
          "name": "wallet",
          "type": "address"
        },
        {
          "indexed": false,
          "internalType": "uint256[4]",
          "name": "quantities",
          "type": "uint256[4]"
        },
        {
          "indexed": true,
          "internalType": "address",
          "name": "referrer",
          "type": "address"
        },
        {
          "indexed": false,
          "internalType": "uint256",
          "name": "finalCost",
          "type": "uint256"
        },
        {
          "indexed": false,
          "internalType": "uint256",
          "name": "appliedDiscount",
          "type": "uint256"
        },
        {
          "indexed": false,
          "internalType": "bool",
          "name": "referralEnabled",
          "type": "bool"
        }
      ],
      "name": "Joined",
      "type": "event"
    },
    {
      "anonymous": false,
      "inputs": [
        {
          "indexed": true,
          "internalType": "address",
          "name": "wallet",
          "type": "address"
        },
        {
          "indexed": false,
          "internalType": "uint256",
          "name": "withdrawnAmount",
          "type": "uint256"
        }
      ],
      "name": "Left",
      "type": "event"
    },
    {
      "anonymous": false,
      "inputs": [
        {
          "indexed": true,
          "internalType": "address",
          "name": "wallet",
          "type": "address"
        },
        {
          "indexed": false,
          "internalType": "uint256",
          "name": "withdrawnAmount",
          "type": "uint256"
        }
      ],
      "name": "RewardsClaimed",
      "type": "event"
    },
    {
      "anonymous": false,
      "inputs": [
        {
          "indexed": true,
          "internalType": "address",
          "name": "newSigner",
          "type": "address"
        }
      ],
      "name": "SignerChanged",
      "type": "event"
    },
    {
      "inputs": [],
      "name": "abortProject",
      "outputs": [],
      "stateMutability": "nonpayable",
      "type": "function"
    },
    {
      "inputs": [],
      "name": "accumulatedRewards",
      "outputs": [
        {
          "internalType": "uint256",
          "name": "",
          "type": "uint256"
        }
      ],
      "stateMutability": "view",
      "type": "function"
    },
    {
      "inputs": [
        {
          "internalType": "address",
          "name": "",
          "type": "address"
        }
      ],
      "name": "accumulatedRewardsOf",
      "outputs": [
        {
          "internalType": "uint256",
          "name": "",
          "type": "uint256"
        }
      ],
      "stateMutability": "view",
      "type": "function"
    },
    {
      "inputs": [],
      "name": "claimFunds",
      "outputs": [],
      "stateMutability": "nonpayable",
      "type": "function"
    },
    {
      "inputs": [],
      "name": "claimRewards",
      "outputs": [],
      "stateMutability": "nonpayable",
      "type": "function"
    },
    {
      "inputs": [],
      "name": "crowdtainerState",
      "outputs": [
        {
          "internalType": "enum CrowdtainerState",
          "name": "",
          "type": "uint8"
        }
      ],
      "stateMutability": "view",
      "type": "function"
    },
    {
      "inputs": [
        {
          "internalType": "address",
          "name": "",
          "type": "address"
        }
      ],
      "name": "discountForUser",
      "outputs": [
        {
          "internalType": "uint256",
          "name": "",
          "type": "uint256"
        }
      ],
      "stateMutability": "view",
      "type": "function"
    },
    {
      "inputs": [],
      "name": "expireTime",
      "outputs": [
        {
          "internalType": "uint256",
          "name": "",
          "type": "uint256"
        }
      ],
      "stateMutability": "view",
      "type": "function"
    },
    {
      "inputs": [],
      "name": "getPaidAndDeliver",
      "outputs": [],
      "stateMutability": "nonpayable",
      "type": "function"
    },
    {
      "inputs": [],
      "name": "getSigner",
      "outputs": [
        {
          "internalType": "address",
          "name": "",
          "type": "address"
        }
      ],
      "stateMutability": "view",
      "type": "function"
    },
    {
      "inputs": [
        {
          "internalType": "address",
          "name": "_owner",
          "type": "address"
        },
        {
          "components": [
            {
              "internalType": "address",
              "name": "shippingAgent",
              "type": "address"
            },
            {
              "internalType": "address",
              "name": "signer",
              "type": "address"
            },
            {
              "internalType": "uint256",
              "name": "openingTime",
              "type": "uint256"
            },
            {
              "internalType": "uint256",
              "name": "expireTime",
              "type": "uint256"
            },
            {
              "internalType": "uint256",
              "name": "targetMinimum",
              "type": "uint256"
            },
            {
              "internalType": "uint256",
              "name": "targetMaximum",
              "type": "uint256"
            },
            {
              "internalType": "uint256[4]",
              "name": "unitPricePerType",
              "type": "uint256[4]"
            },
            {
              "internalType": "uint256",
              "name": "referralRate",
              "type": "uint256"
            },
            {
              "internalType": "uint256",
              "name": "referralEligibilityValue",
              "type": "uint256"
            },
            {
              "internalType": "address",
              "name": "token",
              "type": "address"
            },
            {
              "internalType": "string",
              "name": "legalContractURI",
              "type": "string"
            }
          ],
          "internalType": "struct CampaignData",
          "name": "_campaignData",
          "type": "tuple"
        }
      ],
      "name": "initialize",
      "outputs": [],
      "stateMutability": "nonpayable",
      "type": "function"
    },
    {
      "inputs": [],
      "name": "invariant",
      "outputs": [],
      "stateMutability": "view",
      "type": "function"
    },
    {
      "inputs": [
        {
          "internalType": "address",
          "name": "_wallet",
          "type": "address"
        },
        {
          "internalType": "uint256[4]",
          "name": "_quantities",
          "type": "uint256[4]"
        },
        {
          "internalType": "bool",
          "name": "_enableReferral",
          "type": "bool"
        },
        {
          "internalType": "address",
          "name": "_referrer",
          "type": "address"
        }
      ],
      "name": "join",
      "outputs": [],
      "stateMutability": "nonpayable",
      "type": "function"
    },
    {
      "inputs": [
        {
          "internalType": "address",
          "name": "_wallet",
          "type": "address"
        },
        {
          "internalType": "uint256[4]",
          "name": "_quantities",
          "type": "uint256[4]"
        }
      ],
      "name": "join",
      "outputs": [],
      "stateMutability": "nonpayable",
      "type": "function"
    },
    {
      "inputs": [
        {
          "internalType": "bytes",
          "name": "result",
          "type": "bytes"
        },
        {
          "internalType": "bytes",
          "name": "extraData",
          "type": "bytes"
        }
      ],
      "name": "joinWithSignature",
      "outputs": [],
      "stateMutability": "nonpayable",
      "type": "function"
    },
    {
      "inputs": [
        {
          "internalType": "address",
          "name": "_wallet",
          "type": "address"
        }
      ],
      "name": "leave",
      "outputs": [],
      "stateMutability": "nonpayable",
      "type": "function"
    },
    {
      "inputs": [],
      "name": "legalContractURI",
      "outputs": [
        {
          "internalType": "string",
          "name": "",
          "type": "string"
        }
      ],
      "stateMutability": "view",
      "type": "function"
    },
    {
      "inputs": [],
      "name": "numberOfProducts",
      "outputs": [
        {
          "internalType": "uint256",
          "name": "",
          "type": "uint256"
        }
      ],
      "stateMutability": "view",
      "type": "function"
    },
    {
      "inputs": [],
      "name": "openingTime",
      "outputs": [
        {
          "internalType": "uint256",
          "name": "",
          "type": "uint256"
        }
      ],
      "stateMutability": "view",
      "type": "function"
    },
    {
      "inputs": [],
      "name": "owner",
      "outputs": [
        {
          "internalType": "address",
          "name": "",
          "type": "address"
        }
      ],
      "stateMutability": "view",
      "type": "function"
    },
    {
      "inputs": [],
      "name": "referralEligibilityValue",
      "outputs": [
        {
          "internalType": "uint256",
          "name": "",
          "type": "uint256"
        }
      ],
      "stateMutability": "view",
      "type": "function"
    },
    {
      "inputs": [],
      "name": "referralRate",
      "outputs": [
        {
          "internalType": "uint256",
          "name": "",
          "type": "uint256"
        }
      ],
      "stateMutability": "view",
      "type": "function"
    },
    {
      "inputs": [
        {
          "internalType": "address",
          "name": "",
          "type": "address"
        }
      ],
      "name": "referrerOfReferee",
      "outputs": [
        {
          "internalType": "address",
          "name": "",
          "type": "address"
        }
      ],
      "stateMutability": "view",
      "type": "function"
    },
    {
      "inputs": [
        {
          "internalType": "address",
          "name": "_signer",
          "type": "address"
        }
      ],
      "name": "setSigner",
      "outputs": [],
      "stateMutability": "nonpayable",
      "type": "function"
    },
    {
      "inputs": [
        {
          "internalType": "string[]",
          "name": "_urls",
          "type": "string[]"
        }
      ],
      "name": "setUrls",
      "outputs": [],
      "stateMutability": "nonpayable",
      "type": "function"
    },
    {
      "inputs": [],
      "name": "shippingAgent",
      "outputs": [
        {
          "internalType": "address",
          "name": "",
          "type": "address"
        }
      ],
      "stateMutability": "view",
      "type": "function"
    },
    {
      "inputs": [],
      "name": "targetMaximum",
      "outputs": [
        {
          "internalType": "uint256",
          "name": "",
          "type": "uint256"
        }
      ],
      "stateMutability": "view",
      "type": "function"
    },
    {
      "inputs": [],
      "name": "targetMinimum",
      "outputs": [
        {
          "internalType": "uint256",
          "name": "",
          "type": "uint256"
        }
      ],
      "stateMutability": "view",
      "type": "function"
    },
    {
      "inputs": [],
      "name": "token",
      "outputs": [
        {
          "internalType": "contract IERC20",
          "name": "",
          "type": "address"
        }
      ],
      "stateMutability": "view",
      "type": "function"
    },
    {
      "inputs": [],
      "name": "totalValueRaised",
      "outputs": [
        {
          "internalType": "uint256",
          "name": "",
          "type": "uint256"
        }
      ],
      "stateMutability": "view",
      "type": "function"
    },
    {
      "inputs": [
        {
          "internalType": "uint256",
          "name": "",
          "type": "uint256"
        }
      ],
      "name": "unitPricePerType",
      "outputs": [
        {
          "internalType": "uint256",
          "name": "",
          "type": "uint256"
        }
      ],
      "stateMutability": "view",
      "type": "function"
    },
    {
      "inputs": [
        {
          "internalType": "uint256",
          "name": "",
          "type": "uint256"
        }
      ],
      "name": "urls",
      "outputs": [
        {
          "internalType": "string",
          "name": "",
          "type": "string"
        }
      ],
      "stateMutability": "view",
      "type": "function"
    },
    {
      "inputs": [
        {
          "internalType": "address",
          "name": "",
          "type": "address"
        },
        {
          "internalType": "bytes32",
          "name": "",
          "type": "bytes32"
        }
      ],
      "name": "usedNonces",
      "outputs": [
        {
          "internalType": "bool",
          "name": "",
          "type": "bool"
        }
      ],
      "stateMutability": "view",
      "type": "function"
    }
  ],
  "bytecode": {
    "object": "0x608060405234801561001057600080fd5b5060016000556142ad806100256000396000f3fe608060405234801561001057600080fd5b506004361061020b5760003560e01c80637855d30c1161012a578063ac307773116100bd578063c66301b21161008c578063d4a0f6b811610071578063d4a0f6b814610489578063eb6ced161461049c578063fc0c546a146104bc57600080fd5b8063c66301b214610460578063cf0840561461046957600080fd5b8063ac30777314610434578063b03a9a051461043c578063b7a8807c14610444578063bedf77a61461044d57600080fd5b80638da5cb5b116100f95780638da5cb5b146103f257806390ffbe90146104195780639c81ff6b14610422578063a053ce1f1461042b57600080fd5b80637855d30c14610398578063796676be146103b85780637ac3c02f146103cb5780638831c8dc146103e957600080fd5b8063464eff50116101a25780636c19e783116101715780636c19e7831461034a5780636cc895a91461035d578063708c45611461037057806374b3eceb1461038357600080fd5b8063464eff50146102dd57806353b47656146102f0578063566a2cc2146102f95780635fda04c71461030c57600080fd5b806327949dab116101de57806327949dab146102a3578063310a1ee3146102c3578063312ee7fa146102cc578063372500ab146102d557600080fd5b80630e6137cf1461021057806319cc64921461021a5780631e1b2573146102225780632748608f14610248575b600080fd5b6102186104dc565b005b6102186106ae565b6102356102303660046132f6565b610799565b6040519081526020015b60405180910390f35b61027e610256366004613331565b60066020526000908152604090205473ffffffffffffffffffffffffffffffffffffffff1681565b60405173ffffffffffffffffffffffffffffffffffffffff909116815260200161023f565b6102356102b1366004613331565b60046020526000908152604090205481565b610235600f5481565b61023560075481565b6102186107b0565b6102186102eb36600461337d565b6108a6565b61023560115481565b61021861030736600461341a565b610c56565b61033a61031a366004613486565b600c60209081526000928352604080842090915290825290205460ff1681565b604051901515815260200161023f565b610218610358366004613331565b61109f565b61021861036b3660046135a6565b6111b4565b61021861037e36600461367e565b611253565b61038b6119db565b60405161023f9190613744565b6001546103ab9062010000900460ff1681565b60405161023f9190613786565b61038b6103c63660046132f6565b611a69565b600b5473ffffffffffffffffffffffffffffffffffffffff1661027e565b610235600a5481565b60015461027e906301000000900473ffffffffffffffffffffffffffffffffffffffff1681565b61023560105481565b61023560055481565b61023560175481565b610218611a94565b610218611da9565b610235600e5481565b61021861045b366004613331565b611e3c565b61023560125481565b60025461027e9073ffffffffffffffffffffffffffffffffffffffff1681565b6102186104973660046137c7565b61215a565b6102356104aa366004613331565b60096020526000908152604090205481565b60185461027e9073ffffffffffffffffffffffffffffffffffffffff1681565b60025460015473ffffffffffffffffffffffffffffffffffffffff9182169163010000009091041661069a5760016105138161216b565b600260005403610584576040517f08c379a000000000000000000000000000000000000000000000000000000000815260206004820152601f60248201527f5265656e7472616e637947756172643a207265656e7472616e742063616c6c0060448201526064015b60405180910390fd5b60026000908155600554600a5461059b919061382c565b90506010548110156105e857601054600a546040517f59dc32870000000000000000000000000000000000000000000000000000000081526004810192909252602482015260440161057b565b600180547fffffffffffffffffffffffffffffffffffffffffffffffffffffffffff00ffff16620200001790556002546018546106419173ffffffffffffffffffffffffffffffffffffffff918216913091168461221a565b60025460405182815273ffffffffffffffffffffffffffffffffffffffff909116907f26dc6b7e309de29eb24d6830d1cc0f60c6b5d25d5d4830ce8ba77eb55468f0dc9060200160405180910390a25050600160005550565b6106a3816122b5565b60016105138161216b565b60025460015473ffffffffffffffffffffffffffffffffffffffff918216916301000000909104166107855760016106e58161216b565b600260005403610751576040517f08c379a000000000000000000000000000000000000000000000000000000000815260206004820152601f60248201527f5265656e7472616e637947756172643a207265656e7472616e742063616c6c00604482015260640161057b565b5050600180547fffffffffffffffffffffffffffffffffffffffffffffffffffffffffff00ffff1662030000178155600055565b61078e816122b5565b60016106e58161216b565b601381600481106107a957600080fd5b0154905081565b60026000540361081c576040517f08c379a000000000000000000000000000000000000000000000000000000000815260206004820152601f60248201527f5265656e7472616e637947756172643a207265656e7472616e742063616c6c00604482015260640161057b565b6002600081905561082c8161216b565b336000818152600460205260408120805491905560185490916108689173ffffffffffffffffffffffffffffffffffffffff169030908461221a565b60405181815233907ffc30cddea38e2bf4d6ea7d3f9ed3b6ad7f176419f4963bd81318067a4aee73fe9060200160405180910390a250506001600055565b6001546301000000900473ffffffffffffffffffffffffffffffffffffffff1680610b165760016108d68161216b565b6108de612344565b60026000540361094a576040517f08c379a000000000000000000000000000000000000000000000000000000000815260206004820152601f60248201527f5265656e7472616e637947756172643a207265656e7472616e742063616c6c00604482015260640161057b565b6002600055600b5473ffffffffffffffffffffffffffffffffffffffff1615610aa85730600d6308b7070660e01b308989898960405160240161099195949392919061383f565b604080517fffffffffffffffffffffffffffffffffffffffffffffffffffffffffffffffe0818403018152918152602080830180517bffffffffffffffffffffffffffffffffffffffffffffffffffffffff167fffffffff00000000000000000000000000000000000000000000000000000000909516949094179093525190917f566a2cc20000000000000000000000000000000000000000000000000000000091610a46918c918c918c918c910161388a565b604080517fffffffffffffffffffffffffffffffffffffffffffffffffffffffffffffffe0818403018152908290527f556f183000000000000000000000000000000000000000000000000000000000825261057b95949392916004016139b9565b6001546301000000900473ffffffffffffffffffffffffffffffffffffffff16610ad557610ad5866122b5565b610b0b868660048060200260405190810160405280929190826004602002808284376000920191909152508891508790506123d6565b506001600055610c4f565b610b1f816122b5565b6001610b2a8161216b565b610b32612344565b600260005403610b9e576040517f08c379a000000000000000000000000000000000000000000000000000000000815260206004820152601f60248201527f5265656e7472616e637947756172643a207265656e7472616e742063616c6c00604482015260640161057b565b6002600055600b5473ffffffffffffffffffffffffffffffffffffffff1615610be55730600d6308b7070660e01b308989898960405160240161099195949392919061383f565b6001546301000000900473ffffffffffffffffffffffffffffffffffffffff16610c1257610c12866122b5565b610c48868660048060200260405190810160405280929190826004602002808284376000920191909152508891508790506123d6565b5060016000555b5050505050565b6001546301000000900473ffffffffffffffffffffffffffffffffffffffff1680610e88576001610c868161216b565b610c8e612344565b600260005403610cfa576040517f08c379a000000000000000000000000000000000000000000000000000000000815260206004820152601f60248201527f5265656e7472616e637947756172643a207265656e7472616e742063616c6c00604482015260640161057b565b6002600055600b5473ffffffffffffffffffffffffffffffffffffffff16610d2157600080fd5b6000808080610d3287890189613ab7565b600154939750919550935091506301000000900473ffffffffffffffffffffffffffffffffffffffff16610d6957610d69846122b5565b6000808080610d7a8d8f018f613b68565b9350935093509350600084898989898888604051602001610da19796959493929190613c14565b604080517fffffffffffffffffffffffffffffffffffffffffffffffffffffffffffffffe08184030181529190528051602090910120600b54909150610e03908690839073ffffffffffffffffffffffffffffffffffffffff1687878761290e565b610e0c57600080fd5b600b5473ffffffffffffffffffffffffffffffffffffffff166000908152600c60209081526040808320868452909152902080547fffffffffffffffffffffffffffffffffffffffffffffffffffffffffffffff00166001179055610e73898989896123d6565b5050600160005550610c4f9650505050505050565b610e91816122b5565b6001610e9c8161216b565b610ea4612344565b600260005403610f10576040517f08c379a000000000000000000000000000000000000000000000000000000000815260206004820152601f60248201527f5265656e7472616e637947756172643a207265656e7472616e742063616c6c00604482015260640161057b565b6002600055600b5473ffffffffffffffffffffffffffffffffffffffff16610f3757600080fd5b6000808080610f4887890189613ab7565b600154939750919550935091506301000000900473ffffffffffffffffffffffffffffffffffffffff16610f7f57610f7f846122b5565b6000808080610f908d8f018f613b68565b9350935093509350600084898989898888604051602001610fb79796959493929190613c14565b604080517fffffffffffffffffffffffffffffffffffffffffffffffffffffffffffffffe08184030181529190528051602090910120600b54909150611019908690839073ffffffffffffffffffffffffffffffffffffffff1687878761290e565b61102257600080fd5b600b5473ffffffffffffffffffffffffffffffffffffffff166000908152600c60209081526040808320868452909152902080547fffffffffffffffffffffffffffffffffffffffffffffffffffffffffffffff00166001179055611089898989896123d6565b5050600160005550505050505050505050505050565b60025460015473ffffffffffffffffffffffffffffffffffffffff9182169163010000009091041661113b57600b80547fffffffffffffffffffffffff00000000000000000000000000000000000000001673ffffffffffffffffffffffffffffffffffffffff84169081179091556040517f5719a5656c5cfdaafa148ecf366fd3b0a7fae06449ce2a46225977fb7417e29d90600090a25050565b611144816122b5565b600b80547fffffffffffffffffffffffff00000000000000000000000000000000000000001673ffffffffffffffffffffffffffffffffffffffff84169081179091556040517f5719a5656c5cfdaafa148ecf366fd3b0a7fae06449ce2a46225977fb7417e29d90600090a25050565b60025460015473ffffffffffffffffffffffffffffffffffffffff918216916301000000909104166112375781516111f390600d9060208501906131fa565b50600d6040516112039190613c7e565b604051908190038120907f39865a40d618adb128517d1adfed42d8a2ba08c9766461764840e68a6bf59e0390600090a25050565b611240816122b5565b81516111f390600d9060208501906131fa565b600154610100900460ff161580801561127057506001805460ff16105b806112895750303b15801561128957506001805460ff16145b611315576040517f08c379a000000000000000000000000000000000000000000000000000000000815260206004820152602e60248201527f496e697469616c697a61626c653a20636f6e747261637420697320616c72656160448201527f647920696e697469616c697a6564000000000000000000000000000000000000606482015260840161057b565b600180547fffffffffffffffffffffffffffffffffffffffffffffffffffffffffffffff001681179055801561137257600180547fffffffffffffffffffffffffffffffffffffffffffffffffffffffffffff00ff166101001790555b600061137d8161216b565b600180547fffffffffffffffffff0000000000000000000000000000000000000000ffffff16630100000073ffffffffffffffffffffffffffffffffffffffff87160217905560006113d76101a085016101808601613331565b73ffffffffffffffffffffffffffffffffffffffff1603611424576040517fdc2e5e8d00000000000000000000000000000000000000000000000000000000815260040160405180910390fd5b60006114336020850185613331565b73ffffffffffffffffffffffffffffffffffffffff1603611480576040517fc7b2492000000000000000000000000000000000000000000000000000000000815260040160405180910390fd5b826080013583610160013511156114d4576040517f1e5c82a500000000000000000000000000000000000000000000000000000000815261016084013560048201526080840135602482015260440161057b565b6114e46002610140850135613d68565b1561151b576040517f84d68d9d00000000000000000000000000000000000000000000000000000000815260040160405180910390fd5b61152b610e106040850135613d7c565b83606001351015611568576040517f3c91bee800000000000000000000000000000000000000000000000000000000815260040160405180910390fd5b8260a001356000036115a6576040517fa4c54a6300000000000000000000000000000000000000000000000000000000815260040160405180910390fd5b82608001356000036115e4576040517f7a61fdf700000000000000000000000000000000000000000000000000000000815260040160405180910390fd5b8260a0013583608001351115611626576040517f02179b6c00000000000000000000000000000000000000000000000000000000815260040160405180910390fd5b60005b60048110156116cf578360c001816004811061164757611647613d8f565b6020020135156116cf57620f42408460c001826004811061166a5761166a613d8f565b602002013510156116a7576040517fdbbbe82200000000000000000000000000000000000000000000000000000000815260040160405180910390fd5b601280549060006116b783613dbe565b919050555080806116c790613dbe565b915050611629565b5060125460000361170c576040517fb0e7ef7b00000000000000000000000000000000000000000000000000000000815260040160405180910390fd5b6032836101400135111561175a576040517f9088a55b00000000000000000000000000000000000000000000000000000000815261014084013560048201526032602482015260440161057b565b6117676020840184613331565b600280547fffffffffffffffffffffffff00000000000000000000000000000000000000001673ffffffffffffffffffffffffffffffffffffffff929092169190911790556117bc6040840160208501613331565b600b80547fffffffffffffffffffffffff00000000000000000000000000000000000000001673ffffffffffffffffffffffffffffffffffffffff929092169190911790556040830135600e556060830135600f55608083013560105560a0830135601155611831601360c085016004613250565b506101408301356017556101608301356007556118566101a084016101808501613331565b601880547fffffffffffffffffffffffff00000000000000000000000000000000000000001673ffffffffffffffffffffffffffffffffffffffff929092169190911790556118a96101a0840184613df6565b6019916118b7919083613ea9565b506001805481907fffffffffffffffffffffffffffffffffffffffffffffffffffffffffff00ffff1662010000820217905550600154601854600e54600f54601054601154601754600754600b5460405173ffffffffffffffffffffffffffffffffffffffff6301000000909a048a16997ff4d539cc7b1ecf0d043f59901b71b7b44a25563b872c28e85fe3cb72126dcb239961196b99908216989097909690959094601394919390926019921690613fc3565b60405180910390a25080156119d657600180547fffffffffffffffffffffffffffffffffffffffffffffffffffffffffffff00ff1681556040519081527f7f26b83ff96e1f2b6a682f133852f6798a09c465da95921460cefb38474024989060200160405180910390a15b505050565b601980546119e8906138cb565b80601f0160208091040260200160405190810160405280929190818152602001828054611a14906138cb565b8015611a615780601f10611a3657610100808354040283529160200191611a61565b820191906000526020600020905b815481529060010190602001808311611a4457829003601f168201915b505050505081565b600d8181548110611a7957600080fd5b9060005260206000200160009150905080546119e8906138cb565b600260005403611b00576040517f08c379a000000000000000000000000000000000000000000000000000000000815260206004820152601f60248201527f5265656e7472616e637947756172643a207265656e7472616e742063616c6c00604482015260640161057b565b6002600055600e54421015611b4e57600e546040517f812d154e000000000000000000000000000000000000000000000000000000008152426004820152602481019190915260440161057b565b600060015462010000900460ff166003811115611b6d57611b6d613757565b03611bb1576001546040517f64c3f1f800000000000000000000000000000000000000000000000000000000815261057b9162010000900460ff1690600401613786565b600260015462010000900460ff166003811115611bd057611bd0613757565b03611c14576001546040517f64c3f1f800000000000000000000000000000000000000000000000000000000815261057b9162010000900460ff1690600401613786565b600f5442118015611c355750601054600554600a54611c33919061382c565b105b15611c6857600180547fffffffffffffffffffffffffffffffffffffffffffffffffffffffffff00ffff16620300001790555b600360015462010000900460ff166003811115611c8757611c87613757565b14611cbe576040517f9b61206300000000000000000000000000000000000000000000000000000000815260040160405180910390fd5b336000908152600360209081526040808320805490849055600983528184208490556006909252822080547fffffffffffffffffffffffff000000000000000000000000000000000000000016905590819003611d47576040517ff4d678b800000000000000000000000000000000000000000000000000000000815260040160405180910390fd5b601854611d6c9073ffffffffffffffffffffffffffffffffffffffff1630338461221a565b60405181815233907fa65a8b4f7f65a1063243d7f7e9e4da00ff767599acf21549ef2548a45d1695ae9060200160405180910390a2506001600055565b600060015462010000900460ff166003811115611dc857611dc8613757565b14611e3a57610e10600e54611ddd9190613d7c565b600f541015611dee57611dee614079565b600060115411611e0057611e00614079565b6011546010541115611e1457611e14614079565b60326017541115611e2757611e27614079565b600a5460055410611e3a57611e3a614079565b565b6001546301000000900473ffffffffffffffffffffffffffffffffffffffff1680612146576001611e6c8161216b565b611e74612344565b600260005403611ee0576040517f08c379a000000000000000000000000000000000000000000000000000000000815260206004820152601f60248201527f5265656e7472616e637947756172643a207265656e7472616e742063616c6c00604482015260640161057b565b60026000556001546301000000900473ffffffffffffffffffffffffffffffffffffffff16611f1257611f12836122b5565b73ffffffffffffffffffffffffffffffffffffffff80841660009081526003602090815260408083205460068352818420546009845282852054951680855260049093529083208054919492939091611f6c90849061382c565b909155505073ffffffffffffffffffffffffffffffffffffffff851660009081526004602052604090205415611fce576040517fd273722600000000000000000000000000000000000000000000000000000000815260040160405180910390fd5b73ffffffffffffffffffffffffffffffffffffffff8516600090815260036020526040812054600a80549192909161200790849061382c565b909155505073ffffffffffffffffffffffffffffffffffffffff8516600090815260096020526040812054600580549192909161204590849061382c565b909155505073ffffffffffffffffffffffffffffffffffffffff8086166000908152600360209081526040808320839055600982528083208390556006825280832080547fffffffffffffffffffffffff00000000000000000000000000000000000000001690556008909152902080547fffffffffffffffffffffffffffffffffffffffffffffffffffffffffffffff001690556018546120ea911630878561221a565b8473ffffffffffffffffffffffffffffffffffffffff167faf65ecdc8a0d3ea90c8344c89e7001864fddf59dfdf41da2994463fe99049a598360405161213291815260200190565b60405180910390a250506001600055505050565b61214f816122b5565b6001611e6c8161216b565b61216782826000806108a6565b5050565b80600381111561217d5761217d613757565b60015462010000900460ff16600381111561219a5761219a613757565b146121de576001546040517f64c3f1f800000000000000000000000000000000000000000000000000000000815261057b9162010000900460ff1690600401613786565b8060038111156121f0576121f0613757565b60015462010000900460ff16600381111561220d5761220d613757565b1461221757600080fd5b50565b6040805173ffffffffffffffffffffffffffffffffffffffff85811660248301528416604482015260648082018490528251808303909101815260849091019091526020810180517bffffffffffffffffffffffffffffffffffffffffffffffffffffffff167f23b872dd000000000000000000000000000000000000000000000000000000001790526122af908590612b15565b50505050565b3373ffffffffffffffffffffffffffffffffffffffff821614612322576040517f50a5f40500000000000000000000000000000000000000000000000000000000815233600482015273ffffffffffffffffffffffffffffffffffffffff8216602482015260440161057b565b3373ffffffffffffffffffffffffffffffffffffffff82161461221757600080fd5b600e5442101561238d57600e546040517f812d154e000000000000000000000000000000000000000000000000000000008152426004820152602481019190915260440161057b565b600f54421115611e3a57600f546040517fb73065c1000000000000000000000000000000000000000000000000000000008152426004820152602481019190915260440161057b565b73ffffffffffffffffffffffffffffffffffffffff8416600090815260086020908152604080832080547fffffffffffffffffffffffffffffffffffffffffffffffffffffffffffffff0016861515179055600390915290205415612467576040517ff45d43bf00000000000000000000000000000000000000000000000000000000815260040160405180910390fd5b6000805b60125481101561253c5760c885826004811061248957612489613d8f565b602002015111156124e8578481600481106124a6576124a6613d8f565b60200201516040517f3f257233000000000000000000000000000000000000000000000000000000008152600481019190915260c8602482015260440161057b565b8481600481106124fa576124fa613d8f565b60200201516013826004811061251257612512613d8f565b015461251e91906140a8565b6125289083613d7c565b91508061253481613dbe565b91505061246b565b50620f424081101561257a576040517f87af7e9300000000000000000000000000000000000000000000000000000000815260040160405180910390fd5b828015612588575060075481105b156125cd576007546040517f66338f9600000000000000000000000000000000000000000000000000000000815261057b918391600401918252602082015260400190565b600073ffffffffffffffffffffffffffffffffffffffff8316158015906125f657506000601754115b156126bc5773ffffffffffffffffffffffffffffffffffffffff83166000908152600360205260408120549003612659576040517f55fbf60100000000000000000000000000000000000000000000000000000000815260040160405180910390fd5b73ffffffffffffffffffffffffffffffffffffffff831660009081526008602052604090205460ff166126b8576040517fd74006f400000000000000000000000000000000000000000000000000000000815260040160405180910390fd5b5060015b600081156127dc5760026064601754856126d691906140a8565b6126e091906140e5565b6126ea91906140e5565b90506126f6818461382c565b73ffffffffffffffffffffffffffffffffffffffff8816600090815260096020526040812080549295508392909190612730908490613d7c565b909155505073ffffffffffffffffffffffffffffffffffffffff84166000908152600460205260408120805483929061276a908490613d7c565b9250508190555080600560008282546127839190613d7c565b909155505073ffffffffffffffffffffffffffffffffffffffff878116600090815260066020526040902080547fffffffffffffffffffffffff0000000000000000000000000000000000000000169186169190911790555b73ffffffffffffffffffffffffffffffffffffffff87166000908152600360205260408120849055600a8054859290612816908490613d7c565b9091555050601154600554600a5461282e919061382c565b111561287557600a546011546040517fad9d04bc0000000000000000000000000000000000000000000000000000000081526004810192909252602482015260440161057b565b60185461289a9073ffffffffffffffffffffffffffffffffffffffff1688308661221a565b8373ffffffffffffffffffffffffffffffffffffffff168773ffffffffffffffffffffffffffffffffffffffff167f6d47cedf2ff836145796116ccd8b27cb538f16621a1f844f0d1c2a58e23a499a8886858a6040516128fd94939291906140f9565b60405180910390a350505050505050565b6040517f19457468657265756d205369676e6564204d6573736167653a0a3332000000006020820152603c81018690526000908190612970908490605c0160405160208183030381529060405280519060200120612c2190919063ffffffff16565b90508573ffffffffffffffffffffffffffffffffffffffff168173ffffffffffffffffffffffffffffffffffffffff16146129d7576040517f8baa579f00000000000000000000000000000000000000000000000000000000815260040160405180910390fd5b73ffffffffffffffffffffffffffffffffffffffff88163014612a26576040517f8baa579f00000000000000000000000000000000000000000000000000000000815260040160405180910390fd5b428567ffffffffffffffff1611612a7d576040517f69ad13a000000000000000000000000000000000000000000000000000000000815267ffffffffffffffff42811660048301528616602482015260440161057b565b73ffffffffffffffffffffffffffffffffffffffff86166000908152600c6020908152604080832087845290915290205460ff1615612b07576040517f8674dc3e00000000000000000000000000000000000000000000000000000000815273ffffffffffffffffffffffffffffffffffffffff871660048201526024810185905260440161057b565b506001979650505050505050565b6000612b77826040518060400160405280602081526020017f5361666545524332303a206c6f772d6c6576656c2063616c6c206661696c65648152508573ffffffffffffffffffffffffffffffffffffffff16612c479092919063ffffffff16565b8051909150156119d65780806020019051810190612b959190614124565b6119d6576040517f08c379a000000000000000000000000000000000000000000000000000000000815260206004820152602a60248201527f5361666545524332303a204552433230206f7065726174696f6e20646964206e60448201527f6f74207375636365656400000000000000000000000000000000000000000000606482015260840161057b565b6000806000612c308585612c60565b91509150612c3d81612ca5565b5090505b92915050565b6060612c568484600085612ef9565b90505b9392505050565b6000808251604103612c965760208301516040840151606085015160001a612c8a8782858561308f565b94509450505050612c9e565b506000905060025b9250929050565b6000816004811115612cb957612cb9613757565b03612cc15750565b6001816004811115612cd557612cd5613757565b03612d3c576040517f08c379a000000000000000000000000000000000000000000000000000000000815260206004820152601860248201527f45434453413a20696e76616c6964207369676e61747572650000000000000000604482015260640161057b565b6002816004811115612d5057612d50613757565b03612db7576040517f08c379a000000000000000000000000000000000000000000000000000000000815260206004820152601f60248201527f45434453413a20696e76616c6964207369676e6174757265206c656e67746800604482015260640161057b565b6003816004811115612dcb57612dcb613757565b03612e58576040517f08c379a000000000000000000000000000000000000000000000000000000000815260206004820152602260248201527f45434453413a20696e76616c6964207369676e6174757265202773272076616c60448201527f7565000000000000000000000000000000000000000000000000000000000000606482015260840161057b565b6004816004811115612e6c57612e6c613757565b03612217576040517f08c379a000000000000000000000000000000000000000000000000000000000815260206004820152602260248201527f45434453413a20696e76616c6964207369676e6174757265202776272076616c60448201527f7565000000000000000000000000000000000000000000000000000000000000606482015260840161057b565b606082471015612f8b576040517f08c379a000000000000000000000000000000000000000000000000000000000815260206004820152602660248201527f416464726573733a20696e73756666696369656e742062616c616e636520666f60448201527f722063616c6c0000000000000000000000000000000000000000000000000000606482015260840161057b565b73ffffffffffffffffffffffffffffffffffffffff85163b613009576040517f08c379a000000000000000000000000000000000000000000000000000000000815260206004820152601d60248201527f416464726573733a2063616c6c20746f206e6f6e2d636f6e7472616374000000604482015260640161057b565b6000808673ffffffffffffffffffffffffffffffffffffffff1685876040516130329190614141565b60006040518083038185875af1925050503d806000811461306f576040519150601f19603f3d011682016040523d82523d6000602084013e613074565b606091505b50915091506130848282866131a7565b979650505050505050565b6000807f7fffffffffffffffffffffffffffffff5d576e7357a4501ddfe92f46681b20a08311156130c6575060009050600361319e565b8460ff16601b141580156130de57508460ff16601c14155b156130ef575060009050600461319e565b6040805160008082526020820180845289905260ff881692820192909252606081018690526080810185905260019060a0016020604051602081039080840390855afa158015613143573d6000803e3d6000fd5b50506040517fffffffffffffffffffffffffffffffffffffffffffffffffffffffffffffffe0015191505073ffffffffffffffffffffffffffffffffffffffff81166131975760006001925092505061319e565b9150600090505b94509492505050565b606083156131b6575081612c59565b8251156131c65782518084602001fd5b816040517f08c379a000000000000000000000000000000000000000000000000000000000815260040161057b9190613744565b828054828255906000526020600020908101928215613240579160200282015b828111156132405782518290613230908261415d565b509160200191906001019061321a565b5061324c92915061328a565b5090565b826004810192821561327e579160200282015b8281111561327e578235825591602001919060010190613263565b5061324c9291506132a7565b8082111561324c57600061329e82826132bc565b5060010161328a565b5b8082111561324c57600081556001016132a8565b5080546132c8906138cb565b6000825580601f106132d8575050565b601f01602090049060005260206000209081019061221791906132a7565b60006020828403121561330857600080fd5b5035919050565b73ffffffffffffffffffffffffffffffffffffffff8116811461221757600080fd5b60006020828403121561334357600080fd5b8135612c598161330f565b8060808101831015612c4157600080fd5b801515811461221757600080fd5b80356133788161335f565b919050565b60008060008060e0858703121561339357600080fd5b843561339e8161330f565b93506133ad866020870161334e565b925060a08501356133bd8161335f565b915060c08501356133cd8161330f565b939692955090935050565b60008083601f8401126133ea57600080fd5b50813567ffffffffffffffff81111561340257600080fd5b602083019150836020828501011115612c9e57600080fd5b6000806000806040858703121561343057600080fd5b843567ffffffffffffffff8082111561344857600080fd5b613454888389016133d8565b9096509450602087013591508082111561346d57600080fd5b5061347a878288016133d8565b95989497509550505050565b6000806040838503121561349957600080fd5b82356134a48161330f565b946020939093013593505050565b7f4e487b7100000000000000000000000000000000000000000000000000000000600052604160045260246000fd5b604051601f82017fffffffffffffffffffffffffffffffffffffffffffffffffffffffffffffffe016810167ffffffffffffffff81118282101715613528576135286134b2565b604052919050565b600067ffffffffffffffff83111561354a5761354a6134b2565b61357b60207fffffffffffffffffffffffffffffffffffffffffffffffffffffffffffffffe0601f860116016134e1565b905082815283838301111561358f57600080fd5b828260208301376000602084830101529392505050565b600060208083850312156135b957600080fd5b823567ffffffffffffffff808211156135d157600080fd5b818501915085601f8301126135e557600080fd5b8135818111156135f7576135f76134b2565b8060051b6136068582016134e1565b918252838101850191858101908984111561362057600080fd5b86860192505b838310156136715782358581111561363e5760008081fd5b8601603f81018b136136505760008081fd5b6136618b8983013560408401613530565b8352509186019190860190613626565b9998505050505050505050565b6000806040838503121561369157600080fd5b823561369c8161330f565b9150602083013567ffffffffffffffff8111156136b857600080fd5b83016101c081860312156136cb57600080fd5b809150509250929050565b60005b838110156136f15781810151838201526020016136d9565b50506000910152565b600081518084526137128160208601602086016136d6565b601f017fffffffffffffffffffffffffffffffffffffffffffffffffffffffffffffffe0169290920160200192915050565b602081526000612c5960208301846136fa565b7f4e487b7100000000000000000000000000000000000000000000000000000000600052602160045260246000fd5b60208101600483106137c1577f4e487b7100000000000000000000000000000000000000000000000000000000600052602160045260246000fd5b91905290565b60008060a083850312156137da57600080fd5b82356137e58161330f565b91506137f4846020850161334e565b90509250929050565b7f4e487b7100000000000000000000000000000000000000000000000000000000600052601160045260246000fd5b81810381811115612c4157612c416137fd565b73ffffffffffffffffffffffffffffffffffffffff86811682528581166020830152610100820190608086604085013784151560c084015280841660e0840152509695505050505050565b73ffffffffffffffffffffffffffffffffffffffff858116825260e0820190608086602085013784151560a084015280841660c08401525095945050505050565b600181811c908216806138df57607f821691505b602082108103613918577f4e487b7100000000000000000000000000000000000000000000000000000000600052602260045260246000fd5b50919050565b6000815461392b816138cb565b8085526020600183811680156139485760018114613980576139ae565b7fffffffffffffffffffffffffffffffffffffffffffffffffffffffffffffff008516838901528284151560051b89010195506139ae565b866000528260002060005b858110156139a65781548a820186015290830190840161398b565b890184019650505b505050505092915050565b600060a0820173ffffffffffffffffffffffffffffffffffffffff88168352602060a08185015281885480845260c08601915060c08160051b8701019350896000528260002060005b82811015613a4d577fffffffffffffffffffffffffffffffffffffffffffffffffffffffffffffff40888703018452613a3b868361391e565b95509284019260019182019101613a02565b50505050508281036040840152613a6481876136fa565b7fffffffff000000000000000000000000000000000000000000000000000000008616606085015290508281036080840152613aa081856136fa565b98975050505050505050565b80356133788161330f565b60008060008060e08587031215613acd57600080fd5b8435613ad88161330f565b93506020603f86018713613aeb57600080fd5b6040516080810181811067ffffffffffffffff82111715613b0e57613b0e6134b2565b6040528060a0880189811115613b2357600080fd5b8389015b81811015613b3e5780358352918401918401613b27565b50829650613b4b8161336d565b955050505050613b5d60c08601613aac565b905092959194509250565b60008060008060808587031215613b7e57600080fd5b8435613b898161330f565b9350602085013567ffffffffffffffff8082168214613ba757600080fd5b9093506040860135925060608601359080821115613bc457600080fd5b508501601f81018713613bd657600080fd5b613be587823560208401613530565b91505092959194509250565b8060005b60048110156122af578151845260209384019390910190600101613bf5565b73ffffffffffffffffffffffffffffffffffffffff88811682528781166020830152610140820190613c496040840189613bf1565b86151560c084015280861660e08401525067ffffffffffffffff84166101008301528261012083015298975050505050505050565b600081835483915060008581526020808220825b84811015613d2c57838254613ca6816138cb565b60018281168015613cbe5760018114613cf257613d19565b7fffffffffffffffffffffffffffffffffffffffffffffffffffffffffffffff0084168b5282151560051b8b019450613d19565b868952878920895b84811015613d135781548d820152908301908901613cfa565b8c019550505b5092985050509190910190600101613c92565b5093979650505050505050565b7f4e487b7100000000000000000000000000000000000000000000000000000000600052601260045260246000fd5b600082613d7757613d77613d39565b500690565b80820180821115612c4157612c416137fd565b7f4e487b7100000000000000000000000000000000000000000000000000000000600052603260045260246000fd5b60007fffffffffffffffffffffffffffffffffffffffffffffffffffffffffffffffff8203613def57613def6137fd565b5060010190565b60008083357fffffffffffffffffffffffffffffffffffffffffffffffffffffffffffffffe1843603018112613e2b57600080fd5b83018035915067ffffffffffffffff821115613e4657600080fd5b602001915036819003821315612c9e57600080fd5b601f8211156119d657600081815260208120601f850160051c81016020861015613e825750805b601f850160051c820191505b81811015613ea157828155600101613e8e565b505050505050565b67ffffffffffffffff831115613ec157613ec16134b2565b613ed583613ecf83546138cb565b83613e5b565b6000601f841160018114613f275760008515613ef15750838201355b7fffffffffffffffffffffffffffffffffffffffffffffffffffffffffffffffff600387901b1c1916600186901b178355610c4f565b6000838152602090207fffffffffffffffffffffffffffffffffffffffffffffffffffffffffffffffe0861690835b82811015613f765786850135825560209485019460019092019101613f56565b5086821015613fb1577fffffffffffffffffffffffffffffffffffffffffffffffffffffffffffffffff60f88860031b161c19848701351681555b505060018560011b0183555050505050565b60006101a073ffffffffffffffffffffffffffffffffffffffff8d16835260208c818501528b60408501528a606085015289608085015260a084018960005b600481101561401f57815483529183019160019182019101614002565b505050508661012084015285610140840152806101608401526140448184018661391e565b91505061406a61018083018473ffffffffffffffffffffffffffffffffffffffff169052565b9b9a5050505050505050505050565b7f4e487b7100000000000000000000000000000000000000000000000000000000600052600160045260246000fd5b6000817fffffffffffffffffffffffffffffffffffffffffffffffffffffffffffffffff04831182151516156140e0576140e06137fd565b500290565b6000826140f4576140f4613d39565b500490565b60e081016141078287613bf1565b8460808301528360a083015282151560c083015295945050505050565b60006020828403121561413657600080fd5b8151612c598161335f565b600082516141538184602087016136d6565b9190910192915050565b815167ffffffffffffffff811115614177576141776134b2565b61418b8161418584546138cb565b84613e5b565b602080601f8311600181146141de57600084156141a85750858301515b7fffffffffffffffffffffffffffffffffffffffffffffffffffffffffffffffff600386901b1c1916600185901b178555613ea1565b6000858152602081207fffffffffffffffffffffffffffffffffffffffffffffffffffffffffffffffe08616915b8281101561422b5788860151825594840194600190910190840161420c565b508582101561426757878501517fffffffffffffffffffffffffffffffffffffffffffffffffffffffffffffffff600388901b60f8161c191681555b5050505050600190811b0190555056fea26469706673582212204e436a2a8afba8ccb89eea131ed3d42bca4e5724715c6965a4dd2138a8a5159f64736f6c63430008100033",
    "linkReferences": {}
  },
  "methodIdentifiers": {
    "abortProject()": "19cc6492",
    "accumulatedRewards()": "9c81ff6b",
    "accumulatedRewardsOf(address)": "27949dab",
    "claimFunds()": "ac307773",
    "claimRewards()": "372500ab",
    "crowdtainerState()": "7855d30c",
    "discountForUser(address)": "eb6ced16",
    "expireTime()": "310a1ee3",
    "getPaidAndDeliver()": "0e6137cf",
    "getSigner()": "7ac3c02f",
    "initialize(address,(address,address,uint256,uint256,uint256,uint256,uint256[4],uint256,uint256,address,string))": "708c4561",
    "invariant()": "b03a9a05",
    "join(address,uint256[4])": "d4a0f6b8",
    "join(address,uint256[4],bool,address)": "464eff50",
    "joinWithSignature(bytes,bytes)": "566a2cc2",
    "leave(address)": "bedf77a6",
    "legalContractURI()": "74b3eceb",
    "numberOfProducts()": "c66301b2",
    "openingTime()": "b7a8807c",
    "owner()": "8da5cb5b",
    "referralEligibilityValue()": "312ee7fa",
    "referralRate()": "a053ce1f",
    "referrerOfReferee(address)": "2748608f",
    "setSigner(address)": "6c19e783",
    "setUrls(string[])": "6cc895a9",
    "shippingAgent()": "cf084056",
    "targetMaximum()": "53b47656",
    "targetMinimum()": "90ffbe90",
    "token()": "fc0c546a",
    "totalValueRaised()": "8831c8dc",
    "unitPricePerType(uint256)": "1e1b2573",
    "urls(uint256)": "796676be",
    "usedNonces(address,bytes32)": "5fda04c7"
  },
  "id": 28
}