{
  "abi": [
    {
      "inputs": [
        {
          "internalType": "address",
          "name": "expected",
          "type": "address"
        },
        {
          "internalType": "address",
          "name": "actual",
          "type": "address"
        }
      ],
      "name": "CallerNotAllowed",
      "type": "error"
    },
    {
      "inputs": [],
      "name": "CannotLeaveDueAccumulatedReferralCredits",
      "type": "error"
    },
    {
      "inputs": [],
      "name": "CantClaimFundsOnActiveProject",
      "type": "error"
    },
    {
      "inputs": [],
      "name": "ClosingTimeTooEarly",
      "type": "error"
    },
    {
      "inputs": [
        {
          "internalType": "uint256",
          "name": "timestamp",
          "type": "uint256"
        },
        {
          "internalType": "uint256",
          "name": "expiredTime",
          "type": "uint256"
        }
      ],
      "name": "CrowdtainerExpired",
      "type": "error"
    },
    {
      "inputs": [
        {
          "internalType": "uint256",
          "name": "received",
          "type": "uint256"
        },
        {
          "internalType": "uint256",
          "name": "maximum",
          "type": "uint256"
        }
      ],
      "name": "ExceededNumberOfItemsAllowed",
      "type": "error"
    },
    {
      "inputs": [],
      "name": "InsufficientBalance",
      "type": "error"
    },
    {
      "inputs": [],
      "name": "InvalidMaximumTarget",
      "type": "error"
    },
    {
      "inputs": [],
      "name": "InvalidMinimumTarget",
      "type": "error"
    },
    {
      "inputs": [],
      "name": "InvalidNumberOfQuantities",
      "type": "error"
    },
    {
      "inputs": [
        {
          "internalType": "enum CrowdtainerState",
          "name": "state",
          "type": "uint8"
        }
      ],
      "name": "InvalidOperationFor",
      "type": "error"
    },
    {
      "inputs": [],
      "name": "InvalidProductNumberAndPrices",
      "type": "error"
    },
    {
      "inputs": [
        {
          "internalType": "uint256",
          "name": "received",
          "type": "uint256"
        },
        {
          "internalType": "uint256",
          "name": "maximum",
          "type": "uint256"
        }
      ],
      "name": "InvalidReferralRate",
      "type": "error"
    },
    {
      "inputs": [],
      "name": "InvalidSignature",
      "type": "error"
    },
    {
      "inputs": [
        {
          "internalType": "uint256",
          "name": "received",
          "type": "uint256"
        },
        {
          "internalType": "uint256",
          "name": "minimum",
          "type": "uint256"
        }
      ],
      "name": "MinimumPurchaseValueForReferralNotMet",
      "type": "error"
    },
    {
      "inputs": [],
      "name": "MinimumTargetHigherThanMaximum",
      "type": "error"
    },
    {
      "inputs": [
        {
          "internalType": "uint256",
          "name": "minimum",
          "type": "uint256"
        },
        {
          "internalType": "uint256",
          "name": "actual",
          "type": "uint256"
        }
      ],
      "name": "MinimumTargetNotReached",
      "type": "error"
    },
    {
      "inputs": [
        {
          "internalType": "address",
          "name": "wallet",
          "type": "address"
        },
        {
          "internalType": "bytes32",
          "name": "nonce",
          "type": "bytes32"
        }
      ],
      "name": "NonceAlreadyUsed",
      "type": "error"
    },
    {
      "inputs": [
        {
          "internalType": "address",
          "name": "sender",
          "type": "address"
        },
        {
          "internalType": "string[]",
          "name": "urls",
          "type": "string[]"
        },
        {
          "internalType": "bytes",
          "name": "callData",
          "type": "bytes"
        },
        {
          "internalType": "bytes4",
          "name": "callbackFunction",
          "type": "bytes4"
        },
        {
          "internalType": "bytes",
          "name": "extraData",
          "type": "bytes"
        }
      ],
      "name": "OffchainLookup",
      "type": "error"
    },
    {
      "inputs": [
        {
          "internalType": "uint256",
          "name": "timestamp",
          "type": "uint256"
        },
        {
          "internalType": "uint256",
          "name": "openingTime",
          "type": "uint256"
        }
      ],
      "name": "OpeningTimeNotReachedYet",
      "type": "error"
    },
    {
      "inputs": [],
      "name": "PriceTooLow",
      "type": "error"
    },
    {
      "inputs": [
        {
          "internalType": "uint256",
          "name": "received",
          "type": "uint256"
        },
        {
          "internalType": "uint256",
          "name": "maximum",
          "type": "uint256"
        }
      ],
      "name": "PurchaseExceedsMaximumTarget",
      "type": "error"
    },
    {
      "inputs": [],
      "name": "ReferralDisabledForProvidedCode",
      "type": "error"
    },
    {
      "inputs": [],
      "name": "ReferralInexistent",
      "type": "error"
    },
    {
      "inputs": [
        {
          "internalType": "uint256",
          "name": "received",
          "type": "uint256"
        },
        {
          "internalType": "uint256",
          "name": "maximum",
          "type": "uint256"
        }
      ],
      "name": "ReferralMinimumValueTooHigh",
      "type": "error"
    },
    {
      "inputs": [],
      "name": "ReferralRateNotMultipleOfTwo",
      "type": "error"
    },
    {
      "inputs": [],
      "name": "ShippingAgentAddressIsZero",
      "type": "error"
    },
    {
      "inputs": [
        {
          "internalType": "uint64",
          "name": "current",
          "type": "uint64"
        },
        {
          "internalType": "uint64",
          "name": "expires",
          "type": "uint64"
        }
      ],
      "name": "SignatureExpired",
      "type": "error"
    },
    {
      "inputs": [],
      "name": "TokenAddressIsZero",
      "type": "error"
    },
    {
      "inputs": [],
      "name": "UserAlreadyJoined",
      "type": "error"
    },
    {
      "anonymous": false,
      "inputs": [
        {
          "indexed": true,
          "internalType": "string[]",
          "name": "newUrls",
          "type": "string[]"
        }
      ],
      "name": "CCIPURLChanged",
      "type": "event"
    },
    {
      "anonymous": false,
      "inputs": [
        {
          "indexed": true,
          "internalType": "address",
          "name": "owner",
          "type": "address"
        },
        {
          "indexed": true,
          "internalType": "address",
          "name": "shippingAgent",
          "type": "address"
        }
      ],
      "name": "CrowdtainerCreated",
      "type": "event"
    },
    {
      "anonymous": false,
      "inputs": [
        {
          "indexed": true,
          "internalType": "address",
          "name": "shippingAgent",
          "type": "address"
        },
        {
          "indexed": false,
          "internalType": "uint256",
          "name": "totalValueRaised",
          "type": "uint256"
        }
      ],
      "name": "CrowdtainerInDeliveryStage",
      "type": "event"
    },
    {
      "anonymous": false,
      "inputs": [
        {
          "indexed": true,
          "internalType": "address",
          "name": "_owner",
          "type": "address"
        },
        {
          "indexed": false,
          "internalType": "contract IERC20",
          "name": "_token",
          "type": "address"
        },
        {
          "indexed": false,
          "internalType": "uint256",
          "name": "_openingTime",
          "type": "uint256"
        },
        {
          "indexed": false,
          "internalType": "uint256",
          "name": "_expireTime",
          "type": "uint256"
        },
        {
          "indexed": false,
          "internalType": "uint256",
          "name": "_targetMinimum",
          "type": "uint256"
        },
        {
          "indexed": false,
          "internalType": "uint256",
          "name": "_targetMaximum",
          "type": "uint256"
        },
        {
          "indexed": false,
          "internalType": "uint256[4]",
          "name": "_unitPricePerType",
          "type": "uint256[4]"
        },
        {
          "indexed": false,
          "internalType": "uint256",
          "name": "_referralRate",
          "type": "uint256"
        },
        {
          "indexed": false,
          "internalType": "uint256",
          "name": "_referralEligibilityValue",
          "type": "uint256"
        },
        {
          "indexed": false,
          "internalType": "string",
          "name": "_legalContractURI",
          "type": "string"
        },
        {
          "indexed": false,
          "internalType": "address",
          "name": "_signer",
          "type": "address"
        }
      ],
      "name": "CrowdtainerInitialized",
      "type": "event"
    },
    {
      "anonymous": false,
      "inputs": [
        {
          "indexed": true,
          "internalType": "address",
          "name": "wallet",
          "type": "address"
        },
        {
          "indexed": false,
          "internalType": "uint256",
          "name": "withdrawnAmount",
          "type": "uint256"
        }
      ],
      "name": "FundsClaimed",
      "type": "event"
    },
    {
      "anonymous": false,
      "inputs": [
        {
          "indexed": false,
          "internalType": "uint8",
          "name": "version",
          "type": "uint8"
        }
      ],
      "name": "Initialized",
      "type": "event"
    },
    {
      "anonymous": false,
      "inputs": [
        {
          "indexed": true,
          "internalType": "address",
          "name": "wallet",
          "type": "address"
        },
        {
          "indexed": false,
          "internalType": "uint256[4]",
          "name": "quantities",
          "type": "uint256[4]"
        },
        {
          "indexed": true,
          "internalType": "address",
          "name": "referrer",
          "type": "address"
        },
        {
          "indexed": false,
          "internalType": "uint256",
          "name": "finalCost",
          "type": "uint256"
        },
        {
          "indexed": false,
          "internalType": "uint256",
          "name": "appliedDiscount",
          "type": "uint256"
        },
        {
          "indexed": false,
          "internalType": "bool",
          "name": "referralEnabled",
          "type": "bool"
        }
      ],
      "name": "Joined",
      "type": "event"
    },
    {
      "anonymous": false,
      "inputs": [
        {
          "indexed": true,
          "internalType": "address",
          "name": "wallet",
          "type": "address"
        },
        {
          "indexed": false,
          "internalType": "uint256",
          "name": "withdrawnAmount",
          "type": "uint256"
        }
      ],
      "name": "Left",
      "type": "event"
    },
    {
      "anonymous": false,
      "inputs": [
        {
          "indexed": true,
          "internalType": "address",
          "name": "wallet",
          "type": "address"
        },
        {
          "indexed": false,
          "internalType": "uint256",
          "name": "withdrawnAmount",
          "type": "uint256"
        }
      ],
      "name": "RewardsClaimed",
      "type": "event"
    },
    {
      "anonymous": false,
      "inputs": [
        {
          "indexed": true,
          "internalType": "address",
          "name": "newSigner",
          "type": "address"
        }
      ],
      "name": "SignerChanged",
      "type": "event"
    },
    {
      "inputs": [],
      "name": "abortProject",
      "outputs": [],
      "stateMutability": "nonpayable",
      "type": "function"
    },
    {
      "inputs": [],
      "name": "accumulatedRewards",
      "outputs": [
        {
          "internalType": "uint256",
          "name": "",
          "type": "uint256"
        }
      ],
      "stateMutability": "view",
      "type": "function"
    },
    {
      "inputs": [
        {
          "internalType": "address",
          "name": "",
          "type": "address"
        }
      ],
      "name": "accumulatedRewardsOf",
      "outputs": [
        {
          "internalType": "uint256",
          "name": "",
          "type": "uint256"
        }
      ],
      "stateMutability": "view",
      "type": "function"
    },
    {
      "inputs": [],
      "name": "claimFunds",
      "outputs": [],
      "stateMutability": "nonpayable",
      "type": "function"
    },
    {
      "inputs": [],
      "name": "claimRewards",
      "outputs": [],
      "stateMutability": "nonpayable",
      "type": "function"
    },
    {
      "inputs": [
        {
          "internalType": "address",
          "name": "",
          "type": "address"
        }
      ],
      "name": "costForWallet",
      "outputs": [
        {
          "internalType": "uint256",
          "name": "",
          "type": "uint256"
        }
      ],
      "stateMutability": "view",
      "type": "function"
    },
    {
      "inputs": [],
      "name": "crowdtainerState",
      "outputs": [
        {
          "internalType": "enum CrowdtainerState",
          "name": "",
          "type": "uint8"
        }
      ],
      "stateMutability": "view",
      "type": "function"
    },
    {
      "inputs": [
        {
          "internalType": "address",
          "name": "",
          "type": "address"
        }
      ],
      "name": "discountForUser",
      "outputs": [
        {
          "internalType": "uint256",
          "name": "",
          "type": "uint256"
        }
      ],
      "stateMutability": "view",
      "type": "function"
    },
    {
      "inputs": [],
      "name": "expireTime",
      "outputs": [
        {
          "internalType": "uint256",
          "name": "",
          "type": "uint256"
        }
      ],
      "stateMutability": "view",
      "type": "function"
    },
    {
      "inputs": [],
      "name": "getPaidAndDeliver",
      "outputs": [],
      "stateMutability": "nonpayable",
      "type": "function"
    },
    {
      "inputs": [],
      "name": "getSigner",
      "outputs": [
        {
          "internalType": "address",
          "name": "",
          "type": "address"
        }
      ],
      "stateMutability": "view",
      "type": "function"
    },
    {
      "inputs": [
        {
          "internalType": "address",
          "name": "_owner",
          "type": "address"
        },
        {
          "components": [
            {
              "internalType": "address",
              "name": "shippingAgent",
              "type": "address"
            },
            {
              "internalType": "address",
              "name": "signer",
              "type": "address"
            },
            {
              "internalType": "uint256",
              "name": "openingTime",
              "type": "uint256"
            },
            {
              "internalType": "uint256",
              "name": "expireTime",
              "type": "uint256"
            },
            {
              "internalType": "uint256",
              "name": "targetMinimum",
              "type": "uint256"
            },
            {
              "internalType": "uint256",
              "name": "targetMaximum",
              "type": "uint256"
            },
            {
              "internalType": "uint256[4]",
              "name": "unitPricePerType",
              "type": "uint256[4]"
            },
            {
              "internalType": "uint256",
              "name": "referralRate",
              "type": "uint256"
            },
            {
              "internalType": "uint256",
              "name": "referralEligibilityValue",
              "type": "uint256"
            },
            {
              "internalType": "address",
              "name": "token",
              "type": "address"
            },
            {
              "internalType": "string",
              "name": "legalContractURI",
              "type": "string"
            }
          ],
          "internalType": "struct CampaignData",
          "name": "_campaignData",
          "type": "tuple"
        }
      ],
      "name": "initialize",
      "outputs": [],
      "stateMutability": "nonpayable",
      "type": "function"
    },
    {
      "inputs": [],
      "name": "invariant",
      "outputs": [],
      "stateMutability": "view",
      "type": "function"
    },
    {
      "inputs": [
        {
          "internalType": "address",
          "name": "_wallet",
          "type": "address"
        },
        {
          "internalType": "uint256[4]",
          "name": "_quantities",
          "type": "uint256[4]"
        },
        {
          "internalType": "bool",
          "name": "_enableReferral",
          "type": "bool"
        },
        {
          "internalType": "address",
          "name": "_referrer",
          "type": "address"
        }
      ],
      "name": "join",
      "outputs": [],
      "stateMutability": "nonpayable",
      "type": "function"
    },
    {
      "inputs": [
        {
          "internalType": "address",
          "name": "_wallet",
          "type": "address"
        },
        {
          "internalType": "uint256[4]",
          "name": "_quantities",
          "type": "uint256[4]"
        }
      ],
      "name": "join",
      "outputs": [],
      "stateMutability": "nonpayable",
      "type": "function"
    },
    {
      "inputs": [
        {
          "internalType": "bytes",
          "name": "result",
          "type": "bytes"
        },
        {
          "internalType": "bytes",
          "name": "extraData",
          "type": "bytes"
        }
      ],
      "name": "joinWithSignature",
      "outputs": [],
      "stateMutability": "nonpayable",
      "type": "function"
    },
    {
      "inputs": [
        {
          "internalType": "address",
          "name": "_wallet",
          "type": "address"
        }
      ],
      "name": "leave",
      "outputs": [],
      "stateMutability": "nonpayable",
      "type": "function"
    },
    {
      "inputs": [],
      "name": "legalContractURI",
      "outputs": [
        {
          "internalType": "string",
          "name": "",
          "type": "string"
        }
      ],
      "stateMutability": "view",
      "type": "function"
    },
    {
      "inputs": [],
      "name": "numberOfProducts",
      "outputs": [
        {
          "internalType": "uint256",
          "name": "",
          "type": "uint256"
        }
      ],
      "stateMutability": "view",
      "type": "function"
    },
    {
      "inputs": [],
      "name": "openingTime",
      "outputs": [
        {
          "internalType": "uint256",
          "name": "",
          "type": "uint256"
        }
      ],
      "stateMutability": "view",
      "type": "function"
    },
    {
      "inputs": [],
      "name": "owner",
      "outputs": [
        {
          "internalType": "address",
          "name": "",
          "type": "address"
        }
      ],
      "stateMutability": "view",
      "type": "function"
    },
    {
      "inputs": [],
      "name": "referralEligibilityValue",
      "outputs": [
        {
          "internalType": "uint256",
          "name": "",
          "type": "uint256"
        }
      ],
      "stateMutability": "view",
      "type": "function"
    },
    {
      "inputs": [],
      "name": "referralRate",
      "outputs": [
        {
          "internalType": "uint256",
          "name": "",
          "type": "uint256"
        }
      ],
      "stateMutability": "view",
      "type": "function"
    },
    {
      "inputs": [
        {
          "internalType": "address",
          "name": "",
          "type": "address"
        }
      ],
      "name": "referrerOfReferee",
      "outputs": [
        {
          "internalType": "address",
          "name": "",
          "type": "address"
        }
      ],
      "stateMutability": "view",
      "type": "function"
    },
    {
      "inputs": [
        {
          "internalType": "address",
          "name": "_signer",
          "type": "address"
        }
      ],
      "name": "setSigner",
      "outputs": [],
      "stateMutability": "nonpayable",
      "type": "function"
    },
    {
      "inputs": [
        {
          "internalType": "string[]",
          "name": "_urls",
          "type": "string[]"
        }
      ],
      "name": "setUrls",
      "outputs": [],
      "stateMutability": "nonpayable",
      "type": "function"
    },
    {
      "inputs": [],
      "name": "shippingAgent",
      "outputs": [
        {
          "internalType": "address",
          "name": "",
          "type": "address"
        }
      ],
      "stateMutability": "view",
      "type": "function"
    },
    {
      "inputs": [],
      "name": "targetMaximum",
      "outputs": [
        {
          "internalType": "uint256",
          "name": "",
          "type": "uint256"
        }
      ],
      "stateMutability": "view",
      "type": "function"
    },
    {
      "inputs": [],
      "name": "targetMinimum",
      "outputs": [
        {
          "internalType": "uint256",
          "name": "",
          "type": "uint256"
        }
      ],
      "stateMutability": "view",
      "type": "function"
    },
    {
      "inputs": [],
      "name": "token",
      "outputs": [
        {
          "internalType": "contract IERC20",
          "name": "",
          "type": "address"
        }
      ],
      "stateMutability": "view",
      "type": "function"
    },
    {
      "inputs": [],
      "name": "totalValueRaised",
      "outputs": [
        {
          "internalType": "uint256",
          "name": "",
          "type": "uint256"
        }
      ],
      "stateMutability": "view",
      "type": "function"
    },
    {
      "inputs": [
        {
          "internalType": "uint256",
          "name": "",
          "type": "uint256"
        }
      ],
      "name": "unitPricePerType",
      "outputs": [
        {
          "internalType": "uint256",
          "name": "",
          "type": "uint256"
        }
      ],
      "stateMutability": "view",
      "type": "function"
    },
    {
      "inputs": [
        {
          "internalType": "uint256",
          "name": "",
          "type": "uint256"
        }
      ],
      "name": "urls",
      "outputs": [
        {
          "internalType": "string",
          "name": "",
          "type": "string"
        }
      ],
      "stateMutability": "view",
      "type": "function"
    },
    {
      "inputs": [
        {
          "internalType": "address",
          "name": "",
          "type": "address"
        },
        {
          "internalType": "bytes32",
          "name": "",
          "type": "bytes32"
        }
      ],
      "name": "usedNonces",
      "outputs": [
        {
          "internalType": "bool",
          "name": "",
          "type": "bool"
        }
      ],
      "stateMutability": "view",
      "type": "function"
    }
  ],
  "bytecode": {
    "object": "0x608060405234801561001057600080fd5b5060016000556142e8806100256000396000f3fe608060405234801561001057600080fd5b50600436106102265760003560e01c8063796676be1161012a578063ac307773116100bd578063c66301b21161008c578063d4a0f6b811610071578063d4a0f6b8146104c4578063eb6ced16146104d7578063fc0c546a146104f757600080fd5b8063c66301b21461049b578063cf084056146104a457600080fd5b8063ac3077731461046f578063b03a9a0514610477578063b7a8807c1461047f578063bedf77a61461048857600080fd5b806390ffbe90116100f957806390ffbe90146104345780639c81ff6b1461043d578063a053ce1f14610446578063aab1e47b1461044f57600080fd5b8063796676be146103d35780637ac3c02f146103e65780638831c8dc146104045780638da5cb5b1461040d57600080fd5b8063464eff50116101bd5780636c19e7831161018c578063708c456111610171578063708c45611461038b57806374b3eceb1461039e5780637855d30c146103b357600080fd5b80636c19e783146103655780636cc895a91461037857600080fd5b8063464eff50146102f857806353b476561461030b578063566a2cc2146103145780635fda04c71461032757600080fd5b806327949dab116101f957806327949dab146102be578063310a1ee3146102de578063312ee7fa146102e7578063372500ab146102f057600080fd5b80630e6137cf1461022b57806319cc6492146102355780631e1b25731461023d5780632748608f14610263575b600080fd5b610233610517565b005b6102336106e9565b61025061024b366004613331565b6107d4565b6040519081526020015b60405180910390f35b61029961027136600461336c565b60066020526000908152604090205473ffffffffffffffffffffffffffffffffffffffff1681565b60405173ffffffffffffffffffffffffffffffffffffffff909116815260200161025a565b6102506102cc36600461336c565b60046020526000908152604090205481565b610250600f5481565b61025060075481565b6102336107eb565b6102336103063660046133b8565b6108e1565b61025060115481565b610233610322366004613455565b610c91565b6103556103353660046134c1565b600c60209081526000928352604080842090915290825290205460ff1681565b604051901515815260200161025a565b61023361037336600461336c565b6110da565b6102336103863660046135e1565b6111ef565b6102336103993660046136b9565b61128e565b6103a6611a16565b60405161025a919061377f565b6001546103c69062010000900460ff1681565b60405161025a91906137c1565b6103a66103e1366004613331565b611aa4565b600b5473ffffffffffffffffffffffffffffffffffffffff16610299565b610250600a5481565b600154610299906301000000900473ffffffffffffffffffffffffffffffffffffffff1681565b61025060105481565b61025060055481565b61025060175481565b61025061045d36600461336c565b60036020526000908152604090205481565b610233611acf565b610233611de4565b610250600e5481565b61023361049636600461336c565b611e77565b61025060125481565b6002546102999073ffffffffffffffffffffffffffffffffffffffff1681565b6102336104d2366004613802565b612195565b6102506104e536600461336c565b60096020526000908152604090205481565b6018546102999073ffffffffffffffffffffffffffffffffffffffff1681565b60025460015473ffffffffffffffffffffffffffffffffffffffff918216916301000000909104166106d557600161054e816121a6565b6002600054036105bf576040517f08c379a000000000000000000000000000000000000000000000000000000000815260206004820152601f60248201527f5265656e7472616e637947756172643a207265656e7472616e742063616c6c0060448201526064015b60405180910390fd5b60026000908155600554600a546105d69190613867565b905060105481101561062357601054600a546040517f59dc3287000000000000000000000000000000000000000000000000000000008152600481019290925260248201526044016105b6565b600180547fffffffffffffffffffffffffffffffffffffffffffffffffffffffffff00ffff166202000017905560025460185461067c9173ffffffffffffffffffffffffffffffffffffffff9182169130911684612255565b60025460405182815273ffffffffffffffffffffffffffffffffffffffff909116907f26dc6b7e309de29eb24d6830d1cc0f60c6b5d25d5d4830ce8ba77eb55468f0dc9060200160405180910390a25050600160005550565b6106de816122f0565b600161054e816121a6565b60025460015473ffffffffffffffffffffffffffffffffffffffff918216916301000000909104166107c0576001610720816121a6565b60026000540361078c576040517f08c379a000000000000000000000000000000000000000000000000000000000815260206004820152601f60248201527f5265656e7472616e637947756172643a207265656e7472616e742063616c6c0060448201526064016105b6565b5050600180547fffffffffffffffffffffffffffffffffffffffffffffffffffffffffff00ffff1662030000178155600055565b6107c9816122f0565b6001610720816121a6565b601381600481106107e457600080fd5b0154905081565b600260005403610857576040517f08c379a000000000000000000000000000000000000000000000000000000000815260206004820152601f60248201527f5265656e7472616e637947756172643a207265656e7472616e742063616c6c0060448201526064016105b6565b60026000819055610867816121a6565b336000818152600460205260408120805491905560185490916108a39173ffffffffffffffffffffffffffffffffffffffff1690309084612255565b60405181815233907ffc30cddea38e2bf4d6ea7d3f9ed3b6ad7f176419f4963bd81318067a4aee73fe9060200160405180910390a250506001600055565b6001546301000000900473ffffffffffffffffffffffffffffffffffffffff1680610b51576001610911816121a6565b61091961237f565b600260005403610985576040517f08c379a000000000000000000000000000000000000000000000000000000000815260206004820152601f60248201527f5265656e7472616e637947756172643a207265656e7472616e742063616c6c0060448201526064016105b6565b6002600055600b5473ffffffffffffffffffffffffffffffffffffffff1615610ae35730600d6308b7070660e01b30898989896040516024016109cc95949392919061387a565b604080517fffffffffffffffffffffffffffffffffffffffffffffffffffffffffffffffe0818403018152918152602080830180517bffffffffffffffffffffffffffffffffffffffffffffffffffffffff167fffffffff00000000000000000000000000000000000000000000000000000000909516949094179093525190917f566a2cc20000000000000000000000000000000000000000000000000000000091610a81918c918c918c918c91016138c5565b604080517fffffffffffffffffffffffffffffffffffffffffffffffffffffffffffffffe0818403018152908290527f556f18300000000000000000000000000000000000000000000000000000000082526105b695949392916004016139f4565b6001546301000000900473ffffffffffffffffffffffffffffffffffffffff16610b1057610b10866122f0565b610b4686866004806020026040519081016040528092919082600460200280828437600092019190915250889150879050612411565b506001600055610c8a565b610b5a816122f0565b6001610b65816121a6565b610b6d61237f565b600260005403610bd9576040517f08c379a000000000000000000000000000000000000000000000000000000000815260206004820152601f60248201527f5265656e7472616e637947756172643a207265656e7472616e742063616c6c0060448201526064016105b6565b6002600055600b5473ffffffffffffffffffffffffffffffffffffffff1615610c205730600d6308b7070660e01b30898989896040516024016109cc95949392919061387a565b6001546301000000900473ffffffffffffffffffffffffffffffffffffffff16610c4d57610c4d866122f0565b610c8386866004806020026040519081016040528092919082600460200280828437600092019190915250889150879050612411565b5060016000555b5050505050565b6001546301000000900473ffffffffffffffffffffffffffffffffffffffff1680610ec3576001610cc1816121a6565b610cc961237f565b600260005403610d35576040517f08c379a000000000000000000000000000000000000000000000000000000000815260206004820152601f60248201527f5265656e7472616e637947756172643a207265656e7472616e742063616c6c0060448201526064016105b6565b6002600055600b5473ffffffffffffffffffffffffffffffffffffffff16610d5c57600080fd5b6000808080610d6d87890189613af2565b600154939750919550935091506301000000900473ffffffffffffffffffffffffffffffffffffffff16610da457610da4846122f0565b6000808080610db58d8f018f613ba3565b9350935093509350600084898989898888604051602001610ddc9796959493929190613c4f565b604080517fffffffffffffffffffffffffffffffffffffffffffffffffffffffffffffffe08184030181529190528051602090910120600b54909150610e3e908690839073ffffffffffffffffffffffffffffffffffffffff16878787612949565b610e4757600080fd5b600b5473ffffffffffffffffffffffffffffffffffffffff166000908152600c60209081526040808320868452909152902080547fffffffffffffffffffffffffffffffffffffffffffffffffffffffffffffff00166001179055610eae89898989612411565b5050600160005550610c8a9650505050505050565b610ecc816122f0565b6001610ed7816121a6565b610edf61237f565b600260005403610f4b576040517f08c379a000000000000000000000000000000000000000000000000000000000815260206004820152601f60248201527f5265656e7472616e637947756172643a207265656e7472616e742063616c6c0060448201526064016105b6565b6002600055600b5473ffffffffffffffffffffffffffffffffffffffff16610f7257600080fd5b6000808080610f8387890189613af2565b600154939750919550935091506301000000900473ffffffffffffffffffffffffffffffffffffffff16610fba57610fba846122f0565b6000808080610fcb8d8f018f613ba3565b9350935093509350600084898989898888604051602001610ff29796959493929190613c4f565b604080517fffffffffffffffffffffffffffffffffffffffffffffffffffffffffffffffe08184030181529190528051602090910120600b54909150611054908690839073ffffffffffffffffffffffffffffffffffffffff16878787612949565b61105d57600080fd5b600b5473ffffffffffffffffffffffffffffffffffffffff166000908152600c60209081526040808320868452909152902080547fffffffffffffffffffffffffffffffffffffffffffffffffffffffffffffff001660011790556110c489898989612411565b5050600160005550505050505050505050505050565b60025460015473ffffffffffffffffffffffffffffffffffffffff9182169163010000009091041661117657600b80547fffffffffffffffffffffffff00000000000000000000000000000000000000001673ffffffffffffffffffffffffffffffffffffffff84169081179091556040517f5719a5656c5cfdaafa148ecf366fd3b0a7fae06449ce2a46225977fb7417e29d90600090a25050565b61117f816122f0565b600b80547fffffffffffffffffffffffff00000000000000000000000000000000000000001673ffffffffffffffffffffffffffffffffffffffff84169081179091556040517f5719a5656c5cfdaafa148ecf366fd3b0a7fae06449ce2a46225977fb7417e29d90600090a25050565b60025460015473ffffffffffffffffffffffffffffffffffffffff9182169163010000009091041661127257815161122e90600d906020850190613235565b50600d60405161123e9190613cb9565b604051908190038120907f39865a40d618adb128517d1adfed42d8a2ba08c9766461764840e68a6bf59e0390600090a25050565b61127b816122f0565b815161122e90600d906020850190613235565b600154610100900460ff16158080156112ab57506001805460ff16105b806112c45750303b1580156112c457506001805460ff16145b611350576040517f08c379a000000000000000000000000000000000000000000000000000000000815260206004820152602e60248201527f496e697469616c697a61626c653a20636f6e747261637420697320616c72656160448201527f647920696e697469616c697a656400000000000000000000000000000000000060648201526084016105b6565b600180547fffffffffffffffffffffffffffffffffffffffffffffffffffffffffffffff00168117905580156113ad57600180547fffffffffffffffffffffffffffffffffffffffffffffffffffffffffffff00ff166101001790555b60006113b8816121a6565b600180547fffffffffffffffffff0000000000000000000000000000000000000000ffffff16630100000073ffffffffffffffffffffffffffffffffffffffff87160217905560006114126101a08501610180860161336c565b73ffffffffffffffffffffffffffffffffffffffff160361145f576040517fdc2e5e8d00000000000000000000000000000000000000000000000000000000815260040160405180910390fd5b600061146e602085018561336c565b73ffffffffffffffffffffffffffffffffffffffff16036114bb576040517fc7b2492000000000000000000000000000000000000000000000000000000000815260040160405180910390fd5b8260800135836101600135111561150f576040517f1e5c82a50000000000000000000000000000000000000000000000000000000081526101608401356004820152608084013560248201526044016105b6565b61151f6002610140850135613da3565b15611556576040517f84d68d9d00000000000000000000000000000000000000000000000000000000815260040160405180910390fd5b611566610e106040850135613db7565b836060013510156115a3576040517f3c91bee800000000000000000000000000000000000000000000000000000000815260040160405180910390fd5b8260a001356000036115e1576040517fa4c54a6300000000000000000000000000000000000000000000000000000000815260040160405180910390fd5b826080013560000361161f576040517f7a61fdf700000000000000000000000000000000000000000000000000000000815260040160405180910390fd5b8260a0013583608001351115611661576040517f02179b6c00000000000000000000000000000000000000000000000000000000815260040160405180910390fd5b60005b600481101561170a578360c001816004811061168257611682613dca565b60200201351561170a57620f42408460c00182600481106116a5576116a5613dca565b602002013510156116e2576040517fdbbbe82200000000000000000000000000000000000000000000000000000000815260040160405180910390fd5b601280549060006116f283613df9565b9190505550808061170290613df9565b915050611664565b50601254600003611747576040517fb0e7ef7b00000000000000000000000000000000000000000000000000000000815260040160405180910390fd5b60328361014001351115611795576040517f9088a55b0000000000000000000000000000000000000000000000000000000081526101408401356004820152603260248201526044016105b6565b6117a2602084018461336c565b600280547fffffffffffffffffffffffff00000000000000000000000000000000000000001673ffffffffffffffffffffffffffffffffffffffff929092169190911790556117f7604084016020850161336c565b600b80547fffffffffffffffffffffffff00000000000000000000000000000000000000001673ffffffffffffffffffffffffffffffffffffffff929092169190911790556040830135600e556060830135600f55608083013560105560a083013560115561186c601360c08501600461328b565b506101408301356017556101608301356007556118916101a08401610180850161336c565b601880547fffffffffffffffffffffffff00000000000000000000000000000000000000001673ffffffffffffffffffffffffffffffffffffffff929092169190911790556118e46101a0840184613e31565b6019916118f2919083613ee4565b506001805481907fffffffffffffffffffffffffffffffffffffffffffffffffffffffffff00ffff1662010000820217905550600154601854600e54600f54601054601154601754600754600b5460405173ffffffffffffffffffffffffffffffffffffffff6301000000909a048a16997ff4d539cc7b1ecf0d043f59901b71b7b44a25563b872c28e85fe3cb72126dcb23996119a699908216989097909690959094601394919390926019921690613ffe565b60405180910390a2508015611a1157600180547fffffffffffffffffffffffffffffffffffffffffffffffffffffffffffff00ff1681556040519081527f7f26b83ff96e1f2b6a682f133852f6798a09c465da95921460cefb38474024989060200160405180910390a15b505050565b60198054611a2390613906565b80601f0160208091040260200160405190810160405280929190818152602001828054611a4f90613906565b8015611a9c5780601f10611a7157610100808354040283529160200191611a9c565b820191906000526020600020905b815481529060010190602001808311611a7f57829003601f168201915b505050505081565b600d8181548110611ab457600080fd5b906000526020600020016000915090508054611a2390613906565b600260005403611b3b576040517f08c379a000000000000000000000000000000000000000000000000000000000815260206004820152601f60248201527f5265656e7472616e637947756172643a207265656e7472616e742063616c6c0060448201526064016105b6565b6002600055600e54421015611b8957600e546040517f812d154e00000000000000000000000000000000000000000000000000000000815242600482015260248101919091526044016105b6565b600060015462010000900460ff166003811115611ba857611ba8613792565b03611bec576001546040517f64c3f1f80000000000000000000000000000000000000000000000000000000081526105b69162010000900460ff16906004016137c1565b600260015462010000900460ff166003811115611c0b57611c0b613792565b03611c4f576001546040517f64c3f1f80000000000000000000000000000000000000000000000000000000081526105b69162010000900460ff16906004016137c1565b600f5442118015611c705750601054600554600a54611c6e9190613867565b105b15611ca357600180547fffffffffffffffffffffffffffffffffffffffffffffffffffffffffff00ffff16620300001790555b600360015462010000900460ff166003811115611cc257611cc2613792565b14611cf9576040517f9b61206300000000000000000000000000000000000000000000000000000000815260040160405180910390fd5b336000908152600360209081526040808320805490849055600983528184208490556006909252822080547fffffffffffffffffffffffff000000000000000000000000000000000000000016905590819003611d82576040517ff4d678b800000000000000000000000000000000000000000000000000000000815260040160405180910390fd5b601854611da79073ffffffffffffffffffffffffffffffffffffffff16303384612255565b60405181815233907fa65a8b4f7f65a1063243d7f7e9e4da00ff767599acf21549ef2548a45d1695ae9060200160405180910390a2506001600055565b600060015462010000900460ff166003811115611e0357611e03613792565b14611e7557610e10600e54611e189190613db7565b600f541015611e2957611e296140b4565b600060115411611e3b57611e3b6140b4565b6011546010541115611e4f57611e4f6140b4565b60326017541115611e6257611e626140b4565b600a5460055410611e7557611e756140b4565b565b6001546301000000900473ffffffffffffffffffffffffffffffffffffffff1680612181576001611ea7816121a6565b611eaf61237f565b600260005403611f1b576040517f08c379a000000000000000000000000000000000000000000000000000000000815260206004820152601f60248201527f5265656e7472616e637947756172643a207265656e7472616e742063616c6c0060448201526064016105b6565b60026000556001546301000000900473ffffffffffffffffffffffffffffffffffffffff16611f4d57611f4d836122f0565b73ffffffffffffffffffffffffffffffffffffffff80841660009081526003602090815260408083205460068352818420546009845282852054951680855260049093529083208054919492939091611fa7908490613867565b909155505073ffffffffffffffffffffffffffffffffffffffff851660009081526004602052604090205415612009576040517fd273722600000000000000000000000000000000000000000000000000000000815260040160405180910390fd5b73ffffffffffffffffffffffffffffffffffffffff8516600090815260036020526040812054600a805491929091612042908490613867565b909155505073ffffffffffffffffffffffffffffffffffffffff85166000908152600960205260408120546005805491929091612080908490613867565b909155505073ffffffffffffffffffffffffffffffffffffffff8086166000908152600360209081526040808320839055600982528083208390556006825280832080547fffffffffffffffffffffffff00000000000000000000000000000000000000001690556008909152902080547fffffffffffffffffffffffffffffffffffffffffffffffffffffffffffffff001690556018546121259116308785612255565b8473ffffffffffffffffffffffffffffffffffffffff167faf65ecdc8a0d3ea90c8344c89e7001864fddf59dfdf41da2994463fe99049a598360405161216d91815260200190565b60405180910390a250506001600055505050565b61218a816122f0565b6001611ea7816121a6565b6121a282826000806108e1565b5050565b8060038111156121b8576121b8613792565b60015462010000900460ff1660038111156121d5576121d5613792565b14612219576001546040517f64c3f1f80000000000000000000000000000000000000000000000000000000081526105b69162010000900460ff16906004016137c1565b80600381111561222b5761222b613792565b60015462010000900460ff16600381111561224857612248613792565b1461225257600080fd5b50565b6040805173ffffffffffffffffffffffffffffffffffffffff85811660248301528416604482015260648082018490528251808303909101815260849091019091526020810180517bffffffffffffffffffffffffffffffffffffffffffffffffffffffff167f23b872dd000000000000000000000000000000000000000000000000000000001790526122ea908590612b50565b50505050565b3373ffffffffffffffffffffffffffffffffffffffff82161461235d576040517f50a5f40500000000000000000000000000000000000000000000000000000000815273ffffffffffffffffffffffffffffffffffffffff821660048201523360248201526044016105b6565b3373ffffffffffffffffffffffffffffffffffffffff82161461225257600080fd5b600e544210156123c857600e546040517f812d154e00000000000000000000000000000000000000000000000000000000815242600482015260248101919091526044016105b6565b600f54421115611e7557600f546040517fb73065c100000000000000000000000000000000000000000000000000000000815242600482015260248101919091526044016105b6565b73ffffffffffffffffffffffffffffffffffffffff8416600090815260086020908152604080832080547fffffffffffffffffffffffffffffffffffffffffffffffffffffffffffffff00168615151790556003909152902054156124a2576040517ff45d43bf00000000000000000000000000000000000000000000000000000000815260040160405180910390fd5b6000805b6012548110156125775760c88582600481106124c4576124c4613dca565b60200201511115612523578481600481106124e1576124e1613dca565b60200201516040517f3f257233000000000000000000000000000000000000000000000000000000008152600481019190915260c860248201526044016105b6565b84816004811061253557612535613dca565b60200201516013826004811061254d5761254d613dca565b015461255991906140e3565b6125639083613db7565b91508061256f81613df9565b9150506124a6565b50620f42408110156125b5576040517f87af7e9300000000000000000000000000000000000000000000000000000000815260040160405180910390fd5b8280156125c3575060075481105b15612608576007546040517f66338f960000000000000000000000000000000000000000000000000000000081526105b6918391600401918252602082015260400190565b600073ffffffffffffffffffffffffffffffffffffffff83161580159061263157506000601754115b156126f75773ffffffffffffffffffffffffffffffffffffffff83166000908152600360205260408120549003612694576040517f55fbf60100000000000000000000000000000000000000000000000000000000815260040160405180910390fd5b73ffffffffffffffffffffffffffffffffffffffff831660009081526008602052604090205460ff166126f3576040517fd74006f400000000000000000000000000000000000000000000000000000000815260040160405180910390fd5b5060015b6000811561281757600260646017548561271191906140e3565b61271b9190614120565b6127259190614120565b90506127318184613867565b73ffffffffffffffffffffffffffffffffffffffff881660009081526009602052604081208054929550839290919061276b908490613db7565b909155505073ffffffffffffffffffffffffffffffffffffffff8416600090815260046020526040812080548392906127a5908490613db7565b9250508190555080600560008282546127be9190613db7565b909155505073ffffffffffffffffffffffffffffffffffffffff878116600090815260066020526040902080547fffffffffffffffffffffffff0000000000000000000000000000000000000000169186169190911790555b73ffffffffffffffffffffffffffffffffffffffff87166000908152600360205260408120849055600a8054859290612851908490613db7565b9091555050601154600554600a546128699190613867565b11156128b057600a546011546040517fad9d04bc000000000000000000000000000000000000000000000000000000008152600481019290925260248201526044016105b6565b6018546128d59073ffffffffffffffffffffffffffffffffffffffff16883086612255565b8373ffffffffffffffffffffffffffffffffffffffff168773ffffffffffffffffffffffffffffffffffffffff167f6d47cedf2ff836145796116ccd8b27cb538f16621a1f844f0d1c2a58e23a499a8886858a6040516129389493929190614134565b60405180910390a350505050505050565b6040517f19457468657265756d205369676e6564204d6573736167653a0a3332000000006020820152603c810186905260009081906129ab908490605c0160405160208183030381529060405280519060200120612c5c90919063ffffffff16565b90508573ffffffffffffffffffffffffffffffffffffffff168173ffffffffffffffffffffffffffffffffffffffff1614612a12576040517f8baa579f00000000000000000000000000000000000000000000000000000000815260040160405180910390fd5b73ffffffffffffffffffffffffffffffffffffffff88163014612a61576040517f8baa579f00000000000000000000000000000000000000000000000000000000815260040160405180910390fd5b428567ffffffffffffffff1611612ab8576040517f69ad13a000000000000000000000000000000000000000000000000000000000815267ffffffffffffffff4281166004830152861660248201526044016105b6565b73ffffffffffffffffffffffffffffffffffffffff86166000908152600c6020908152604080832087845290915290205460ff1615612b42576040517f8674dc3e00000000000000000000000000000000000000000000000000000000815273ffffffffffffffffffffffffffffffffffffffff87166004820152602481018590526044016105b6565b506001979650505050505050565b6000612bb2826040518060400160405280602081526020017f5361666545524332303a206c6f772d6c6576656c2063616c6c206661696c65648152508573ffffffffffffffffffffffffffffffffffffffff16612c829092919063ffffffff16565b805190915015611a115780806020019051810190612bd0919061415f565b611a11576040517f08c379a000000000000000000000000000000000000000000000000000000000815260206004820152602a60248201527f5361666545524332303a204552433230206f7065726174696f6e20646964206e60448201527f6f7420737563636565640000000000000000000000000000000000000000000060648201526084016105b6565b6000806000612c6b8585612c9b565b91509150612c7881612ce0565b5090505b92915050565b6060612c918484600085612f34565b90505b9392505050565b6000808251604103612cd15760208301516040840151606085015160001a612cc5878285856130ca565b94509450505050612cd9565b506000905060025b9250929050565b6000816004811115612cf457612cf4613792565b03612cfc5750565b6001816004811115612d1057612d10613792565b03612d77576040517f08c379a000000000000000000000000000000000000000000000000000000000815260206004820152601860248201527f45434453413a20696e76616c6964207369676e6174757265000000000000000060448201526064016105b6565b6002816004811115612d8b57612d8b613792565b03612df2576040517f08c379a000000000000000000000000000000000000000000000000000000000815260206004820152601f60248201527f45434453413a20696e76616c6964207369676e6174757265206c656e6774680060448201526064016105b6565b6003816004811115612e0657612e06613792565b03612e93576040517f08c379a000000000000000000000000000000000000000000000000000000000815260206004820152602260248201527f45434453413a20696e76616c6964207369676e6174757265202773272076616c60448201527f756500000000000000000000000000000000000000000000000000000000000060648201526084016105b6565b6004816004811115612ea757612ea7613792565b03612252576040517f08c379a000000000000000000000000000000000000000000000000000000000815260206004820152602260248201527f45434453413a20696e76616c6964207369676e6174757265202776272076616c60448201527f756500000000000000000000000000000000000000000000000000000000000060648201526084016105b6565b606082471015612fc6576040517f08c379a000000000000000000000000000000000000000000000000000000000815260206004820152602660248201527f416464726573733a20696e73756666696369656e742062616c616e636520666f60448201527f722063616c6c000000000000000000000000000000000000000000000000000060648201526084016105b6565b73ffffffffffffffffffffffffffffffffffffffff85163b613044576040517f08c379a000000000000000000000000000000000000000000000000000000000815260206004820152601d60248201527f416464726573733a2063616c6c20746f206e6f6e2d636f6e747261637400000060448201526064016105b6565b6000808673ffffffffffffffffffffffffffffffffffffffff16858760405161306d919061417c565b60006040518083038185875af1925050503d80600081146130aa576040519150601f19603f3d011682016040523d82523d6000602084013e6130af565b606091505b50915091506130bf8282866131e2565b979650505050505050565b6000807f7fffffffffffffffffffffffffffffff5d576e7357a4501ddfe92f46681b20a083111561310157506000905060036131d9565b8460ff16601b1415801561311957508460ff16601c14155b1561312a57506000905060046131d9565b6040805160008082526020820180845289905260ff881692820192909252606081018690526080810185905260019060a0016020604051602081039080840390855afa15801561317e573d6000803e3d6000fd5b50506040517fffffffffffffffffffffffffffffffffffffffffffffffffffffffffffffffe0015191505073ffffffffffffffffffffffffffffffffffffffff81166131d2576000600192509250506131d9565b9150600090505b94509492505050565b606083156131f1575081612c94565b8251156132015782518084602001fd5b816040517f08c379a00000000000000000000000000000000000000000000000000000000081526004016105b6919061377f565b82805482825590600052602060002090810192821561327b579160200282015b8281111561327b578251829061326b9082614198565b5091602001919060010190613255565b506132879291506132c5565b5090565b82600481019282156132b9579160200282015b828111156132b957823582559160200191906001019061329e565b506132879291506132e2565b808211156132875760006132d982826132f7565b506001016132c5565b5b8082111561328757600081556001016132e3565b50805461330390613906565b6000825580601f10613313575050565b601f01602090049060005260206000209081019061225291906132e2565b60006020828403121561334357600080fd5b5035919050565b73ffffffffffffffffffffffffffffffffffffffff8116811461225257600080fd5b60006020828403121561337e57600080fd5b8135612c948161334a565b8060808101831015612c7c57600080fd5b801515811461225257600080fd5b80356133b38161339a565b919050565b60008060008060e085870312156133ce57600080fd5b84356133d98161334a565b93506133e88660208701613389565b925060a08501356133f88161339a565b915060c08501356134088161334a565b939692955090935050565b60008083601f84011261342557600080fd5b50813567ffffffffffffffff81111561343d57600080fd5b602083019150836020828501011115612cd957600080fd5b6000806000806040858703121561346b57600080fd5b843567ffffffffffffffff8082111561348357600080fd5b61348f88838901613413565b909650945060208701359150808211156134a857600080fd5b506134b587828801613413565b95989497509550505050565b600080604083850312156134d457600080fd5b82356134df8161334a565b946020939093013593505050565b7f4e487b7100000000000000000000000000000000000000000000000000000000600052604160045260246000fd5b604051601f82017fffffffffffffffffffffffffffffffffffffffffffffffffffffffffffffffe016810167ffffffffffffffff81118282101715613563576135636134ed565b604052919050565b600067ffffffffffffffff831115613585576135856134ed565b6135b660207fffffffffffffffffffffffffffffffffffffffffffffffffffffffffffffffe0601f8601160161351c565b90508281528383830111156135ca57600080fd5b828260208301376000602084830101529392505050565b600060208083850312156135f457600080fd5b823567ffffffffffffffff8082111561360c57600080fd5b818501915085601f83011261362057600080fd5b813581811115613632576136326134ed565b8060051b61364185820161351c565b918252838101850191858101908984111561365b57600080fd5b86860192505b838310156136ac578235858111156136795760008081fd5b8601603f81018b1361368b5760008081fd5b61369c8b898301356040840161356b565b8352509186019190860190613661565b9998505050505050505050565b600080604083850312156136cc57600080fd5b82356136d78161334a565b9150602083013567ffffffffffffffff8111156136f357600080fd5b83016101c0818603121561370657600080fd5b809150509250929050565b60005b8381101561372c578181015183820152602001613714565b50506000910152565b6000815180845261374d816020860160208601613711565b601f017fffffffffffffffffffffffffffffffffffffffffffffffffffffffffffffffe0169290920160200192915050565b602081526000612c946020830184613735565b7f4e487b7100000000000000000000000000000000000000000000000000000000600052602160045260246000fd5b60208101600483106137fc577f4e487b7100000000000000000000000000000000000000000000000000000000600052602160045260246000fd5b91905290565b60008060a0838503121561381557600080fd5b82356138208161334a565b915061382f8460208501613389565b90509250929050565b7f4e487b7100000000000000000000000000000000000000000000000000000000600052601160045260246000fd5b81810381811115612c7c57612c7c613838565b73ffffffffffffffffffffffffffffffffffffffff86811682528581166020830152610100820190608086604085013784151560c084015280841660e0840152509695505050505050565b73ffffffffffffffffffffffffffffffffffffffff858116825260e0820190608086602085013784151560a084015280841660c08401525095945050505050565b600181811c9082168061391a57607f821691505b602082108103613953577f4e487b7100000000000000000000000000000000000000000000000000000000600052602260045260246000fd5b50919050565b6000815461396681613906565b80855260206001838116801561398357600181146139bb576139e9565b7fffffffffffffffffffffffffffffffffffffffffffffffffffffffffffffff008516838901528284151560051b89010195506139e9565b866000528260002060005b858110156139e15781548a82018601529083019084016139c6565b890184019650505b505050505092915050565b600060a0820173ffffffffffffffffffffffffffffffffffffffff88168352602060a08185015281885480845260c08601915060c08160051b8701019350896000528260002060005b82811015613a88577fffffffffffffffffffffffffffffffffffffffffffffffffffffffffffffff40888703018452613a768683613959565b95509284019260019182019101613a3d565b50505050508281036040840152613a9f8187613735565b7fffffffff000000000000000000000000000000000000000000000000000000008616606085015290508281036080840152613adb8185613735565b98975050505050505050565b80356133b38161334a565b60008060008060e08587031215613b0857600080fd5b8435613b138161334a565b93506020603f86018713613b2657600080fd5b6040516080810181811067ffffffffffffffff82111715613b4957613b496134ed565b6040528060a0880189811115613b5e57600080fd5b8389015b81811015613b795780358352918401918401613b62565b50829650613b86816133a8565b955050505050613b9860c08601613ae7565b905092959194509250565b60008060008060808587031215613bb957600080fd5b8435613bc48161334a565b9350602085013567ffffffffffffffff8082168214613be257600080fd5b9093506040860135925060608601359080821115613bff57600080fd5b508501601f81018713613c1157600080fd5b613c208782356020840161356b565b91505092959194509250565b8060005b60048110156122ea578151845260209384019390910190600101613c30565b73ffffffffffffffffffffffffffffffffffffffff88811682528781166020830152610140820190613c846040840189613c2c565b86151560c084015280861660e08401525067ffffffffffffffff84166101008301528261012083015298975050505050505050565b600081835483915060008581526020808220825b84811015613d6757838254613ce181613906565b60018281168015613cf95760018114613d2d57613d54565b7fffffffffffffffffffffffffffffffffffffffffffffffffffffffffffffff0084168b5282151560051b8b019450613d54565b868952878920895b84811015613d4e5781548d820152908301908901613d35565b8c019550505b5092985050509190910190600101613ccd565b5093979650505050505050565b7f4e487b7100000000000000000000000000000000000000000000000000000000600052601260045260246000fd5b600082613db257613db2613d74565b500690565b80820180821115612c7c57612c7c613838565b7f4e487b7100000000000000000000000000000000000000000000000000000000600052603260045260246000fd5b60007fffffffffffffffffffffffffffffffffffffffffffffffffffffffffffffffff8203613e2a57613e2a613838565b5060010190565b60008083357fffffffffffffffffffffffffffffffffffffffffffffffffffffffffffffffe1843603018112613e6657600080fd5b83018035915067ffffffffffffffff821115613e8157600080fd5b602001915036819003821315612cd957600080fd5b601f821115611a1157600081815260208120601f850160051c81016020861015613ebd5750805b601f850160051c820191505b81811015613edc57828155600101613ec9565b505050505050565b67ffffffffffffffff831115613efc57613efc6134ed565b613f1083613f0a8354613906565b83613e96565b6000601f841160018114613f625760008515613f2c5750838201355b7fffffffffffffffffffffffffffffffffffffffffffffffffffffffffffffffff600387901b1c1916600186901b178355610c8a565b6000838152602090207fffffffffffffffffffffffffffffffffffffffffffffffffffffffffffffffe0861690835b82811015613fb15786850135825560209485019460019092019101613f91565b5086821015613fec577fffffffffffffffffffffffffffffffffffffffffffffffffffffffffffffffff60f88860031b161c19848701351681555b505060018560011b0183555050505050565b60006101a073ffffffffffffffffffffffffffffffffffffffff8d16835260208c818501528b60408501528a606085015289608085015260a084018960005b600481101561405a5781548352918301916001918201910161403d565b5050505086610120840152856101408401528061016084015261407f81840186613959565b9150506140a561018083018473ffffffffffffffffffffffffffffffffffffffff169052565b9b9a5050505050505050505050565b7f4e487b7100000000000000000000000000000000000000000000000000000000600052600160045260246000fd5b6000817fffffffffffffffffffffffffffffffffffffffffffffffffffffffffffffffff048311821515161561411b5761411b613838565b500290565b60008261412f5761412f613d74565b500490565b60e081016141428287613c2c565b8460808301528360a083015282151560c083015295945050505050565b60006020828403121561417157600080fd5b8151612c948161339a565b6000825161418e818460208701613711565b9190910192915050565b815167ffffffffffffffff8111156141b2576141b26134ed565b6141c6816141c08454613906565b84613e96565b602080601f83116001811461421957600084156141e35750858301515b7fffffffffffffffffffffffffffffffffffffffffffffffffffffffffffffffff600386901b1c1916600185901b178555613edc565b6000858152602081207fffffffffffffffffffffffffffffffffffffffffffffffffffffffffffffffe08616915b8281101561426657888601518255948401946001909101908401614247565b50858210156142a257878501517fffffffffffffffffffffffffffffffffffffffffffffffffffffffffffffffff600388901b60f8161c191681555b5050505050600190811b0190555056fea2646970667358221220fc01d5de1e27b836b756d6ec6f20792cb9ba9e47ae9d4f6c492f9156b150dc0d64736f6c63430008100033",
    "linkReferences": {}
  },
  "methodIdentifiers": {
    "abortProject()": "19cc6492",
    "accumulatedRewards()": "9c81ff6b",
    "accumulatedRewardsOf(address)": "27949dab",
    "claimFunds()": "ac307773",
    "claimRewards()": "372500ab",
    "costForWallet(address)": "aab1e47b",
    "crowdtainerState()": "7855d30c",
    "discountForUser(address)": "eb6ced16",
    "expireTime()": "310a1ee3",
    "getPaidAndDeliver()": "0e6137cf",
    "getSigner()": "7ac3c02f",
    "initialize(address,(address,address,uint256,uint256,uint256,uint256,uint256[4],uint256,uint256,address,string))": "708c4561",
    "invariant()": "b03a9a05",
    "join(address,uint256[4])": "d4a0f6b8",
    "join(address,uint256[4],bool,address)": "464eff50",
    "joinWithSignature(bytes,bytes)": "566a2cc2",
    "leave(address)": "bedf77a6",
    "legalContractURI()": "74b3eceb",
    "numberOfProducts()": "c66301b2",
    "openingTime()": "b7a8807c",
    "owner()": "8da5cb5b",
    "referralEligibilityValue()": "312ee7fa",
    "referralRate()": "a053ce1f",
    "referrerOfReferee(address)": "2748608f",
    "setSigner(address)": "6c19e783",
    "setUrls(string[])": "6cc895a9",
    "shippingAgent()": "cf084056",
    "targetMaximum()": "53b47656",
    "targetMinimum()": "90ffbe90",
    "token()": "fc0c546a",
    "totalValueRaised()": "8831c8dc",
    "unitPricePerType(uint256)": "1e1b2573",
    "urls(uint256)": "796676be",
    "usedNonces(address,bytes32)": "5fda04c7"
  },
  "id": 27
}