{
  "abi": [
    {
      "inputs": [
        {
          "internalType": "address",
          "name": "expected",
          "type": "address"
        },
        {
          "internalType": "address",
          "name": "actual",
          "type": "address"
        }
      ],
      "name": "CallerNotAllowed",
      "type": "error"
    },
    {
      "inputs": [],
      "name": "CannotLeaveDueAccumulatedReferralCredits",
      "type": "error"
    },
    {
      "inputs": [],
      "name": "CantClaimFundsOnActiveProject",
      "type": "error"
    },
    {
      "inputs": [],
      "name": "ClosingTimeTooEarly",
      "type": "error"
    },
    {
      "inputs": [
        {
          "internalType": "uint256",
          "name": "timestamp",
          "type": "uint256"
        },
        {
          "internalType": "uint256",
          "name": "expiredTime",
          "type": "uint256"
        }
      ],
      "name": "CrowdtainerExpired",
      "type": "error"
    },
    {
      "inputs": [
        {
          "internalType": "uint256",
          "name": "received",
          "type": "uint256"
        },
        {
          "internalType": "uint256",
          "name": "maximum",
          "type": "uint256"
        }
      ],
      "name": "ExceededNumberOfItemsAllowed",
      "type": "error"
    },
    {
      "inputs": [],
      "name": "InsufficientBalance",
      "type": "error"
    },
    {
      "inputs": [],
      "name": "InvalidMaximumTarget",
      "type": "error"
    },
    {
      "inputs": [],
      "name": "InvalidMinimumTarget",
      "type": "error"
    },
    {
      "inputs": [],
      "name": "InvalidNumberOfQuantities",
      "type": "error"
    },
    {
      "inputs": [
        {
          "internalType": "enum CrowdtainerState",
          "name": "state",
          "type": "uint8"
        }
      ],
      "name": "InvalidOperationFor",
      "type": "error"
    },
    {
      "inputs": [],
      "name": "InvalidProductNumberAndPrices",
      "type": "error"
    },
    {
      "inputs": [
        {
          "internalType": "uint256",
          "name": "received",
          "type": "uint256"
        },
        {
          "internalType": "uint256",
          "name": "maximum",
          "type": "uint256"
        }
      ],
      "name": "InvalidReferralRate",
      "type": "error"
    },
    {
      "inputs": [],
      "name": "InvalidSignature",
      "type": "error"
    },
    {
      "inputs": [
        {
          "internalType": "uint256",
          "name": "received",
          "type": "uint256"
        },
        {
          "internalType": "uint256",
          "name": "minimum",
          "type": "uint256"
        }
      ],
      "name": "MinimumPurchaseValueForReferralNotMet",
      "type": "error"
    },
    {
      "inputs": [],
      "name": "MinimumTargetHigherThanMaximum",
      "type": "error"
    },
    {
      "inputs": [
        {
          "internalType": "uint256",
          "name": "minimum",
          "type": "uint256"
        },
        {
          "internalType": "uint256",
          "name": "actual",
          "type": "uint256"
        }
      ],
      "name": "MinimumTargetNotReached",
      "type": "error"
    },
    {
      "inputs": [
        {
          "internalType": "address",
          "name": "wallet",
          "type": "address"
        },
        {
          "internalType": "bytes32",
          "name": "nonce",
          "type": "bytes32"
        }
      ],
      "name": "NonceAlreadyUsed",
      "type": "error"
    },
    {
      "inputs": [
        {
          "internalType": "address",
          "name": "sender",
          "type": "address"
        },
        {
          "internalType": "string[]",
          "name": "urls",
          "type": "string[]"
        },
        {
          "internalType": "bytes",
          "name": "callData",
          "type": "bytes"
        },
        {
          "internalType": "bytes4",
          "name": "callbackFunction",
          "type": "bytes4"
        },
        {
          "internalType": "bytes",
          "name": "extraData",
          "type": "bytes"
        }
      ],
      "name": "OffchainLookup",
      "type": "error"
    },
    {
      "inputs": [
        {
          "internalType": "uint256",
          "name": "timestamp",
          "type": "uint256"
        },
        {
          "internalType": "uint256",
          "name": "openingTime",
          "type": "uint256"
        }
      ],
      "name": "OpeningTimeNotReachedYet",
      "type": "error"
    },
    {
      "inputs": [],
      "name": "PriceTooLow",
      "type": "error"
    },
    {
      "inputs": [
        {
          "internalType": "uint256",
          "name": "received",
          "type": "uint256"
        },
        {
          "internalType": "uint256",
          "name": "maximum",
          "type": "uint256"
        }
      ],
      "name": "PurchaseExceedsMaximumTarget",
      "type": "error"
    },
    {
      "inputs": [],
      "name": "ReferralDisabledForProvidedCode",
      "type": "error"
    },
    {
      "inputs": [],
      "name": "ReferralInexistent",
      "type": "error"
    },
    {
      "inputs": [
        {
          "internalType": "uint256",
          "name": "received",
          "type": "uint256"
        },
        {
          "internalType": "uint256",
          "name": "maximum",
          "type": "uint256"
        }
      ],
      "name": "ReferralMinimumValueTooHigh",
      "type": "error"
    },
    {
      "inputs": [],
      "name": "ReferralRateNotMultipleOfTwo",
      "type": "error"
    },
    {
      "inputs": [],
      "name": "ShippingAgentAddressIsZero",
      "type": "error"
    },
    {
      "inputs": [
        {
          "internalType": "uint64",
          "name": "current",
          "type": "uint64"
        },
        {
          "internalType": "uint64",
          "name": "expires",
          "type": "uint64"
        }
      ],
      "name": "SignatureExpired",
      "type": "error"
    },
    {
      "inputs": [],
      "name": "TokenAddressIsZero",
      "type": "error"
    },
    {
      "inputs": [],
      "name": "UserAlreadyJoined",
      "type": "error"
    },
    {
      "anonymous": false,
      "inputs": [
        {
          "indexed": true,
          "internalType": "string[]",
          "name": "newUrls",
          "type": "string[]"
        }
      ],
      "name": "CCIPURLChanged",
      "type": "event"
    },
    {
      "anonymous": false,
      "inputs": [
        {
          "indexed": true,
          "internalType": "address",
          "name": "owner",
          "type": "address"
        },
        {
          "indexed": true,
          "internalType": "address",
          "name": "shippingAgent",
          "type": "address"
        }
      ],
      "name": "CrowdtainerCreated",
      "type": "event"
    },
    {
      "anonymous": false,
      "inputs": [
        {
          "indexed": true,
          "internalType": "address",
          "name": "shippingAgent",
          "type": "address"
        },
        {
          "indexed": false,
          "internalType": "uint256",
          "name": "totalValueRaised",
          "type": "uint256"
        }
      ],
      "name": "CrowdtainerInDeliveryStage",
      "type": "event"
    },
    {
      "anonymous": false,
      "inputs": [
        {
          "indexed": true,
          "internalType": "address",
          "name": "_owner",
          "type": "address"
        },
        {
          "indexed": false,
          "internalType": "contract IERC20",
          "name": "_token",
          "type": "address"
        },
        {
          "indexed": false,
          "internalType": "uint256",
          "name": "_openingTime",
          "type": "uint256"
        },
        {
          "indexed": false,
          "internalType": "uint256",
          "name": "_expireTime",
          "type": "uint256"
        },
        {
          "indexed": false,
          "internalType": "uint256",
          "name": "_targetMinimum",
          "type": "uint256"
        },
        {
          "indexed": false,
          "internalType": "uint256",
          "name": "_targetMaximum",
          "type": "uint256"
        },
        {
          "indexed": false,
          "internalType": "uint256[]",
          "name": "_unitPricePerType",
          "type": "uint256[]"
        },
        {
          "indexed": false,
          "internalType": "uint256",
          "name": "_referralRate",
          "type": "uint256"
        },
        {
          "indexed": false,
          "internalType": "uint256",
          "name": "_referralEligibilityValue",
          "type": "uint256"
        },
        {
          "indexed": false,
          "internalType": "string",
          "name": "_legalContractURI",
          "type": "string"
        },
        {
          "indexed": false,
          "internalType": "address",
          "name": "_signer",
          "type": "address"
        }
      ],
      "name": "CrowdtainerInitialized",
      "type": "event"
    },
    {
      "anonymous": false,
      "inputs": [
        {
          "indexed": true,
          "internalType": "address",
          "name": "wallet",
          "type": "address"
        },
        {
          "indexed": false,
          "internalType": "uint256",
          "name": "withdrawnAmount",
          "type": "uint256"
        }
      ],
      "name": "FundsClaimed",
      "type": "event"
    },
    {
      "anonymous": false,
      "inputs": [
        {
          "indexed": false,
          "internalType": "uint8",
          "name": "version",
          "type": "uint8"
        }
      ],
      "name": "Initialized",
      "type": "event"
    },
    {
      "anonymous": false,
      "inputs": [
        {
          "indexed": true,
          "internalType": "address",
          "name": "wallet",
          "type": "address"
        },
        {
          "indexed": false,
          "internalType": "uint256[]",
          "name": "quantities",
          "type": "uint256[]"
        },
        {
          "indexed": true,
          "internalType": "address",
          "name": "referrer",
          "type": "address"
        },
        {
          "indexed": false,
          "internalType": "uint256",
          "name": "finalCost",
          "type": "uint256"
        },
        {
          "indexed": false,
          "internalType": "uint256",
          "name": "appliedDiscount",
          "type": "uint256"
        },
        {
          "indexed": false,
          "internalType": "bool",
          "name": "referralEnabled",
          "type": "bool"
        }
      ],
      "name": "Joined",
      "type": "event"
    },
    {
      "anonymous": false,
      "inputs": [
        {
          "indexed": true,
          "internalType": "address",
          "name": "wallet",
          "type": "address"
        },
        {
          "indexed": false,
          "internalType": "uint256",
          "name": "withdrawnAmount",
          "type": "uint256"
        }
      ],
      "name": "Left",
      "type": "event"
    },
    {
      "anonymous": false,
      "inputs": [
        {
          "indexed": true,
          "internalType": "address",
          "name": "wallet",
          "type": "address"
        },
        {
          "indexed": false,
          "internalType": "uint256",
          "name": "withdrawnAmount",
          "type": "uint256"
        }
      ],
      "name": "RewardsClaimed",
      "type": "event"
    },
    {
      "anonymous": false,
      "inputs": [
        {
          "indexed": true,
          "internalType": "address",
          "name": "newSigner",
          "type": "address"
        }
      ],
      "name": "SignerChanged",
      "type": "event"
    },
    {
      "inputs": [],
      "name": "abortProject",
      "outputs": [],
      "stateMutability": "nonpayable",
      "type": "function"
    },
    {
      "inputs": [],
      "name": "accumulatedRewards",
      "outputs": [
        {
          "internalType": "uint256",
          "name": "",
          "type": "uint256"
        }
      ],
      "stateMutability": "view",
      "type": "function"
    },
    {
      "inputs": [
        {
          "internalType": "address",
          "name": "",
          "type": "address"
        }
      ],
      "name": "accumulatedRewardsOf",
      "outputs": [
        {
          "internalType": "uint256",
          "name": "",
          "type": "uint256"
        }
      ],
      "stateMutability": "view",
      "type": "function"
    },
    {
      "inputs": [
        {
          "internalType": "address",
          "name": "wallet",
          "type": "address"
        }
      ],
      "name": "claimFunds",
      "outputs": [],
      "stateMutability": "nonpayable",
      "type": "function"
    },
    {
      "inputs": [],
      "name": "claimFunds",
      "outputs": [],
      "stateMutability": "nonpayable",
      "type": "function"
    },
    {
      "inputs": [],
      "name": "claimRewards",
      "outputs": [],
      "stateMutability": "nonpayable",
      "type": "function"
    },
    {
      "inputs": [
        {
          "internalType": "address",
          "name": "",
          "type": "address"
        }
      ],
      "name": "costForWallet",
      "outputs": [
        {
          "internalType": "uint256",
          "name": "",
          "type": "uint256"
        }
      ],
      "stateMutability": "view",
      "type": "function"
    },
    {
      "inputs": [],
      "name": "crowdtainerState",
      "outputs": [
        {
          "internalType": "enum CrowdtainerState",
          "name": "",
          "type": "uint8"
        }
      ],
      "stateMutability": "view",
      "type": "function"
    },
    {
      "inputs": [
        {
          "internalType": "address",
          "name": "",
          "type": "address"
        }
      ],
      "name": "discountForUser",
      "outputs": [
        {
          "internalType": "uint256",
          "name": "",
          "type": "uint256"
        }
      ],
      "stateMutability": "view",
      "type": "function"
    },
    {
      "inputs": [
        {
          "internalType": "address",
          "name": "",
          "type": "address"
        }
      ],
      "name": "enableReferral",
      "outputs": [
        {
          "internalType": "bool",
          "name": "",
          "type": "bool"
        }
      ],
      "stateMutability": "view",
      "type": "function"
    },
    {
      "inputs": [],
      "name": "expireTime",
      "outputs": [
        {
          "internalType": "uint256",
          "name": "",
          "type": "uint256"
        }
      ],
      "stateMutability": "view",
      "type": "function"
    },
    {
      "inputs": [],
      "name": "getPaidAndDeliver",
      "outputs": [],
      "stateMutability": "nonpayable",
      "type": "function"
    },
    {
      "inputs": [],
      "name": "getSigner",
      "outputs": [
        {
          "internalType": "address",
          "name": "",
          "type": "address"
        }
      ],
      "stateMutability": "view",
      "type": "function"
    },
    {
      "inputs": [
        {
          "internalType": "address",
          "name": "_owner",
          "type": "address"
        },
        {
          "components": [
            {
              "internalType": "address",
              "name": "shippingAgent",
              "type": "address"
            },
            {
              "internalType": "address",
              "name": "signer",
              "type": "address"
            },
            {
              "internalType": "uint256",
              "name": "openingTime",
              "type": "uint256"
            },
            {
              "internalType": "uint256",
              "name": "expireTime",
              "type": "uint256"
            },
            {
              "internalType": "uint256",
              "name": "targetMinimum",
              "type": "uint256"
            },
            {
              "internalType": "uint256",
              "name": "targetMaximum",
              "type": "uint256"
            },
            {
              "internalType": "uint256[]",
              "name": "unitPricePerType",
              "type": "uint256[]"
            },
            {
              "internalType": "uint256",
              "name": "referralRate",
              "type": "uint256"
            },
            {
              "internalType": "uint256",
              "name": "referralEligibilityValue",
              "type": "uint256"
            },
            {
              "internalType": "address",
              "name": "token",
              "type": "address"
            },
            {
              "internalType": "string",
              "name": "legalContractURI",
              "type": "string"
            }
          ],
          "internalType": "struct CampaignData",
          "name": "_campaignData",
          "type": "tuple"
        }
      ],
      "name": "initialize",
      "outputs": [],
      "stateMutability": "nonpayable",
      "type": "function"
    },
    {
      "inputs": [
        {
          "internalType": "address",
          "name": "_wallet",
          "type": "address"
        },
        {
          "internalType": "uint256[]",
          "name": "_quantities",
          "type": "uint256[]"
        }
      ],
      "name": "join",
      "outputs": [],
      "stateMutability": "nonpayable",
      "type": "function"
    },
    {
      "inputs": [
        {
          "internalType": "address",
          "name": "_wallet",
          "type": "address"
        },
        {
          "internalType": "uint256[]",
          "name": "_quantities",
          "type": "uint256[]"
        },
        {
          "internalType": "bool",
          "name": "_enableReferral",
          "type": "bool"
        },
        {
          "internalType": "address",
          "name": "_referrer",
          "type": "address"
        }
      ],
      "name": "join",
      "outputs": [],
      "stateMutability": "nonpayable",
      "type": "function"
    },
    {
      "inputs": [
        {
          "internalType": "bytes",
          "name": "result",
          "type": "bytes"
        },
        {
          "internalType": "bytes",
          "name": "extraData",
          "type": "bytes"
        }
      ],
      "name": "joinWithSignature",
      "outputs": [],
      "stateMutability": "nonpayable",
      "type": "function"
    },
    {
      "inputs": [
        {
          "internalType": "address",
          "name": "_wallet",
          "type": "address"
        }
      ],
      "name": "leave",
      "outputs": [],
      "stateMutability": "nonpayable",
      "type": "function"
    },
    {
      "inputs": [],
      "name": "legalContractURI",
      "outputs": [
        {
          "internalType": "string",
          "name": "",
          "type": "string"
        }
      ],
      "stateMutability": "view",
      "type": "function"
    },
    {
      "inputs": [],
      "name": "numberOfProducts",
      "outputs": [
        {
          "internalType": "uint256",
          "name": "",
          "type": "uint256"
        }
      ],
      "stateMutability": "view",
      "type": "function"
    },
    {
      "inputs": [],
      "name": "openingTime",
      "outputs": [
        {
          "internalType": "uint256",
          "name": "",
          "type": "uint256"
        }
      ],
      "stateMutability": "view",
      "type": "function"
    },
    {
      "inputs": [],
      "name": "owner",
      "outputs": [
        {
          "internalType": "address",
          "name": "",
          "type": "address"
        }
      ],
      "stateMutability": "view",
      "type": "function"
    },
    {
      "inputs": [],
      "name": "referralEligibilityValue",
      "outputs": [
        {
          "internalType": "uint256",
          "name": "",
          "type": "uint256"
        }
      ],
      "stateMutability": "view",
      "type": "function"
    },
    {
      "inputs": [],
      "name": "referralRate",
      "outputs": [
        {
          "internalType": "uint256",
          "name": "",
          "type": "uint256"
        }
      ],
      "stateMutability": "view",
      "type": "function"
    },
    {
      "inputs": [
        {
          "internalType": "address",
          "name": "",
          "type": "address"
        }
      ],
      "name": "referrerOfReferee",
      "outputs": [
        {
          "internalType": "address",
          "name": "",
          "type": "address"
        }
      ],
      "stateMutability": "view",
      "type": "function"
    },
    {
      "inputs": [
        {
          "internalType": "address",
          "name": "_signer",
          "type": "address"
        }
      ],
      "name": "setSigner",
      "outputs": [],
      "stateMutability": "nonpayable",
      "type": "function"
    },
    {
      "inputs": [
        {
          "internalType": "string[]",
          "name": "_urls",
          "type": "string[]"
        }
      ],
      "name": "setUrls",
      "outputs": [],
      "stateMutability": "nonpayable",
      "type": "function"
    },
    {
      "inputs": [],
      "name": "shippingAgent",
      "outputs": [
        {
          "internalType": "address",
          "name": "",
          "type": "address"
        }
      ],
      "stateMutability": "view",
      "type": "function"
    },
    {
      "inputs": [],
      "name": "targetMaximum",
      "outputs": [
        {
          "internalType": "uint256",
          "name": "",
          "type": "uint256"
        }
      ],
      "stateMutability": "view",
      "type": "function"
    },
    {
      "inputs": [],
      "name": "targetMinimum",
      "outputs": [
        {
          "internalType": "uint256",
          "name": "",
          "type": "uint256"
        }
      ],
      "stateMutability": "view",
      "type": "function"
    },
    {
      "inputs": [],
      "name": "token",
      "outputs": [
        {
          "internalType": "contract IERC20",
          "name": "",
          "type": "address"
        }
      ],
      "stateMutability": "view",
      "type": "function"
    },
    {
      "inputs": [],
      "name": "totalValueRaised",
      "outputs": [
        {
          "internalType": "uint256",
          "name": "",
          "type": "uint256"
        }
      ],
      "stateMutability": "view",
      "type": "function"
    },
    {
      "inputs": [
        {
          "internalType": "uint256",
          "name": "",
          "type": "uint256"
        }
      ],
      "name": "unitPricePerType",
      "outputs": [
        {
          "internalType": "uint256",
          "name": "",
          "type": "uint256"
        }
      ],
      "stateMutability": "view",
      "type": "function"
    },
    {
      "inputs": [
        {
          "internalType": "uint256",
          "name": "",
          "type": "uint256"
        }
      ],
      "name": "urls",
      "outputs": [
        {
          "internalType": "string",
          "name": "",
          "type": "string"
        }
      ],
      "stateMutability": "view",
      "type": "function"
    },
    {
      "inputs": [
        {
          "internalType": "address",
          "name": "",
          "type": "address"
        },
        {
          "internalType": "bytes32",
          "name": "",
          "type": "bytes32"
        }
      ],
      "name": "usedNonces",
      "outputs": [
        {
          "internalType": "bool",
          "name": "",
          "type": "bool"
        }
      ],
      "stateMutability": "view",
      "type": "function"
    }
  ],
  "bytecode": {
    "object": "0x608060405234801561001057600080fd5b50600160005561371f806100256000396000f3fe608060405234801561001057600080fd5b50600436106102415760003560e01c8063796676be11610145578063ac307773116100bd578063cf0840561161008c578063edf0063811610071578063edf00638146104c8578063ef39c4ba146104db578063fc0c546a146104fe57600080fd5b8063cf08405614610495578063eb6ced16146104a857600080fd5b8063ac30777314610469578063b7a8807c14610471578063bedf77a61461047a578063c66301b21461048d57600080fd5b806390ffbe9011610114578063a053ce1f116100f9578063a053ce1f1461042d578063a25a7d3b14610436578063aab1e47b1461044957600080fd5b806390ffbe901461041b5780639c81ff6b1461042457600080fd5b8063796676be146103d45780637ac3c02f146103e75780638831c8dc146103f85780638da5cb5b1461040157600080fd5b806353b47656116101d85780636c19e783116101a75780636f9d99d91161018c5780636f9d99d91461038c57806374b3eceb1461039f5780637855d30c146103b457600080fd5b80636c19e783146103665780636cc895a91461037957600080fd5b806353b47656146102f9578063566a2cc2146103025780635fda04c714610315578063693d0df21461035357600080fd5b806327949dab1161021457806327949dab146102bf578063310a1ee3146102df578063312ee7fa146102e8578063372500ab146102f157600080fd5b80630e6137cf1461024657806319cc6492146102505780631e1b2573146102585780632748608f1461027e575b600080fd5b61024e610511565b005b61024e61063d565b61026b61026636600461277c565b6106b9565b6040519081526020015b60405180910390f35b6102a761028c3660046127aa565b6006602052600090815260409020546001600160a01b031681565b6040516001600160a01b039091168152602001610275565b61026b6102cd3660046127aa565b60046020526000908152604090205481565b61026b60105481565b61026b60075481565b61024e6106da565b61026b60125481565b61024e610310366004612809565b610789565b610343610323366004612875565b600c60209081526000928352604080842090915290825290205460ff1681565b6040519015158152602001610275565b61024e6103613660046127aa565b610ae7565b61024e6103743660046127aa565b610d47565b61024e610387366004612964565b610da6565b61024e61039a366004612a2f565b610e11565b6103a761139d565b6040516102759190612ad7565b6001546103c79062010000900460ff1681565b6040516102759190612b00565b6103a76103e236600461277c565b61142b565b600b546001600160a01b03166102a7565b61026b600a5481565b6001546102a790630100000090046001600160a01b031681565b61026b60115481565b61026b60055481565b61026b60145481565b61024e610444366004612b6d565b611456565b61026b6104573660046127aa565b60036020526000908152604090205481565b61024e611464565b61026b600f5481565b61024e6104883660046127aa565b61146f565b60135461026b565b6002546102a7906001600160a01b031681565b61026b6104b63660046127aa565b60096020526000908152604090205481565b61024e6104d6366004612be0565b6116d6565b6103436104e93660046127aa565b60086020526000908152604090205460ff1681565b6015546102a7906001600160a01b031681565b600161051c81611995565b6002600054036105615760405162461bcd60e51b815260206004820152601f60248201526000805160206136ca83398151915260448201526064015b60405180910390fd5b600260008190555461057b906001600160a01b0316611a2b565b6000600554600a5461058d9190612c73565b9050601154600a5410156105c357601154600a546040516359dc328760e01b815260048101929092526024820152604401610558565b6001805462ff00001916620200001790556002546015546105f1916001600160a01b03918216911683611a7a565b6002546040518281526001600160a01b03909116907f26dc6b7e309de29eb24d6830d1cc0f60c6b5d25d5d4830ce8ba77eb55468f0dc906020015b60405180910390a250506001600055565b600161064881611995565b6002600054036106885760405162461bcd60e51b815260206004820152601f60248201526000805160206136ca8339815191526044820152606401610558565b60026000819055546106a2906001600160a01b0316611a2b565b506001805462ff0000191662030000178155600055565b601381815481106106c957600080fd5b600091825260209091200154905081565b60026000540361071a5760405162461bcd60e51b815260206004820152601f60248201526000805160206136ca8339815191526044820152606401610558565b6002600081905561072a81611995565b33600081815260046020526040812080549190556015549091610757916001600160a01b03169083611a7a565b60405181815233907ffc30cddea38e2bf4d6ea7d3f9ed3b6ad7f176419f4963bd81318067a4aee73fe9060200161062c565b600154630100000090046001600160a01b03166109355760016107ab81611995565b6107b3611af2565b6002600054036107f35760405162461bcd60e51b815260206004820152601f60248201526000805160206136ca8339815191526044820152606401610558565b6002600055600b546001600160a01b031661080d57600080fd5b600080808061081e86880188612c91565b935093509350935060138054905083511461084c5760405163b0e7ef7b60e01b815260040160405180910390fd5b600154630100000090046001600160a01b031661086c5761086c84611a2b565b600080808061087d8c8e018e612d58565b93509350935093506000848989898988886040516020016108a49796959493929190612de1565b60408051601f198184030181529190528051602090910120600b549091506108db90869083906001600160a01b0316878787611b52565b6108e457600080fd5b600b546001600160a01b03166000908152600c602090815260408083208684529091529020805460ff1916600117905561092089898989611cb4565b5050600160005550610ae19650505050505050565b60015461095190630100000090046001600160a01b0316611a2b565b600161095c81611995565b610964611af2565b6002600054036109a45760405162461bcd60e51b815260206004820152601f60248201526000805160206136ca8339815191526044820152606401610558565b6002600055600b546001600160a01b03166109be57600080fd5b60008080806109cf86880188612c91565b93509350935093506013805490508351146109fd5760405163b0e7ef7b60e01b815260040160405180910390fd5b600154630100000090046001600160a01b0316610a1d57610a1d84611a2b565b6000808080610a2e8c8e018e612d58565b9350935093509350600084898989898888604051602001610a559796959493929190612de1565b60408051601f198184030181529190528051602090910120600b54909150610a8c90869083906001600160a01b0316878787611b52565b610a9557600080fd5b600b546001600160a01b03166000908152600c602090815260408083208684529091529020805460ff19166001179055610ad189898989611cb4565b5050600160005550505050505050505b50505050565b600260005403610b275760405162461bcd60e51b815260206004820152601f60248201526000805160206136ca8339815191526044820152606401610558565b600260009081556001600160a01b03821681526003602052604081205490819003610b6557604051631e9acf1760e31b815260040160405180910390fd5b600f54421015610b9557600f546040516340968aa760e11b81524260048201526024810191909152604401610558565b600060015462010000900460ff166003811115610bb457610bb4612aea565b03610bdf57600154604051630c987e3f60e31b81526105589162010000900460ff1690600401612b00565b600260015462010000900460ff166003811115610bfe57610bfe612aea565b03610c2957600154604051630c987e3f60e31b81526105589162010000900460ff1690600401612b00565b60105442118015610c3d5750601154600a54105b15610c58576001805462ff0000191662030000179055610c82565b62278d00601054610c699190612ea1565b421115610c82576001805462ff00001916620300001790555b600360015462010000900460ff166003811115610ca157610ca1612aea565b14610cbf57604051639b61206360e01b815260040160405180910390fd5b6001600160a01b038083166000908152600360209081526040808320839055600982528083208390556006909152902080546001600160a01b0319169055601554610d0c91168383611a7a565b816001600160a01b03167fa65a8b4f7f65a1063243d7f7e9e4da00ff767599acf21549ef2548a45d1695ae8260405161062c91815260200190565b600254610d5c906001600160a01b0316611a2b565b600b80546001600160a01b0319166001600160a01b0383169081179091556040517f5719a5656c5cfdaafa148ecf366fd3b0a7fae06449ce2a46225977fb7417e29d90600090a250565b600254610dbb906001600160a01b0316611a2b565b8051610dce90600d906020840190612673565b50600d604051610dde9190612eee565b604051908190038120907f39865a40d618adb128517d1adfed42d8a2ba08c9766461764840e68a6bf59e0390600090a250565b600154610100900460ff1615808015610e2e57506001805460ff16105b80610e475750303b158015610e4757506001805460ff16145b610eb95760405162461bcd60e51b815260206004820152602e60248201527f496e697469616c697a61626c653a20636f6e747261637420697320616c72656160448201527f647920696e697469616c697a65640000000000000000000000000000000000006064820152608401610558565b6001805460ff1916811790558015610edb576001805461ff0019166101001790555b6000610ee681611995565b600180547fffffffffffffffffff0000000000000000000000000000000000000000ffffff1663010000006001600160a01b038716021790556000610f33610140850161012086016127aa565b6001600160a01b031603610f5a5760405163dc2e5e8d60e01b815260040160405180910390fd5b6000610f6960208501856127aa565b6001600160a01b031603610f905760405163063d924960e51b815260040160405180910390fd5b82608001358361010001351115610fcb57604051631e5c82a560e01b8152610100840135600482015260808401356024820152604401610558565b610fda600260e0850135612fa1565b15610ff8576040516384d68d9d60e01b815260040160405180910390fd5b6110086102586040850135612ea1565b8360600135101561102c5760405163079237dd60e31b815260040160405180910390fd5b8260a001356000036110515760405163a4c54a6360e01b815260040160405180910390fd5b826080013560000361107657604051637a61fdf760e01b815260040160405180910390fd5b8260a001358360800135111561109e576040516285e6db60e21b815260040160405180910390fd5b60006110b2610140850161012086016127aa565b6001600160a01b031663313ce5676040518163ffffffff1660e01b8152600401602060405180830381865afa1580156110ef573d6000803e3d6000fd5b505050506040513d601f19601f820116820180604052508101906111139190612fb5565b61111e90600a6130bc565b905060005b61113060c08601866130cb565b905081101561118f578161114760c08701876130cb565b8381811061115757611157613115565b90506020020135101561117d57604051636dddf41160e11b815260040160405180910390fd5b806111878161312b565b915050611123565b5060328460e0013511156111c357604051639088a55b60e01b815260e0850135600482015260326024820152604401610558565b6111d060208501856127aa565b600280546001600160a01b0319166001600160a01b039290921691909117905561120060408501602086016127aa565b600b80546001600160a01b0319166001600160a01b03929092169190911790556040840135600f556060840135601055608084013560115560a084013560125561124d60c08501856130cb565b611259916013916126c9565b5060e084013560145561010084013560075561127d610140850161012086016127aa565b601580546001600160a01b0319166001600160a01b03929092169190911790556112ab610140850185613144565b6016916112b99190836131d9565b50600e81905560018054819062ff0000191662010000820217905550600154601554600f54601054601154601254601454600754600b546040516001600160a01b036301000000909a048a16997fbbabc2d36b1793f04325aeee8a3354406f876694a67995403602953caf03bf0b9961134999908216989097909690959094601394919390926016921690613316565b60405180910390a250508015611398576001805461ff00191681556040519081527f7f26b83ff96e1f2b6a682f133852f6798a09c465da95921460cefb38474024989060200160405180910390a15b505050565b601680546113aa90612eb4565b80601f01602080910402602001604051908101604052809291908181526020018280546113d690612eb4565b80156114235780601f106113f857610100808354040283529160200191611423565b820191906000526020600020905b81548152906001019060200180831161140657829003601f168201915b505050505081565b600d818154811061143b57600080fd5b9060005260206000200160009150905080546113aa90612eb4565b6113988383836000806116d6565b61146d33610ae7565b565b600154630100000090046001600160a01b03166116af57600161149181611995565b611499611af2565b6002600054036114d95760405162461bcd60e51b815260206004820152601f60248201526000805160206136ca8339815191526044820152606401610558565b6002600055600154630100000090046001600160a01b03166114fe576114fe82611a2b565b6001600160a01b03808316600090815260036020908152604080832054600690925290912054909116801561156c576001600160a01b038085166000908152600960209081526040808320549385168352600490915281208054909190611566908490612c73565b90915550505b6001600160a01b038416600090815260046020526040902054156115a357604051636939b91360e11b815260040160405180910390fd5b6001600160a01b038416600090815260036020526040812054600a8054919290916115cf908490612c73565b90915550506001600160a01b0384166000908152600960205260408120546005805491929091611600908490612c73565b90915550506001600160a01b038085166000908152600360209081526040808320839055600982528083208390556006825280832080546001600160a01b031916905560089091529020805460ff1916905560155461166191168584611a7a565b836001600160a01b03167faf65ecdc8a0d3ea90c8344c89e7001864fddf59dfdf41da2994463fe99049a598360405161169c91815260200190565b60405180910390a2505060016000555050565b6001546116cb90630100000090046001600160a01b0316611a2b565b600161149181611995565b600154630100000090046001600160a01b031661187b5760016116f881611995565b611700611af2565b6002600054036117405760405162461bcd60e51b815260206004820152601f60248201526000805160206136ca8339815191526044820152606401610558565b6002600055600b546001600160a01b03161561180f5730600d63ed52b41c60e01b30898989898960405160240161177c96959493929190613417565b60408051601f19818403018152918152602080830180517bffffffffffffffffffffffffffffffffffffffffffffffffffffffff166001600160e01b031990951694909417909352519091632b35166160e11b916117e4918c918c918c918c918c910161345e565b60408051601f1981840301815290829052630556f18360e41b8252610558959493929160040161349c565b600154630100000090046001600160a01b031661182f5761182f86611a2b565b61187086868680806020026020016040519081016040528093929190818152602001838360200280828437600092019190915250889250879150611cb49050565b50600160005561198e565b60015461189790630100000090046001600160a01b0316611a2b565b60016118a281611995565b6118aa611af2565b6002600054036118ea5760405162461bcd60e51b815260206004820152601f60248201526000805160206136ca8339815191526044820152606401610558565b6002600055600b546001600160a01b0316156119265730600d63ed52b41c60e01b30898989898960405160240161177c96959493929190613417565b600154630100000090046001600160a01b03166119465761194686611a2b565b61198786868680806020026020016040519081016040528093929190818152602001838360200280828437600092019190915250889250879150611cb49050565b5060016000555b5050505050565b8060038111156119a7576119a7612aea565b60015462010000900460ff1660038111156119c4576119c4612aea565b146119ef57600154604051630c987e3f60e31b81526105589162010000900460ff1690600401612b00565b806003811115611a0157611a01612aea565b60015462010000900460ff166003811115611a1e57611a1e612aea565b14611a2857600080fd5b50565b336001600160a01b03821614611a65576040516350a5f40560e01b81526001600160a01b0382166004820152336024820152604401610558565b336001600160a01b03821614611a2857600080fd5b6040516001600160a01b03831660248201526044810182905261139890849063a9059cbb60e01b906064015b60408051601f198184030181529190526020810180517bffffffffffffffffffffffffffffffffffffffffffffffffffffffff166001600160e01b0319909316929092179091526120ae565b600f54421015611b2257600f546040516340968aa760e11b81524260048201526024810191909152604401610558565b60105442111561146d5760105460405163b73065c160e01b81524260048201526024810191909152604401610558565b6040517f19457468657265756d205369676e6564204d6573736167653a0a3332000000006020820152603c81018690526000908190611bb4908490605c016040516020818303038152906040528051906020012061219390919063ffffffff16565b9050856001600160a01b0316816001600160a01b031614611be857604051638baa579f60e01b815260040160405180910390fd5b6001600160a01b0388163014611c1157604051638baa579f60e01b815260040160405180910390fd5b428567ffffffffffffffff1611611c4f5760405163034d689d60e51b815267ffffffffffffffff428116600483015286166024820152604401610558565b6001600160a01b0386166000908152600c6020908152604080832087845290915290205460ff1615611ca65760405163433a6e1f60e11b81526001600160a01b038716600482015260248101859052604401610558565b506001979650505050505050565b6001600160a01b0384166000908152600860205260409020805460ff1916831515179055601354835114611cfb5760405163b0e7ef7b60e01b815260040160405180910390fd5b6001600160a01b03841660009081526003602052604090205415611d325760405163f45d43bf60e01b815260040160405180910390fd5b6000805b8451811015611e015760c8858281518110611d5357611d53613115565b60200260200101511115611da157848181518110611d7357611d73613115565b602002602001015160c8604051633f25723360e01b8152600401610558929190918252602082015260400190565b848181518110611db357611db3613115565b602002602001015160138281548110611dce57611dce613115565b9060005260206000200154611de3919061354c565b611ded9083612ea1565b915080611df98161312b565b915050611d36565b50600e54811015611e25576040516387af7e9360e01b815260040160405180910390fd5b828015611e33575060075481105b15611e5f57600754604051633319c7cb60e11b8152610558918391600401918252602082015260400190565b60006001600160a01b03831615801590611e7b57506000601454115b15611ef5576001600160a01b0383166000908152600360205260408120549003611eb8576040516355fbf60160e01b815260040160405180910390fd5b6001600160a01b03831660009081526008602052604090205460ff16611ef1576040516335d001bd60e21b815260040160405180910390fd5b5060015b60008115611fd6576002606460145485611f0f919061354c565b611f199190613563565b611f239190613563565b9050611f2f8184612c73565b6001600160a01b038816600090815260096020526040812080549295508392909190611f5c908490612ea1565b90915550506001600160a01b03841660009081526004602052604081208054839290611f89908490612ea1565b925050819055508060056000828254611fa29190612ea1565b90915550506001600160a01b03878116600090815260066020526040902080546001600160a01b0319169186169190911790555b6001600160a01b0387166000908152600360205260408120849055600a8054859290612003908490612ea1565b9091555050601254600a54111561203c57600a54601254604051632b67412f60e21b815260048101929092526024820152604401610558565b601554612054906001600160a01b03168830866121b9565b836001600160a01b0316876001600160a01b03167f71dbf623c9864a89c5bbceec652cf931124535b770568d8299451edace1331828886858a60405161209d9493929190613577565b60405180910390a350505050505050565b6000612103826040518060400160405280602081526020017f5361666545524332303a206c6f772d6c6576656c2063616c6c206661696c6564815250856001600160a01b03166121f19092919063ffffffff16565b805190915015611398578080602001905181019061212191906135d0565b6113985760405162461bcd60e51b815260206004820152602a60248201527f5361666545524332303a204552433230206f7065726174696f6e20646964206e60448201527f6f742073756363656564000000000000000000000000000000000000000000006064820152608401610558565b60008060006121a2858561220a565b915091506121af8161224f565b5090505b92915050565b6040516001600160a01b0380851660248301528316604482015260648101829052610ae19085906323b872dd60e01b90608401611aa6565b60606122008484600085612405565b90505b9392505050565b60008082516041036122405760208301516040840151606085015160001a6122348782858561254d565b94509450505050612248565b506000905060025b9250929050565b600081600481111561226357612263612aea565b0361226b5750565b600181600481111561227f5761227f612aea565b036122cc5760405162461bcd60e51b815260206004820152601860248201527f45434453413a20696e76616c6964207369676e617475726500000000000000006044820152606401610558565b60028160048111156122e0576122e0612aea565b0361232d5760405162461bcd60e51b815260206004820152601f60248201527f45434453413a20696e76616c6964207369676e6174757265206c656e677468006044820152606401610558565b600381600481111561234157612341612aea565b036123995760405162461bcd60e51b815260206004820152602260248201527f45434453413a20696e76616c6964207369676e6174757265202773272076616c604482015261756560f01b6064820152608401610558565b60048160048111156123ad576123ad612aea565b03611a285760405162461bcd60e51b815260206004820152602260248201527f45434453413a20696e76616c6964207369676e6174757265202776272076616c604482015261756560f01b6064820152608401610558565b60608247101561247d5760405162461bcd60e51b815260206004820152602660248201527f416464726573733a20696e73756666696369656e742062616c616e636520666f60448201527f722063616c6c00000000000000000000000000000000000000000000000000006064820152608401610558565b6001600160a01b0385163b6124d45760405162461bcd60e51b815260206004820152601d60248201527f416464726573733a2063616c6c20746f206e6f6e2d636f6e74726163740000006044820152606401610558565b600080866001600160a01b031685876040516124f091906135ed565b60006040518083038185875af1925050503d806000811461252d576040519150601f19603f3d011682016040523d82523d6000602084013e612532565b606091505b509150915061254282828661263a565b979650505050505050565b6000807f7fffffffffffffffffffffffffffffff5d576e7357a4501ddfe92f46681b20a08311156125845750600090506003612631565b8460ff16601b1415801561259c57508460ff16601c14155b156125ad5750600090506004612631565b6040805160008082526020820180845289905260ff881692820192909252606081018690526080810185905260019060a0016020604051602081039080840390855afa158015612601573d6000803e3d6000fd5b5050604051601f1901519150506001600160a01b03811661262a57600060019250925050612631565b9150600090505b94509492505050565b60608315612649575081612203565b8251156126595782518084602001fd5b8160405162461bcd60e51b81526004016105589190612ad7565b8280548282559060005260206000209081019282156126b9579160200282015b828111156126b957825182906126a99082613609565b5091602001919060010190612693565b506126c5929150612710565b5090565b828054828255906000526020600020908101928215612704579160200282015b828111156127045782358255916020019190600101906126e9565b506126c592915061272d565b808211156126c55760006127248282612742565b50600101612710565b5b808211156126c5576000815560010161272e565b50805461274e90612eb4565b6000825580601f1061275e575050565b601f016020900490600052602060002090810190611a28919061272d565b60006020828403121561278e57600080fd5b5035919050565b6001600160a01b0381168114611a2857600080fd5b6000602082840312156127bc57600080fd5b813561220381612795565b60008083601f8401126127d957600080fd5b50813567ffffffffffffffff8111156127f157600080fd5b60208301915083602082850101111561224857600080fd5b6000806000806040858703121561281f57600080fd5b843567ffffffffffffffff8082111561283757600080fd5b612843888389016127c7565b9096509450602087013591508082111561285c57600080fd5b50612869878288016127c7565b95989497509550505050565b6000806040838503121561288857600080fd5b823561289381612795565b946020939093013593505050565b634e487b7160e01b600052604160045260246000fd5b604051601f8201601f1916810167ffffffffffffffff811182821017156128e0576128e06128a1565b604052919050565b600067ffffffffffffffff821115612902576129026128a1565b5060051b60200190565b600067ffffffffffffffff831115612926576129266128a1565b612939601f8401601f19166020016128b7565b905082815283838301111561294d57600080fd5b828260208301376000602084830101529392505050565b6000602080838503121561297757600080fd5b823567ffffffffffffffff8082111561298f57600080fd5b818501915085601f8301126129a357600080fd5b81356129b66129b1826128e8565b6128b7565b81815260059190911b830184019084810190888311156129d557600080fd5b8585015b83811015612a22578035858111156129f15760008081fd5b8601603f81018b13612a035760008081fd5b612a148b898301356040840161290c565b8452509186019186016129d9565b5098975050505050505050565b60008060408385031215612a4257600080fd5b8235612a4d81612795565b9150602083013567ffffffffffffffff811115612a6957600080fd5b83016101608186031215612a7c57600080fd5b809150509250929050565b60005b83811015612aa2578181015183820152602001612a8a565b50506000910152565b60008151808452612ac3816020860160208601612a87565b601f01601f19169290920160200192915050565b6020815260006122036020830184612aab565b634e487b7160e01b600052602160045260246000fd5b6020810160048310612b2257634e487b7160e01b600052602160045260246000fd5b91905290565b60008083601f840112612b3a57600080fd5b50813567ffffffffffffffff811115612b5257600080fd5b6020830191508360208260051b850101111561224857600080fd5b600080600060408486031215612b8257600080fd5b8335612b8d81612795565b9250602084013567ffffffffffffffff811115612ba957600080fd5b612bb586828701612b28565b9497909650939450505050565b8015158114611a2857600080fd5b8035612bdb81612bc2565b919050565b600080600080600060808688031215612bf857600080fd5b8535612c0381612795565b9450602086013567ffffffffffffffff811115612c1f57600080fd5b612c2b88828901612b28565b9095509350506040860135612c3f81612bc2565b91506060860135612c4f81612795565b809150509295509295909350565b634e487b7160e01b600052601160045260246000fd5b818103818111156121b3576121b3612c5d565b8035612bdb81612795565b60008060008060808587031215612ca757600080fd5b8435612cb281612795565b935060208581013567ffffffffffffffff811115612ccf57600080fd5b8601601f81018813612ce057600080fd5b8035612cee6129b1826128e8565b81815260059190911b8201830190838101908a831115612d0d57600080fd5b928401925b82841015612d2b57833582529284019290840190612d12565b8097505050505050612d3f60408601612bd0565b9150612d4d60608601612c86565b905092959194509250565b60008060008060808587031215612d6e57600080fd5b8435612d7981612795565b9350602085013567ffffffffffffffff8082168214612d9757600080fd5b9093506040860135925060608601359080821115612db457600080fd5b508501601f81018713612dc657600080fd5b612dd58782356020840161290c565b91505092959194509250565b60006bffffffffffffffffffffffff19808a60601b168352808960601b166014840152506028820187516020808a0160005b83811015612e2f57815185529382019390820190600101612e13565b5050505086151560f81b8152612e59600182018760601b6bffffffffffffffffffffffff19169052565b612e8a601582018660c01b7fffffffffffffffff000000000000000000000000000000000000000000000000169052565b601d8101939093525050603d019695505050505050565b808201808211156121b3576121b3612c5d565b600181811c90821680612ec857607f821691505b602082108103612ee857634e487b7160e01b600052602260045260246000fd5b50919050565b600081835483915060008581526020808220825b84811015612f7e57838254612f1681612eb4565b60018281168015612f2e5760018114612f4457612f6b565b60ff1984168b5282151560051b8b019450612f6b565b868952878920895b84811015612f655781548d820152908301908901612f4c565b8c019550505b5092985050509190910190600101612f02565b5093979650505050505050565b634e487b7160e01b600052601260045260246000fd5b600082612fb057612fb0612f8b565b500690565b600060208284031215612fc757600080fd5b815160ff8116811461220357600080fd5b600181815b80851115613013578160001904821115612ff957612ff9612c5d565b8085161561300657918102915b93841c9390800290612fdd565b509250929050565b60008261302a575060016121b3565b81613037575060006121b3565b816001811461304d576002811461305757613073565b60019150506121b3565b60ff84111561306857613068612c5d565b50506001821b6121b3565b5060208310610133831016604e8410600b8410161715613096575081810a6121b3565b6130a08383612fd8565b80600019048211156130b4576130b4612c5d565b029392505050565b600061220360ff84168361301b565b6000808335601e198436030181126130e257600080fd5b83018035915067ffffffffffffffff8211156130fd57600080fd5b6020019150600581901b360382131561224857600080fd5b634e487b7160e01b600052603260045260246000fd5b60006001820161313d5761313d612c5d565b5060010190565b6000808335601e1984360301811261315b57600080fd5b83018035915067ffffffffffffffff82111561317657600080fd5b60200191503681900382131561224857600080fd5b601f82111561139857600081815260208120601f850160051c810160208610156131b25750805b601f850160051c820191505b818110156131d1578281556001016131be565b505050505050565b67ffffffffffffffff8311156131f1576131f16128a1565b613205836131ff8354612eb4565b8361318b565b6000601f84116001811461323957600085156132215750838201355b600019600387901b1c1916600186901b17835561198e565b600083815260209020601f19861690835b8281101561326a578685013582556020948501946001909201910161324a565b50868210156132875760001960f88860031b161c19848701351681555b505060018560011b0183555050505050565b600081546132a681612eb4565b8085526020600183811680156132c357600181146132dd5761330b565b60ff1985168884015283151560051b88018301955061330b565b866000528260002060005b858110156133035781548a82018601529083019084016132e8565b890184019650505b505050505092915050565b60006101408083016001600160a01b038e16845260208d818601528c60408601528b60608601528a60808601528260a08601528192508954808352610160860193508a60005281600020925060005b8181101561338157835485529382019360019384019301613365565b505050508660c08401528560e08401528281036101008401526133a48186613299565b9150506133bd6101208301846001600160a01b03169052565b9b9a5050505050505050505050565b81835260007f07ffffffffffffffffffffffffffffffffffffffffffffffffffffffffffffff8311156133fe57600080fd5b8260051b80836020870137939093016020019392505050565b60006001600160a01b038089168352808816602084015260a0604084015261344360a0840187896133cc565b94151560608401529290921660809091015250949350505050565b60006001600160a01b038088168352608060208401526134826080840187896133cc565b941515604084015292909216606090910152509392505050565b600060a082016001600160a01b0388168352602060a08185015281885480845260c08601915060c08160051b8701019350896000528260002060005b828110156135055787860360bf190184526134f38683613299565b955092840192600191820191016134d8565b5050505050828103604084015261351c8187612aab565b6001600160e01b031986166060850152905082810360808401526135408185612aab565b98975050505050505050565b80820281158282048414176121b3576121b3612c5d565b60008261357257613572612f8b565b500490565b6080808252855190820181905260009060209060a0840190828901845b828110156135b057815184529284019290840190600101613594565b505050908301959095525060408101929092521515606090910152919050565b6000602082840312156135e257600080fd5b815161220381612bc2565b600082516135ff818460208701612a87565b9190910192915050565b815167ffffffffffffffff811115613623576136236128a1565b613637816136318454612eb4565b8461318b565b602080601f83116001811461366c57600084156136545750858301515b600019600386901b1c1916600185901b1785556131d1565b600085815260208120601f198616915b8281101561369b5788860151825594840194600190910190840161367c565b50858210156136b95787850151600019600388901b60f8161c191681555b5050505050600190811b0190555056fe5265656e7472616e637947756172643a207265656e7472616e742063616c6c00a26469706673582212207487b87f593adfd0586d056762be2a72951395548b12f8d4b2032878a4e8bdbd64736f6c63430008150033",
    "linkReferences": {}
  },
  "methodIdentifiers": {
    "abortProject()": "19cc6492",
    "accumulatedRewards()": "9c81ff6b",
    "accumulatedRewardsOf(address)": "27949dab",
    "claimFunds()": "ac307773",
    "claimFunds(address)": "693d0df2",
    "claimRewards()": "372500ab",
    "costForWallet(address)": "aab1e47b",
    "crowdtainerState()": "7855d30c",
    "discountForUser(address)": "eb6ced16",
    "enableReferral(address)": "ef39c4ba",
    "expireTime()": "310a1ee3",
    "getPaidAndDeliver()": "0e6137cf",
    "getSigner()": "7ac3c02f",
    "initialize(address,(address,address,uint256,uint256,uint256,uint256,uint256[],uint256,uint256,address,string))": "6f9d99d9",
    "join(address,uint256[])": "a25a7d3b",
    "join(address,uint256[],bool,address)": "edf00638",
    "joinWithSignature(bytes,bytes)": "566a2cc2",
    "leave(address)": "bedf77a6",
    "legalContractURI()": "74b3eceb",
    "numberOfProducts()": "c66301b2",
    "openingTime()": "b7a8807c",
    "owner()": "8da5cb5b",
    "referralEligibilityValue()": "312ee7fa",
    "referralRate()": "a053ce1f",
    "referrerOfReferee(address)": "2748608f",
    "setSigner(address)": "6c19e783",
    "setUrls(string[])": "6cc895a9",
    "shippingAgent()": "cf084056",
    "targetMaximum()": "53b47656",
    "targetMinimum()": "90ffbe90",
    "token()": "fc0c546a",
    "totalValueRaised()": "8831c8dc",
    "unitPricePerType(uint256)": "1e1b2573",
    "urls(uint256)": "796676be",
    "usedNonces(address,bytes32)": "5fda04c7"
  },
  "id": 29
}