{
  "abi": [
    {
      "inputs": [
        {
          "internalType": "address",
          "name": "expected",
          "type": "address"
        },
        {
          "internalType": "address",
          "name": "actual",
          "type": "address"
        }
      ],
      "name": "CallerNotAllowed",
      "type": "error"
    },
    {
      "inputs": [],
      "name": "CannotLeaveDueAccumulatedReferralCredits",
      "type": "error"
    },
    {
      "inputs": [],
      "name": "CantClaimFundsOnActiveProject",
      "type": "error"
    },
    {
      "inputs": [],
      "name": "ClosingTimeTooEarly",
      "type": "error"
    },
    {
      "inputs": [
        {
          "internalType": "uint256",
          "name": "timestamp",
          "type": "uint256"
        },
        {
          "internalType": "uint256",
          "name": "expiredTime",
          "type": "uint256"
        }
      ],
      "name": "CrowdtainerExpired",
      "type": "error"
    },
    {
      "inputs": [
        {
          "internalType": "uint256",
          "name": "received",
          "type": "uint256"
        },
        {
          "internalType": "uint256",
          "name": "maximum",
          "type": "uint256"
        }
      ],
      "name": "ExceededNumberOfItemsAllowed",
      "type": "error"
    },
    {
      "inputs": [],
      "name": "InsufficientBalance",
      "type": "error"
    },
    {
      "inputs": [],
      "name": "InvalidMaximumTarget",
      "type": "error"
    },
    {
      "inputs": [],
      "name": "InvalidMinimumTarget",
      "type": "error"
    },
    {
      "inputs": [],
      "name": "InvalidNumberOfQuantities",
      "type": "error"
    },
    {
      "inputs": [
        {
          "internalType": "enum CrowdtainerState",
          "name": "state",
          "type": "uint8"
        }
      ],
      "name": "InvalidOperationFor",
      "type": "error"
    },
    {
      "inputs": [],
      "name": "InvalidProductNumberAndPrices",
      "type": "error"
    },
    {
      "inputs": [
        {
          "internalType": "uint256",
          "name": "received",
          "type": "uint256"
        },
        {
          "internalType": "uint256",
          "name": "maximum",
          "type": "uint256"
        }
      ],
      "name": "InvalidReferralRate",
      "type": "error"
    },
    {
      "inputs": [],
      "name": "InvalidSignature",
      "type": "error"
    },
    {
      "inputs": [
        {
          "internalType": "uint256",
          "name": "received",
          "type": "uint256"
        },
        {
          "internalType": "uint256",
          "name": "minimum",
          "type": "uint256"
        }
      ],
      "name": "MinimumPurchaseValueForReferralNotMet",
      "type": "error"
    },
    {
      "inputs": [],
      "name": "MinimumTargetHigherThanMaximum",
      "type": "error"
    },
    {
      "inputs": [
        {
          "internalType": "uint256",
          "name": "minimum",
          "type": "uint256"
        },
        {
          "internalType": "uint256",
          "name": "actual",
          "type": "uint256"
        }
      ],
      "name": "MinimumTargetNotReached",
      "type": "error"
    },
    {
      "inputs": [
        {
          "internalType": "address",
          "name": "wallet",
          "type": "address"
        },
        {
          "internalType": "bytes32",
          "name": "nonce",
          "type": "bytes32"
        }
      ],
      "name": "NonceAlreadyUsed",
      "type": "error"
    },
    {
      "inputs": [
        {
          "internalType": "address",
          "name": "sender",
          "type": "address"
        },
        {
          "internalType": "string[]",
          "name": "urls",
          "type": "string[]"
        },
        {
          "internalType": "bytes",
          "name": "callData",
          "type": "bytes"
        },
        {
          "internalType": "bytes4",
          "name": "callbackFunction",
          "type": "bytes4"
        },
        {
          "internalType": "bytes",
          "name": "extraData",
          "type": "bytes"
        }
      ],
      "name": "OffchainLookup",
      "type": "error"
    },
    {
      "inputs": [
        {
          "internalType": "uint256",
          "name": "timestamp",
          "type": "uint256"
        },
        {
          "internalType": "uint256",
          "name": "openingTime",
          "type": "uint256"
        }
      ],
      "name": "OpeningTimeNotReachedYet",
      "type": "error"
    },
    {
      "inputs": [],
      "name": "PriceTooLow",
      "type": "error"
    },
    {
      "inputs": [
        {
          "internalType": "uint256",
          "name": "received",
          "type": "uint256"
        },
        {
          "internalType": "uint256",
          "name": "maximum",
          "type": "uint256"
        }
      ],
      "name": "PurchaseExceedsMaximumTarget",
      "type": "error"
    },
    {
      "inputs": [],
      "name": "ReferralDisabledForProvidedCode",
      "type": "error"
    },
    {
      "inputs": [],
      "name": "ReferralInexistent",
      "type": "error"
    },
    {
      "inputs": [
        {
          "internalType": "uint256",
          "name": "received",
          "type": "uint256"
        },
        {
          "internalType": "uint256",
          "name": "maximum",
          "type": "uint256"
        }
      ],
      "name": "ReferralMinimumValueTooHigh",
      "type": "error"
    },
    {
      "inputs": [],
      "name": "ReferralRateNotMultipleOfTwo",
      "type": "error"
    },
    {
      "inputs": [],
      "name": "ShippingAgentAddressIsZero",
      "type": "error"
    },
    {
      "inputs": [
        {
          "internalType": "uint64",
          "name": "current",
          "type": "uint64"
        },
        {
          "internalType": "uint64",
          "name": "expires",
          "type": "uint64"
        }
      ],
      "name": "SignatureExpired",
      "type": "error"
    },
    {
      "inputs": [],
      "name": "TokenAddressIsZero",
      "type": "error"
    },
    {
      "inputs": [],
      "name": "UserAlreadyJoined",
      "type": "error"
    },
    {
      "anonymous": false,
      "inputs": [
        {
          "indexed": true,
          "internalType": "string[]",
          "name": "newUrls",
          "type": "string[]"
        }
      ],
      "name": "CCIPURLChanged",
      "type": "event"
    },
    {
      "anonymous": false,
      "inputs": [
        {
          "indexed": true,
          "internalType": "address",
          "name": "owner",
          "type": "address"
        },
        {
          "indexed": true,
          "internalType": "address",
          "name": "shippingAgent",
          "type": "address"
        }
      ],
      "name": "CrowdtainerCreated",
      "type": "event"
    },
    {
      "anonymous": false,
      "inputs": [
        {
          "indexed": true,
          "internalType": "address",
          "name": "shippingAgent",
          "type": "address"
        },
        {
          "indexed": false,
          "internalType": "uint256",
          "name": "totalValueRaised",
          "type": "uint256"
        }
      ],
      "name": "CrowdtainerInDeliveryStage",
      "type": "event"
    },
    {
      "anonymous": false,
      "inputs": [
        {
          "indexed": true,
          "internalType": "address",
          "name": "_owner",
          "type": "address"
        },
        {
          "indexed": false,
          "internalType": "contract IERC20",
          "name": "_token",
          "type": "address"
        },
        {
          "indexed": false,
          "internalType": "uint256",
          "name": "_openingTime",
          "type": "uint256"
        },
        {
          "indexed": false,
          "internalType": "uint256",
          "name": "_expireTime",
          "type": "uint256"
        },
        {
          "indexed": false,
          "internalType": "uint256",
          "name": "_targetMinimum",
          "type": "uint256"
        },
        {
          "indexed": false,
          "internalType": "uint256",
          "name": "_targetMaximum",
          "type": "uint256"
        },
        {
          "indexed": false,
          "internalType": "uint256[]",
          "name": "_unitPricePerType",
          "type": "uint256[]"
        },
        {
          "indexed": false,
          "internalType": "uint256",
          "name": "_referralRate",
          "type": "uint256"
        },
        {
          "indexed": false,
          "internalType": "uint256",
          "name": "_referralEligibilityValue",
          "type": "uint256"
        },
        {
          "indexed": false,
          "internalType": "string",
          "name": "_legalContractURI",
          "type": "string"
        },
        {
          "indexed": false,
          "internalType": "address",
          "name": "_signer",
          "type": "address"
        }
      ],
      "name": "CrowdtainerInitialized",
      "type": "event"
    },
    {
      "anonymous": false,
      "inputs": [
        {
          "indexed": true,
          "internalType": "address",
          "name": "wallet",
          "type": "address"
        },
        {
          "indexed": false,
          "internalType": "uint256",
          "name": "withdrawnAmount",
          "type": "uint256"
        }
      ],
      "name": "FundsClaimed",
      "type": "event"
    },
    {
      "anonymous": false,
      "inputs": [
        {
          "indexed": false,
          "internalType": "uint8",
          "name": "version",
          "type": "uint8"
        }
      ],
      "name": "Initialized",
      "type": "event"
    },
    {
      "anonymous": false,
      "inputs": [
        {
          "indexed": true,
          "internalType": "address",
          "name": "wallet",
          "type": "address"
        },
        {
          "indexed": false,
          "internalType": "uint256[]",
          "name": "quantities",
          "type": "uint256[]"
        },
        {
          "indexed": true,
          "internalType": "address",
          "name": "referrer",
          "type": "address"
        },
        {
          "indexed": false,
          "internalType": "uint256",
          "name": "finalCost",
          "type": "uint256"
        },
        {
          "indexed": false,
          "internalType": "uint256",
          "name": "appliedDiscount",
          "type": "uint256"
        },
        {
          "indexed": false,
          "internalType": "bool",
          "name": "referralEnabled",
          "type": "bool"
        }
      ],
      "name": "Joined",
      "type": "event"
    },
    {
      "anonymous": false,
      "inputs": [
        {
          "indexed": true,
          "internalType": "address",
          "name": "wallet",
          "type": "address"
        },
        {
          "indexed": false,
          "internalType": "uint256",
          "name": "withdrawnAmount",
          "type": "uint256"
        }
      ],
      "name": "Left",
      "type": "event"
    },
    {
      "anonymous": false,
      "inputs": [
        {
          "indexed": true,
          "internalType": "address",
          "name": "wallet",
          "type": "address"
        },
        {
          "indexed": false,
          "internalType": "uint256",
          "name": "withdrawnAmount",
          "type": "uint256"
        }
      ],
      "name": "RewardsClaimed",
      "type": "event"
    },
    {
      "anonymous": false,
      "inputs": [
        {
          "indexed": true,
          "internalType": "address",
          "name": "newSigner",
          "type": "address"
        }
      ],
      "name": "SignerChanged",
      "type": "event"
    },
    {
      "inputs": [],
      "name": "abortProject",
      "outputs": [],
      "stateMutability": "nonpayable",
      "type": "function"
    },
    {
      "inputs": [],
      "name": "accumulatedRewards",
      "outputs": [
        {
          "internalType": "uint256",
          "name": "",
          "type": "uint256"
        }
      ],
      "stateMutability": "view",
      "type": "function"
    },
    {
      "inputs": [
        {
          "internalType": "address",
          "name": "",
          "type": "address"
        }
      ],
      "name": "accumulatedRewardsOf",
      "outputs": [
        {
          "internalType": "uint256",
          "name": "",
          "type": "uint256"
        }
      ],
      "stateMutability": "view",
      "type": "function"
    },
    {
      "inputs": [],
      "name": "claimFunds",
      "outputs": [],
      "stateMutability": "nonpayable",
      "type": "function"
    },
    {
      "inputs": [],
      "name": "claimRewards",
      "outputs": [],
      "stateMutability": "nonpayable",
      "type": "function"
    },
    {
      "inputs": [
        {
          "internalType": "address",
          "name": "",
          "type": "address"
        }
      ],
      "name": "costForWallet",
      "outputs": [
        {
          "internalType": "uint256",
          "name": "",
          "type": "uint256"
        }
      ],
      "stateMutability": "view",
      "type": "function"
    },
    {
      "inputs": [],
      "name": "crowdtainerState",
      "outputs": [
        {
          "internalType": "enum CrowdtainerState",
          "name": "",
          "type": "uint8"
        }
      ],
      "stateMutability": "view",
      "type": "function"
    },
    {
      "inputs": [
        {
          "internalType": "address",
          "name": "",
          "type": "address"
        }
      ],
      "name": "discountForUser",
      "outputs": [
        {
          "internalType": "uint256",
          "name": "",
          "type": "uint256"
        }
      ],
      "stateMutability": "view",
      "type": "function"
    },
    {
      "inputs": [
        {
          "internalType": "address",
          "name": "",
          "type": "address"
        }
      ],
      "name": "enableReferral",
      "outputs": [
        {
          "internalType": "bool",
          "name": "",
          "type": "bool"
        }
      ],
      "stateMutability": "view",
      "type": "function"
    },
    {
      "inputs": [],
      "name": "expireTime",
      "outputs": [
        {
          "internalType": "uint256",
          "name": "",
          "type": "uint256"
        }
      ],
      "stateMutability": "view",
      "type": "function"
    },
    {
      "inputs": [],
      "name": "getPaidAndDeliver",
      "outputs": [],
      "stateMutability": "nonpayable",
      "type": "function"
    },
    {
      "inputs": [],
      "name": "getSigner",
      "outputs": [
        {
          "internalType": "address",
          "name": "",
          "type": "address"
        }
      ],
      "stateMutability": "view",
      "type": "function"
    },
    {
      "inputs": [
        {
          "internalType": "address",
          "name": "_owner",
          "type": "address"
        },
        {
          "components": [
            {
              "internalType": "address",
              "name": "shippingAgent",
              "type": "address"
            },
            {
              "internalType": "address",
              "name": "signer",
              "type": "address"
            },
            {
              "internalType": "uint256",
              "name": "openingTime",
              "type": "uint256"
            },
            {
              "internalType": "uint256",
              "name": "expireTime",
              "type": "uint256"
            },
            {
              "internalType": "uint256",
              "name": "targetMinimum",
              "type": "uint256"
            },
            {
              "internalType": "uint256",
              "name": "targetMaximum",
              "type": "uint256"
            },
            {
              "internalType": "uint256[]",
              "name": "unitPricePerType",
              "type": "uint256[]"
            },
            {
              "internalType": "uint256",
              "name": "referralRate",
              "type": "uint256"
            },
            {
              "internalType": "uint256",
              "name": "referralEligibilityValue",
              "type": "uint256"
            },
            {
              "internalType": "address",
              "name": "token",
              "type": "address"
            },
            {
              "internalType": "string",
              "name": "legalContractURI",
              "type": "string"
            }
          ],
          "internalType": "struct CampaignData",
          "name": "_campaignData",
          "type": "tuple"
        }
      ],
      "name": "initialize",
      "outputs": [],
      "stateMutability": "nonpayable",
      "type": "function"
    },
    {
      "inputs": [
        {
          "internalType": "address",
          "name": "_wallet",
          "type": "address"
        },
        {
          "internalType": "uint256[]",
          "name": "_quantities",
          "type": "uint256[]"
        }
      ],
      "name": "join",
      "outputs": [],
      "stateMutability": "nonpayable",
      "type": "function"
    },
    {
      "inputs": [
        {
          "internalType": "address",
          "name": "_wallet",
          "type": "address"
        },
        {
          "internalType": "uint256[]",
          "name": "_quantities",
          "type": "uint256[]"
        },
        {
          "internalType": "bool",
          "name": "_enableReferral",
          "type": "bool"
        },
        {
          "internalType": "address",
          "name": "_referrer",
          "type": "address"
        }
      ],
      "name": "join",
      "outputs": [],
      "stateMutability": "nonpayable",
      "type": "function"
    },
    {
      "inputs": [
        {
          "internalType": "bytes",
          "name": "result",
          "type": "bytes"
        },
        {
          "internalType": "bytes",
          "name": "extraData",
          "type": "bytes"
        }
      ],
      "name": "joinWithSignature",
      "outputs": [],
      "stateMutability": "nonpayable",
      "type": "function"
    },
    {
      "inputs": [
        {
          "internalType": "address",
          "name": "_wallet",
          "type": "address"
        }
      ],
      "name": "leave",
      "outputs": [],
      "stateMutability": "nonpayable",
      "type": "function"
    },
    {
      "inputs": [],
      "name": "legalContractURI",
      "outputs": [
        {
          "internalType": "string",
          "name": "",
          "type": "string"
        }
      ],
      "stateMutability": "view",
      "type": "function"
    },
    {
      "inputs": [],
      "name": "numberOfProducts",
      "outputs": [
        {
          "internalType": "uint256",
          "name": "",
          "type": "uint256"
        }
      ],
      "stateMutability": "view",
      "type": "function"
    },
    {
      "inputs": [],
      "name": "openingTime",
      "outputs": [
        {
          "internalType": "uint256",
          "name": "",
          "type": "uint256"
        }
      ],
      "stateMutability": "view",
      "type": "function"
    },
    {
      "inputs": [],
      "name": "owner",
      "outputs": [
        {
          "internalType": "address",
          "name": "",
          "type": "address"
        }
      ],
      "stateMutability": "view",
      "type": "function"
    },
    {
      "inputs": [],
      "name": "referralEligibilityValue",
      "outputs": [
        {
          "internalType": "uint256",
          "name": "",
          "type": "uint256"
        }
      ],
      "stateMutability": "view",
      "type": "function"
    },
    {
      "inputs": [],
      "name": "referralRate",
      "outputs": [
        {
          "internalType": "uint256",
          "name": "",
          "type": "uint256"
        }
      ],
      "stateMutability": "view",
      "type": "function"
    },
    {
      "inputs": [
        {
          "internalType": "address",
          "name": "",
          "type": "address"
        }
      ],
      "name": "referrerOfReferee",
      "outputs": [
        {
          "internalType": "address",
          "name": "",
          "type": "address"
        }
      ],
      "stateMutability": "view",
      "type": "function"
    },
    {
      "inputs": [
        {
          "internalType": "address",
          "name": "_signer",
          "type": "address"
        }
      ],
      "name": "setSigner",
      "outputs": [],
      "stateMutability": "nonpayable",
      "type": "function"
    },
    {
      "inputs": [
        {
          "internalType": "string[]",
          "name": "_urls",
          "type": "string[]"
        }
      ],
      "name": "setUrls",
      "outputs": [],
      "stateMutability": "nonpayable",
      "type": "function"
    },
    {
      "inputs": [],
      "name": "shippingAgent",
      "outputs": [
        {
          "internalType": "address",
          "name": "",
          "type": "address"
        }
      ],
      "stateMutability": "view",
      "type": "function"
    },
    {
      "inputs": [],
      "name": "targetMaximum",
      "outputs": [
        {
          "internalType": "uint256",
          "name": "",
          "type": "uint256"
        }
      ],
      "stateMutability": "view",
      "type": "function"
    },
    {
      "inputs": [],
      "name": "targetMinimum",
      "outputs": [
        {
          "internalType": "uint256",
          "name": "",
          "type": "uint256"
        }
      ],
      "stateMutability": "view",
      "type": "function"
    },
    {
      "inputs": [],
      "name": "token",
      "outputs": [
        {
          "internalType": "contract IERC20",
          "name": "",
          "type": "address"
        }
      ],
      "stateMutability": "view",
      "type": "function"
    },
    {
      "inputs": [],
      "name": "totalValueRaised",
      "outputs": [
        {
          "internalType": "uint256",
          "name": "",
          "type": "uint256"
        }
      ],
      "stateMutability": "view",
      "type": "function"
    },
    {
      "inputs": [
        {
          "internalType": "uint256",
          "name": "",
          "type": "uint256"
        }
      ],
      "name": "unitPricePerType",
      "outputs": [
        {
          "internalType": "uint256",
          "name": "",
          "type": "uint256"
        }
      ],
      "stateMutability": "view",
      "type": "function"
    },
    {
      "inputs": [
        {
          "internalType": "uint256",
          "name": "",
          "type": "uint256"
        }
      ],
      "name": "urls",
      "outputs": [
        {
          "internalType": "string",
          "name": "",
          "type": "string"
        }
      ],
      "stateMutability": "view",
      "type": "function"
    },
    {
      "inputs": [
        {
          "internalType": "address",
          "name": "",
          "type": "address"
        },
        {
          "internalType": "bytes32",
          "name": "",
          "type": "bytes32"
        }
      ],
      "name": "usedNonces",
      "outputs": [
        {
          "internalType": "bool",
          "name": "",
          "type": "bool"
        }
      ],
      "stateMutability": "view",
      "type": "function"
    }
  ],
  "bytecode": {
    "object": "0x608060405234801561001057600080fd5b506001600055614491806100256000396000f3fe608060405234801561001057600080fd5b50600436106102265760003560e01c80637ac3c02f1161012a578063ac307773116100bd578063cf0840561161008c578063edf0063811610071578063edf00638146104db578063ef39c4ba146104ee578063fc0c546a1461051157600080fd5b8063cf0840561461049b578063eb6ced16146104bb57600080fd5b8063ac3077731461046f578063b7a8807c14610477578063bedf77a614610480578063c66301b21461049357600080fd5b80639c81ff6b116100f95780639c81ff6b1461042a578063a053ce1f14610433578063a25a7d3b1461043c578063aab1e47b1461044f57600080fd5b80637ac3c02f146103d35780638831c8dc146103f15780638da5cb5b146103fa57806390ffbe901461042157600080fd5b806353b47656116101bd5780636cc895a91161018c57806374b3eceb1161017157806374b3eceb1461038b5780637855d30c146103a0578063796676be146103c057600080fd5b80636cc895a9146103655780636f9d99d91461037857600080fd5b806353b47656146102f8578063566a2cc2146103015780635fda04c7146103145780636c19e7831461035257600080fd5b806327949dab116101f957806327949dab146102be578063310a1ee3146102de578063312ee7fa146102e7578063372500ab146102f057600080fd5b80630e6137cf1461022b57806319cc6492146102355780631e1b25731461023d5780632748608f14610263575b600080fd5b610233610531565b005b6102336106e7565b61025061024b366004613300565b6107b8565b6040519081526020015b60405180910390f35b61029961027136600461333b565b60066020526000908152604090205473ffffffffffffffffffffffffffffffffffffffff1681565b60405173ffffffffffffffffffffffffffffffffffffffff909116815260200161025a565b6102506102cc36600461333b565b60046020526000908152604090205481565b610250600f5481565b61025060075481565b6102336107d9565b61025060115481565b61023361030f36600461339a565b6108c3565b610342610322366004613406565b600c60209081526000928352604080842090915290825290205460ff1681565b604051901515815260200161025a565b61023361036036600461333b565b610da5565b61023361037336600461354a565b610e36565b610233610386366004613615565b610eae565b6103936115e0565b60405161025a91906136db565b6001546103b39062010000900460ff1681565b60405161025a919061371d565b6103936103ce366004613300565b61166e565b600b5473ffffffffffffffffffffffffffffffffffffffff16610299565b610250600a5481565b600154610299906301000000900473ffffffffffffffffffffffffffffffffffffffff1681565b61025060105481565b61025060055481565b61025060135481565b61023361044a3660046137a3565b611699565b61025061045d36600461333b565b60036020526000908152604090205481565b6102336116a7565b610250600e5481565b61023361048e36600461333b565b6119bf565b601254610250565b6002546102999073ffffffffffffffffffffffffffffffffffffffff1681565b6102506104c936600461333b565b60096020526000908152604090205481565b6102336104e9366004613816565b611d24565b6103426104fc36600461333b565b60086020526000908152604090205460ff1681565b6014546102999073ffffffffffffffffffffffffffffffffffffffff1681565b600161053c8161210f565b6002600054036105ad576040517f08c379a000000000000000000000000000000000000000000000000000000000815260206004820152601f60248201527f5265656e7472616e637947756172643a207265656e7472616e742063616c6c0060448201526064015b60405180910390fd5b60026000819055546105d49073ffffffffffffffffffffffffffffffffffffffff166121be565b6000600554600a546105e691906138c2565b9050601054600a54101561063557601054600a546040517f59dc3287000000000000000000000000000000000000000000000000000000008152600481019290925260248201526044016105a4565b600180547fffffffffffffffffffffffffffffffffffffffffffffffffffffffffff00ffff166202000017905560025460145461068e9173ffffffffffffffffffffffffffffffffffffffff918216913091168461224d565b60025460405182815273ffffffffffffffffffffffffffffffffffffffff909116907f26dc6b7e309de29eb24d6830d1cc0f60c6b5d25d5d4830ce8ba77eb55468f0dc906020015b60405180910390a250506001600055565b60016106f28161210f565b60026000540361075e576040517f08c379a000000000000000000000000000000000000000000000000000000000815260206004820152601f60248201527f5265656e7472616e637947756172643a207265656e7472616e742063616c6c0060448201526064016105a4565b60026000819055546107859073ffffffffffffffffffffffffffffffffffffffff166121be565b50600180547fffffffffffffffffffffffffffffffffffffffffffffffffffffffffff00ffff1662030000178155600055565b601281815481106107c857600080fd5b600091825260209091200154905081565b600260005403610845576040517f08c379a000000000000000000000000000000000000000000000000000000000815260206004820152601f60248201527f5265656e7472616e637947756172643a207265656e7472616e742063616c6c0060448201526064016105a4565b600260008190556108558161210f565b336000818152600460205260408120805491905560145490916108919173ffffffffffffffffffffffffffffffffffffffff169030908461224d565b60405181815233907ffc30cddea38e2bf4d6ea7d3f9ed3b6ad7f176419f4963bd81318067a4aee73fe906020016106d6565b6001546301000000900473ffffffffffffffffffffffffffffffffffffffff16610b315760016108f28161210f565b6108fa6122e2565b600260005403610966576040517f08c379a000000000000000000000000000000000000000000000000000000000815260206004820152601f60248201527f5265656e7472616e637947756172643a207265656e7472616e742063616c6c0060448201526064016105a4565b6002600055600b5473ffffffffffffffffffffffffffffffffffffffff1661098d57600080fd5b600080808061099e868801886138e0565b93509350935093506012805490508351146109e5576040517fb0e7ef7b00000000000000000000000000000000000000000000000000000000815260040160405180910390fd5b6001546301000000900473ffffffffffffffffffffffffffffffffffffffff16610a1257610a12846121be565b6000808080610a238c8e018e6139a7565b9350935093509350600084898989898888604051602001610a4a9796959493929190613a30565b604080517fffffffffffffffffffffffffffffffffffffffffffffffffffffffffffffffe08184030181529190528051602090910120600b54909150610aac908690839073ffffffffffffffffffffffffffffffffffffffff16878787612376565b610ab557600080fd5b600b5473ffffffffffffffffffffffffffffffffffffffff166000908152600c60209081526040808320868452909152902080547fffffffffffffffffffffffffffffffffffffffffffffffffffffffffffffff00166001179055610b1c8989898961257d565b5050600160005550610d9f9650505050505050565b600154610b5a906301000000900473ffffffffffffffffffffffffffffffffffffffff166121be565b6001610b658161210f565b610b6d6122e2565b600260005403610bd9576040517f08c379a000000000000000000000000000000000000000000000000000000000815260206004820152601f60248201527f5265656e7472616e637947756172643a207265656e7472616e742063616c6c0060448201526064016105a4565b6002600055600b5473ffffffffffffffffffffffffffffffffffffffff16610c0057600080fd5b6000808080610c11868801886138e0565b9350935093509350601280549050835114610c58576040517fb0e7ef7b00000000000000000000000000000000000000000000000000000000815260040160405180910390fd5b6001546301000000900473ffffffffffffffffffffffffffffffffffffffff16610c8557610c85846121be565b6000808080610c968c8e018e6139a7565b9350935093509350600084898989898888604051602001610cbd9796959493929190613a30565b604080517fffffffffffffffffffffffffffffffffffffffffffffffffffffffffffffffe08184030181529190528051602090910120600b54909150610d1f908690839073ffffffffffffffffffffffffffffffffffffffff16878787612376565b610d2857600080fd5b600b5473ffffffffffffffffffffffffffffffffffffffff166000908152600c60209081526040808320868452909152902080547fffffffffffffffffffffffffffffffffffffffffffffffffffffffffffffff00166001179055610d8f8989898961257d565b5050600160005550505050505050505b50505050565b600254610dc79073ffffffffffffffffffffffffffffffffffffffff166121be565b600b80547fffffffffffffffffffffffff00000000000000000000000000000000000000001673ffffffffffffffffffffffffffffffffffffffff83169081179091556040517f5719a5656c5cfdaafa148ecf366fd3b0a7fae06449ce2a46225977fb7417e29d90600090a250565b600254610e589073ffffffffffffffffffffffffffffffffffffffff166121be565b8051610e6b90600d9060208401906131f7565b50600d604051610e7b9190613b69565b604051908190038120907f39865a40d618adb128517d1adfed42d8a2ba08c9766461764840e68a6bf59e0390600090a250565b600154610100900460ff1615808015610ecb57506001805460ff16105b80610ee45750303b158015610ee457506001805460ff16145b610f70576040517f08c379a000000000000000000000000000000000000000000000000000000000815260206004820152602e60248201527f496e697469616c697a61626c653a20636f6e747261637420697320616c72656160448201527f647920696e697469616c697a656400000000000000000000000000000000000060648201526084016105a4565b600180547fffffffffffffffffffffffffffffffffffffffffffffffffffffffffffffff0016811790558015610fcd57600180547fffffffffffffffffffffffffffffffffffffffffffffffffffffffffffff00ff166101001790555b6000610fd88161210f565b600180547fffffffffffffffffff0000000000000000000000000000000000000000ffffff16630100000073ffffffffffffffffffffffffffffffffffffffff87160217905560006110326101408501610120860161333b565b73ffffffffffffffffffffffffffffffffffffffff160361107f576040517fdc2e5e8d00000000000000000000000000000000000000000000000000000000815260040160405180910390fd5b600061108e602085018561333b565b73ffffffffffffffffffffffffffffffffffffffff16036110db576040517fc7b2492000000000000000000000000000000000000000000000000000000000815260040160405180910390fd5b8260800135836101000135111561112f576040517f1e5c82a50000000000000000000000000000000000000000000000000000000081526101008401356004820152608084013560248201526044016105a4565b61113e600260e0850135613c53565b15611175576040517f84d68d9d00000000000000000000000000000000000000000000000000000000815260040160405180910390fd5b611184603c6040850135613c67565b836060013510156111c1576040517f3c91bee800000000000000000000000000000000000000000000000000000000815260040160405180910390fd5b8260a001356000036111ff576040517fa4c54a6300000000000000000000000000000000000000000000000000000000815260040160405180910390fd5b826080013560000361123d576040517f7a61fdf700000000000000000000000000000000000000000000000000000000815260040160405180910390fd5b8260a001358360800135111561127f576040517f02179b6c00000000000000000000000000000000000000000000000000000000815260040160405180910390fd5b60005b61128f60c0850185613c7a565b905081101561130a57620f42406112a960c0860186613c7a565b838181106112b9576112b9613ce2565b9050602002013510156112f8576040517fdbbbe82200000000000000000000000000000000000000000000000000000000815260040160405180910390fd5b8061130281613d11565b915050611282565b5060328360e001351115611357576040517f9088a55b00000000000000000000000000000000000000000000000000000000815260e08401356004820152603260248201526044016105a4565b611364602084018461333b565b600280547fffffffffffffffffffffffff00000000000000000000000000000000000000001673ffffffffffffffffffffffffffffffffffffffff929092169190911790556113b9604084016020850161333b565b600b80547fffffffffffffffffffffffff00000000000000000000000000000000000000001673ffffffffffffffffffffffffffffffffffffffff929092169190911790556040830135600e556060830135600f55608083013560105560a083013560115561142b60c0840184613c7a565b6114379160129161324d565b5060e083013560135561010083013560075561145b6101408401610120850161333b565b601480547fffffffffffffffffffffffff00000000000000000000000000000000000000001673ffffffffffffffffffffffffffffffffffffffff929092169190911790556114ae610140840184613d49565b6015916114bc919083613dfc565b506001805481907fffffffffffffffffffffffffffffffffffffffffffffffffffffffffff00ffff1662010000820217905550600154601454600e54600f54601054601154601354600754600b5460405173ffffffffffffffffffffffffffffffffffffffff6301000000909a048a16997fbbabc2d36b1793f04325aeee8a3354406f876694a67995403602953caf03bf0b9961157099908216989097909690959094601294919390926015921690613fb1565b60405180910390a25080156115db57600180547fffffffffffffffffffffffffffffffffffffffffffffffffffffffffffff00ff1681556040519081527f7f26b83ff96e1f2b6a682f133852f6798a09c465da95921460cefb38474024989060200160405180910390a15b505050565b601580546115ed90613b16565b80601f016020809104026020016040519081016040528092919081815260200182805461161990613b16565b80156116665780601f1061163b57610100808354040283529160200191611666565b820191906000526020600020905b81548152906001019060200180831161164957829003601f168201915b505050505081565b600d818154811061167e57600080fd5b9060005260206000200160009150905080546115ed90613b16565b6115db838383600080611d24565b600260005403611713576040517f08c379a000000000000000000000000000000000000000000000000000000000815260206004820152601f60248201527f5265656e7472616e637947756172643a207265656e7472616e742063616c6c0060448201526064016105a4565b6002600055600e5442101561176157600e546040517f812d154e00000000000000000000000000000000000000000000000000000000815242600482015260248101919091526044016105a4565b600060015462010000900460ff166003811115611780576117806136ee565b036117c4576001546040517f64c3f1f80000000000000000000000000000000000000000000000000000000081526105a49162010000900460ff169060040161371d565b600260015462010000900460ff1660038111156117e3576117e36136ee565b03611827576001546040517f64c3f1f80000000000000000000000000000000000000000000000000000000081526105a49162010000900460ff169060040161371d565b600f544211801561183b5750601054600a54105b1561186e57600180547fffffffffffffffffffffffffffffffffffffffffffffffffffffffffff00ffff16620300001790555b600360015462010000900460ff16600381111561188d5761188d6136ee565b146118c4576040517f9b61206300000000000000000000000000000000000000000000000000000000815260040160405180910390fd5b336000908152600360205260408120549081900361190e576040517ff4d678b800000000000000000000000000000000000000000000000000000000815260040160405180910390fd5b336000818152600360209081526040808320839055600982528083208390556006909152902080547fffffffffffffffffffffffff00000000000000000000000000000000000000001690556014546119829173ffffffffffffffffffffffffffffffffffffffff9091169030908461224d565b60405181815233907fa65a8b4f7f65a1063243d7f7e9e4da00ff767599acf21549ef2548a45d1695ae9060200160405180910390a2506001600055565b6001546301000000900473ffffffffffffffffffffffffffffffffffffffff16611cf05760016119ee8161210f565b6119f66122e2565b600260005403611a62576040517f08c379a000000000000000000000000000000000000000000000000000000000815260206004820152601f60248201527f5265656e7472616e637947756172643a207265656e7472616e742063616c6c0060448201526064016105a4565b60026000556001546301000000900473ffffffffffffffffffffffffffffffffffffffff16611a9457611a94826121be565b73ffffffffffffffffffffffffffffffffffffffff8083166000908152600360209081526040808320546006909252909120549091168015611b1c5773ffffffffffffffffffffffffffffffffffffffff8085166000908152600960209081526040808320549385168352600490915281208054909190611b169084906138c2565b90915550505b73ffffffffffffffffffffffffffffffffffffffff841660009081526004602052604090205415611b79576040517fd273722600000000000000000000000000000000000000000000000000000000815260040160405180910390fd5b73ffffffffffffffffffffffffffffffffffffffff8416600090815260036020526040812054600a805491929091611bb29084906138c2565b909155505073ffffffffffffffffffffffffffffffffffffffff84166000908152600960205260408120546005805491929091611bf09084906138c2565b909155505073ffffffffffffffffffffffffffffffffffffffff8085166000908152600360209081526040808320839055600982528083208390556006825280832080547fffffffffffffffffffffffff00000000000000000000000000000000000000001690556008909152902080547fffffffffffffffffffffffffffffffffffffffffffffffffffffffffffffff00169055601454611c95911630868561224d565b8373ffffffffffffffffffffffffffffffffffffffff167faf65ecdc8a0d3ea90c8344c89e7001864fddf59dfdf41da2994463fe99049a5983604051611cdd91815260200190565b60405180910390a2505060016000555050565b600154611d19906301000000900473ffffffffffffffffffffffffffffffffffffffff166121be565b60016119ee8161210f565b6001546301000000900473ffffffffffffffffffffffffffffffffffffffff16611fa2576001611d538161210f565b611d5b6122e2565b600260005403611dc7576040517f08c379a000000000000000000000000000000000000000000000000000000000815260206004820152601f60248201527f5265656e7472616e637947756172643a207265656e7472616e742063616c6c0060448201526064016105a4565b6002600055600b5473ffffffffffffffffffffffffffffffffffffffff1615611f295730600d63ed52b41c60e01b308989898989604051602401611e10969594939291906140cc565b604080517fffffffffffffffffffffffffffffffffffffffffffffffffffffffffffffffe0818403018152918152602080830180517bffffffffffffffffffffffffffffffffffffffffffffffffffffffff167fffffffff00000000000000000000000000000000000000000000000000000000909516949094179093525190917f566a2cc20000000000000000000000000000000000000000000000000000000091611ec7918c918c918c918c918c9101614120565b604080517fffffffffffffffffffffffffffffffffffffffffffffffffffffffffffffffe0818403018152908290527f556f18300000000000000000000000000000000000000000000000000000000082526105a4959493929160040161416b565b6001546301000000900473ffffffffffffffffffffffffffffffffffffffff16611f5657611f56866121be565b611f978686868080602002602001604051908101604052809392919081815260200183836020028082843760009201919091525088925087915061257d9050565b506001600055612108565b600154611fcb906301000000900473ffffffffffffffffffffffffffffffffffffffff166121be565b6001611fd68161210f565b611fde6122e2565b60026000540361204a576040517f08c379a000000000000000000000000000000000000000000000000000000000815260206004820152601f60248201527f5265656e7472616e637947756172643a207265656e7472616e742063616c6c0060448201526064016105a4565b6002600055600b5473ffffffffffffffffffffffffffffffffffffffff16156120935730600d63ed52b41c60e01b308989898989604051602401611e10969594939291906140cc565b6001546301000000900473ffffffffffffffffffffffffffffffffffffffff166120c0576120c0866121be565b6121018686868080602002602001604051908101604052809392919081815260200183836020028082843760009201919091525088925087915061257d9050565b5060016000555b5050505050565b806003811115612121576121216136ee565b60015462010000900460ff16600381111561213e5761213e6136ee565b14612182576001546040517f64c3f1f80000000000000000000000000000000000000000000000000000000081526105a49162010000900460ff169060040161371d565b806003811115612194576121946136ee565b60015462010000900460ff1660038111156121b1576121b16136ee565b146121bb57600080fd5b50565b3373ffffffffffffffffffffffffffffffffffffffff82161461222b576040517f50a5f40500000000000000000000000000000000000000000000000000000000815273ffffffffffffffffffffffffffffffffffffffff821660048201523360248201526044016105a4565b3373ffffffffffffffffffffffffffffffffffffffff8216146121bb57600080fd5b6040805173ffffffffffffffffffffffffffffffffffffffff85811660248301528416604482015260648082018490528251808303909101815260849091019091526020810180517bffffffffffffffffffffffffffffffffffffffffffffffffffffffff167f23b872dd00000000000000000000000000000000000000000000000000000000179052610d9f908590612b12565b600e5442101561232b57600e546040517f812d154e00000000000000000000000000000000000000000000000000000000815242600482015260248101919091526044016105a4565b600f5442111561237457600f546040517fb73065c100000000000000000000000000000000000000000000000000000000815242600482015260248101919091526044016105a4565b565b6040517f19457468657265756d205369676e6564204d6573736167653a0a3332000000006020820152603c810186905260009081906123d8908490605c0160405160208183030381529060405280519060200120612c1e90919063ffffffff16565b90508573ffffffffffffffffffffffffffffffffffffffff168173ffffffffffffffffffffffffffffffffffffffff161461243f576040517f8baa579f00000000000000000000000000000000000000000000000000000000815260040160405180910390fd5b73ffffffffffffffffffffffffffffffffffffffff8816301461248e576040517f8baa579f00000000000000000000000000000000000000000000000000000000815260040160405180910390fd5b428567ffffffffffffffff16116124e5576040517f69ad13a000000000000000000000000000000000000000000000000000000000815267ffffffffffffffff4281166004830152861660248201526044016105a4565b73ffffffffffffffffffffffffffffffffffffffff86166000908152600c6020908152604080832087845290915290205460ff161561256f576040517f8674dc3e00000000000000000000000000000000000000000000000000000000815273ffffffffffffffffffffffffffffffffffffffff87166004820152602481018590526044016105a4565b506001979650505050505050565b73ffffffffffffffffffffffffffffffffffffffff8416600090815260086020526040902080547fffffffffffffffffffffffffffffffffffffffffffffffffffffffffffffff0016831515179055601254835114612608576040517fb0e7ef7b00000000000000000000000000000000000000000000000000000000815260040160405180910390fd5b73ffffffffffffffffffffffffffffffffffffffff841660009081526003602052604090205415612665576040517ff45d43bf00000000000000000000000000000000000000000000000000000000815260040160405180910390fd5b6000805b845181101561274d5760c885828151811061268657612686613ce2565b602002602001015111156126ed578481815181106126a6576126a6613ce2565b602002602001015160c86040517f3f2572330000000000000000000000000000000000000000000000000000000081526004016105a4929190918252602082015260400190565b8481815181106126ff576126ff613ce2565b60200260200101516012828154811061271a5761271a613ce2565b906000526020600020015461272f919061425e565b6127399083613c67565b91508061274581613d11565b915050612669565b50620f424081101561278b576040517f87af7e9300000000000000000000000000000000000000000000000000000000815260040160405180910390fd5b828015612799575060075481105b156127de576007546040517f66338f960000000000000000000000000000000000000000000000000000000081526105a4918391600401918252602082015260400190565b600073ffffffffffffffffffffffffffffffffffffffff83161580159061280757506000601354115b156128cd5773ffffffffffffffffffffffffffffffffffffffff8316600090815260036020526040812054900361286a576040517f55fbf60100000000000000000000000000000000000000000000000000000000815260040160405180910390fd5b73ffffffffffffffffffffffffffffffffffffffff831660009081526008602052604090205460ff166128c9576040517fd74006f400000000000000000000000000000000000000000000000000000000815260040160405180910390fd5b5060015b600081156129ed5760026064601354856128e7919061425e565b6128f1919061429b565b6128fb919061429b565b905061290781846138c2565b73ffffffffffffffffffffffffffffffffffffffff8816600090815260096020526040812080549295508392909190612941908490613c67565b909155505073ffffffffffffffffffffffffffffffffffffffff84166000908152600460205260408120805483929061297b908490613c67565b9250508190555080600560008282546129949190613c67565b909155505073ffffffffffffffffffffffffffffffffffffffff878116600090815260066020526040902080547fffffffffffffffffffffffff0000000000000000000000000000000000000000169186169190911790555b73ffffffffffffffffffffffffffffffffffffffff87166000908152600360205260408120849055600a8054859290612a27908490613c67565b9091555050601154600a541115612a7957600a546011546040517fad9d04bc000000000000000000000000000000000000000000000000000000008152600481019290925260248201526044016105a4565b601454612a9e9073ffffffffffffffffffffffffffffffffffffffff1688308661224d565b8373ffffffffffffffffffffffffffffffffffffffff168773ffffffffffffffffffffffffffffffffffffffff167f71dbf623c9864a89c5bbceec652cf931124535b770568d8299451edace1331828886858a604051612b0194939291906142af565b60405180910390a350505050505050565b6000612b74826040518060400160405280602081526020017f5361666545524332303a206c6f772d6c6576656c2063616c6c206661696c65648152508573ffffffffffffffffffffffffffffffffffffffff16612c449092919063ffffffff16565b8051909150156115db5780806020019051810190612b929190614308565b6115db576040517f08c379a000000000000000000000000000000000000000000000000000000000815260206004820152602a60248201527f5361666545524332303a204552433230206f7065726174696f6e20646964206e60448201527f6f7420737563636565640000000000000000000000000000000000000000000060648201526084016105a4565b6000806000612c2d8585612c5d565b91509150612c3a81612ca2565b5090505b92915050565b6060612c538484600085612ef6565b90505b9392505050565b6000808251604103612c935760208301516040840151606085015160001a612c878782858561308c565b94509450505050612c9b565b506000905060025b9250929050565b6000816004811115612cb657612cb66136ee565b03612cbe5750565b6001816004811115612cd257612cd26136ee565b03612d39576040517f08c379a000000000000000000000000000000000000000000000000000000000815260206004820152601860248201527f45434453413a20696e76616c6964207369676e6174757265000000000000000060448201526064016105a4565b6002816004811115612d4d57612d4d6136ee565b03612db4576040517f08c379a000000000000000000000000000000000000000000000000000000000815260206004820152601f60248201527f45434453413a20696e76616c6964207369676e6174757265206c656e6774680060448201526064016105a4565b6003816004811115612dc857612dc86136ee565b03612e55576040517f08c379a000000000000000000000000000000000000000000000000000000000815260206004820152602260248201527f45434453413a20696e76616c6964207369676e6174757265202773272076616c60448201527f756500000000000000000000000000000000000000000000000000000000000060648201526084016105a4565b6004816004811115612e6957612e696136ee565b036121bb576040517f08c379a000000000000000000000000000000000000000000000000000000000815260206004820152602260248201527f45434453413a20696e76616c6964207369676e6174757265202776272076616c60448201527f756500000000000000000000000000000000000000000000000000000000000060648201526084016105a4565b606082471015612f88576040517f08c379a000000000000000000000000000000000000000000000000000000000815260206004820152602660248201527f416464726573733a20696e73756666696369656e742062616c616e636520666f60448201527f722063616c6c000000000000000000000000000000000000000000000000000060648201526084016105a4565b73ffffffffffffffffffffffffffffffffffffffff85163b613006576040517f08c379a000000000000000000000000000000000000000000000000000000000815260206004820152601d60248201527f416464726573733a2063616c6c20746f206e6f6e2d636f6e747261637400000060448201526064016105a4565b6000808673ffffffffffffffffffffffffffffffffffffffff16858760405161302f9190614325565b60006040518083038185875af1925050503d806000811461306c576040519150601f19603f3d011682016040523d82523d6000602084013e613071565b606091505b50915091506130818282866131a4565b979650505050505050565b6000807f7fffffffffffffffffffffffffffffff5d576e7357a4501ddfe92f46681b20a08311156130c3575060009050600361319b565b8460ff16601b141580156130db57508460ff16601c14155b156130ec575060009050600461319b565b6040805160008082526020820180845289905260ff881692820192909252606081018690526080810185905260019060a0016020604051602081039080840390855afa158015613140573d6000803e3d6000fd5b50506040517fffffffffffffffffffffffffffffffffffffffffffffffffffffffffffffffe0015191505073ffffffffffffffffffffffffffffffffffffffff81166131945760006001925092505061319b565b9150600090505b94509492505050565b606083156131b3575081612c56565b8251156131c35782518084602001fd5b816040517f08c379a00000000000000000000000000000000000000000000000000000000081526004016105a491906136db565b82805482825590600052602060002090810192821561323d579160200282015b8281111561323d578251829061322d9082614341565b5091602001919060010190613217565b50613249929150613294565b5090565b828054828255906000526020600020908101928215613288579160200282015b8281111561328857823582559160200191906001019061326d565b506132499291506132b1565b808211156132495760006132a882826132c6565b50600101613294565b5b8082111561324957600081556001016132b2565b5080546132d290613b16565b6000825580601f106132e2575050565b601f0160209004906000526020600020908101906121bb91906132b1565b60006020828403121561331257600080fd5b5035919050565b73ffffffffffffffffffffffffffffffffffffffff811681146121bb57600080fd5b60006020828403121561334d57600080fd5b8135612c5681613319565b60008083601f84011261336a57600080fd5b50813567ffffffffffffffff81111561338257600080fd5b602083019150836020828501011115612c9b57600080fd5b600080600080604085870312156133b057600080fd5b843567ffffffffffffffff808211156133c857600080fd5b6133d488838901613358565b909650945060208701359150808211156133ed57600080fd5b506133fa87828801613358565b95989497509550505050565b6000806040838503121561341957600080fd5b823561342481613319565b946020939093013593505050565b7f4e487b7100000000000000000000000000000000000000000000000000000000600052604160045260246000fd5b604051601f82017fffffffffffffffffffffffffffffffffffffffffffffffffffffffffffffffe016810167ffffffffffffffff811182821017156134a8576134a8613432565b604052919050565b600067ffffffffffffffff8211156134ca576134ca613432565b5060051b60200190565b600067ffffffffffffffff8311156134ee576134ee613432565b61351f60207fffffffffffffffffffffffffffffffffffffffffffffffffffffffffffffffe0601f86011601613461565b905082815283838301111561353357600080fd5b828260208301376000602084830101529392505050565b6000602080838503121561355d57600080fd5b823567ffffffffffffffff8082111561357557600080fd5b818501915085601f83011261358957600080fd5b813561359c613597826134b0565b613461565b81815260059190911b830184019084810190888311156135bb57600080fd5b8585015b83811015613608578035858111156135d75760008081fd5b8601603f81018b136135e95760008081fd5b6135fa8b89830135604084016134d4565b8452509186019186016135bf565b5098975050505050505050565b6000806040838503121561362857600080fd5b823561363381613319565b9150602083013567ffffffffffffffff81111561364f57600080fd5b8301610160818603121561366257600080fd5b809150509250929050565b60005b83811015613688578181015183820152602001613670565b50506000910152565b600081518084526136a981602086016020860161366d565b601f017fffffffffffffffffffffffffffffffffffffffffffffffffffffffffffffffe0169290920160200192915050565b602081526000612c566020830184613691565b7f4e487b7100000000000000000000000000000000000000000000000000000000600052602160045260246000fd5b6020810160048310613758577f4e487b7100000000000000000000000000000000000000000000000000000000600052602160045260246000fd5b91905290565b60008083601f84011261377057600080fd5b50813567ffffffffffffffff81111561378857600080fd5b6020830191508360208260051b8501011115612c9b57600080fd5b6000806000604084860312156137b857600080fd5b83356137c381613319565b9250602084013567ffffffffffffffff8111156137df57600080fd5b6137eb8682870161375e565b9497909650939450505050565b80151581146121bb57600080fd5b8035613811816137f8565b919050565b60008060008060006080868803121561382e57600080fd5b853561383981613319565b9450602086013567ffffffffffffffff81111561385557600080fd5b6138618882890161375e565b9095509350506040860135613875816137f8565b9150606086013561388581613319565b809150509295509295909350565b7f4e487b7100000000000000000000000000000000000000000000000000000000600052601160045260246000fd5b81810381811115612c3e57612c3e613893565b803561381181613319565b600080600080608085870312156138f657600080fd5b843561390181613319565b935060208581013567ffffffffffffffff81111561391e57600080fd5b8601601f8101881361392f57600080fd5b803561393d613597826134b0565b81815260059190911b8201830190838101908a83111561395c57600080fd5b928401925b8284101561397a57833582529284019290840190613961565b809750505050505061398e60408601613806565b915061399c606086016138d5565b905092959194509250565b600080600080608085870312156139bd57600080fd5b84356139c881613319565b9350602085013567ffffffffffffffff80821682146139e657600080fd5b9093506040860135925060608601359080821115613a0357600080fd5b508501601f81018713613a1557600080fd5b613a24878235602084016134d4565b91505092959194509250565b60007fffffffffffffffffffffffffffffffffffffffff000000000000000000000000808a60601b168352808960601b166014840152506028820187516020808a0160005b83811015613a9157815185529382019390820190600101613a75565b5050505086151560f81b8152613ace600182018760601b7fffffffffffffffffffffffffffffffffffffffff000000000000000000000000169052565b613aff601582018660c01b7fffffffffffffffff000000000000000000000000000000000000000000000000169052565b601d8101939093525050603d019695505050505050565b600181811c90821680613b2a57607f821691505b602082108103613b63577f4e487b7100000000000000000000000000000000000000000000000000000000600052602260045260246000fd5b50919050565b600081835483915060008581526020808220825b84811015613c1757838254613b9181613b16565b60018281168015613ba95760018114613bdd57613c04565b7fffffffffffffffffffffffffffffffffffffffffffffffffffffffffffffff0084168b5282151560051b8b019450613c04565b868952878920895b84811015613bfe5781548d820152908301908901613be5565b8c019550505b5092985050509190910190600101613b7d565b5093979650505050505050565b7f4e487b7100000000000000000000000000000000000000000000000000000000600052601260045260246000fd5b600082613c6257613c62613c24565b500690565b80820180821115612c3e57612c3e613893565b60008083357fffffffffffffffffffffffffffffffffffffffffffffffffffffffffffffffe1843603018112613caf57600080fd5b83018035915067ffffffffffffffff821115613cca57600080fd5b6020019150600581901b3603821315612c9b57600080fd5b7f4e487b7100000000000000000000000000000000000000000000000000000000600052603260045260246000fd5b60007fffffffffffffffffffffffffffffffffffffffffffffffffffffffffffffffff8203613d4257613d42613893565b5060010190565b60008083357fffffffffffffffffffffffffffffffffffffffffffffffffffffffffffffffe1843603018112613d7e57600080fd5b83018035915067ffffffffffffffff821115613d9957600080fd5b602001915036819003821315612c9b57600080fd5b601f8211156115db57600081815260208120601f850160051c81016020861015613dd55750805b601f850160051c820191505b81811015613df457828155600101613de1565b505050505050565b67ffffffffffffffff831115613e1457613e14613432565b613e2883613e228354613b16565b83613dae565b6000601f841160018114613e7a5760008515613e445750838201355b7fffffffffffffffffffffffffffffffffffffffffffffffffffffffffffffffff600387901b1c1916600186901b178355612108565b6000838152602090207fffffffffffffffffffffffffffffffffffffffffffffffffffffffffffffffe0861690835b82811015613ec95786850135825560209485019460019092019101613ea9565b5086821015613f04577fffffffffffffffffffffffffffffffffffffffffffffffffffffffffffffffff60f88860031b161c19848701351681555b505060018560011b0183555050505050565b60008154613f2381613b16565b808552602060018381168015613f405760018114613f7857613fa6565b7fffffffffffffffffffffffffffffffffffffffffffffffffffffffffffffff008516838901528284151560051b8901019550613fa6565b866000528260002060005b85811015613f9e5781548a8201860152908301908401613f83565b890184019650505b505050505092915050565b600061014080830173ffffffffffffffffffffffffffffffffffffffff8e16845260208d818601528c60408601528b60608601528a60808601528260a08601528192508954808352610160860193508a60005281600020925060005b818110156140295783548552938201936001938401930161400d565b505050508660c08401528560e084015282810361010084015261404c8186613f16565b91505061407261012083018473ffffffffffffffffffffffffffffffffffffffff169052565b9b9a5050505050505050505050565b81835260007f07ffffffffffffffffffffffffffffffffffffffffffffffffffffffffffffff8311156140b357600080fd5b8260051b80836020870137939093016020019392505050565b600073ffffffffffffffffffffffffffffffffffffffff8089168352808816602084015260a0604084015261410560a084018789614081565b94151560608401529290921660809091015250949350505050565b600073ffffffffffffffffffffffffffffffffffffffff808816835260806020840152614151608084018789614081565b941515604084015292909216606090910152509392505050565b600060a0820173ffffffffffffffffffffffffffffffffffffffff88168352602060a08185015281885480845260c08601915060c08160051b8701019350896000528260002060005b828110156141ff577fffffffffffffffffffffffffffffffffffffffffffffffffffffffffffffff408887030184526141ed8683613f16565b955092840192600191820191016141b4565b505050505082810360408401526142168187613691565b7fffffffff0000000000000000000000000000000000000000000000000000000086166060850152905082810360808401526142528185613691565b98975050505050505050565b6000817fffffffffffffffffffffffffffffffffffffffffffffffffffffffffffffffff048311821515161561429657614296613893565b500290565b6000826142aa576142aa613c24565b500490565b6080808252855190820181905260009060209060a0840190828901845b828110156142e8578151845292840192908401906001016142cc565b505050908301959095525060408101929092521515606090910152919050565b60006020828403121561431a57600080fd5b8151612c56816137f8565b6000825161433781846020870161366d565b9190910192915050565b815167ffffffffffffffff81111561435b5761435b613432565b61436f816143698454613b16565b84613dae565b602080601f8311600181146143c2576000841561438c5750858301515b7fffffffffffffffffffffffffffffffffffffffffffffffffffffffffffffffff600386901b1c1916600185901b178555613df4565b6000858152602081207fffffffffffffffffffffffffffffffffffffffffffffffffffffffffffffffe08616915b8281101561440f578886015182559484019460019091019084016143f0565b508582101561444b57878501517fffffffffffffffffffffffffffffffffffffffffffffffffffffffffffffffff600388901b60f8161c191681555b5050505050600190811b0190555056fea2646970667358221220b28a7569b561f7ffe734ee35c9638b2ce7cea026c66c036570f2bd534702170a64736f6c63430008100033",
    "linkReferences": {}
  },
  "methodIdentifiers": {
    "abortProject()": "19cc6492",
    "accumulatedRewards()": "9c81ff6b",
    "accumulatedRewardsOf(address)": "27949dab",
    "claimFunds()": "ac307773",
    "claimRewards()": "372500ab",
    "costForWallet(address)": "aab1e47b",
    "crowdtainerState()": "7855d30c",
    "discountForUser(address)": "eb6ced16",
    "enableReferral(address)": "ef39c4ba",
    "expireTime()": "310a1ee3",
    "getPaidAndDeliver()": "0e6137cf",
    "getSigner()": "7ac3c02f",
    "initialize(address,(address,address,uint256,uint256,uint256,uint256,uint256[],uint256,uint256,address,string))": "6f9d99d9",
    "join(address,uint256[])": "a25a7d3b",
    "join(address,uint256[],bool,address)": "edf00638",
    "joinWithSignature(bytes,bytes)": "566a2cc2",
    "leave(address)": "bedf77a6",
    "legalContractURI()": "74b3eceb",
    "numberOfProducts()": "c66301b2",
    "openingTime()": "b7a8807c",
    "owner()": "8da5cb5b",
    "referralEligibilityValue()": "312ee7fa",
    "referralRate()": "a053ce1f",
    "referrerOfReferee(address)": "2748608f",
    "setSigner(address)": "6c19e783",
    "setUrls(string[])": "6cc895a9",
    "shippingAgent()": "cf084056",
    "targetMaximum()": "53b47656",
    "targetMinimum()": "90ffbe90",
    "token()": "fc0c546a",
    "totalValueRaised()": "8831c8dc",
    "unitPricePerType(uint256)": "1e1b2573",
    "urls(uint256)": "796676be",
    "usedNonces(address,bytes32)": "5fda04c7"
  },
  "id": 27
}